{
  "_format": "hh-sol-artifact-1",
  "contractName": "BattleBoard",
  "sourceName": "contracts/modules/BattleBoard.sol",
  "abi": [
    {
      "inputs": [
        {
          "internalType": "address",
          "name": "cronosWarriorsAddr",
          "type": "address"
        },
        {
          "internalType": "address",
          "name": "combatModuleAddr",
          "type": "address"
        },
        {
          "internalType": "address",
          "name": "warriorSkillsAddr",
          "type": "address"
        }
      ],
      "stateMutability": "nonpayable",
      "type": "constructor"
    },
    {
      "anonymous": false,
      "inputs": [
        {
          "indexed": true,
          "internalType": "uint256",
          "name": "attacker",
          "type": "uint256"
        },
        {
          "indexed": true,
          "internalType": "uint256",
          "name": "defender",
          "type": "uint256"
        },
        {
          "indexed": false,
          "internalType": "bool",
          "name": "accepted",
          "type": "bool"
        }
      ],
      "name": "FightRequestResponded",
      "type": "event"
    },
    {
      "anonymous": false,
      "inputs": [
        {
          "indexed": true,
          "internalType": "uint256",
          "name": "attacker",
          "type": "uint256"
        },
        {
          "indexed": true,
          "internalType": "uint256",
          "name": "defender",
          "type": "uint256"
        }
      ],
      "name": "FightRequestWithdrawn",
      "type": "event"
    },
    {
      "anonymous": false,
      "inputs": [
        {
          "indexed": true,
          "internalType": "uint256",
          "name": "attacker",
          "type": "uint256"
        },
        {
          "indexed": true,
          "internalType": "uint256",
          "name": "defender",
          "type": "uint256"
        }
      ],
      "name": "FightRequested",
      "type": "event"
    },
    {
      "inputs": [
        {
          "internalType": "uint256",
          "name": "defender",
          "type": "uint256"
        },
        {
          "internalType": "uint256",
          "name": "attacker",
          "type": "uint256"
        }
      ],
      "name": "acceptBattleRequest",
      "outputs": [],
      "stateMutability": "nonpayable",
      "type": "function"
    },
    {
      "inputs": [
        {
          "internalType": "uint256",
          "name": "attacker",
          "type": "uint256"
        },
        {
          "internalType": "uint256",
          "name": "defender",
          "type": "uint256"
        }
      ],
      "name": "challangeWarrior",
      "outputs": [],
      "stateMutability": "nonpayable",
      "type": "function"
    },
    {
      "inputs": [],
      "name": "combatModule",
      "outputs": [
        {
          "internalType": "contract CombatModule",
          "name": "",
          "type": "address"
        }
      ],
      "stateMutability": "view",
      "type": "function"
    },
    {
      "inputs": [],
      "name": "cronosWarriors",
      "outputs": [
        {
          "internalType": "contract CronosWarriors",
          "name": "",
          "type": "address"
        }
      ],
      "stateMutability": "view",
      "type": "function"
    },
    {
      "inputs": [
        {
          "internalType": "uint256",
          "name": "id",
          "type": "uint256"
        },
        {
          "internalType": "uint256",
          "name": "start",
          "type": "uint256"
        },
        {
          "internalType": "uint8",
          "name": "pageSize",
          "type": "uint8"
        }
      ],
      "name": "defensiveRequestOf",
      "outputs": [
        {
          "internalType": "uint256[]",
          "name": "",
          "type": "uint256[]"
        }
      ],
      "stateMutability": "view",
      "type": "function"
    },
    {
      "inputs": [
        {
          "internalType": "uint256",
          "name": "defender",
          "type": "uint256"
        },
        {
          "internalType": "uint256",
          "name": "attacker",
          "type": "uint256"
        }
      ],
      "name": "denyBattleRequest",
      "outputs": [],
      "stateMutability": "nonpayable",
      "type": "function"
    },
    {
      "inputs": [
        {
          "internalType": "uint256",
          "name": "attacker",
          "type": "uint256"
        },
        {
          "internalType": "uint256",
          "name": "defender",
          "type": "uint256"
        }
      ],
      "name": "doesBattleRequestExist",
      "outputs": [
        {
          "internalType": "bool",
          "name": "",
          "type": "bool"
        }
      ],
      "stateMutability": "view",
      "type": "function"
    },
    {
      "inputs": [
        {
          "internalType": "uint256",
          "name": "attacker",
          "type": "uint256"
        },
        {
          "internalType": "uint256",
          "name": "defender",
          "type": "uint256"
        }
      ],
      "name": "isBattleRequestValid",
      "outputs": [
        {
          "internalType": "bool",
          "name": "",
          "type": "bool"
        }
      ],
      "stateMutability": "view",
      "type": "function"
    },
    {
      "inputs": [
        {
          "internalType": "uint256",
          "name": "id",
          "type": "uint256"
        },
        {
          "internalType": "uint256",
          "name": "start",
          "type": "uint256"
        },
        {
          "internalType": "uint8",
          "name": "pageSize",
          "type": "uint8"
        }
      ],
      "name": "offensiveRequestOf",
      "outputs": [
        {
          "internalType": "uint256[]",
          "name": "",
          "type": "uint256[]"
        }
      ],
      "stateMutability": "view",
      "type": "function"
    },
    {
      "inputs": [],
      "name": "warriorSkills",
      "outputs": [
        {
          "internalType": "contract WarriorSkills",
          "name": "",
          "type": "address"
        }
      ],
      "stateMutability": "view",
      "type": "function"
    },
    {
      "inputs": [
        {
          "internalType": "uint256",
          "name": "attacker",
          "type": "uint256"
        },
        {
          "internalType": "uint256",
          "name": "defender",
          "type": "uint256"
        }
      ],
      "name": "withdrawBattleRequest",
      "outputs": [],
      "stateMutability": "nonpayable",
      "type": "function"
    }
  ],
  "bytecode": "0x60806040523480156200001157600080fd5b50604051620020b0380380620020b0833981810160405281019062000037919062000119565b826000806101000a81548173ffffffffffffffffffffffffffffffffffffffff021916908373ffffffffffffffffffffffffffffffffffffffff16021790555081600160006101000a81548173ffffffffffffffffffffffffffffffffffffffff021916908373ffffffffffffffffffffffffffffffffffffffff16021790555080600260006101000a81548173ffffffffffffffffffffffffffffffffffffffff021916908373ffffffffffffffffffffffffffffffffffffffff160217905550505050620001bd565b6000815190506200011381620001a3565b92915050565b6000806000606084860312156200012f57600080fd5b60006200013f8682870162000102565b9350506020620001528682870162000102565b9250506040620001658682870162000102565b9150509250925092565b60006200017c8262000183565b9050919050565b600073ffffffffffffffffffffffffffffffffffffffff82169050919050565b620001ae816200016f565b8114620001ba57600080fd5b50565b611ee380620001cd6000396000f3fe608060405234801561001057600080fd5b50600436106100a95760003560e01c80639cee4822116100715780639cee482214610178578063a83709ec14610196578063af7d34e3146101b2578063c48b2d68146101e2578063da7805f3146101fe578063f3547b931461021c576100a9565b806325270cc7146100ae57806326733664146100de578063425431591461010e5780636c69e5211461013e5780638dea6a5c1461015c575b600080fd5b6100c860048036038101906100c3919061176b565b610238565b6040516100d5919061195c565b60405180910390f35b6100f860048036038101906100f3919061172f565b61044a565b604051610105919061197e565b60405180910390f35b6101286004803603810190610123919061176b565b61045e565b604051610135919061195c565b60405180910390f35b610146610670565b60405161015391906119b4565b60405180910390f35b6101766004803603810190610171919061172f565b610694565b005b6101806107ba565b60405161018d91906119cf565b60405180910390f35b6101b060048036038101906101ab919061172f565b6107e0565b005b6101cc60048036038101906101c7919061172f565b61097d565b6040516101d9919061197e565b60405180910390f35b6101fc60048036038101906101f7919061172f565b610a68565b005b610206610c11565b6040516102139190611999565b60405180910390f35b6102366004803603810190610231919061172f565b610c37565b005b6060600061025760056000878152602001908152602001600020610eb8565b905060018110156102da57600067ffffffffffffffff8111156102a3577f4e487b7100000000000000000000000000000000000000000000000000000000600052604160045260246000fd5b6040519080825280602002602001820160405280156102d15781602001602082028036833780820191505090505b50915050610443565b6000841415610301576102fe60056000878152602001908152602001600020610ec6565b93505b808360ff16106103115780610316565b8260ff165b905060008167ffffffffffffffff81111561035a577f4e487b7100000000000000000000000000000000000000000000000000000000600052604160045260246000fd5b6040519080825280602002602001820160405280156103885781602001602082028036833780820191505090505b50905060008060005b848160ff16101561043a576103c188600560008c8152602001908152602001600020610ed490919063ffffffff16565b9050809350819450505082156104225787848260ff168151811061040e577f4e487b7100000000000000000000000000000000000000000000000000000000600052603260045260246000fd5b602002602001018181525050819750610427565b61043a565b808061043290611cd9565b915050610391565b50829450505050505b9392505050565b60006104568383610f5e565b905092915050565b6060600061047d60046000878152602001908152602001600020610eb8565b9050600181101561050057600067ffffffffffffffff8111156104c9577f4e487b7100000000000000000000000000000000000000000000000000000000600052604160045260246000fd5b6040519080825280602002602001820160405280156104f75781602001602082028036833780820191505090505b50915050610669565b60008414156105275761052460046000878152602001908152602001600020610ec6565b93505b808360ff1610610537578061053c565b8260ff165b905060008167ffffffffffffffff811115610580577f4e487b7100000000000000000000000000000000000000000000000000000000600052604160045260246000fd5b6040519080825280602002602001820160405280156105ae5781602001602082028036833780820191505090505b50905060008060005b848160ff161015610660576105e788600460008c8152602001908152602001600020610ed490919063ffffffff16565b9050809350819450505082156106485787848260ff1681518110610634577f4e487b7100000000000000000000000000000000000000000000000000000000600052603260045260246000fd5b60200260200101818152505081975061064d565b610660565b808061065890611cd9565b9150506105b7565b50829450505050505b9392505050565b60008054906101000a900473ffffffffffffffffffffffffffffffffffffffff1681565b813373ffffffffffffffffffffffffffffffffffffffff1660008054906101000a900473ffffffffffffffffffffffffffffffffffffffff1673ffffffffffffffffffffffffffffffffffffffff16636352211e836040518263ffffffff1660e01b81526004016107059190611aaa565b60206040518083038186803b15801561071d57600080fd5b505afa158015610731573d6000803e3d6000fd5b505050506040513d601f19601f8201168201806040525081019061075591906116dd565b73ffffffffffffffffffffffffffffffffffffffff16146107ab576040517f08c379a00000000000000000000000000000000000000000000000000000000081526004016107a290611a2a565b60405180910390fd5b6107b58383610f90565b505050565b600260009054906101000a900473ffffffffffffffffffffffffffffffffffffffff1681565b813373ffffffffffffffffffffffffffffffffffffffff1660008054906101000a900473ffffffffffffffffffffffffffffffffffffffff1673ffffffffffffffffffffffffffffffffffffffff16636352211e836040518263ffffffff1660e01b81526004016108519190611aaa565b60206040518083038186803b15801561086957600080fd5b505afa15801561087d573d6000803e3d6000fd5b505050506040513d601f19601f820116820180604052508101906108a191906116dd565b73ffffffffffffffffffffffffffffffffffffffff16146108f7576040517f08c379a00000000000000000000000000000000000000000000000000000000081526004016108ee90611a2a565b60405180910390fd5b6109018383610f5e565b610940576040517f08c379a000000000000000000000000000000000000000000000000000000000815260040161093790611a6a565b60405180910390fd5b61094a838361114e565b81837fea8c25884670625cc5f554f08ed55c93d3f1945a02cdd3b431c46650d9e9d48f60405160405180910390a3505050565b6000600360008481526020019081526020016000206000838152602001908152602001600020546001600260009054906101000a900473ffffffffffffffffffffffffffffffffffffffff1673ffffffffffffffffffffffffffffffffffffffff166350d15fbe856040518263ffffffff1660e01b8152600401610a019190611aaa565b60a06040518083038186803b158015610a1957600080fd5b505afa158015610a2d573d6000803e3d6000fd5b505050506040513d601f19601f82011682018060405250810190610a519190611706565b60000151610a5f9190611b5d565b14905092915050565b813373ffffffffffffffffffffffffffffffffffffffff1660008054906101000a900473ffffffffffffffffffffffffffffffffffffffff1673ffffffffffffffffffffffffffffffffffffffff16636352211e836040518263ffffffff1660e01b8152600401610ad99190611aaa565b60206040518083038186803b158015610af157600080fd5b505afa158015610b05573d6000803e3d6000fd5b505050506040513d601f19601f82011682018060405250810190610b2991906116dd565b73ffffffffffffffffffffffffffffffffffffffff1614610b7f576040517f08c379a0000000000000000000000000000000000000000000000000000000008152600401610b7690611a2a565b60405180910390fd5b610b898284610f5e565b610bc8576040517f08c379a0000000000000000000000000000000000000000000000000000000008152600401610bbf90611a6a565b60405180910390fd5b610bd2828461114e565b82827f1c0310989c407eb75e8dbbabfe00af16c6e750c89f11eac7fc00c20190a721d86000604051610c04919061197e565b60405180910390a3505050565b600160009054906101000a900473ffffffffffffffffffffffffffffffffffffffff1681565b813373ffffffffffffffffffffffffffffffffffffffff1660008054906101000a900473ffffffffffffffffffffffffffffffffffffffff1673ffffffffffffffffffffffffffffffffffffffff16636352211e836040518263ffffffff1660e01b8152600401610ca89190611aaa565b60206040518083038186803b158015610cc057600080fd5b505afa158015610cd4573d6000803e3d6000fd5b505050506040513d601f19601f82011682018060405250810190610cf891906116dd565b73ffffffffffffffffffffffffffffffffffffffff1614610d4e576040517f08c379a0000000000000000000000000000000000000000000000000000000008152600401610d4590611a2a565b60405180910390fd5b610d588284610f5e565b610d97576040517f08c379a0000000000000000000000000000000000000000000000000000000008152600401610d8e906119ea565b60405180910390fd5b610da1828461097d565b610de0576040517f08c379a0000000000000000000000000000000000000000000000000000000008152600401610dd790611a8a565b60405180910390fd5b610dea828461114e565b82827f1c0310989c407eb75e8dbbabfe00af16c6e750c89f11eac7fc00c20190a721d86001604051610e1c919061197e565b60405180910390a3600160009054906101000a900473ffffffffffffffffffffffffffffffffffffffff1673ffffffffffffffffffffffffffffffffffffffff1663ca39e5ef83856040518363ffffffff1660e01b8152600401610e81929190611ac5565b600060405180830381600087803b158015610e9b57600080fd5b505af1158015610eaf573d6000803e3d6000fd5b50505050505050565b600081600001549050919050565b600081600101549050919050565b6000806000610ee3858561120f565b610ef7576000806000925092509250610f57565b60018560030160008681526020019081526020016000206000801515151581526020019081526020016000205486600301600087815260200190815260200160002060006001151515158152602001908152602001600020549250925092505b9250925092565b600080600360008581526020019081526020016000206000848152602001908152602001600020541415905092915050565b80821415610fd3576040517f08c379a0000000000000000000000000000000000000000000000000000000008152600401610fca90611a0a565b60405180910390fd5b610fdd8282610f5e565b15610fed57610fec828261114e565b5b61101281600460008581526020019081526020016000206112ca90919063ffffffff16565b5061103882600560008481526020019081526020016000206112ca90919063ffffffff16565b506001600260009054906101000a900473ffffffffffffffffffffffffffffffffffffffff1673ffffffffffffffffffffffffffffffffffffffff166350d15fbe836040518263ffffffff1660e01b81526004016110969190611aaa565b60a06040518083038186803b1580156110ae57600080fd5b505afa1580156110c2573d6000803e3d6000fd5b505050506040513d601f19601f820116820180604052508101906110e69190611706565b600001516110f49190611b5d565b6003600084815260200190815260200160002060008381526020019081526020016000208190555080827f88c7444ce664ca71b6a734da6b55822c8e4c2b31e45b3f73945818fe331d923160405160405180910390a35050565b6111588282610f5e565b611197576040517f08c379a000000000000000000000000000000000000000000000000000000000815260040161118e90611a4a565b60405180910390fd5b6111bc81600460008581526020019081526020016000206112e090919063ffffffff16565b506111e282600560008481526020019081526020016000206112e090919063ffffffff16565b50600360008381526020019081526020016000206000828152602001908152602001600020600090555050565b60008083600301600084815260200190815260200160002060008015151515815260200190815260200160002054148015611275575060008360030160008481526020019081526020016000206000600115151515815260200190815260200160002054145b156112bf5781836003016000808152602001908152602001600020600060011515151581526020019081526020016000205414156112b657600190506112c4565b600090506112c4565b600190505b92915050565b60006112d88383600161146b565b905092915050565b6000808214806112f757506112f5838361120f565b155b156113055760009050611465565b826001015482141561134657826003016000838152602001908152602001600020600060011515151581526020019081526020016000205483600101819055505b8260020154821415611386578260030160008381526020019081526020016000206000801515151581526020019081526020016000205483600201819055505b6113e8838460030160008581526020019081526020016000206000801515151581526020019081526020016000205485600301600086815260200190815260200160002060006001151515158152602001908152602001600020546001611483565b826003016000838152602001908152602001600020600080151515158152602001908152602001600020600090558260030160008381526020019081526020016000206000600115151515815260200190815260200160002060009055600183600001600082825461145a9190611bb3565b925050819055508190505b92915050565b600061147a84600085856114e8565b90509392505050565b828460030160008481526020019081526020016000206000831515151515815260200190815260200160002081905550818460030160008581526020019081526020016000206000831515151581526020019081526020016000208190555050505050565b60006114f4858461120f565b1580156115075750611506858561120f565b5b156115f457600085600301600086815260200190815260200160002060008415151515815260200190815260200160002054905061154786868686611483565b61155386858386611483565b600086600301600086815260200190815260200160002060006001151515158152602001908152602001600020541415611591578386600201819055505b60008660030160008681526020019081526020016000206000801515151581526020019081526020016000205414156115ce578386600101819055505b60018660000160008282546115e39190611b5d565b9250508190555060019150506115f9565b600090505b949350505050565b60008151905061161081611e68565b92915050565b600060a0828403121561162857600080fd5b61163260a0611aee565b90506000611642848285016116b3565b6000830152506020611656848285016116b3565b602083015250604061166a848285016116b3565b604083015250606061167e848285016116b3565b6060830152506080611692848285016116b3565b60808301525092915050565b6000813590506116ad81611e7f565b92915050565b6000815190506116c281611e7f565b92915050565b6000813590506116d781611e96565b92915050565b6000602082840312156116ef57600080fd5b60006116fd84828501611601565b91505092915050565b600060a0828403121561171857600080fd5b600061172684828501611616565b91505092915050565b6000806040838503121561174257600080fd5b60006117508582860161169e565b92505060206117618582860161169e565b9150509250929050565b60008060006060848603121561178057600080fd5b600061178e8682870161169e565b935050602061179f8682870161169e565b92505060406117b0868287016116c8565b9150509250925092565b60006117c6838361193e565b60208301905092915050565b60006117dd82611b23565b6117e78185611b3b565b93506117f283611b13565b8060005b8381101561182357815161180a88826117ba565b975061181583611b2e565b9250506001810190506117f6565b5085935050505092915050565b61183981611bf9565b82525050565b61184881611c3c565b82525050565b61185781611c60565b82525050565b61186681611c84565b82525050565b6000611879601e83611b4c565b915061188482611d72565b602082019050919050565b600061189c601f83611b4c565b91506118a782611d9b565b602082019050919050565b60006118bf601783611b4c565b91506118ca82611dc4565b602082019050919050565b60006118e2601683611b4c565b91506118ed82611ded565b602082019050919050565b6000611905601a83611b4c565b915061191082611e16565b602082019050919050565b6000611928601f83611b4c565b915061193382611e3f565b602082019050919050565b61194781611c25565b82525050565b61195681611c25565b82525050565b6000602082019050818103600083015261197681846117d2565b905092915050565b60006020820190506119936000830184611830565b92915050565b60006020820190506119ae600083018461183f565b92915050565b60006020820190506119c9600083018461184e565b92915050565b60006020820190506119e4600083018461185d565b92915050565b60006020820190508181036000830152611a038161186c565b9050919050565b60006020820190508181036000830152611a238161188f565b9050919050565b60006020820190508181036000830152611a43816118b2565b9050919050565b60006020820190508181036000830152611a63816118d5565b9050919050565b60006020820190508181036000830152611a83816118f8565b9050919050565b60006020820190508181036000830152611aa38161191b565b9050919050565b6000602082019050611abf600083018461194d565b92915050565b6000604082019050611ada600083018561194d565b611ae7602083018461194d565b9392505050565b6000611af8611b09565b9050611b048282611ca8565b919050565b6000604051905090565b6000819050602082019050919050565b600081519050919050565b6000602082019050919050565b600082825260208201905092915050565b600082825260208201905092915050565b6000611b6882611c25565b9150611b7383611c25565b9250827fffffffffffffffffffffffffffffffffffffffffffffffffffffffffffffffff03821115611ba857611ba7611d03565b5b828201905092915050565b6000611bbe82611c25565b9150611bc983611c25565b925082821015611bdc57611bdb611d03565b5b828203905092915050565b6000611bf282611c05565b9050919050565b60008115159050919050565b600073ffffffffffffffffffffffffffffffffffffffff82169050919050565b6000819050919050565b600060ff82169050919050565b6000611c4782611c4e565b9050919050565b6000611c5982611c05565b9050919050565b6000611c6b82611c72565b9050919050565b6000611c7d82611c05565b9050919050565b6000611c8f82611c96565b9050919050565b6000611ca182611c05565b9050919050565b611cb182611d61565b810181811067ffffffffffffffff82111715611cd057611ccf611d32565b5b80604052505050565b6000611ce482611c2f565b915060ff821415611cf857611cf7611d03565b5b600182019050919050565b7f4e487b7100000000000000000000000000000000000000000000000000000000600052601160045260246000fd5b7f4e487b7100000000000000000000000000000000000000000000000000000000600052604160045260246000fd5b6000601f19601f8301169050919050565b7f5468697320626174746c6520776173206e6f7420726571756573746564210000600082015250565b7f41747461636b65722063616e206e6f742061747461636b20697473656c662100600082015250565b7f4f6e6c79206f776e65722063616e20646f207468697321000000000000000000600082015250565b7f5265717565737420646f6573206e6f7420657869737400000000000000000000600082015250565b7f5468697320626174746c6520646f6573206e6f74206578697374000000000000600082015250565b7f5468697320426174746c65205265717565737420697320696e76616c69642100600082015250565b611e7181611be7565b8114611e7c57600080fd5b50565b611e8881611c25565b8114611e9357600080fd5b50565b611e9f81611c2f565b8114611eaa57600080fd5b5056fea264697066735822122079a59ea791e2155e98cc0f2fc363d564df4ddf26dc1039830e9e68ad016e061364736f6c63430008040033",
  "linkReferences": {},
  "deployedLinkReferences": {}
}