{
  "_format": "hh-sol-artifact-1",
  "contractName": "BattleBoard",
  "sourceName": "contracts/modules/BattleBoard.sol",
  "abi": [
    {
      "inputs": [
        {
          "internalType": "address",
          "name": "cronosWarriorsAddr",
          "type": "address"
        },
        {
          "internalType": "address",
          "name": "combatModuleAddr",
          "type": "address"
        }
      ],
      "stateMutability": "nonpayable",
      "type": "constructor"
    },
    {
      "anonymous": false,
      "inputs": [
        {
          "indexed": false,
          "internalType": "uint256",
          "name": "attacker",
          "type": "uint256"
        },
        {
          "indexed": false,
          "internalType": "uint256",
          "name": "defender",
          "type": "uint256"
        },
        {
          "indexed": false,
          "internalType": "bool",
          "name": "accepted",
          "type": "bool"
        }
      ],
      "name": "FightRequestResponded",
      "type": "event"
    },
    {
      "anonymous": false,
      "inputs": [
        {
          "indexed": false,
          "internalType": "uint256",
          "name": "attacker",
          "type": "uint256"
        },
        {
          "indexed": false,
          "internalType": "uint256",
          "name": "defender",
          "type": "uint256"
        }
      ],
      "name": "FightRequestWithdrawn",
      "type": "event"
    },
    {
      "anonymous": false,
      "inputs": [
        {
          "indexed": false,
          "internalType": "uint256",
          "name": "attacker",
          "type": "uint256"
        },
        {
          "indexed": false,
          "internalType": "uint256",
          "name": "defender",
          "type": "uint256"
        }
      ],
      "name": "FightRequested",
      "type": "event"
    },
    {
      "inputs": [
        {
          "internalType": "uint256",
          "name": "defender",
          "type": "uint256"
        },
        {
          "internalType": "uint256",
          "name": "attacker",
          "type": "uint256"
        }
      ],
      "name": "acceptBattleRequest",
      "outputs": [],
      "stateMutability": "nonpayable",
      "type": "function"
    },
    {
      "inputs": [],
      "name": "battleRequestTimeout",
      "outputs": [
        {
          "internalType": "uint256",
          "name": "",
          "type": "uint256"
        }
      ],
      "stateMutability": "view",
      "type": "function"
    },
    {
      "inputs": [
        {
          "internalType": "uint256",
          "name": "attacker",
          "type": "uint256"
        },
        {
          "internalType": "uint256",
          "name": "defender",
          "type": "uint256"
        }
      ],
      "name": "challangeWarrior",
      "outputs": [],
      "stateMutability": "nonpayable",
      "type": "function"
    },
    {
      "inputs": [],
      "name": "combatModule",
      "outputs": [
        {
          "internalType": "contract CombatModule",
          "name": "",
          "type": "address"
        }
      ],
      "stateMutability": "view",
      "type": "function"
    },
    {
      "inputs": [],
      "name": "cronosWarriors",
      "outputs": [
        {
          "internalType": "contract CronosWarriors",
          "name": "",
          "type": "address"
        }
      ],
      "stateMutability": "view",
      "type": "function"
    },
    {
      "inputs": [
        {
          "internalType": "uint256",
          "name": "id",
          "type": "uint256"
        },
        {
          "internalType": "uint256",
          "name": "start",
          "type": "uint256"
        },
        {
          "internalType": "uint8",
          "name": "pageSize",
          "type": "uint8"
        }
      ],
      "name": "defensiveRequestOf",
      "outputs": [
        {
          "internalType": "uint256[]",
          "name": "",
          "type": "uint256[]"
        }
      ],
      "stateMutability": "view",
      "type": "function"
    },
    {
      "inputs": [
        {
          "internalType": "uint256",
          "name": "defender",
          "type": "uint256"
        },
        {
          "internalType": "uint256",
          "name": "attacker",
          "type": "uint256"
        }
      ],
      "name": "denyBattleRequest",
      "outputs": [],
      "stateMutability": "nonpayable",
      "type": "function"
    },
    {
      "inputs": [
        {
          "internalType": "uint256",
          "name": "attacker",
          "type": "uint256"
        },
        {
          "internalType": "uint256",
          "name": "defender",
          "type": "uint256"
        }
      ],
      "name": "doesBattleRequestExist",
      "outputs": [
        {
          "internalType": "bool",
          "name": "",
          "type": "bool"
        }
      ],
      "stateMutability": "view",
      "type": "function"
    },
    {
      "inputs": [
        {
          "internalType": "uint256",
          "name": "attacker",
          "type": "uint256"
        },
        {
          "internalType": "uint256",
          "name": "defender",
          "type": "uint256"
        }
      ],
      "name": "isBattleRequestTimedOut",
      "outputs": [
        {
          "internalType": "bool",
          "name": "",
          "type": "bool"
        }
      ],
      "stateMutability": "view",
      "type": "function"
    },
    {
      "inputs": [
        {
          "internalType": "uint256",
          "name": "attacker",
          "type": "uint256"
        },
        {
          "internalType": "uint256",
          "name": "defender",
          "type": "uint256"
        }
      ],
      "name": "withdrawBattleRequest",
      "outputs": [],
      "stateMutability": "nonpayable",
      "type": "function"
    }
  ],
  "bytecode": "0x60806040526101f46002553480156200001757600080fd5b5060405162001bae38038062001bae83398181016040528101906200003d9190620000dd565b816000806101000a81548173ffffffffffffffffffffffffffffffffffffffff021916908373ffffffffffffffffffffffffffffffffffffffff16021790555080600160006101000a81548173ffffffffffffffffffffffffffffffffffffffff021916908373ffffffffffffffffffffffffffffffffffffffff16021790555050506200016c565b600081519050620000d78162000152565b92915050565b60008060408385031215620000f157600080fd5b60006200010185828601620000c6565b92505060206200011485828601620000c6565b9150509250929050565b60006200012b8262000132565b9050919050565b600073ffffffffffffffffffffffffffffffffffffffff82169050919050565b6200015d816200011e565b81146200016957600080fd5b50565b611a32806200017c6000396000f3fe608060405234801561001057600080fd5b506004361061009e5760003560e01c8063a83709ec11610066578063a83709ec1461016d578063c48b2d6814610189578063da7805f3146101a5578063e88ccab0146101c3578063f3547b93146101e15761009e565b806325270cc7146100a357806326733664146100d35780636ace092c146101035780636c69e521146101335780638dea6a5c14610151575b600080fd5b6100bd60048036038101906100b8919061134f565b6101fd565b6040516100ca919061161f565b60405180910390f35b6100ed60048036038101906100e89190611313565b61040f565b6040516100fa9190611641565b60405180910390f35b61011d60048036038101906101189190611313565b610423565b60405161012a9190611641565b60405180910390f35b61013b610483565b6040516101489190611677565b60405180910390f35b61016b60048036038101906101669190611313565b6104a7565b005b61018760048036038101906101829190611313565b6105cd565b005b6101a3600480360381019061019e9190611313565b610775565b005b6101ad610920565b6040516101ba919061165c565b60405180910390f35b6101cb610946565b6040516101d89190611772565b60405180910390f35b6101fb60048036038101906101f69190611313565b610950565b005b6060600061021c60056000878152602001908152602001600020610bd4565b9050600181101561029f57600067ffffffffffffffff811115610268577f4e487b7100000000000000000000000000000000000000000000000000000000600052604160045260246000fd5b6040519080825280602002602001820160405280156102965781602001602082028036833780820191505090505b50915050610408565b60008414156102c6576102c360056000878152602001908152602001600020610be2565b93505b808360ff16106102d657806102db565b8260ff165b905060008167ffffffffffffffff81111561031f577f4e487b7100000000000000000000000000000000000000000000000000000000600052604160045260246000fd5b60405190808252806020026020018201604052801561034d5781602001602082028036833780820191505090505b50905060008060005b848160ff1610156103ff5761038688600560008c8152602001908152602001600020610bf090919063ffffffff16565b9050809350819450505082156103e75787848260ff16815181106103d3577f4e487b7100000000000000000000000000000000000000000000000000000000600052603260045260246000fd5b6020026020010181815250508197506103ec565b6103ff565b80806103f79061195e565b915050610356565b50829450505050505b9392505050565b600061041b8383610c7a565b905092915050565b60008060036000858152602001908152602001600020600084815260200190815260200160002054148061047b5750436003600085815260200190815260200160002060008481526020019081526020016000205411155b905092915050565b60008054906101000a900473ffffffffffffffffffffffffffffffffffffffff1681565b813373ffffffffffffffffffffffffffffffffffffffff1660008054906101000a900473ffffffffffffffffffffffffffffffffffffffff1673ffffffffffffffffffffffffffffffffffffffff16636352211e836040518263ffffffff1660e01b81526004016105189190611772565b60206040518083038186803b15801561053057600080fd5b505afa158015610544573d6000803e3d6000fd5b505050506040513d601f19601f8201168201806040525081019061056891906112ea565b73ffffffffffffffffffffffffffffffffffffffff16146105be576040517f08c379a00000000000000000000000000000000000000000000000000000000081526004016105b5906116f2565b60405180910390fd5b6105c88383610cac565b505050565b813373ffffffffffffffffffffffffffffffffffffffff1660008054906101000a900473ffffffffffffffffffffffffffffffffffffffff1673ffffffffffffffffffffffffffffffffffffffff16636352211e836040518263ffffffff1660e01b815260040161063e9190611772565b60206040518083038186803b15801561065657600080fd5b505afa15801561066a573d6000803e3d6000fd5b505050506040513d601f19601f8201168201806040525081019061068e91906112ea565b73ffffffffffffffffffffffffffffffffffffffff16146106e4576040517f08c379a00000000000000000000000000000000000000000000000000000000081526004016106db906116f2565b60405180910390fd5b6106ee8383610c7a565b61072d576040517f08c379a000000000000000000000000000000000000000000000000000000000815260040161072490611752565b60405180910390fd5b6107378383610df8565b7fea8c25884670625cc5f554f08ed55c93d3f1945a02cdd3b431c46650d9e9d48f838360405161076892919061178d565b60405180910390a1505050565b813373ffffffffffffffffffffffffffffffffffffffff1660008054906101000a900473ffffffffffffffffffffffffffffffffffffffff1673ffffffffffffffffffffffffffffffffffffffff16636352211e836040518263ffffffff1660e01b81526004016107e69190611772565b60206040518083038186803b1580156107fe57600080fd5b505afa158015610812573d6000803e3d6000fd5b505050506040513d601f19601f8201168201806040525081019061083691906112ea565b73ffffffffffffffffffffffffffffffffffffffff161461088c576040517f08c379a0000000000000000000000000000000000000000000000000000000008152600401610883906116f2565b60405180910390fd5b6108968284610c7a565b6108d5576040517f08c379a00000000000000000000000000000000000000000000000000000000081526004016108cc90611752565b60405180910390fd5b6108df8284610df8565b7f1c0310989c407eb75e8dbbabfe00af16c6e750c89f11eac7fc00c20190a721d882846000604051610913939291906117b6565b60405180910390a1505050565b600160009054906101000a900473ffffffffffffffffffffffffffffffffffffffff1681565b6000600254905090565b813373ffffffffffffffffffffffffffffffffffffffff1660008054906101000a900473ffffffffffffffffffffffffffffffffffffffff1673ffffffffffffffffffffffffffffffffffffffff16636352211e836040518263ffffffff1660e01b81526004016109c19190611772565b60206040518083038186803b1580156109d957600080fd5b505afa1580156109ed573d6000803e3d6000fd5b505050506040513d601f19601f82011682018060405250810190610a1191906112ea565b73ffffffffffffffffffffffffffffffffffffffff1614610a67576040517f08c379a0000000000000000000000000000000000000000000000000000000008152600401610a5e906116f2565b60405180910390fd5b610a718284610c7a565b610ab0576040517f08c379a0000000000000000000000000000000000000000000000000000000008152600401610aa790611692565b60405180910390fd5b610aba8284610423565b15610afa576040517f08c379a0000000000000000000000000000000000000000000000000000000008152600401610af1906116d2565b60405180910390fd5b610b048284610df8565b7f1c0310989c407eb75e8dbbabfe00af16c6e750c89f11eac7fc00c20190a721d882846001604051610b38939291906117b6565b60405180910390a1600160009054906101000a900473ffffffffffffffffffffffffffffffffffffffff1673ffffffffffffffffffffffffffffffffffffffff1663ca39e5ef83856040518363ffffffff1660e01b8152600401610b9d92919061178d565b600060405180830381600087803b158015610bb757600080fd5b505af1158015610bcb573d6000803e3d6000fd5b50505050505050565b600081600001549050919050565b600081600101549050919050565b6000806000610bff8585610eb9565b610c13576000806000925092509250610c73565b60018560030160008681526020019081526020016000206000801515151581526020019081526020016000205486600301600087815260200190815260200160002060006001151515158152602001908152602001600020549250925092505b9250925092565b600080600360008581526020019081526020016000206000848152602001908152602001600020541415905092915050565b610cb68282610c7a565b15610cf6576040517f08c379a0000000000000000000000000000000000000000000000000000000008152600401610ced90611712565b60405180910390fd5b80821415610d39576040517f08c379a0000000000000000000000000000000000000000000000000000000008152600401610d30906116b2565b60405180910390fd5b610d5e8160046000858152602001908152602001600020610f7490919063ffffffff16565b50610d848260056000848152602001908152602001600020610f7490919063ffffffff16565b5060025443610d939190611837565b600360008481526020019081526020016000206000838152602001908152602001600020819055507f88c7444ce664ca71b6a734da6b55822c8e4c2b31e45b3f73945818fe331d92318282604051610dec92919061178d565b60405180910390a15050565b610e028282610c7a565b610e41576040517f08c379a0000000000000000000000000000000000000000000000000000000008152600401610e3890611732565b60405180910390fd5b610e668160046000858152602001908152602001600020610f8a90919063ffffffff16565b50610e8c8260056000848152602001908152602001600020610f8a90919063ffffffff16565b50600360008381526020019081526020016000206000828152602001908152602001600020600090555050565b60008083600301600084815260200190815260200160002060008015151515815260200190815260200160002054148015610f1f575060008360030160008481526020019081526020016000206000600115151515815260200190815260200160002054145b15610f69578183600301600080815260200190815260200160002060006001151515158152602001908152602001600020541415610f605760019050610f6e565b60009050610f6e565b600190505b92915050565b6000610f8283836001611115565b905092915050565b600080821480610fa15750610f9f8383610eb9565b155b15610faf576000905061110f565b8260010154821415610ff057826003016000838152602001908152602001600020600060011515151581526020019081526020016000205483600101819055505b8260020154821415611030578260030160008381526020019081526020016000206000801515151581526020019081526020016000205483600201819055505b61109283846003016000858152602001908152602001600020600080151515158152602001908152602001600020548560030160008681526020019081526020016000206000600115151515815260200190815260200160002054600161112d565b8260030160008381526020019081526020016000206000801515151581526020019081526020016000206000905582600301600083815260200190815260200160002060006001151515158152602001908152602001600020600090556001836000016000828254611104919061188d565b925050819055508190505b92915050565b60006111248460008585611192565b90509392505050565b828460030160008481526020019081526020016000206000831515151515815260200190815260200160002081905550818460030160008581526020019081526020016000206000831515151581526020019081526020016000208190555050505050565b600061119e8584610eb9565b1580156111b157506111b08585610eb9565b5b1561129e5760008560030160008681526020019081526020016000206000841515151581526020019081526020016000205490506111f18686868661112d565b6111fd8685838661112d565b60008660030160008681526020019081526020016000206000600115151515815260200190815260200160002054141561123b578386600201819055505b6000866003016000868152602001908152602001600020600080151515158152602001908152602001600020541415611278578386600101819055505b600186600001600082825461128d9190611837565b9250508190555060019150506112a3565b600090505b949350505050565b6000815190506112ba816119b7565b92915050565b6000813590506112cf816119ce565b92915050565b6000813590506112e4816119e5565b92915050565b6000602082840312156112fc57600080fd5b600061130a848285016112ab565b91505092915050565b6000806040838503121561132657600080fd5b6000611334858286016112c0565b9250506020611345858286016112c0565b9150509250929050565b60008060006060848603121561136457600080fd5b6000611372868287016112c0565b9350506020611383868287016112c0565b9250506040611394868287016112d5565b9150509250925092565b60006113aa8383611601565b60208301905092915050565b60006113c1826117fd565b6113cb8185611815565b93506113d6836117ed565b8060005b838110156114075781516113ee888261139e565b97506113f983611808565b9250506001810190506113da565b5085935050505092915050565b61141d816118d3565b82525050565b61142c81611916565b82525050565b61143b8161193a565b82525050565b600061144e601e83611826565b91507f5468697320626174746c6520776173206e6f74207265717565737465642100006000830152602082019050919050565b600061148e601f83611826565b91507f41747461636b65722063616e206e6f742061747461636b20697473656c6621006000830152602082019050919050565b60006114ce601683611826565b91507f5468697320726571756573742074696d6564206f7574000000000000000000006000830152602082019050919050565b600061150e601783611826565b91507f4f6e6c79206f776e65722063616e20646f2074686973210000000000000000006000830152602082019050919050565b600061154e601783611826565b91507f5265717565737420616c726561647920657869737473210000000000000000006000830152602082019050919050565b600061158e601683611826565b91507f5265717565737420646f6573206e6f74206578697374000000000000000000006000830152602082019050919050565b60006115ce601a83611826565b91507f5468697320626174746c6520646f6573206e6f742065786973740000000000006000830152602082019050919050565b61160a816118ff565b82525050565b611619816118ff565b82525050565b6000602082019050818103600083015261163981846113b6565b905092915050565b60006020820190506116566000830184611414565b92915050565b60006020820190506116716000830184611423565b92915050565b600060208201905061168c6000830184611432565b92915050565b600060208201905081810360008301526116ab81611441565b9050919050565b600060208201905081810360008301526116cb81611481565b9050919050565b600060208201905081810360008301526116eb816114c1565b9050919050565b6000602082019050818103600083015261170b81611501565b9050919050565b6000602082019050818103600083015261172b81611541565b9050919050565b6000602082019050818103600083015261174b81611581565b9050919050565b6000602082019050818103600083015261176b816115c1565b9050919050565b60006020820190506117876000830184611610565b92915050565b60006040820190506117a26000830185611610565b6117af6020830184611610565b9392505050565b60006060820190506117cb6000830186611610565b6117d86020830185611610565b6117e56040830184611414565b949350505050565b6000819050602082019050919050565b600081519050919050565b6000602082019050919050565b600082825260208201905092915050565b600082825260208201905092915050565b6000611842826118ff565b915061184d836118ff565b9250827fffffffffffffffffffffffffffffffffffffffffffffffffffffffffffffffff0382111561188257611881611988565b5b828201905092915050565b6000611898826118ff565b91506118a3836118ff565b9250828210156118b6576118b5611988565b5b828203905092915050565b60006118cc826118df565b9050919050565b60008115159050919050565b600073ffffffffffffffffffffffffffffffffffffffff82169050919050565b6000819050919050565b600060ff82169050919050565b600061192182611928565b9050919050565b6000611933826118df565b9050919050565b60006119458261194c565b9050919050565b6000611957826118df565b9050919050565b600061196982611909565b915060ff82141561197d5761197c611988565b5b600182019050919050565b7f4e487b7100000000000000000000000000000000000000000000000000000000600052601160045260246000fd5b6119c0816118c1565b81146119cb57600080fd5b50565b6119d7816118ff565b81146119e257600080fd5b50565b6119ee81611909565b81146119f957600080fd5b5056fea264697066735822122081eccc24aa1dfb5e3930e99552a55e9ef253a901cfa1c253b8b6ad7478265c1364736f6c63430008000033",
  "linkReferences": {},
  "deployedLinkReferences": {}
}