{
  "_format": "hh-sol-artifact-1",
  "contractName": "BattleBoard",
  "sourceName": "contracts/modules/BattleBoard.sol",
  "abi": [
    {
      "inputs": [
        {
          "internalType": "address",
          "name": "cronosWarriorsAddr",
          "type": "address"
        },
        {
          "internalType": "address",
          "name": "combatModuleAddr",
          "type": "address"
        }
      ],
      "stateMutability": "nonpayable",
      "type": "constructor"
    },
    {
      "anonymous": false,
      "inputs": [
        {
          "indexed": true,
          "internalType": "uint256",
          "name": "attacker",
          "type": "uint256"
        },
        {
          "indexed": true,
          "internalType": "uint256",
          "name": "defender",
          "type": "uint256"
        },
        {
          "indexed": false,
          "internalType": "bool",
          "name": "accepted",
          "type": "bool"
        }
      ],
      "name": "FightRequestResponded",
      "type": "event"
    },
    {
      "anonymous": false,
      "inputs": [
        {
          "indexed": true,
          "internalType": "uint256",
          "name": "attacker",
          "type": "uint256"
        },
        {
          "indexed": true,
          "internalType": "uint256",
          "name": "defender",
          "type": "uint256"
        }
      ],
      "name": "FightRequestWithdrawn",
      "type": "event"
    },
    {
      "anonymous": false,
      "inputs": [
        {
          "indexed": true,
          "internalType": "uint256",
          "name": "attacker",
          "type": "uint256"
        },
        {
          "indexed": true,
          "internalType": "uint256",
          "name": "defender",
          "type": "uint256"
        }
      ],
      "name": "FightRequested",
      "type": "event"
    },
    {
      "inputs": [
        {
          "internalType": "uint256",
          "name": "defender",
          "type": "uint256"
        },
        {
          "internalType": "uint256",
          "name": "attacker",
          "type": "uint256"
        }
      ],
      "name": "acceptBattleRequest",
      "outputs": [],
      "stateMutability": "nonpayable",
      "type": "function"
    },
    {
      "inputs": [],
      "name": "battleRequestTimeout",
      "outputs": [
        {
          "internalType": "uint256",
          "name": "",
          "type": "uint256"
        }
      ],
      "stateMutability": "view",
      "type": "function"
    },
    {
      "inputs": [
        {
          "internalType": "uint256",
          "name": "attacker",
          "type": "uint256"
        },
        {
          "internalType": "uint256",
          "name": "defender",
          "type": "uint256"
        }
      ],
      "name": "challangeWarrior",
      "outputs": [],
      "stateMutability": "nonpayable",
      "type": "function"
    },
    {
      "inputs": [],
      "name": "combatModule",
      "outputs": [
        {
          "internalType": "contract CombatModule",
          "name": "",
          "type": "address"
        }
      ],
      "stateMutability": "view",
      "type": "function"
    },
    {
      "inputs": [],
      "name": "cronosWarriors",
      "outputs": [
        {
          "internalType": "contract CronosWarriors",
          "name": "",
          "type": "address"
        }
      ],
      "stateMutability": "view",
      "type": "function"
    },
    {
      "inputs": [
        {
          "internalType": "uint256",
          "name": "id",
          "type": "uint256"
        },
        {
          "internalType": "uint256",
          "name": "start",
          "type": "uint256"
        },
        {
          "internalType": "uint8",
          "name": "pageSize",
          "type": "uint8"
        }
      ],
      "name": "defensiveRequestOf",
      "outputs": [
        {
          "internalType": "uint256[]",
          "name": "",
          "type": "uint256[]"
        }
      ],
      "stateMutability": "view",
      "type": "function"
    },
    {
      "inputs": [
        {
          "internalType": "uint256",
          "name": "defender",
          "type": "uint256"
        },
        {
          "internalType": "uint256",
          "name": "attacker",
          "type": "uint256"
        }
      ],
      "name": "denyBattleRequest",
      "outputs": [],
      "stateMutability": "nonpayable",
      "type": "function"
    },
    {
      "inputs": [
        {
          "internalType": "uint256",
          "name": "attacker",
          "type": "uint256"
        },
        {
          "internalType": "uint256",
          "name": "defender",
          "type": "uint256"
        }
      ],
      "name": "doesBattleRequestExist",
      "outputs": [
        {
          "internalType": "bool",
          "name": "",
          "type": "bool"
        }
      ],
      "stateMutability": "view",
      "type": "function"
    },
    {
      "inputs": [
        {
          "internalType": "uint256",
          "name": "attacker",
          "type": "uint256"
        },
        {
          "internalType": "uint256",
          "name": "defender",
          "type": "uint256"
        }
      ],
      "name": "isBattleRequestTimedOut",
      "outputs": [
        {
          "internalType": "bool",
          "name": "",
          "type": "bool"
        }
      ],
      "stateMutability": "view",
      "type": "function"
    },
    {
      "inputs": [
        {
          "internalType": "uint256",
          "name": "attacker",
          "type": "uint256"
        },
        {
          "internalType": "uint256",
          "name": "defender",
          "type": "uint256"
        }
      ],
      "name": "withdrawBattleRequest",
      "outputs": [],
      "stateMutability": "nonpayable",
      "type": "function"
    }
  ],
  "bytecode": "0x60806040526101f46002553480156200001757600080fd5b5060405162001b5d38038062001b5d83398181016040528101906200003d9190620000dd565b816000806101000a81548173ffffffffffffffffffffffffffffffffffffffff021916908373ffffffffffffffffffffffffffffffffffffffff16021790555080600160006101000a81548173ffffffffffffffffffffffffffffffffffffffff021916908373ffffffffffffffffffffffffffffffffffffffff16021790555050506200016c565b600081519050620000d78162000152565b92915050565b60008060408385031215620000f157600080fd5b60006200010185828601620000c6565b92505060206200011485828601620000c6565b9150509250929050565b60006200012b8262000132565b9050919050565b600073ffffffffffffffffffffffffffffffffffffffff82169050919050565b6200015d816200011e565b81146200016957600080fd5b50565b6119e1806200017c6000396000f3fe608060405234801561001057600080fd5b506004361061009e5760003560e01c8063a83709ec11610066578063a83709ec1461016d578063c48b2d6814610189578063da7805f3146101a5578063e88ccab0146101c3578063f3547b93146101e15761009e565b806325270cc7146100a357806326733664146100d35780636ace092c146101035780636c69e521146101335780638dea6a5c14610151575b600080fd5b6100bd60048036038101906100b89190611335565b6101fd565b6040516100ca9190611605565b60405180910390f35b6100ed60048036038101906100e891906112f9565b61040f565b6040516100fa9190611627565b60405180910390f35b61011d600480360381019061011891906112f9565b610423565b60405161012a9190611627565b60405180910390f35b61013b610483565b604051610148919061165d565b60405180910390f35b61016b600480360381019061016691906112f9565b6104a7565b005b610187600480360381019061018291906112f9565b6105cd565b005b6101a3600480360381019061019e91906112f9565b61076a565b005b6101ad610913565b6040516101ba9190611642565b60405180910390f35b6101cb610939565b6040516101d89190611758565b60405180910390f35b6101fb60048036038101906101f691906112f9565b610943565b005b6060600061021c60056000878152602001908152602001600020610bc5565b9050600181101561029f57600067ffffffffffffffff811115610268577f4e487b7100000000000000000000000000000000000000000000000000000000600052604160045260246000fd5b6040519080825280602002602001820160405280156102965781602001602082028036833780820191505090505b50915050610408565b60008414156102c6576102c360056000878152602001908152602001600020610bd3565b93505b808360ff16106102d657806102db565b8260ff165b905060008167ffffffffffffffff81111561031f577f4e487b7100000000000000000000000000000000000000000000000000000000600052604160045260246000fd5b60405190808252806020026020018201604052801561034d5781602001602082028036833780820191505090505b50905060008060005b848160ff1610156103ff5761038688600560008c8152602001908152602001600020610be190919063ffffffff16565b9050809350819450505082156103e75787848260ff16815181106103d3577f4e487b7100000000000000000000000000000000000000000000000000000000600052603260045260246000fd5b6020026020010181815250508197506103ec565b6103ff565b80806103f79061190d565b915050610356565b50829450505050505b9392505050565b600061041b8383610c6b565b905092915050565b60008060036000858152602001908152602001600020600084815260200190815260200160002054148061047b5750436003600085815260200190815260200160002060008481526020019081526020016000205411155b905092915050565b60008054906101000a900473ffffffffffffffffffffffffffffffffffffffff1681565b813373ffffffffffffffffffffffffffffffffffffffff1660008054906101000a900473ffffffffffffffffffffffffffffffffffffffff1673ffffffffffffffffffffffffffffffffffffffff16636352211e836040518263ffffffff1660e01b81526004016105189190611758565b60206040518083038186803b15801561053057600080fd5b505afa158015610544573d6000803e3d6000fd5b505050506040513d601f19601f8201168201806040525081019061056891906112d0565b73ffffffffffffffffffffffffffffffffffffffff16146105be576040517f08c379a00000000000000000000000000000000000000000000000000000000081526004016105b5906116d8565b60405180910390fd5b6105c88383610c9d565b505050565b813373ffffffffffffffffffffffffffffffffffffffff1660008054906101000a900473ffffffffffffffffffffffffffffffffffffffff1673ffffffffffffffffffffffffffffffffffffffff16636352211e836040518263ffffffff1660e01b815260040161063e9190611758565b60206040518083038186803b15801561065657600080fd5b505afa15801561066a573d6000803e3d6000fd5b505050506040513d601f19601f8201168201806040525081019061068e91906112d0565b73ffffffffffffffffffffffffffffffffffffffff16146106e4576040517f08c379a00000000000000000000000000000000000000000000000000000000081526004016106db906116d8565b60405180910390fd5b6106ee8383610c6b565b61072d576040517f08c379a000000000000000000000000000000000000000000000000000000000815260040161072490611738565b60405180910390fd5b6107378383610dde565b81837fea8c25884670625cc5f554f08ed55c93d3f1945a02cdd3b431c46650d9e9d48f60405160405180910390a3505050565b813373ffffffffffffffffffffffffffffffffffffffff1660008054906101000a900473ffffffffffffffffffffffffffffffffffffffff1673ffffffffffffffffffffffffffffffffffffffff16636352211e836040518263ffffffff1660e01b81526004016107db9190611758565b60206040518083038186803b1580156107f357600080fd5b505afa158015610807573d6000803e3d6000fd5b505050506040513d601f19601f8201168201806040525081019061082b91906112d0565b73ffffffffffffffffffffffffffffffffffffffff1614610881576040517f08c379a0000000000000000000000000000000000000000000000000000000008152600401610878906116d8565b60405180910390fd5b61088b8284610c6b565b6108ca576040517f08c379a00000000000000000000000000000000000000000000000000000000081526004016108c190611738565b60405180910390fd5b6108d48284610dde565b82827f1c0310989c407eb75e8dbbabfe00af16c6e750c89f11eac7fc00c20190a721d860006040516109069190611627565b60405180910390a3505050565b600160009054906101000a900473ffffffffffffffffffffffffffffffffffffffff1681565b6000600254905090565b813373ffffffffffffffffffffffffffffffffffffffff1660008054906101000a900473ffffffffffffffffffffffffffffffffffffffff1673ffffffffffffffffffffffffffffffffffffffff16636352211e836040518263ffffffff1660e01b81526004016109b49190611758565b60206040518083038186803b1580156109cc57600080fd5b505afa1580156109e0573d6000803e3d6000fd5b505050506040513d601f19601f82011682018060405250810190610a0491906112d0565b73ffffffffffffffffffffffffffffffffffffffff1614610a5a576040517f08c379a0000000000000000000000000000000000000000000000000000000008152600401610a51906116d8565b60405180910390fd5b610a648284610c6b565b610aa3576040517f08c379a0000000000000000000000000000000000000000000000000000000008152600401610a9a90611678565b60405180910390fd5b610aad8284610423565b15610aed576040517f08c379a0000000000000000000000000000000000000000000000000000000008152600401610ae4906116b8565b60405180910390fd5b610af78284610dde565b82827f1c0310989c407eb75e8dbbabfe00af16c6e750c89f11eac7fc00c20190a721d86001604051610b299190611627565b60405180910390a3600160009054906101000a900473ffffffffffffffffffffffffffffffffffffffff1673ffffffffffffffffffffffffffffffffffffffff1663ca39e5ef83856040518363ffffffff1660e01b8152600401610b8e929190611773565b600060405180830381600087803b158015610ba857600080fd5b505af1158015610bbc573d6000803e3d6000fd5b50505050505050565b600081600001549050919050565b600081600101549050919050565b6000806000610bf08585610e9f565b610c04576000806000925092509250610c64565b60018560030160008681526020019081526020016000206000801515151581526020019081526020016000205486600301600087815260200190815260200160002060006001151515158152602001908152602001600020549250925092505b9250925092565b600080600360008581526020019081526020016000206000848152602001908152602001600020541415905092915050565b610ca78282610c6b565b15610ce7576040517f08c379a0000000000000000000000000000000000000000000000000000000008152600401610cde906116f8565b60405180910390fd5b80821415610d2a576040517f08c379a0000000000000000000000000000000000000000000000000000000008152600401610d2190611698565b60405180910390fd5b610d4f8160046000858152602001908152602001600020610f5a90919063ffffffff16565b50610d758260056000848152602001908152602001600020610f5a90919063ffffffff16565b5060025443610d8491906117e6565b6003600084815260200190815260200160002060008381526020019081526020016000208190555080827f88c7444ce664ca71b6a734da6b55822c8e4c2b31e45b3f73945818fe331d923160405160405180910390a35050565b610de88282610c6b565b610e27576040517f08c379a0000000000000000000000000000000000000000000000000000000008152600401610e1e90611718565b60405180910390fd5b610e4c8160046000858152602001908152602001600020610f7090919063ffffffff16565b50610e728260056000848152602001908152602001600020610f7090919063ffffffff16565b50600360008381526020019081526020016000206000828152602001908152602001600020600090555050565b60008083600301600084815260200190815260200160002060008015151515815260200190815260200160002054148015610f05575060008360030160008481526020019081526020016000206000600115151515815260200190815260200160002054145b15610f4f578183600301600080815260200190815260200160002060006001151515158152602001908152602001600020541415610f465760019050610f54565b60009050610f54565b600190505b92915050565b6000610f68838360016110fb565b905092915050565b600080821480610f875750610f858383610e9f565b155b15610f9557600090506110f5565b8260010154821415610fd657826003016000838152602001908152602001600020600060011515151581526020019081526020016000205483600101819055505b8260020154821415611016578260030160008381526020019081526020016000206000801515151581526020019081526020016000205483600201819055505b611078838460030160008581526020019081526020016000206000801515151581526020019081526020016000205485600301600086815260200190815260200160002060006001151515158152602001908152602001600020546001611113565b82600301600083815260200190815260200160002060008015151515815260200190815260200160002060009055826003016000838152602001908152602001600020600060011515151581526020019081526020016000206000905560018360000160008282546110ea919061183c565b925050819055508190505b92915050565b600061110a8460008585611178565b90509392505050565b828460030160008481526020019081526020016000206000831515151515815260200190815260200160002081905550818460030160008581526020019081526020016000206000831515151581526020019081526020016000208190555050505050565b60006111848584610e9f565b15801561119757506111968585610e9f565b5b156112845760008560030160008681526020019081526020016000206000841515151581526020019081526020016000205490506111d786868686611113565b6111e386858386611113565b600086600301600086815260200190815260200160002060006001151515158152602001908152602001600020541415611221578386600201819055505b600086600301600086815260200190815260200160002060008015151515815260200190815260200160002054141561125e578386600101819055505b600186600001600082825461127391906117e6565b925050819055506001915050611289565b600090505b949350505050565b6000815190506112a081611966565b92915050565b6000813590506112b58161197d565b92915050565b6000813590506112ca81611994565b92915050565b6000602082840312156112e257600080fd5b60006112f084828501611291565b91505092915050565b6000806040838503121561130c57600080fd5b600061131a858286016112a6565b925050602061132b858286016112a6565b9150509250929050565b60008060006060848603121561134a57600080fd5b6000611358868287016112a6565b9350506020611369868287016112a6565b925050604061137a868287016112bb565b9150509250925092565b600061139083836115e7565b60208301905092915050565b60006113a7826117ac565b6113b181856117c4565b93506113bc8361179c565b8060005b838110156113ed5781516113d48882611384565b97506113df836117b7565b9250506001810190506113c0565b5085935050505092915050565b61140381611882565b82525050565b611412816118c5565b82525050565b611421816118e9565b82525050565b6000611434601e836117d5565b91507f5468697320626174746c6520776173206e6f74207265717565737465642100006000830152602082019050919050565b6000611474601f836117d5565b91507f41747461636b65722063616e206e6f742061747461636b20697473656c6621006000830152602082019050919050565b60006114b46016836117d5565b91507f5468697320726571756573742074696d6564206f7574000000000000000000006000830152602082019050919050565b60006114f46017836117d5565b91507f4f6e6c79206f776e65722063616e20646f2074686973210000000000000000006000830152602082019050919050565b60006115346017836117d5565b91507f5265717565737420616c726561647920657869737473210000000000000000006000830152602082019050919050565b60006115746016836117d5565b91507f5265717565737420646f6573206e6f74206578697374000000000000000000006000830152602082019050919050565b60006115b4601a836117d5565b91507f5468697320626174746c6520646f6573206e6f742065786973740000000000006000830152602082019050919050565b6115f0816118ae565b82525050565b6115ff816118ae565b82525050565b6000602082019050818103600083015261161f818461139c565b905092915050565b600060208201905061163c60008301846113fa565b92915050565b60006020820190506116576000830184611409565b92915050565b60006020820190506116726000830184611418565b92915050565b6000602082019050818103600083015261169181611427565b9050919050565b600060208201905081810360008301526116b181611467565b9050919050565b600060208201905081810360008301526116d1816114a7565b9050919050565b600060208201905081810360008301526116f1816114e7565b9050919050565b6000602082019050818103600083015261171181611527565b9050919050565b6000602082019050818103600083015261173181611567565b9050919050565b60006020820190508181036000830152611751816115a7565b9050919050565b600060208201905061176d60008301846115f6565b92915050565b600060408201905061178860008301856115f6565b61179560208301846115f6565b9392505050565b6000819050602082019050919050565b600081519050919050565b6000602082019050919050565b600082825260208201905092915050565b600082825260208201905092915050565b60006117f1826118ae565b91506117fc836118ae565b9250827fffffffffffffffffffffffffffffffffffffffffffffffffffffffffffffffff0382111561183157611830611937565b5b828201905092915050565b6000611847826118ae565b9150611852836118ae565b92508282101561186557611864611937565b5b828203905092915050565b600061187b8261188e565b9050919050565b60008115159050919050565b600073ffffffffffffffffffffffffffffffffffffffff82169050919050565b6000819050919050565b600060ff82169050919050565b60006118d0826118d7565b9050919050565b60006118e28261188e565b9050919050565b60006118f4826118fb565b9050919050565b60006119068261188e565b9050919050565b6000611918826118b8565b915060ff82141561192c5761192b611937565b5b600182019050919050565b7f4e487b7100000000000000000000000000000000000000000000000000000000600052601160045260246000fd5b61196f81611870565b811461197a57600080fd5b50565b611986816118ae565b811461199157600080fd5b50565b61199d816118b8565b81146119a857600080fd5b5056fea2646970667358221220b0faa7d702de69ec0e36934e701bdde6906e9a5de183297c582121e753c5c2ee64736f6c63430008000033",
  "linkReferences": {},
  "deployedLinkReferences": {}
}