{
  "_format": "hh-sol-artifact-1",
  "contractName": "BattleBoard",
  "sourceName": "contracts/modules/BattleBoard.sol",
  "abi": [
    {
      "inputs": [
        {
          "internalType": "address",
          "name": "cronosWarriorsAddr",
          "type": "address"
        },
        {
          "internalType": "address",
          "name": "combatModuleAddr",
          "type": "address"
        }
      ],
      "stateMutability": "nonpayable",
      "type": "constructor"
    },
    {
      "anonymous": false,
      "inputs": [
        {
          "indexed": true,
          "internalType": "uint256",
          "name": "attacker",
          "type": "uint256"
        },
        {
          "indexed": true,
          "internalType": "uint256",
          "name": "defender",
          "type": "uint256"
        },
        {
          "indexed": false,
          "internalType": "bool",
          "name": "accepted",
          "type": "bool"
        }
      ],
      "name": "FightRequestResponded",
      "type": "event"
    },
    {
      "anonymous": false,
      "inputs": [
        {
          "indexed": true,
          "internalType": "uint256",
          "name": "attacker",
          "type": "uint256"
        },
        {
          "indexed": true,
          "internalType": "uint256",
          "name": "defender",
          "type": "uint256"
        }
      ],
      "name": "FightRequestWithdrawn",
      "type": "event"
    },
    {
      "anonymous": false,
      "inputs": [
        {
          "indexed": true,
          "internalType": "uint256",
          "name": "attacker",
          "type": "uint256"
        },
        {
          "indexed": true,
          "internalType": "uint256",
          "name": "defender",
          "type": "uint256"
        }
      ],
      "name": "FightRequested",
      "type": "event"
    },
    {
      "inputs": [
        {
          "internalType": "uint256",
          "name": "defender",
          "type": "uint256"
        },
        {
          "internalType": "uint256",
          "name": "attacker",
          "type": "uint256"
        }
      ],
      "name": "acceptBattleRequest",
      "outputs": [],
      "stateMutability": "nonpayable",
      "type": "function"
    },
    {
      "inputs": [],
      "name": "battleRequestTimeout",
      "outputs": [
        {
          "internalType": "uint256",
          "name": "",
          "type": "uint256"
        }
      ],
      "stateMutability": "view",
      "type": "function"
    },
    {
      "inputs": [
        {
          "internalType": "uint256",
          "name": "attacker",
          "type": "uint256"
        },
        {
          "internalType": "uint256",
          "name": "defender",
          "type": "uint256"
        }
      ],
      "name": "challengeWarrior",
      "outputs": [],
      "stateMutability": "nonpayable",
      "type": "function"
    },
    {
      "inputs": [],
      "name": "combatModule",
      "outputs": [
        {
          "internalType": "contract CombatModule",
          "name": "",
          "type": "address"
        }
      ],
      "stateMutability": "view",
      "type": "function"
    },
    {
      "inputs": [],
      "name": "cronosWarriors",
      "outputs": [
        {
          "internalType": "contract CronosWarriors",
          "name": "",
          "type": "address"
        }
      ],
      "stateMutability": "view",
      "type": "function"
    },
    {
      "inputs": [
        {
          "internalType": "uint256",
          "name": "id",
          "type": "uint256"
        },
        {
          "internalType": "uint256",
          "name": "start",
          "type": "uint256"
        },
        {
          "internalType": "uint8",
          "name": "pageSize",
          "type": "uint8"
        }
      ],
      "name": "defensiveRequestOf",
      "outputs": [
        {
          "internalType": "uint256[]",
          "name": "",
          "type": "uint256[]"
        }
      ],
      "stateMutability": "view",
      "type": "function"
    },
    {
      "inputs": [
        {
          "internalType": "uint256",
          "name": "defender",
          "type": "uint256"
        },
        {
          "internalType": "uint256",
          "name": "attacker",
          "type": "uint256"
        }
      ],
      "name": "denyBattleRequest",
      "outputs": [],
      "stateMutability": "nonpayable",
      "type": "function"
    },
    {
      "inputs": [
        {
          "internalType": "uint256",
          "name": "attacker",
          "type": "uint256"
        },
        {
          "internalType": "uint256",
          "name": "defender",
          "type": "uint256"
        }
      ],
      "name": "doesBattleRequestExist",
      "outputs": [
        {
          "internalType": "bool",
          "name": "",
          "type": "bool"
        }
      ],
      "stateMutability": "view",
      "type": "function"
    },
    {
      "inputs": [
        {
          "internalType": "uint256",
          "name": "attacker",
          "type": "uint256"
        },
        {
          "internalType": "uint256",
          "name": "defender",
          "type": "uint256"
        }
      ],
      "name": "isBattleRequestTimedOut",
      "outputs": [
        {
          "internalType": "bool",
          "name": "",
          "type": "bool"
        }
      ],
      "stateMutability": "view",
      "type": "function"
    },
    {
      "inputs": [
        {
          "internalType": "uint256",
          "name": "id",
          "type": "uint256"
        },
        {
          "internalType": "uint256",
          "name": "start",
          "type": "uint256"
        },
        {
          "internalType": "uint8",
          "name": "pageSize",
          "type": "uint8"
        }
      ],
      "name": "offensiveRequestOf",
      "outputs": [
        {
          "internalType": "uint256[]",
          "name": "",
          "type": "uint256[]"
        }
      ],
      "stateMutability": "view",
      "type": "function"
    },
    {
      "inputs": [
        {
          "internalType": "uint256",
          "name": "attacker",
          "type": "uint256"
        },
        {
          "internalType": "uint256",
          "name": "defender",
          "type": "uint256"
        }
      ],
      "name": "withdrawBattleRequest",
      "outputs": [],
      "stateMutability": "nonpayable",
      "type": "function"
    }
  ],
  "bytecode": "0x60806040526101f46002553480156200001757600080fd5b5060405162001dfe38038062001dfe83398181016040528101906200003d9190620000dd565b816000806101000a81548173ffffffffffffffffffffffffffffffffffffffff021916908373ffffffffffffffffffffffffffffffffffffffff16021790555080600160006101000a81548173ffffffffffffffffffffffffffffffffffffffff021916908373ffffffffffffffffffffffffffffffffffffffff16021790555050506200016c565b600081519050620000d78162000152565b92915050565b60008060408385031215620000f157600080fd5b60006200010185828601620000c6565b92505060206200011485828601620000c6565b9150509250929050565b60006200012b8262000132565b9050919050565b600073ffffffffffffffffffffffffffffffffffffffff82169050919050565b6200015d816200011e565b81146200016957600080fd5b50565b611c82806200017c6000396000f3fe608060405234801561001057600080fd5b50600436106100a95760003560e01c80636c69e521116100715780636c69e5211461018a578063a83709ec146101a8578063c48b2d68146101c4578063da7805f3146101e0578063e88ccab0146101fe578063f3547b931461021c576100a9565b806306d47952146100ae57806325270cc7146100ca57806326733664146100fa578063425431591461012a5780636ace092c1461015a575b600080fd5b6100c860048036038101906100c39190611546565b610238565b005b6100e460048036038101906100df9190611582565b61035e565b6040516100f19190611787565b60405180910390f35b610114600480360381019061010f9190611546565b610570565b60405161012191906117a9565b60405180910390f35b610144600480360381019061013f9190611582565b610584565b6040516101519190611787565b60405180910390f35b610174600480360381019061016f9190611546565b610796565b60405161018191906117a9565b60405180910390f35b6101926107f6565b60405161019f91906117df565b60405180910390f35b6101c260048036038101906101bd9190611546565b61081a565b005b6101de60048036038101906101d99190611546565b6109b7565b005b6101e8610b60565b6040516101f591906117c4565b60405180910390f35b610206610b86565b60405161021391906118da565b60405180910390f35b61023660048036038101906102319190611546565b610b90565b005b813373ffffffffffffffffffffffffffffffffffffffff1660008054906101000a900473ffffffffffffffffffffffffffffffffffffffff1673ffffffffffffffffffffffffffffffffffffffff16636352211e836040518263ffffffff1660e01b81526004016102a991906118da565b60206040518083038186803b1580156102c157600080fd5b505afa1580156102d5573d6000803e3d6000fd5b505050506040513d601f19601f820116820180604052508101906102f9919061151d565b73ffffffffffffffffffffffffffffffffffffffff161461034f576040517f08c379a00000000000000000000000000000000000000000000000000000000081526004016103469061185a565b60405180910390fd5b6103598383610e12565b505050565b6060600061037d60056000878152602001908152602001600020610f53565b9050600181101561040057600067ffffffffffffffff8111156103c9577f4e487b7100000000000000000000000000000000000000000000000000000000600052604160045260246000fd5b6040519080825280602002602001820160405280156103f75781602001602082028036833780820191505090505b50915050610569565b60008414156104275761042460056000878152602001908152602001600020610f61565b93505b808360ff1610610437578061043c565b8260ff165b905060008167ffffffffffffffff811115610480577f4e487b7100000000000000000000000000000000000000000000000000000000600052604160045260246000fd5b6040519080825280602002602001820160405280156104ae5781602001602082028036833780820191505090505b50905060008060005b848160ff161015610560576104e788600560008c8152602001908152602001600020610f6f90919063ffffffff16565b9050809350819450505082156105485787848260ff1681518110610534577f4e487b7100000000000000000000000000000000000000000000000000000000600052603260045260246000fd5b60200260200101818152505081975061054d565b610560565b808061055890611a8f565b9150506104b7565b50829450505050505b9392505050565b600061057c8383610ff9565b905092915050565b606060006105a360046000878152602001908152602001600020610f53565b9050600181101561062657600067ffffffffffffffff8111156105ef577f4e487b7100000000000000000000000000000000000000000000000000000000600052604160045260246000fd5b60405190808252806020026020018201604052801561061d5781602001602082028036833780820191505090505b5091505061078f565b600084141561064d5761064a60046000878152602001908152602001600020610f61565b93505b808360ff161061065d5780610662565b8260ff165b905060008167ffffffffffffffff8111156106a6577f4e487b7100000000000000000000000000000000000000000000000000000000600052604160045260246000fd5b6040519080825280602002602001820160405280156106d45781602001602082028036833780820191505090505b50905060008060005b848160ff1610156107865761070d88600460008c8152602001908152602001600020610f6f90919063ffffffff16565b90508093508194505050821561076e5787848260ff168151811061075a577f4e487b7100000000000000000000000000000000000000000000000000000000600052603260045260246000fd5b602002602001018181525050819750610773565b610786565b808061077e90611a8f565b9150506106dd565b50829450505050505b9392505050565b6000806003600085815260200190815260200160002060008481526020019081526020016000205414806107ee5750436003600085815260200190815260200160002060008481526020019081526020016000205411155b905092915050565b60008054906101000a900473ffffffffffffffffffffffffffffffffffffffff1681565b813373ffffffffffffffffffffffffffffffffffffffff1660008054906101000a900473ffffffffffffffffffffffffffffffffffffffff1673ffffffffffffffffffffffffffffffffffffffff16636352211e836040518263ffffffff1660e01b815260040161088b91906118da565b60206040518083038186803b1580156108a357600080fd5b505afa1580156108b7573d6000803e3d6000fd5b505050506040513d601f19601f820116820180604052508101906108db919061151d565b73ffffffffffffffffffffffffffffffffffffffff1614610931576040517f08c379a00000000000000000000000000000000000000000000000000000000081526004016109289061185a565b60405180910390fd5b61093b8383610ff9565b61097a576040517f08c379a0000000000000000000000000000000000000000000000000000000008152600401610971906118ba565b60405180910390fd5b610984838361102b565b81837fea8c25884670625cc5f554f08ed55c93d3f1945a02cdd3b431c46650d9e9d48f60405160405180910390a3505050565b813373ffffffffffffffffffffffffffffffffffffffff1660008054906101000a900473ffffffffffffffffffffffffffffffffffffffff1673ffffffffffffffffffffffffffffffffffffffff16636352211e836040518263ffffffff1660e01b8152600401610a2891906118da565b60206040518083038186803b158015610a4057600080fd5b505afa158015610a54573d6000803e3d6000fd5b505050506040513d601f19601f82011682018060405250810190610a78919061151d565b73ffffffffffffffffffffffffffffffffffffffff1614610ace576040517f08c379a0000000000000000000000000000000000000000000000000000000008152600401610ac59061185a565b60405180910390fd5b610ad88284610ff9565b610b17576040517f08c379a0000000000000000000000000000000000000000000000000000000008152600401610b0e906118ba565b60405180910390fd5b610b21828461102b565b82827f1c0310989c407eb75e8dbbabfe00af16c6e750c89f11eac7fc00c20190a721d86000604051610b5391906117a9565b60405180910390a3505050565b600160009054906101000a900473ffffffffffffffffffffffffffffffffffffffff1681565b6000600254905090565b813373ffffffffffffffffffffffffffffffffffffffff1660008054906101000a900473ffffffffffffffffffffffffffffffffffffffff1673ffffffffffffffffffffffffffffffffffffffff16636352211e836040518263ffffffff1660e01b8152600401610c0191906118da565b60206040518083038186803b158015610c1957600080fd5b505afa158015610c2d573d6000803e3d6000fd5b505050506040513d601f19601f82011682018060405250810190610c51919061151d565b73ffffffffffffffffffffffffffffffffffffffff1614610ca7576040517f08c379a0000000000000000000000000000000000000000000000000000000008152600401610c9e9061185a565b60405180910390fd5b610cb18284610ff9565b610cf0576040517f08c379a0000000000000000000000000000000000000000000000000000000008152600401610ce7906117fa565b60405180910390fd5b610cfa8284610796565b15610d3a576040517f08c379a0000000000000000000000000000000000000000000000000000000008152600401610d319061183a565b60405180910390fd5b610d44828461102b565b82827f1c0310989c407eb75e8dbbabfe00af16c6e750c89f11eac7fc00c20190a721d86001604051610d7691906117a9565b60405180910390a3600160009054906101000a900473ffffffffffffffffffffffffffffffffffffffff1673ffffffffffffffffffffffffffffffffffffffff1663ca39e5ef83856040518363ffffffff1660e01b8152600401610ddb9291906118f5565b600060405180830381600087803b158015610df557600080fd5b505af1158015610e09573d6000803e3d6000fd5b50505050505050565b610e1c8282610ff9565b15610e5c576040517f08c379a0000000000000000000000000000000000000000000000000000000008152600401610e539061187a565b60405180910390fd5b80821415610e9f576040517f08c379a0000000000000000000000000000000000000000000000000000000008152600401610e969061181a565b60405180910390fd5b610ec481600460008581526020019081526020016000206110ec90919063ffffffff16565b50610eea82600560008481526020019081526020016000206110ec90919063ffffffff16565b5060025443610ef99190611968565b6003600084815260200190815260200160002060008381526020019081526020016000208190555080827f88c7444ce664ca71b6a734da6b55822c8e4c2b31e45b3f73945818fe331d923160405160405180910390a35050565b600081600001549050919050565b600081600101549050919050565b6000806000610f7e8585611102565b610f92576000806000925092509250610ff2565b60018560030160008681526020019081526020016000206000801515151581526020019081526020016000205486600301600087815260200190815260200160002060006001151515158152602001908152602001600020549250925092505b9250925092565b600080600360008581526020019081526020016000206000848152602001908152602001600020541415905092915050565b6110358282610ff9565b611074576040517f08c379a000000000000000000000000000000000000000000000000000000000815260040161106b9061189a565b60405180910390fd5b61109981600460008581526020019081526020016000206111bd90919063ffffffff16565b506110bf82600560008481526020019081526020016000206111bd90919063ffffffff16565b50600360008381526020019081526020016000206000828152602001908152602001600020600090555050565b60006110fa83836001611348565b905092915050565b60008083600301600084815260200190815260200160002060008015151515815260200190815260200160002054148015611168575060008360030160008481526020019081526020016000206000600115151515815260200190815260200160002054145b156111b25781836003016000808152602001908152602001600020600060011515151581526020019081526020016000205414156111a957600190506111b7565b600090506111b7565b600190505b92915050565b6000808214806111d457506111d28383611102565b155b156111e25760009050611342565b826001015482141561122357826003016000838152602001908152602001600020600060011515151581526020019081526020016000205483600101819055505b8260020154821415611263578260030160008381526020019081526020016000206000801515151581526020019081526020016000205483600201819055505b6112c5838460030160008581526020019081526020016000206000801515151581526020019081526020016000205485600301600086815260200190815260200160002060006001151515158152602001908152602001600020546001611360565b826003016000838152602001908152602001600020600080151515158152602001908152602001600020600090558260030160008381526020019081526020016000206000600115151515815260200190815260200160002060009055600183600001600082825461133791906119be565b925050819055508190505b92915050565b600061135784600085856113c5565b90509392505050565b828460030160008481526020019081526020016000206000831515151515815260200190815260200160002081905550818460030160008581526020019081526020016000206000831515151581526020019081526020016000208190555050505050565b60006113d18584611102565b1580156113e457506113e38585611102565b5b156114d157600085600301600086815260200190815260200160002060008415151515815260200190815260200160002054905061142486868686611360565b61143086858386611360565b60008660030160008681526020019081526020016000206000600115151515815260200190815260200160002054141561146e578386600201819055505b60008660030160008681526020019081526020016000206000801515151581526020019081526020016000205414156114ab578386600101819055505b60018660000160008282546114c09190611968565b9250508190555060019150506114d6565b600090505b949350505050565b6000815190506114ed81611c07565b92915050565b60008135905061150281611c1e565b92915050565b60008135905061151781611c35565b92915050565b60006020828403121561152f57600080fd5b600061153d848285016114de565b91505092915050565b6000806040838503121561155957600080fd5b6000611567858286016114f3565b9250506020611578858286016114f3565b9150509250929050565b60008060006060848603121561159757600080fd5b60006115a5868287016114f3565b93505060206115b6868287016114f3565b92505060406115c786828701611508565b9150509250925092565b60006115dd8383611769565b60208301905092915050565b60006115f48261192e565b6115fe8185611946565b93506116098361191e565b8060005b8381101561163a57815161162188826115d1565b975061162c83611939565b92505060018101905061160d565b5085935050505092915050565b61165081611a04565b82525050565b61165f81611a47565b82525050565b61166e81611a6b565b82525050565b6000611681601e83611957565b915061168c82611ae8565b602082019050919050565b60006116a4601f83611957565b91506116af82611b11565b602082019050919050565b60006116c7601683611957565b91506116d282611b3a565b602082019050919050565b60006116ea601783611957565b91506116f582611b63565b602082019050919050565b600061170d601783611957565b915061171882611b8c565b602082019050919050565b6000611730601683611957565b915061173b82611bb5565b602082019050919050565b6000611753601a83611957565b915061175e82611bde565b602082019050919050565b61177281611a30565b82525050565b61178181611a30565b82525050565b600060208201905081810360008301526117a181846115e9565b905092915050565b60006020820190506117be6000830184611647565b92915050565b60006020820190506117d96000830184611656565b92915050565b60006020820190506117f46000830184611665565b92915050565b6000602082019050818103600083015261181381611674565b9050919050565b6000602082019050818103600083015261183381611697565b9050919050565b60006020820190508181036000830152611853816116ba565b9050919050565b60006020820190508181036000830152611873816116dd565b9050919050565b6000602082019050818103600083015261189381611700565b9050919050565b600060208201905081810360008301526118b381611723565b9050919050565b600060208201905081810360008301526118d381611746565b9050919050565b60006020820190506118ef6000830184611778565b92915050565b600060408201905061190a6000830185611778565b6119176020830184611778565b9392505050565b6000819050602082019050919050565b600081519050919050565b6000602082019050919050565b600082825260208201905092915050565b600082825260208201905092915050565b600061197382611a30565b915061197e83611a30565b9250827fffffffffffffffffffffffffffffffffffffffffffffffffffffffffffffffff038211156119b3576119b2611ab9565b5b828201905092915050565b60006119c982611a30565b91506119d483611a30565b9250828210156119e7576119e6611ab9565b5b828203905092915050565b60006119fd82611a10565b9050919050565b60008115159050919050565b600073ffffffffffffffffffffffffffffffffffffffff82169050919050565b6000819050919050565b600060ff82169050919050565b6000611a5282611a59565b9050919050565b6000611a6482611a10565b9050919050565b6000611a7682611a7d565b9050919050565b6000611a8882611a10565b9050919050565b6000611a9a82611a3a565b915060ff821415611aae57611aad611ab9565b5b600182019050919050565b7f4e487b7100000000000000000000000000000000000000000000000000000000600052601160045260246000fd5b7f5468697320626174746c6520776173206e6f7420726571756573746564210000600082015250565b7f41747461636b65722063616e206e6f742061747461636b20697473656c662100600082015250565b7f5468697320726571756573742074696d6564206f757400000000000000000000600082015250565b7f4f6e6c79206f776e65722063616e20646f207468697321000000000000000000600082015250565b7f5265717565737420616c72656164792065786973747321000000000000000000600082015250565b7f5265717565737420646f6573206e6f7420657869737400000000000000000000600082015250565b7f5468697320626174746c6520646f6573206e6f74206578697374000000000000600082015250565b611c10816119f2565b8114611c1b57600080fd5b50565b611c2781611a30565b8114611c3257600080fd5b50565b611c3e81611a3a565b8114611c4957600080fd5b5056fea2646970667358221220e6da1acc769ecd16f884277b2e17d85717a77c2c6a13868ea6a3b1fd867b145f64736f6c63430008040033",
  "linkReferences": {},
  "deployedLinkReferences": {}
}