{
  "_format": "hh-sol-artifact-1",
  "contractName": "BattleBoard",
  "sourceName": "contracts/modules/BattleBoard.sol",
  "abi": [
    {
      "inputs": [
        {
          "internalType": "address",
          "name": "cronosWarriorsAddr",
          "type": "address"
        },
        {
          "internalType": "address",
          "name": "combatModuleAddr",
          "type": "address"
        }
      ],
      "stateMutability": "nonpayable",
      "type": "constructor"
    },
    {
      "anonymous": false,
      "inputs": [
        {
          "indexed": false,
          "internalType": "uint256",
          "name": "attacker",
          "type": "uint256"
        },
        {
          "indexed": false,
          "internalType": "uint256",
          "name": "defender",
          "type": "uint256"
        },
        {
          "indexed": false,
          "internalType": "bool",
          "name": "accepted",
          "type": "bool"
        }
      ],
      "name": "FightRequestResponded",
      "type": "event"
    },
    {
      "anonymous": false,
      "inputs": [
        {
          "indexed": false,
          "internalType": "uint256",
          "name": "attacker",
          "type": "uint256"
        },
        {
          "indexed": false,
          "internalType": "uint256",
          "name": "defender",
          "type": "uint256"
        }
      ],
      "name": "FightRequestWithdrawn",
      "type": "event"
    },
    {
      "anonymous": false,
      "inputs": [
        {
          "indexed": false,
          "internalType": "uint256",
          "name": "attacker",
          "type": "uint256"
        },
        {
          "indexed": false,
          "internalType": "uint256",
          "name": "defender",
          "type": "uint256"
        }
      ],
      "name": "FightRequested",
      "type": "event"
    },
    {
      "inputs": [
        {
          "internalType": "uint256",
          "name": "defender",
          "type": "uint256"
        },
        {
          "internalType": "uint256",
          "name": "attacker",
          "type": "uint256"
        }
      ],
      "name": "acceptBattleRequest",
      "outputs": [],
      "stateMutability": "nonpayable",
      "type": "function"
    },
    {
      "inputs": [],
      "name": "battleRequestTimeout",
      "outputs": [
        {
          "internalType": "uint256",
          "name": "",
          "type": "uint256"
        }
      ],
      "stateMutability": "view",
      "type": "function"
    },
    {
      "inputs": [
        {
          "internalType": "uint256",
          "name": "attacker",
          "type": "uint256"
        },
        {
          "internalType": "uint256",
          "name": "defender",
          "type": "uint256"
        }
      ],
      "name": "challangeWarrior",
      "outputs": [],
      "stateMutability": "nonpayable",
      "type": "function"
    },
    {
      "inputs": [],
      "name": "combatModule",
      "outputs": [
        {
          "internalType": "contract CombatModule",
          "name": "",
          "type": "address"
        }
      ],
      "stateMutability": "view",
      "type": "function"
    },
    {
      "inputs": [],
      "name": "cronosWarriors",
      "outputs": [
        {
          "internalType": "contract CronosWarriors",
          "name": "",
          "type": "address"
        }
      ],
      "stateMutability": "view",
      "type": "function"
    },
    {
      "inputs": [
        {
          "internalType": "uint256",
          "name": "defender",
          "type": "uint256"
        },
        {
          "internalType": "uint256",
          "name": "attacker",
          "type": "uint256"
        }
      ],
      "name": "denyBattleRequest",
      "outputs": [],
      "stateMutability": "nonpayable",
      "type": "function"
    },
    {
      "inputs": [
        {
          "internalType": "uint256",
          "name": "attacker",
          "type": "uint256"
        },
        {
          "internalType": "uint256",
          "name": "defender",
          "type": "uint256"
        }
      ],
      "name": "doesBattleRequestExist",
      "outputs": [
        {
          "internalType": "bool",
          "name": "",
          "type": "bool"
        }
      ],
      "stateMutability": "view",
      "type": "function"
    },
    {
      "inputs": [
        {
          "internalType": "uint256",
          "name": "attacker",
          "type": "uint256"
        },
        {
          "internalType": "uint256",
          "name": "defender",
          "type": "uint256"
        }
      ],
      "name": "withdrawBattleRequest",
      "outputs": [],
      "stateMutability": "nonpayable",
      "type": "function"
    }
  ],
  "bytecode": "0x60806040526101f46002553480156200001757600080fd5b50604051620010f0380380620010f083398181016040528101906200003d9190620000dd565b816000806101000a81548173ffffffffffffffffffffffffffffffffffffffff021916908373ffffffffffffffffffffffffffffffffffffffff16021790555080600160006101000a81548173ffffffffffffffffffffffffffffffffffffffff021916908373ffffffffffffffffffffffffffffffffffffffff16021790555050506200016c565b600081519050620000d78162000152565b92915050565b60008060408385031215620000f157600080fd5b60006200010185828601620000c6565b92505060206200011485828601620000c6565b9150509250929050565b60006200012b8262000132565b9050919050565b600073ffffffffffffffffffffffffffffffffffffffff82169050919050565b6200015d816200011e565b81146200016957600080fd5b50565b610f74806200017c6000396000f3fe608060405234801561001057600080fd5b50600436106100885760003560e01c8063c48b2d681161005b578063c48b2d6814610113578063da7805f31461012f578063e88ccab01461014d578063f3547b931461016b57610088565b8063267336641461008d5780636c69e521146100bd5780638dea6a5c146100db578063a83709ec146100f7575b600080fd5b6100a760048036038101906100a29190610ac6565b610187565b6040516100b49190610c7e565b60405180910390f35b6100c561019b565b6040516100d29190610cb4565b60405180910390f35b6100f560048036038101906100f09190610ac6565b6101bf565b005b610111600480360381019061010c9190610ac6565b610328565b005b61012d60048036038101906101289190610ac6565b6104d0565b005b61013761067b565b6040516101449190610c99565b60405180910390f35b6101556106a1565b6040516101629190610d6f565b60405180910390f35b61018560048036038101906101809190610ac6565b6106ab565b005b6000610193838361094b565b905092915050565b60008054906101000a900473ffffffffffffffffffffffffffffffffffffffff1681565b813373ffffffffffffffffffffffffffffffffffffffff1660008054906101000a900473ffffffffffffffffffffffffffffffffffffffff1673ffffffffffffffffffffffffffffffffffffffff16636352211e836040518263ffffffff1660e01b81526004016102309190610d6f565b60206040518083038186803b15801561024857600080fd5b505afa15801561025c573d6000803e3d6000fd5b505050506040513d601f19601f820116820180604052508101906102809190610a9d565b73ffffffffffffffffffffffffffffffffffffffff16146102d6576040517f08c379a00000000000000000000000000000000000000000000000000000000081526004016102cd90610d0f565b60405180910390fd5b81831415610319576040517f08c379a000000000000000000000000000000000000000000000000000000000815260040161031090610cef565b60405180910390fd5b610323838361097d565b505050565b813373ffffffffffffffffffffffffffffffffffffffff1660008054906101000a900473ffffffffffffffffffffffffffffffffffffffff1673ffffffffffffffffffffffffffffffffffffffff16636352211e836040518263ffffffff1660e01b81526004016103999190610d6f565b60206040518083038186803b1580156103b157600080fd5b505afa1580156103c5573d6000803e3d6000fd5b505050506040513d601f19601f820116820180604052508101906103e99190610a9d565b73ffffffffffffffffffffffffffffffffffffffff161461043f576040517f08c379a000000000000000000000000000000000000000000000000000000000815260040161043690610d0f565b60405180910390fd5b610449838361094b565b610488576040517f08c379a000000000000000000000000000000000000000000000000000000000815260040161047f90610d2f565b60405180910390fd5b6104928383610a1f565b7fea8c25884670625cc5f554f08ed55c93d3f1945a02cdd3b431c46650d9e9d48f83836040516104c3929190610d8a565b60405180910390a1505050565b813373ffffffffffffffffffffffffffffffffffffffff1660008054906101000a900473ffffffffffffffffffffffffffffffffffffffff1673ffffffffffffffffffffffffffffffffffffffff16636352211e836040518263ffffffff1660e01b81526004016105419190610d6f565b60206040518083038186803b15801561055957600080fd5b505afa15801561056d573d6000803e3d6000fd5b505050506040513d601f19601f820116820180604052508101906105919190610a9d565b73ffffffffffffffffffffffffffffffffffffffff16146105e7576040517f08c379a00000000000000000000000000000000000000000000000000000000081526004016105de90610d0f565b60405180910390fd5b6105f1828461094b565b610630576040517f08c379a000000000000000000000000000000000000000000000000000000000815260040161062790610d2f565b60405180910390fd5b61063a8284610a1f565b7f1c0310989c407eb75e8dbbabfe00af16c6e750c89f11eac7fc00c20190a721d88284600060405161066e93929190610db3565b60405180910390a1505050565b600160009054906101000a900473ffffffffffffffffffffffffffffffffffffffff1681565b6000600254905090565b813373ffffffffffffffffffffffffffffffffffffffff1660008054906101000a900473ffffffffffffffffffffffffffffffffffffffff1673ffffffffffffffffffffffffffffffffffffffff16636352211e836040518263ffffffff1660e01b815260040161071c9190610d6f565b60206040518083038186803b15801561073457600080fd5b505afa158015610748573d6000803e3d6000fd5b505050506040513d601f19601f8201168201806040525081019061076c9190610a9d565b73ffffffffffffffffffffffffffffffffffffffff16146107c2576040517f08c379a00000000000000000000000000000000000000000000000000000000081526004016107b990610d0f565b60405180910390fd5b6107cc828461094b565b61080b576040517f08c379a000000000000000000000000000000000000000000000000000000000815260040161080290610ccf565b60405180910390fd5b436003600084815260200190815260200160002060008581526020019081526020016000205411610871576040517f08c379a000000000000000000000000000000000000000000000000000000000815260040161086890610d4f565b60405180910390fd5b61087b8284610a1f565b7f1c0310989c407eb75e8dbbabfe00af16c6e750c89f11eac7fc00c20190a721d8828460016040516108af93929190610db3565b60405180910390a1600160009054906101000a900473ffffffffffffffffffffffffffffffffffffffff1673ffffffffffffffffffffffffffffffffffffffff1663ca39e5ef83856040518363ffffffff1660e01b8152600401610914929190610d8a565b600060405180830381600087803b15801561092e57600080fd5b505af1158015610942573d6000803e3d6000fd5b50505050505050565b600080600360008581526020019081526020016000206000848152602001908152602001600020541415905092915050565b60006002544361098d9190610dfb565b9050806003600085815260200190815260200160002060008481526020019081526020016000208190555080600460008481526020019081526020016000206000858152602001908152602001600020819055507f88c7444ce664ca71b6a734da6b55822c8e4c2b31e45b3f73945818fe331d92318383604051610a12929190610d8a565b60405180910390a1505050565b60036000838152602001908152602001600020600082815260200190815260200160002060009055600460008281526020019081526020016000206000838152602001908152602001600020600090555050565b600081519050610a8281610f10565b92915050565b600081359050610a9781610f27565b92915050565b600060208284031215610aaf57600080fd5b6000610abd84828501610a73565b91505092915050565b60008060408385031215610ad957600080fd5b6000610ae785828601610a88565b9250506020610af885828601610a88565b9150509250929050565b610b0b81610e63565b82525050565b610b1a81610e99565b82525050565b610b2981610ebd565b82525050565b6000610b3c601e83610dea565b91507f5468697320626174746c6520776173206e6f74207265717565737465642100006000830152602082019050919050565b6000610b7c601f83610dea565b91507f41747461636b65722063616e206e6f742061747461636b20697473656c6621006000830152602082019050919050565b6000610bbc601783610dea565b91507f4f6e6c79206f776e65722063616e20646f2074686973210000000000000000006000830152602082019050919050565b6000610bfc601a83610dea565b91507f5468697320626174746c6520646f6573206e6f742065786973740000000000006000830152602082019050919050565b6000610c3c601883610dea565b91507f426174746c6520726571756573742074696d6564206f757400000000000000006000830152602082019050919050565b610c7881610e8f565b82525050565b6000602082019050610c936000830184610b02565b92915050565b6000602082019050610cae6000830184610b11565b92915050565b6000602082019050610cc96000830184610b20565b92915050565b60006020820190508181036000830152610ce881610b2f565b9050919050565b60006020820190508181036000830152610d0881610b6f565b9050919050565b60006020820190508181036000830152610d2881610baf565b9050919050565b60006020820190508181036000830152610d4881610bef565b9050919050565b60006020820190508181036000830152610d6881610c2f565b9050919050565b6000602082019050610d846000830184610c6f565b92915050565b6000604082019050610d9f6000830185610c6f565b610dac6020830184610c6f565b9392505050565b6000606082019050610dc86000830186610c6f565b610dd56020830185610c6f565b610de26040830184610b02565b949350505050565b600082825260208201905092915050565b6000610e0682610e8f565b9150610e1183610e8f565b9250827fffffffffffffffffffffffffffffffffffffffffffffffffffffffffffffffff03821115610e4657610e45610ee1565b5b828201905092915050565b6000610e5c82610e6f565b9050919050565b60008115159050919050565b600073ffffffffffffffffffffffffffffffffffffffff82169050919050565b6000819050919050565b6000610ea482610eab565b9050919050565b6000610eb682610e6f565b9050919050565b6000610ec882610ecf565b9050919050565b6000610eda82610e6f565b9050919050565b7f4e487b7100000000000000000000000000000000000000000000000000000000600052601160045260246000fd5b610f1981610e51565b8114610f2457600080fd5b50565b610f3081610e8f565b8114610f3b57600080fd5b5056fea26469706673582212206511122d15d811329f0b2d5e11232b8bfc1e50cbfa12f8c9051ca311f6fc197164736f6c63430008000033",
  "linkReferences": {},
  "deployedLinkReferences": {}
}