{
  "_format": "hh-sol-artifact-1",
  "contractName": "BattleBoard",
  "sourceName": "contracts/modules/BattleBoard.sol",
  "abi": [
    {
      "inputs": [
        {
          "internalType": "address",
          "name": "cronosWarriorsAddr",
          "type": "address"
        },
        {
          "internalType": "address",
          "name": "combatModuleAddr",
          "type": "address"
        }
      ],
      "stateMutability": "nonpayable",
      "type": "constructor"
    },
    {
      "anonymous": false,
      "inputs": [
        {
          "indexed": true,
          "internalType": "uint256",
          "name": "attacker",
          "type": "uint256"
        },
        {
          "indexed": true,
          "internalType": "uint256",
          "name": "defender",
          "type": "uint256"
        },
        {
          "indexed": false,
          "internalType": "bool",
          "name": "accepted",
          "type": "bool"
        }
      ],
      "name": "FightRequestResponded",
      "type": "event"
    },
    {
      "anonymous": false,
      "inputs": [
        {
          "indexed": true,
          "internalType": "uint256",
          "name": "attacker",
          "type": "uint256"
        },
        {
          "indexed": true,
          "internalType": "uint256",
          "name": "defender",
          "type": "uint256"
        }
      ],
      "name": "FightRequestWithdrawn",
      "type": "event"
    },
    {
      "anonymous": false,
      "inputs": [
        {
          "indexed": true,
          "internalType": "uint256",
          "name": "attacker",
          "type": "uint256"
        },
        {
          "indexed": true,
          "internalType": "uint256",
          "name": "defender",
          "type": "uint256"
        }
      ],
      "name": "FightRequested",
      "type": "event"
    },
    {
      "inputs": [
        {
          "internalType": "uint256",
          "name": "defender",
          "type": "uint256"
        },
        {
          "internalType": "uint256",
          "name": "attacker",
          "type": "uint256"
        }
      ],
      "name": "acceptBattleRequest",
      "outputs": [],
      "stateMutability": "nonpayable",
      "type": "function"
    },
    {
      "inputs": [],
      "name": "battleRequestTimeout",
      "outputs": [
        {
          "internalType": "uint256",
          "name": "",
          "type": "uint256"
        }
      ],
      "stateMutability": "view",
      "type": "function"
    },
    {
      "inputs": [
        {
          "internalType": "uint256",
          "name": "attacker",
          "type": "uint256"
        },
        {
          "internalType": "uint256",
          "name": "defender",
          "type": "uint256"
        }
      ],
      "name": "challangeWarrior",
      "outputs": [],
      "stateMutability": "nonpayable",
      "type": "function"
    },
    {
      "inputs": [],
      "name": "combatModule",
      "outputs": [
        {
          "internalType": "contract CombatModule",
          "name": "",
          "type": "address"
        }
      ],
      "stateMutability": "view",
      "type": "function"
    },
    {
      "inputs": [],
      "name": "cronosWarriors",
      "outputs": [
        {
          "internalType": "contract CronosWarriors",
          "name": "",
          "type": "address"
        }
      ],
      "stateMutability": "view",
      "type": "function"
    },
    {
      "inputs": [
        {
          "internalType": "uint256",
          "name": "id",
          "type": "uint256"
        },
        {
          "internalType": "uint256",
          "name": "start",
          "type": "uint256"
        },
        {
          "internalType": "uint8",
          "name": "pageSize",
          "type": "uint8"
        }
      ],
      "name": "defensiveRequestOf",
      "outputs": [
        {
          "internalType": "uint256[]",
          "name": "",
          "type": "uint256[]"
        }
      ],
      "stateMutability": "view",
      "type": "function"
    },
    {
      "inputs": [
        {
          "internalType": "uint256",
          "name": "defender",
          "type": "uint256"
        },
        {
          "internalType": "uint256",
          "name": "attacker",
          "type": "uint256"
        }
      ],
      "name": "denyBattleRequest",
      "outputs": [],
      "stateMutability": "nonpayable",
      "type": "function"
    },
    {
      "inputs": [
        {
          "internalType": "uint256",
          "name": "attacker",
          "type": "uint256"
        },
        {
          "internalType": "uint256",
          "name": "defender",
          "type": "uint256"
        }
      ],
      "name": "doesBattleRequestExist",
      "outputs": [
        {
          "internalType": "bool",
          "name": "",
          "type": "bool"
        }
      ],
      "stateMutability": "view",
      "type": "function"
    },
    {
      "inputs": [
        {
          "internalType": "uint256",
          "name": "attacker",
          "type": "uint256"
        },
        {
          "internalType": "uint256",
          "name": "defender",
          "type": "uint256"
        }
      ],
      "name": "isBattleRequestTimedOut",
      "outputs": [
        {
          "internalType": "bool",
          "name": "",
          "type": "bool"
        }
      ],
      "stateMutability": "view",
      "type": "function"
    },
    {
      "inputs": [
        {
          "internalType": "uint256",
          "name": "id",
          "type": "uint256"
        },
        {
          "internalType": "uint256",
          "name": "start",
          "type": "uint256"
        },
        {
          "internalType": "uint8",
          "name": "pageSize",
          "type": "uint8"
        }
      ],
      "name": "offensiveRequestOf",
      "outputs": [
        {
          "internalType": "uint256[]",
          "name": "",
          "type": "uint256[]"
        }
      ],
      "stateMutability": "view",
      "type": "function"
    },
    {
      "inputs": [
        {
          "internalType": "uint256",
          "name": "attacker",
          "type": "uint256"
        },
        {
          "internalType": "uint256",
          "name": "defender",
          "type": "uint256"
        }
      ],
      "name": "withdrawBattleRequest",
      "outputs": [],
      "stateMutability": "nonpayable",
      "type": "function"
    }
  ],
  "bytecode": "0x60806040526101f46002553480156200001757600080fd5b5060405162001daa38038062001daa83398181016040528101906200003d9190620000dd565b816000806101000a81548173ffffffffffffffffffffffffffffffffffffffff021916908373ffffffffffffffffffffffffffffffffffffffff16021790555080600160006101000a81548173ffffffffffffffffffffffffffffffffffffffff021916908373ffffffffffffffffffffffffffffffffffffffff16021790555050506200016c565b600081519050620000d78162000152565b92915050565b60008060408385031215620000f157600080fd5b60006200010185828601620000c6565b92505060206200011485828601620000c6565b9150509250929050565b60006200012b8262000132565b9050919050565b600073ffffffffffffffffffffffffffffffffffffffff82169050919050565b6200015d816200011e565b81146200016957600080fd5b50565b611c2e806200017c6000396000f3fe608060405234801561001057600080fd5b50600436106100a95760003560e01c80638dea6a5c116100715780638dea6a5c1461018c578063a83709ec146101a8578063c48b2d68146101c4578063da7805f3146101e0578063e88ccab0146101fe578063f3547b931461021c576100a9565b806325270cc7146100ae57806326733664146100de578063425431591461010e5780636ace092c1461013e5780636c69e5211461016e575b600080fd5b6100c860048036038101906100c39190611582565b610238565b6040516100d59190611852565b60405180910390f35b6100f860048036038101906100f39190611546565b61044a565b6040516101059190611874565b60405180910390f35b61012860048036038101906101239190611582565b61045e565b6040516101359190611852565b60405180910390f35b61015860048036038101906101539190611546565b610670565b6040516101659190611874565b60405180910390f35b6101766106d0565b60405161018391906118aa565b60405180910390f35b6101a660048036038101906101a19190611546565b6106f4565b005b6101c260048036038101906101bd9190611546565b61081a565b005b6101de60048036038101906101d99190611546565b6109b7565b005b6101e8610b60565b6040516101f5919061188f565b60405180910390f35b610206610b86565b60405161021391906119a5565b60405180910390f35b61023660048036038101906102319190611546565b610b90565b005b6060600061025760056000878152602001908152602001600020610e12565b905060018110156102da57600067ffffffffffffffff8111156102a3577f4e487b7100000000000000000000000000000000000000000000000000000000600052604160045260246000fd5b6040519080825280602002602001820160405280156102d15781602001602082028036833780820191505090505b50915050610443565b6000841415610301576102fe60056000878152602001908152602001600020610e20565b93505b808360ff16106103115780610316565b8260ff165b905060008167ffffffffffffffff81111561035a577f4e487b7100000000000000000000000000000000000000000000000000000000600052604160045260246000fd5b6040519080825280602002602001820160405280156103885781602001602082028036833780820191505090505b50905060008060005b848160ff16101561043a576103c188600560008c8152602001908152602001600020610e2e90919063ffffffff16565b9050809350819450505082156104225787848260ff168151811061040e577f4e487b7100000000000000000000000000000000000000000000000000000000600052603260045260246000fd5b602002602001018181525050819750610427565b61043a565b808061043290611b5a565b915050610391565b50829450505050505b9392505050565b60006104568383610eb8565b905092915050565b6060600061047d60046000878152602001908152602001600020610e12565b9050600181101561050057600067ffffffffffffffff8111156104c9577f4e487b7100000000000000000000000000000000000000000000000000000000600052604160045260246000fd5b6040519080825280602002602001820160405280156104f75781602001602082028036833780820191505090505b50915050610669565b60008414156105275761052460046000878152602001908152602001600020610e20565b93505b808360ff1610610537578061053c565b8260ff165b905060008167ffffffffffffffff811115610580577f4e487b7100000000000000000000000000000000000000000000000000000000600052604160045260246000fd5b6040519080825280602002602001820160405280156105ae5781602001602082028036833780820191505090505b50905060008060005b848160ff161015610660576105e788600460008c8152602001908152602001600020610e2e90919063ffffffff16565b9050809350819450505082156106485787848260ff1681518110610634577f4e487b7100000000000000000000000000000000000000000000000000000000600052603260045260246000fd5b60200260200101818152505081975061064d565b610660565b808061065890611b5a565b9150506105b7565b50829450505050505b9392505050565b6000806003600085815260200190815260200160002060008481526020019081526020016000205414806106c85750436003600085815260200190815260200160002060008481526020019081526020016000205411155b905092915050565b60008054906101000a900473ffffffffffffffffffffffffffffffffffffffff1681565b813373ffffffffffffffffffffffffffffffffffffffff1660008054906101000a900473ffffffffffffffffffffffffffffffffffffffff1673ffffffffffffffffffffffffffffffffffffffff16636352211e836040518263ffffffff1660e01b815260040161076591906119a5565b60206040518083038186803b15801561077d57600080fd5b505afa158015610791573d6000803e3d6000fd5b505050506040513d601f19601f820116820180604052508101906107b5919061151d565b73ffffffffffffffffffffffffffffffffffffffff161461080b576040517f08c379a000000000000000000000000000000000000000000000000000000000815260040161080290611925565b60405180910390fd5b6108158383610eea565b505050565b813373ffffffffffffffffffffffffffffffffffffffff1660008054906101000a900473ffffffffffffffffffffffffffffffffffffffff1673ffffffffffffffffffffffffffffffffffffffff16636352211e836040518263ffffffff1660e01b815260040161088b91906119a5565b60206040518083038186803b1580156108a357600080fd5b505afa1580156108b7573d6000803e3d6000fd5b505050506040513d601f19601f820116820180604052508101906108db919061151d565b73ffffffffffffffffffffffffffffffffffffffff1614610931576040517f08c379a000000000000000000000000000000000000000000000000000000000815260040161092890611925565b60405180910390fd5b61093b8383610eb8565b61097a576040517f08c379a000000000000000000000000000000000000000000000000000000000815260040161097190611985565b60405180910390fd5b610984838361102b565b81837fea8c25884670625cc5f554f08ed55c93d3f1945a02cdd3b431c46650d9e9d48f60405160405180910390a3505050565b813373ffffffffffffffffffffffffffffffffffffffff1660008054906101000a900473ffffffffffffffffffffffffffffffffffffffff1673ffffffffffffffffffffffffffffffffffffffff16636352211e836040518263ffffffff1660e01b8152600401610a2891906119a5565b60206040518083038186803b158015610a4057600080fd5b505afa158015610a54573d6000803e3d6000fd5b505050506040513d601f19601f82011682018060405250810190610a78919061151d565b73ffffffffffffffffffffffffffffffffffffffff1614610ace576040517f08c379a0000000000000000000000000000000000000000000000000000000008152600401610ac590611925565b60405180910390fd5b610ad88284610eb8565b610b17576040517f08c379a0000000000000000000000000000000000000000000000000000000008152600401610b0e90611985565b60405180910390fd5b610b21828461102b565b82827f1c0310989c407eb75e8dbbabfe00af16c6e750c89f11eac7fc00c20190a721d86000604051610b539190611874565b60405180910390a3505050565b600160009054906101000a900473ffffffffffffffffffffffffffffffffffffffff1681565b6000600254905090565b813373ffffffffffffffffffffffffffffffffffffffff1660008054906101000a900473ffffffffffffffffffffffffffffffffffffffff1673ffffffffffffffffffffffffffffffffffffffff16636352211e836040518263ffffffff1660e01b8152600401610c0191906119a5565b60206040518083038186803b158015610c1957600080fd5b505afa158015610c2d573d6000803e3d6000fd5b505050506040513d601f19601f82011682018060405250810190610c51919061151d565b73ffffffffffffffffffffffffffffffffffffffff1614610ca7576040517f08c379a0000000000000000000000000000000000000000000000000000000008152600401610c9e90611925565b60405180910390fd5b610cb18284610eb8565b610cf0576040517f08c379a0000000000000000000000000000000000000000000000000000000008152600401610ce7906118c5565b60405180910390fd5b610cfa8284610670565b15610d3a576040517f08c379a0000000000000000000000000000000000000000000000000000000008152600401610d3190611905565b60405180910390fd5b610d44828461102b565b82827f1c0310989c407eb75e8dbbabfe00af16c6e750c89f11eac7fc00c20190a721d86001604051610d769190611874565b60405180910390a3600160009054906101000a900473ffffffffffffffffffffffffffffffffffffffff1673ffffffffffffffffffffffffffffffffffffffff1663ca39e5ef83856040518363ffffffff1660e01b8152600401610ddb9291906119c0565b600060405180830381600087803b158015610df557600080fd5b505af1158015610e09573d6000803e3d6000fd5b50505050505050565b600081600001549050919050565b600081600101549050919050565b6000806000610e3d85856110ec565b610e51576000806000925092509250610eb1565b60018560030160008681526020019081526020016000206000801515151581526020019081526020016000205486600301600087815260200190815260200160002060006001151515158152602001908152602001600020549250925092505b9250925092565b600080600360008581526020019081526020016000206000848152602001908152602001600020541415905092915050565b610ef48282610eb8565b15610f34576040517f08c379a0000000000000000000000000000000000000000000000000000000008152600401610f2b90611945565b60405180910390fd5b80821415610f77576040517f08c379a0000000000000000000000000000000000000000000000000000000008152600401610f6e906118e5565b60405180910390fd5b610f9c81600460008581526020019081526020016000206111a790919063ffffffff16565b50610fc282600560008481526020019081526020016000206111a790919063ffffffff16565b5060025443610fd19190611a33565b6003600084815260200190815260200160002060008381526020019081526020016000208190555080827f88c7444ce664ca71b6a734da6b55822c8e4c2b31e45b3f73945818fe331d923160405160405180910390a35050565b6110358282610eb8565b611074576040517f08c379a000000000000000000000000000000000000000000000000000000000815260040161106b90611965565b60405180910390fd5b61109981600460008581526020019081526020016000206111bd90919063ffffffff16565b506110bf82600560008481526020019081526020016000206111bd90919063ffffffff16565b50600360008381526020019081526020016000206000828152602001908152602001600020600090555050565b60008083600301600084815260200190815260200160002060008015151515815260200190815260200160002054148015611152575060008360030160008481526020019081526020016000206000600115151515815260200190815260200160002054145b1561119c57818360030160008081526020019081526020016000206000600115151515815260200190815260200160002054141561119357600190506111a1565b600090506111a1565b600190505b92915050565b60006111b583836001611348565b905092915050565b6000808214806111d457506111d283836110ec565b155b156111e25760009050611342565b826001015482141561122357826003016000838152602001908152602001600020600060011515151581526020019081526020016000205483600101819055505b8260020154821415611263578260030160008381526020019081526020016000206000801515151581526020019081526020016000205483600201819055505b6112c5838460030160008581526020019081526020016000206000801515151581526020019081526020016000205485600301600086815260200190815260200160002060006001151515158152602001908152602001600020546001611360565b82600301600083815260200190815260200160002060008015151515815260200190815260200160002060009055826003016000838152602001908152602001600020600060011515151581526020019081526020016000206000905560018360000160008282546113379190611a89565b925050819055508190505b92915050565b600061135784600085856113c5565b90509392505050565b828460030160008481526020019081526020016000206000831515151515815260200190815260200160002081905550818460030160008581526020019081526020016000206000831515151581526020019081526020016000208190555050505050565b60006113d185846110ec565b1580156113e457506113e385856110ec565b5b156114d157600085600301600086815260200190815260200160002060008415151515815260200190815260200160002054905061142486868686611360565b61143086858386611360565b60008660030160008681526020019081526020016000206000600115151515815260200190815260200160002054141561146e578386600201819055505b60008660030160008681526020019081526020016000206000801515151581526020019081526020016000205414156114ab578386600101819055505b60018660000160008282546114c09190611a33565b9250508190555060019150506114d6565b600090505b949350505050565b6000815190506114ed81611bb3565b92915050565b60008135905061150281611bca565b92915050565b60008135905061151781611be1565b92915050565b60006020828403121561152f57600080fd5b600061153d848285016114de565b91505092915050565b6000806040838503121561155957600080fd5b6000611567858286016114f3565b9250506020611578858286016114f3565b9150509250929050565b60008060006060848603121561159757600080fd5b60006115a5868287016114f3565b93505060206115b6868287016114f3565b92505060406115c786828701611508565b9150509250925092565b60006115dd8383611834565b60208301905092915050565b60006115f4826119f9565b6115fe8185611a11565b9350611609836119e9565b8060005b8381101561163a57815161162188826115d1565b975061162c83611a04565b92505060018101905061160d565b5085935050505092915050565b61165081611acf565b82525050565b61165f81611b12565b82525050565b61166e81611b36565b82525050565b6000611681601e83611a22565b91507f5468697320626174746c6520776173206e6f74207265717565737465642100006000830152602082019050919050565b60006116c1601f83611a22565b91507f41747461636b65722063616e206e6f742061747461636b20697473656c6621006000830152602082019050919050565b6000611701601683611a22565b91507f5468697320726571756573742074696d6564206f7574000000000000000000006000830152602082019050919050565b6000611741601783611a22565b91507f4f6e6c79206f776e65722063616e20646f2074686973210000000000000000006000830152602082019050919050565b6000611781601783611a22565b91507f5265717565737420616c726561647920657869737473210000000000000000006000830152602082019050919050565b60006117c1601683611a22565b91507f5265717565737420646f6573206e6f74206578697374000000000000000000006000830152602082019050919050565b6000611801601a83611a22565b91507f5468697320626174746c6520646f6573206e6f742065786973740000000000006000830152602082019050919050565b61183d81611afb565b82525050565b61184c81611afb565b82525050565b6000602082019050818103600083015261186c81846115e9565b905092915050565b60006020820190506118896000830184611647565b92915050565b60006020820190506118a46000830184611656565b92915050565b60006020820190506118bf6000830184611665565b92915050565b600060208201905081810360008301526118de81611674565b9050919050565b600060208201905081810360008301526118fe816116b4565b9050919050565b6000602082019050818103600083015261191e816116f4565b9050919050565b6000602082019050818103600083015261193e81611734565b9050919050565b6000602082019050818103600083015261195e81611774565b9050919050565b6000602082019050818103600083015261197e816117b4565b9050919050565b6000602082019050818103600083015261199e816117f4565b9050919050565b60006020820190506119ba6000830184611843565b92915050565b60006040820190506119d56000830185611843565b6119e26020830184611843565b9392505050565b6000819050602082019050919050565b600081519050919050565b6000602082019050919050565b600082825260208201905092915050565b600082825260208201905092915050565b6000611a3e82611afb565b9150611a4983611afb565b9250827fffffffffffffffffffffffffffffffffffffffffffffffffffffffffffffffff03821115611a7e57611a7d611b84565b5b828201905092915050565b6000611a9482611afb565b9150611a9f83611afb565b925082821015611ab257611ab1611b84565b5b828203905092915050565b6000611ac882611adb565b9050919050565b60008115159050919050565b600073ffffffffffffffffffffffffffffffffffffffff82169050919050565b6000819050919050565b600060ff82169050919050565b6000611b1d82611b24565b9050919050565b6000611b2f82611adb565b9050919050565b6000611b4182611b48565b9050919050565b6000611b5382611adb565b9050919050565b6000611b6582611b05565b915060ff821415611b7957611b78611b84565b5b600182019050919050565b7f4e487b7100000000000000000000000000000000000000000000000000000000600052601160045260246000fd5b611bbc81611abd565b8114611bc757600080fd5b50565b611bd381611afb565b8114611bde57600080fd5b50565b611bea81611b05565b8114611bf557600080fd5b5056fea26469706673582212204c1f8ec8c89de945cb391f3c8c4fb0b877ea5476167acb58df1edb75de9bdecd64736f6c63430008000033",
  "linkReferences": {},
  "deployedLinkReferences": {}
}