{
  "_format": "hh-sol-artifact-1",
  "contractName": "CombatModule",
  "sourceName": "contracts/modules/CombatModule.sol",
  "abi": [
    {
      "inputs": [
        {
          "internalType": "address",
          "name": "warriorSkillsAddr",
          "type": "address"
        },
        {
          "internalType": "address",
          "name": "warriorStatsAddr",
          "type": "address"
        },
        {
          "internalType": "address",
          "name": "treasuryAddr",
          "type": "address"
        }
      ],
      "stateMutability": "nonpayable",
      "type": "constructor"
    },
    {
      "anonymous": false,
      "inputs": [
        {
          "indexed": false,
          "internalType": "uint256",
          "name": "winner",
          "type": "uint256"
        },
        {
          "indexed": false,
          "internalType": "uint256",
          "name": "loser",
          "type": "uint256"
        }
      ],
      "name": "FightDone",
      "type": "event"
    },
    {
      "anonymous": false,
      "inputs": [
        {
          "indexed": false,
          "internalType": "uint256",
          "name": "attacker",
          "type": "uint256"
        },
        {
          "indexed": false,
          "internalType": "uint256",
          "name": "defender",
          "type": "uint256"
        }
      ],
      "name": "FightStarted",
      "type": "event"
    },
    {
      "anonymous": false,
      "inputs": [
        {
          "indexed": true,
          "internalType": "address",
          "name": "previousOwner",
          "type": "address"
        },
        {
          "indexed": true,
          "internalType": "address",
          "name": "newOwner",
          "type": "address"
        }
      ],
      "name": "OwnershipTransferred",
      "type": "event"
    },
    {
      "inputs": [
        {
          "internalType": "uint256",
          "name": "w1",
          "type": "uint256"
        },
        {
          "internalType": "uint256",
          "name": "w2",
          "type": "uint256"
        }
      ],
      "name": "fight",
      "outputs": [],
      "stateMutability": "nonpayable",
      "type": "function"
    },
    {
      "inputs": [],
      "name": "owner",
      "outputs": [
        {
          "internalType": "address",
          "name": "",
          "type": "address"
        }
      ],
      "stateMutability": "view",
      "type": "function"
    },
    {
      "inputs": [],
      "name": "renounceOwnership",
      "outputs": [],
      "stateMutability": "nonpayable",
      "type": "function"
    },
    {
      "inputs": [
        {
          "internalType": "address",
          "name": "addr",
          "type": "address"
        },
        {
          "internalType": "bool",
          "name": "allow",
          "type": "bool"
        }
      ],
      "name": "setModule",
      "outputs": [],
      "stateMutability": "nonpayable",
      "type": "function"
    },
    {
      "inputs": [
        {
          "internalType": "address",
          "name": "newOwner",
          "type": "address"
        }
      ],
      "name": "transferOwnership",
      "outputs": [],
      "stateMutability": "nonpayable",
      "type": "function"
    },
    {
      "inputs": [],
      "name": "treasury",
      "outputs": [
        {
          "internalType": "contract Treasury",
          "name": "",
          "type": "address"
        }
      ],
      "stateMutability": "view",
      "type": "function"
    },
    {
      "inputs": [],
      "name": "warriorSkills",
      "outputs": [
        {
          "internalType": "contract WarriorSkills",
          "name": "",
          "type": "address"
        }
      ],
      "stateMutability": "view",
      "type": "function"
    },
    {
      "inputs": [],
      "name": "warriorStats",
      "outputs": [
        {
          "internalType": "contract WarriorStats",
          "name": "",
          "type": "address"
        }
      ],
      "stateMutability": "view",
      "type": "function"
    }
  ],
  "bytecode": "0x60806040523480156200001157600080fd5b506040516200207b3803806200207b833981810160405281019062000037919062000206565b620000576200004b6200012360201b60201c565b6200012b60201b60201c565b82600260006101000a81548173ffffffffffffffffffffffffffffffffffffffff021916908373ffffffffffffffffffffffffffffffffffffffff16021790555081600360006101000a81548173ffffffffffffffffffffffffffffffffffffffff021916908373ffffffffffffffffffffffffffffffffffffffff16021790555080600460006101000a81548173ffffffffffffffffffffffffffffffffffffffff021916908373ffffffffffffffffffffffffffffffffffffffff160217905550505050620002aa565b600033905090565b60008060009054906101000a900473ffffffffffffffffffffffffffffffffffffffff169050816000806101000a81548173ffffffffffffffffffffffffffffffffffffffff021916908373ffffffffffffffffffffffffffffffffffffffff1602179055508173ffffffffffffffffffffffffffffffffffffffff168173ffffffffffffffffffffffffffffffffffffffff167f8be0079c531659141344cd1fd0a4f28419497f9722a3daafe3b4186f6b6457e060405160405180910390a35050565b600081519050620002008162000290565b92915050565b6000806000606084860312156200021c57600080fd5b60006200022c86828701620001ef565b93505060206200023f86828701620001ef565b92505060406200025286828701620001ef565b9150509250925092565b6000620002698262000270565b9050919050565b600073ffffffffffffffffffffffffffffffffffffffff82169050919050565b6200029b816200025c565b8114620002a757600080fd5b50565b611dc180620002ba6000396000f3fe608060405234801561001057600080fd5b50600436106100885760003560e01c8063b1662d581161005b578063b1662d58146100f1578063ca39e5ef1461010d578063f2fde38b14610129578063f99cd25b1461014557610088565b806361d027b31461008d578063715018a6146100ab5780638da5cb5b146100b55780639cee4822146100d3575b600080fd5b610095610163565b6040516100a291906117d7565b60405180910390f35b6100b3610189565b005b6100bd610211565b6040516100ca91906117bc565b60405180910390f35b6100db61023a565b6040516100e891906117f2565b60405180910390f35b61010b60048036038101906101069190611572565b610260565b005b61012760048036038101906101229190611600565b610391565b005b610143600480360381019061013e9190611549565b611007565b005b61014d6110ff565b60405161015a919061180d565b60405180910390f35b600460009054906101000a900473ffffffffffffffffffffffffffffffffffffffff1681565b610191611125565b73ffffffffffffffffffffffffffffffffffffffff166101af610211565b73ffffffffffffffffffffffffffffffffffffffff1614610205576040517f08c379a00000000000000000000000000000000000000000000000000000000081526004016101fc90611868565b60405180910390fd5b61020f600061112d565b565b60008060009054906101000a900473ffffffffffffffffffffffffffffffffffffffff16905090565b600260009054906101000a900473ffffffffffffffffffffffffffffffffffffffff1681565b610268611125565b73ffffffffffffffffffffffffffffffffffffffff16610286610211565b73ffffffffffffffffffffffffffffffffffffffff16146102dc576040517f08c379a00000000000000000000000000000000000000000000000000000000081526004016102d390611868565b60405180910390fd5b8061033557600160008373ffffffffffffffffffffffffffffffffffffffff1673ffffffffffffffffffffffffffffffffffffffff16815260200190815260200160002060006101000a81549060ff021916905561038d565b60018060008473ffffffffffffffffffffffffffffffffffffffff1673ffffffffffffffffffffffffffffffffffffffff16815260200190815260200160002060006101000a81548160ff0219169083151502179055505b5050565b600160003373ffffffffffffffffffffffffffffffffffffffff1673ffffffffffffffffffffffffffffffffffffffff16815260200190815260200160002060009054906101000a900460ff1661041d576040517f08c379a000000000000000000000000000000000000000000000000000000000815260040161041490611848565b60405180910390fd5b6005600083815260200190815260200160002060009054906101000a900460ff161561047e576040517f08c379a000000000000000000000000000000000000000000000000000000000815260040161047590611888565b60405180910390fd5b6005600082815260200190815260200160002060009054906101000a900460ff16156104df576040517f08c379a00000000000000000000000000000000000000000000000000000000081526004016104d690611888565b60405180910390fd5b6104e761140a565b600260009054906101000a900473ffffffffffffffffffffffffffffffffffffffff1673ffffffffffffffffffffffffffffffffffffffff166350d15fbe846040518263ffffffff1660e01b815260040161054291906118c3565b60806040518083038186803b15801561055a57600080fd5b505afa15801561056e573d6000803e3d6000fd5b505050506040513d601f19601f8201168201806040525081019061059291906115ae565b816000600281106105cc577f4e487b7100000000000000000000000000000000000000000000000000000000600052603260045260246000fd5b6020020181905250600260009054906101000a900473ffffffffffffffffffffffffffffffffffffffff1673ffffffffffffffffffffffffffffffffffffffff166350d15fbe836040518263ffffffff1660e01b815260040161062f91906118c3565b60806040518083038186803b15801561064757600080fd5b505afa15801561065b573d6000803e3d6000fd5b505050506040513d601f19601f8201168201806040525081019061067f91906115ae565b816001600281106106b9577f4e487b7100000000000000000000000000000000000000000000000000000000600052603260045260246000fd5b60200201819052506106c9611437565b600460009054906101000a900473ffffffffffffffffffffffffffffffffffffffff1673ffffffffffffffffffffffffffffffffffffffff1663d3e97165856040518263ffffffff1660e01b815260040161072491906118c3565b60206040518083038186803b15801561073c57600080fd5b505afa158015610750573d6000803e3d6000fd5b505050506040513d601f19601f8201168201806040525081019061077491906115d7565b816000600281106107ae577f4e487b7100000000000000000000000000000000000000000000000000000000600052603260045260246000fd5b602002018181525050600460009054906101000a900473ffffffffffffffffffffffffffffffffffffffff1673ffffffffffffffffffffffffffffffffffffffff1663d3e97165846040518263ffffffff1660e01b815260040161081291906118c3565b60206040518083038186803b15801561082a57600080fd5b505afa15801561083e573d6000803e3d6000fd5b505050506040513d601f19601f8201168201806040525081019061086291906115d7565b8160016002811061089c577f4e487b7100000000000000000000000000000000000000000000000000000000600052603260045260246000fd5b60200201818152505060006001905060006108b5611437565b73__$785a3750a744651a4256c1a0a9b0861e2b$__636f644fa185600060028110610909577f4e487b7100000000000000000000000000000000000000000000000000000000600052603260045260246000fd5b602002015187600060028110610948577f4e487b7100000000000000000000000000000000000000000000000000000000600052603260045260246000fd5b6020020151606001516040518363ffffffff1660e01b815260040161096e9291906118de565b60206040518083038186803b15801561098657600080fd5b505af415801561099a573d6000803e3d6000fd5b505050506040513d601f19601f820116820180604052508101906109be91906115d7565b816000600281106109f8577f4e487b7100000000000000000000000000000000000000000000000000000000600052603260045260246000fd5b60200201818152505073__$785a3750a744651a4256c1a0a9b0861e2b$__636f644fa185600160028110610a55577f4e487b7100000000000000000000000000000000000000000000000000000000600052603260045260246000fd5b602002015187600160028110610a94577f4e487b7100000000000000000000000000000000000000000000000000000000600052603260045260246000fd5b6020020151606001516040518363ffffffff1660e01b8152600401610aba9291906118de565b60206040518083038186803b158015610ad257600080fd5b505af4158015610ae6573d6000803e3d6000fd5b505050506040513d601f19601f82011682018060405250810190610b0a91906115d7565b81600160028110610b44577f4e487b7100000000000000000000000000000000000000000000000000000000600052603260045260246000fd5b60200201818152505060016005600089815260200190815260200160002060006101000a81548160ff02191690831515021790555060016005600088815260200190815260200160002060006101000a81548160ff0219169083151502179055507f1497008a65a8db6b56150ad79faea03da341c825c46d4fde051fabe61d8d80ad8787604051610bd6929190611907565b60405180910390a1600073__$dd1ab798ac7c049bf7bfb1525e9810c58f$__633b3dca766040518163ffffffff1660e01b815260040160206040518083038186803b158015610c2457600080fd5b505af4158015610c38573d6000803e3d6000fd5b505050506040513d601f19601f82011682018060405250810190610c5c91906115d7565b905060006101f38210610c70576001610c73565b60005b60ff1690506000816001610c879190611bc4565b90505b8515610e22576000848360028110610ccb577f4e487b7100000000000000000000000000000000000000000000000000000000600052603260045260246000fd5b60200201519050610d9c888460028110610d0e577f4e487b7100000000000000000000000000000000000000000000000000000000600052603260045260246000fd5b60200201518a8560028110610d4c577f4e487b7100000000000000000000000000000000000000000000000000000000600052603260045260246000fd5b6020020151602001518b8560028110610d8e577f4e487b7100000000000000000000000000000000000000000000000000000000600052603260045260246000fd5b6020020151604001516111f1565b955080861015610e17578581610db29190611bc4565b858360028110610deb577f4e487b7100000000000000000000000000000000000000000000000000000000600052603260045260246000fd5b602002018181525050826001610e019190611bc4565b9250816001610e109190611bc4565b9150610e1c565b600096505b50610c8a565b600460009054906101000a900473ffffffffffffffffffffffffffffffffffffffff1673ffffffffffffffffffffffffffffffffffffffff16630a12b9d960008414610e6e578a610e70565b8b5b60008514610e7e578c610e80565b8b5b6040518363ffffffff1660e01b8152600401610e9d929190611907565b600060405180830381600087803b158015610eb757600080fd5b505af1158015610ecb573d6000803e3d6000fd5b50505050600360009054906101000a900473ffffffffffffffffffffffffffffffffffffffff1673ffffffffffffffffffffffffffffffffffffffff1663c81f7c5260008414610f1b578a610f1d565b8b5b60008514610f2b578c610f2d565b8b5b6040518363ffffffff1660e01b8152600401610f4a929190611907565b600060405180830381600087803b158015610f6457600080fd5b505af1158015610f78573d6000803e3d6000fd5b50505050600560008b815260200190815260200160002060006101000a81549060ff0219169055600560008a815260200190815260200160002060006101000a81549060ff02191690557fcf599967e9598980cfae3825d5884aae3c477992a3139b7abfe3edbb3703fa6a8282604051610ff3929190611907565b60405180910390a150505050505050505050565b61100f611125565b73ffffffffffffffffffffffffffffffffffffffff1661102d610211565b73ffffffffffffffffffffffffffffffffffffffff1614611083576040517f08c379a000000000000000000000000000000000000000000000000000000000815260040161107a90611868565b60405180910390fd5b600073ffffffffffffffffffffffffffffffffffffffff168173ffffffffffffffffffffffffffffffffffffffff1614156110f3576040517f08c379a00000000000000000000000000000000000000000000000000000000081526004016110ea90611828565b60405180910390fd5b6110fc8161112d565b50565b600360009054906101000a900473ffffffffffffffffffffffffffffffffffffffff1681565b600033905090565b60008060009054906101000a900473ffffffffffffffffffffffffffffffffffffffff169050816000806101000a81548173ffffffffffffffffffffffffffffffffffffffff021916908373ffffffffffffffffffffffffffffffffffffffff1602179055508173ffffffffffffffffffffffffffffffffffffffff168173ffffffffffffffffffffffffffffffffffffffff167f8be0079c531659141344cd1fd0a4f28419497f9722a3daafe3b4186f6b6457e060405160405180910390a35050565b6000806402540be400600a61120587611293565b60026112119190611b6a565b61121b9190611972565b6112259190611b6a565b905060006402540be4008461123a9190611b6a565b6402540be4008661124b9190611b6a565b61125591906119c8565b905060028261126491906119c8565b915080826112729190611b6a565b91506402540be4008261128591906119c8565b915081925050509392505050565b60008073__$dd1ab798ac7c049bf7bfb1525e9810c58f$__63b83f21b5846012600a6112bf9190611a4c565b6040518363ffffffff1660e01b81526004016112dc9291906118de565b60206040518083038186803b1580156112f457600080fd5b505af4158015611308573d6000803e3d6000fd5b505050506040513d601f19601f8201168201806040525081019061132c91906115d7565b90506008600a61133c9190611a4c565b8161134791906119c8565b9050600a60ff16816113599190611b6a565b905073__$dd1ab798ac7c049bf7bfb1525e9810c58f$__63677342ce826040518263ffffffff1660e01b815260040161139291906118a8565b60206040518083038186803b1580156113aa57600080fd5b505af41580156113be573d6000803e3d6000fd5b505050506040513d601f19601f820116820180604052508101906113e291906115d7565b90506001620186a0826113f591906119c8565b6113ff9190611972565b905080915050919050565b60405180604001604052806002905b611421611459565b8152602001906001900390816114195790505090565b6040518060400160405280600290602082028036833780820191505090505090565b6040518060800160405280600081526020016000815260200160008152602001600081525090565b60008135905061149081611d46565b92915050565b6000813590506114a581611d5d565b92915050565b6000608082840312156114bd57600080fd5b6114c76080611930565b905060006114d784828501611534565b60008301525060206114eb84828501611534565b60208301525060406114ff84828501611534565b604083015250606061151384828501611534565b60608301525092915050565b60008135905061152e81611d74565b92915050565b60008151905061154381611d74565b92915050565b60006020828403121561155b57600080fd5b600061156984828501611481565b91505092915050565b6000806040838503121561158557600080fd5b600061159385828601611481565b92505060206115a485828601611496565b9150509250929050565b6000608082840312156115c057600080fd5b60006115ce848285016114ab565b91505092915050565b6000602082840312156115e957600080fd5b60006115f784828501611534565b91505092915050565b6000806040838503121561161357600080fd5b60006116218582860161151f565b92505060206116328582860161151f565b9150509250929050565b61164581611bf8565b82525050565b61165481611c40565b82525050565b61166381611c64565b82525050565b61167281611c88565b82525050565b6000611685602683611961565b91507f4f776e61626c653a206e6577206f776e657220697320746865207a65726f206160008301527f64647265737300000000000000000000000000000000000000000000000000006020830152604082019050919050565b60006116eb601883611961565b91507f6f6e6c79206d6f64756c65732063616e20646f207468697300000000000000006000830152602082019050919050565b600061172b602083611961565b91507f4f776e61626c653a2063616c6c6572206973206e6f7420746865206f776e65726000830152602082019050919050565b600061176b601083611961565b91507f616c7265616479206669676874696e67000000000000000000000000000000006000830152602082019050919050565b6117a781611c36565b82525050565b6117b681611c36565b82525050565b60006020820190506117d1600083018461163c565b92915050565b60006020820190506117ec600083018461164b565b92915050565b6000602082019050611807600083018461165a565b92915050565b60006020820190506118226000830184611669565b92915050565b6000602082019050818103600083015261184181611678565b9050919050565b60006020820190508181036000830152611861816116de565b9050919050565b600060208201905081810360008301526118818161171e565b9050919050565b600060208201905081810360008301526118a18161175e565b9050919050565b60006020820190506118bd60008301846117ad565b92915050565b60006020820190506118d8600083018461179e565b92915050565b60006040820190506118f360008301856117ad565b61190060208301846117ad565b9392505050565b600060408201905061191c600083018561179e565b611929602083018461179e565b9392505050565b6000604051905081810181811067ffffffffffffffff8211171561195757611956611d0a565b5b8060405250919050565b600082825260208201905092915050565b600061197d82611c36565b915061198883611c36565b9250827fffffffffffffffffffffffffffffffffffffffffffffffffffffffffffffffff038211156119bd576119bc611cac565b5b828201905092915050565b60006119d382611c36565b91506119de83611c36565b9250826119ee576119ed611cdb565b5b828204905092915050565b6000808291508390505b6001851115611a4357808604811115611a1f57611a1e611cac565b5b6001851615611a2e5780820291505b8081029050611a3c85611d39565b9450611a03565b94509492505050565b6000611a5782611c36565b9150611a6283611c36565b9250611a8f7fffffffffffffffffffffffffffffffffffffffffffffffffffffffffffffffff8484611a97565b905092915050565b600082611aa75760019050611b63565b81611ab55760009050611b63565b8160018114611acb5760028114611ad557611b04565b6001915050611b63565b60ff841115611ae757611ae6611cac565b5b8360020a915084821115611afe57611afd611cac565b5b50611b63565b5060208310610133831016604e8410600b8410161715611b395782820a905083811115611b3457611b33611cac565b5b611b63565b611b4684848460016119f9565b92509050818404811115611b5d57611b5c611cac565b5b81810290505b9392505050565b6000611b7582611c36565b9150611b8083611c36565b9250817fffffffffffffffffffffffffffffffffffffffffffffffffffffffffffffffff0483118215151615611bb957611bb8611cac565b5b828202905092915050565b6000611bcf82611c36565b9150611bda83611c36565b925082821015611bed57611bec611cac565b5b828203905092915050565b6000611c0382611c16565b9050919050565b60008115159050919050565b600073ffffffffffffffffffffffffffffffffffffffff82169050919050565b6000819050919050565b6000611c4b82611c52565b9050919050565b6000611c5d82611c16565b9050919050565b6000611c6f82611c76565b9050919050565b6000611c8182611c16565b9050919050565b6000611c9382611c9a565b9050919050565b6000611ca582611c16565b9050919050565b7f4e487b7100000000000000000000000000000000000000000000000000000000600052601160045260246000fd5b7f4e487b7100000000000000000000000000000000000000000000000000000000600052601260045260246000fd5b7f4e487b7100000000000000000000000000000000000000000000000000000000600052604160045260246000fd5b60008160011c9050919050565b611d4f81611bf8565b8114611d5a57600080fd5b50565b611d6681611c0a565b8114611d7157600080fd5b50565b611d7d81611c36565b8114611d8857600080fd5b5056fea2646970667358221220748b7b2ea46f735988c291031a8da56e528c7961b065b189a7205444be27383b64736f6c63430008000033",
  "linkReferences": {
    "contracts/lib/Compute.sol": {
      "Compute": [
        {
          "length": 20,
          "start": 2929
        },
        {
          "length": 20,
          "start": 3261
        }
      ]
    },
    "contracts/lib/Math.sol": {
      "Math": [
        {
          "length": 20,
          "start": 3740
        },
        {
          "length": 20,
          "start": 5458
        },
        {
          "length": 20,
          "start": 5655
        }
      ]
    }
  },
  "deployedLinkReferences": {
    "contracts/lib/Compute.sol": {
      "Compute": [
        {
          "length": 20,
          "start": 2231
        },
        {
          "length": 20,
          "start": 2563
        }
      ]
    },
    "contracts/lib/Math.sol": {
      "Math": [
        {
          "length": 20,
          "start": 3042
        },
        {
          "length": 20,
          "start": 4760
        },
        {
          "length": 20,
          "start": 4957
        }
      ]
    }
  }
}