{
  "_format": "hh-sol-artifact-1",
  "contractName": "CombatModule",
  "sourceName": "contracts/modules/CombatModule.sol",
  "abi": [
    {
      "inputs": [
        {
          "internalType": "address",
          "name": "warriorSkillsAddr",
          "type": "address"
        },
        {
          "internalType": "address",
          "name": "warriorStatsAddr",
          "type": "address"
        },
        {
          "internalType": "address",
          "name": "treasuryAddr",
          "type": "address"
        }
      ],
      "stateMutability": "nonpayable",
      "type": "constructor"
    },
    {
      "anonymous": false,
      "inputs": [
        {
          "indexed": true,
          "internalType": "uint256",
          "name": "winner",
          "type": "uint256"
        },
        {
          "indexed": true,
          "internalType": "uint256",
          "name": "loser",
          "type": "uint256"
        },
        {
          "indexed": false,
          "internalType": "uint256",
          "name": "epSwapped",
          "type": "uint256"
        }
      ],
      "name": "FightDone",
      "type": "event"
    },
    {
      "anonymous": false,
      "inputs": [
        {
          "indexed": true,
          "internalType": "address",
          "name": "previousOwner",
          "type": "address"
        },
        {
          "indexed": true,
          "internalType": "address",
          "name": "newOwner",
          "type": "address"
        }
      ],
      "name": "OwnershipTransferred",
      "type": "event"
    },
    {
      "inputs": [
        {
          "internalType": "uint256",
          "name": "w1",
          "type": "uint256"
        },
        {
          "internalType": "uint256",
          "name": "w2",
          "type": "uint256"
        }
      ],
      "name": "fight",
      "outputs": [],
      "stateMutability": "nonpayable",
      "type": "function"
    },
    {
      "inputs": [],
      "name": "owner",
      "outputs": [
        {
          "internalType": "address",
          "name": "",
          "type": "address"
        }
      ],
      "stateMutability": "view",
      "type": "function"
    },
    {
      "inputs": [],
      "name": "renounceOwnership",
      "outputs": [],
      "stateMutability": "nonpayable",
      "type": "function"
    },
    {
      "inputs": [
        {
          "internalType": "address",
          "name": "addr",
          "type": "address"
        },
        {
          "internalType": "bool",
          "name": "allow",
          "type": "bool"
        }
      ],
      "name": "setModule",
      "outputs": [],
      "stateMutability": "nonpayable",
      "type": "function"
    },
    {
      "inputs": [
        {
          "internalType": "address",
          "name": "newOwner",
          "type": "address"
        }
      ],
      "name": "transferOwnership",
      "outputs": [],
      "stateMutability": "nonpayable",
      "type": "function"
    },
    {
      "inputs": [],
      "name": "treasury",
      "outputs": [
        {
          "internalType": "contract Treasury",
          "name": "",
          "type": "address"
        }
      ],
      "stateMutability": "view",
      "type": "function"
    },
    {
      "inputs": [],
      "name": "warriorSkills",
      "outputs": [
        {
          "internalType": "contract WarriorSkills",
          "name": "",
          "type": "address"
        }
      ],
      "stateMutability": "view",
      "type": "function"
    },
    {
      "inputs": [],
      "name": "warriorStats",
      "outputs": [
        {
          "internalType": "contract WarriorStats",
          "name": "",
          "type": "address"
        }
      ],
      "stateMutability": "view",
      "type": "function"
    }
  ],
  "bytecode": "0x60806040523480156200001157600080fd5b506040516200206738038062002067833981810160405281019062000037919062000206565b620000576200004b6200012360201b60201c565b6200012b60201b60201c565b82600260006101000a81548173ffffffffffffffffffffffffffffffffffffffff021916908373ffffffffffffffffffffffffffffffffffffffff16021790555081600360006101000a81548173ffffffffffffffffffffffffffffffffffffffff021916908373ffffffffffffffffffffffffffffffffffffffff16021790555080600460006101000a81548173ffffffffffffffffffffffffffffffffffffffff021916908373ffffffffffffffffffffffffffffffffffffffff160217905550505050620002aa565b600033905090565b60008060009054906101000a900473ffffffffffffffffffffffffffffffffffffffff169050816000806101000a81548173ffffffffffffffffffffffffffffffffffffffff021916908373ffffffffffffffffffffffffffffffffffffffff1602179055508173ffffffffffffffffffffffffffffffffffffffff168173ffffffffffffffffffffffffffffffffffffffff167f8be0079c531659141344cd1fd0a4f28419497f9722a3daafe3b4186f6b6457e060405160405180910390a35050565b600081519050620002008162000290565b92915050565b6000806000606084860312156200021c57600080fd5b60006200022c86828701620001ef565b93505060206200023f86828701620001ef565b92505060406200025286828701620001ef565b9150509250925092565b6000620002698262000270565b9050919050565b600073ffffffffffffffffffffffffffffffffffffffff82169050919050565b6200029b816200025c565b8114620002a757600080fd5b50565b611dad80620002ba6000396000f3fe608060405234801561001057600080fd5b50600436106100885760003560e01c8063b1662d581161005b578063b1662d58146100f1578063ca39e5ef1461010d578063f2fde38b14610129578063f99cd25b1461014557610088565b806361d027b31461008d578063715018a6146100ab5780638da5cb5b146100b55780639cee4822146100d3575b600080fd5b610095610163565b6040516100a291906117c3565b60405180910390f35b6100b3610189565b005b6100bd610211565b6040516100ca91906117a8565b60405180910390f35b6100db61023a565b6040516100e891906117de565b60405180910390f35b61010b6004803603810190610106919061155e565b610260565b005b610127600480360381019061012291906115ec565b610391565b005b610143600480360381019061013e9190611535565b610ff3565b005b61014d6110eb565b60405161015a91906117f9565b60405180910390f35b600460009054906101000a900473ffffffffffffffffffffffffffffffffffffffff1681565b610191611111565b73ffffffffffffffffffffffffffffffffffffffff166101af610211565b73ffffffffffffffffffffffffffffffffffffffff1614610205576040517f08c379a00000000000000000000000000000000000000000000000000000000081526004016101fc90611854565b60405180910390fd5b61020f6000611119565b565b60008060009054906101000a900473ffffffffffffffffffffffffffffffffffffffff16905090565b600260009054906101000a900473ffffffffffffffffffffffffffffffffffffffff1681565b610268611111565b73ffffffffffffffffffffffffffffffffffffffff16610286610211565b73ffffffffffffffffffffffffffffffffffffffff16146102dc576040517f08c379a00000000000000000000000000000000000000000000000000000000081526004016102d390611854565b60405180910390fd5b8061033557600160008373ffffffffffffffffffffffffffffffffffffffff1673ffffffffffffffffffffffffffffffffffffffff16815260200190815260200160002060006101000a81549060ff021916905561038d565b60018060008473ffffffffffffffffffffffffffffffffffffffff1673ffffffffffffffffffffffffffffffffffffffff16815260200190815260200160002060006101000a81548160ff0219169083151502179055505b5050565b600160003373ffffffffffffffffffffffffffffffffffffffff1673ffffffffffffffffffffffffffffffffffffffff16815260200190815260200160002060009054906101000a900460ff1661041d576040517f08c379a000000000000000000000000000000000000000000000000000000000815260040161041490611834565b60405180910390fd5b6005600083815260200190815260200160002060009054906101000a900460ff161561047e576040517f08c379a000000000000000000000000000000000000000000000000000000000815260040161047590611874565b60405180910390fd5b6005600082815260200190815260200160002060009054906101000a900460ff16156104df576040517f08c379a00000000000000000000000000000000000000000000000000000000081526004016104d690611874565b60405180910390fd5b6104e76113f6565b600260009054906101000a900473ffffffffffffffffffffffffffffffffffffffff1673ffffffffffffffffffffffffffffffffffffffff166350d15fbe846040518263ffffffff1660e01b815260040161054291906118af565b60806040518083038186803b15801561055a57600080fd5b505afa15801561056e573d6000803e3d6000fd5b505050506040513d601f19601f82011682018060405250810190610592919061159a565b816000600281106105cc577f4e487b7100000000000000000000000000000000000000000000000000000000600052603260045260246000fd5b6020020181905250600260009054906101000a900473ffffffffffffffffffffffffffffffffffffffff1673ffffffffffffffffffffffffffffffffffffffff166350d15fbe836040518263ffffffff1660e01b815260040161062f91906118af565b60806040518083038186803b15801561064757600080fd5b505afa15801561065b573d6000803e3d6000fd5b505050506040513d601f19601f8201168201806040525081019061067f919061159a565b816001600281106106b9577f4e487b7100000000000000000000000000000000000000000000000000000000600052603260045260246000fd5b60200201819052506106c9611423565b600460009054906101000a900473ffffffffffffffffffffffffffffffffffffffff1673ffffffffffffffffffffffffffffffffffffffff1663d3e97165856040518263ffffffff1660e01b815260040161072491906118af565b60206040518083038186803b15801561073c57600080fd5b505afa158015610750573d6000803e3d6000fd5b505050506040513d601f19601f8201168201806040525081019061077491906115c3565b816000600281106107ae577f4e487b7100000000000000000000000000000000000000000000000000000000600052603260045260246000fd5b602002018181525050600460009054906101000a900473ffffffffffffffffffffffffffffffffffffffff1673ffffffffffffffffffffffffffffffffffffffff1663d3e97165846040518263ffffffff1660e01b815260040161081291906118af565b60206040518083038186803b15801561082a57600080fd5b505afa15801561083e573d6000803e3d6000fd5b505050506040513d601f19601f8201168201806040525081019061086291906115c3565b8160016002811061089c577f4e487b7100000000000000000000000000000000000000000000000000000000600052603260045260246000fd5b60200201818152505060006001905060006108b5611423565b73__$785a3750a744651a4256c1a0a9b0861e2b$__636f644fa185600060028110610909577f4e487b7100000000000000000000000000000000000000000000000000000000600052603260045260246000fd5b602002015187600060028110610948577f4e487b7100000000000000000000000000000000000000000000000000000000600052603260045260246000fd5b6020020151606001516040518363ffffffff1660e01b815260040161096e9291906118ca565b60206040518083038186803b15801561098657600080fd5b505af415801561099a573d6000803e3d6000fd5b505050506040513d601f19601f820116820180604052508101906109be91906115c3565b816000600281106109f8577f4e487b7100000000000000000000000000000000000000000000000000000000600052603260045260246000fd5b60200201818152505073__$785a3750a744651a4256c1a0a9b0861e2b$__636f644fa185600160028110610a55577f4e487b7100000000000000000000000000000000000000000000000000000000600052603260045260246000fd5b602002015187600160028110610a94577f4e487b7100000000000000000000000000000000000000000000000000000000600052603260045260246000fd5b6020020151606001516040518363ffffffff1660e01b8152600401610aba9291906118ca565b60206040518083038186803b158015610ad257600080fd5b505af4158015610ae6573d6000803e3d6000fd5b505050506040513d601f19601f82011682018060405250810190610b0a91906115c3565b81600160028110610b44577f4e487b7100000000000000000000000000000000000000000000000000000000600052603260045260246000fd5b60200201818152505060016005600089815260200190815260200160002060006101000a81548160ff02191690831515021790555060016005600088815260200190815260200160002060006101000a81548160ff021916908315150217905550600073__$dd1ab798ac7c049bf7bfb1525e9810c58f$__633b3dca766040518163ffffffff1660e01b815260040160206040518083038186803b158015610beb57600080fd5b505af4158015610bff573d6000803e3d6000fd5b505050506040513d601f19601f82011682018060405250810190610c2391906115c3565b905060006101f38210610c37576001610c3a565b60005b60ff1690506000816001610c4e9190611bb0565b90505b8515610de9576000848360028110610c92577f4e487b7100000000000000000000000000000000000000000000000000000000600052603260045260246000fd5b60200201519050610d63888460028110610cd5577f4e487b7100000000000000000000000000000000000000000000000000000000600052603260045260246000fd5b60200201518a8560028110610d13577f4e487b7100000000000000000000000000000000000000000000000000000000600052603260045260246000fd5b6020020151602001518b8560028110610d55577f4e487b7100000000000000000000000000000000000000000000000000000000600052603260045260246000fd5b6020020151604001516111dd565b955080861015610dde578581610d799190611bb0565b858360028110610db2577f4e487b7100000000000000000000000000000000000000000000000000000000600052603260045260246000fd5b602002018181525050826001610dc89190611bb0565b9250816001610dd79190611bb0565b9150610de3565b600096505b50610c51565b6000600460009054906101000a900473ffffffffffffffffffffffffffffffffffffffff1673ffffffffffffffffffffffffffffffffffffffff16630a12b9d960008514610e37578b610e39565b8c5b60008614610e47578d610e49565b8c5b6040518363ffffffff1660e01b8152600401610e669291906118f3565b602060405180830381600087803b158015610e8057600080fd5b505af1158015610e94573d6000803e3d6000fd5b505050506040513d601f19601f82011682018060405250810190610eb891906115c3565b9050600360009054906101000a900473ffffffffffffffffffffffffffffffffffffffff1673ffffffffffffffffffffffffffffffffffffffff1663c81f7c5260008514610f06578b610f08565b8c5b60008614610f16578d610f18565b8c5b6040518363ffffffff1660e01b8152600401610f359291906118f3565b600060405180830381600087803b158015610f4f57600080fd5b505af1158015610f63573d6000803e3d6000fd5b50505050600560008c815260200190815260200160002060006101000a81549060ff0219169055600560008b815260200190815260200160002060006101000a81549060ff021916905581837f680b54ab86ca952f02b77489ab3ff16beb6472ef10a146d666e082c0a703f4e383604051610fde91906118af565b60405180910390a35050505050505050505050565b610ffb611111565b73ffffffffffffffffffffffffffffffffffffffff16611019610211565b73ffffffffffffffffffffffffffffffffffffffff161461106f576040517f08c379a000000000000000000000000000000000000000000000000000000000815260040161106690611854565b60405180910390fd5b600073ffffffffffffffffffffffffffffffffffffffff168173ffffffffffffffffffffffffffffffffffffffff1614156110df576040517f08c379a00000000000000000000000000000000000000000000000000000000081526004016110d690611814565b60405180910390fd5b6110e881611119565b50565b600360009054906101000a900473ffffffffffffffffffffffffffffffffffffffff1681565b600033905090565b60008060009054906101000a900473ffffffffffffffffffffffffffffffffffffffff169050816000806101000a81548173ffffffffffffffffffffffffffffffffffffffff021916908373ffffffffffffffffffffffffffffffffffffffff1602179055508173ffffffffffffffffffffffffffffffffffffffff168173ffffffffffffffffffffffffffffffffffffffff167f8be0079c531659141344cd1fd0a4f28419497f9722a3daafe3b4186f6b6457e060405160405180910390a35050565b6000806402540be400600a6111f18761127f565b60026111fd9190611b56565b611207919061195e565b6112119190611b56565b905060006402540be400846112269190611b56565b6402540be400866112379190611b56565b61124191906119b4565b905060028261125091906119b4565b9150808261125e9190611b56565b91506402540be4008261127191906119b4565b915081925050509392505050565b60008073__$dd1ab798ac7c049bf7bfb1525e9810c58f$__63b83f21b5846012600a6112ab9190611a38565b6040518363ffffffff1660e01b81526004016112c89291906118ca565b60206040518083038186803b1580156112e057600080fd5b505af41580156112f4573d6000803e3d6000fd5b505050506040513d601f19601f8201168201806040525081019061131891906115c3565b90506008600a6113289190611a38565b8161133391906119b4565b9050600a60ff16816113459190611b56565b905073__$dd1ab798ac7c049bf7bfb1525e9810c58f$__63677342ce826040518263ffffffff1660e01b815260040161137e9190611894565b60206040518083038186803b15801561139657600080fd5b505af41580156113aa573d6000803e3d6000fd5b505050506040513d601f19601f820116820180604052508101906113ce91906115c3565b90506001620186a0826113e191906119b4565b6113eb919061195e565b905080915050919050565b60405180604001604052806002905b61140d611445565b8152602001906001900390816114055790505090565b6040518060400160405280600290602082028036833780820191505090505090565b6040518060800160405280600081526020016000815260200160008152602001600081525090565b60008135905061147c81611d32565b92915050565b60008135905061149181611d49565b92915050565b6000608082840312156114a957600080fd5b6114b3608061191c565b905060006114c384828501611520565b60008301525060206114d784828501611520565b60208301525060406114eb84828501611520565b60408301525060606114ff84828501611520565b60608301525092915050565b60008135905061151a81611d60565b92915050565b60008151905061152f81611d60565b92915050565b60006020828403121561154757600080fd5b60006115558482850161146d565b91505092915050565b6000806040838503121561157157600080fd5b600061157f8582860161146d565b925050602061159085828601611482565b9150509250929050565b6000608082840312156115ac57600080fd5b60006115ba84828501611497565b91505092915050565b6000602082840312156115d557600080fd5b60006115e384828501611520565b91505092915050565b600080604083850312156115ff57600080fd5b600061160d8582860161150b565b925050602061161e8582860161150b565b9150509250929050565b61163181611be4565b82525050565b61164081611c2c565b82525050565b61164f81611c50565b82525050565b61165e81611c74565b82525050565b600061167160268361194d565b91507f4f776e61626c653a206e6577206f776e657220697320746865207a65726f206160008301527f64647265737300000000000000000000000000000000000000000000000000006020830152604082019050919050565b60006116d760188361194d565b91507f6f6e6c79206d6f64756c65732063616e20646f207468697300000000000000006000830152602082019050919050565b600061171760208361194d565b91507f4f776e61626c653a2063616c6c6572206973206e6f7420746865206f776e65726000830152602082019050919050565b600061175760108361194d565b91507f616c7265616479206669676874696e67000000000000000000000000000000006000830152602082019050919050565b61179381611c22565b82525050565b6117a281611c22565b82525050565b60006020820190506117bd6000830184611628565b92915050565b60006020820190506117d86000830184611637565b92915050565b60006020820190506117f36000830184611646565b92915050565b600060208201905061180e6000830184611655565b92915050565b6000602082019050818103600083015261182d81611664565b9050919050565b6000602082019050818103600083015261184d816116ca565b9050919050565b6000602082019050818103600083015261186d8161170a565b9050919050565b6000602082019050818103600083015261188d8161174a565b9050919050565b60006020820190506118a96000830184611799565b92915050565b60006020820190506118c4600083018461178a565b92915050565b60006040820190506118df6000830185611799565b6118ec6020830184611799565b9392505050565b6000604082019050611908600083018561178a565b611915602083018461178a565b9392505050565b6000604051905081810181811067ffffffffffffffff8211171561194357611942611cf6565b5b8060405250919050565b600082825260208201905092915050565b600061196982611c22565b915061197483611c22565b9250827fffffffffffffffffffffffffffffffffffffffffffffffffffffffffffffffff038211156119a9576119a8611c98565b5b828201905092915050565b60006119bf82611c22565b91506119ca83611c22565b9250826119da576119d9611cc7565b5b828204905092915050565b6000808291508390505b6001851115611a2f57808604811115611a0b57611a0a611c98565b5b6001851615611a1a5780820291505b8081029050611a2885611d25565b94506119ef565b94509492505050565b6000611a4382611c22565b9150611a4e83611c22565b9250611a7b7fffffffffffffffffffffffffffffffffffffffffffffffffffffffffffffffff8484611a83565b905092915050565b600082611a935760019050611b4f565b81611aa15760009050611b4f565b8160018114611ab75760028114611ac157611af0565b6001915050611b4f565b60ff841115611ad357611ad2611c98565b5b8360020a915084821115611aea57611ae9611c98565b5b50611b4f565b5060208310610133831016604e8410600b8410161715611b255782820a905083811115611b2057611b1f611c98565b5b611b4f565b611b3284848460016119e5565b92509050818404811115611b4957611b48611c98565b5b81810290505b9392505050565b6000611b6182611c22565b9150611b6c83611c22565b9250817fffffffffffffffffffffffffffffffffffffffffffffffffffffffffffffffff0483118215151615611ba557611ba4611c98565b5b828202905092915050565b6000611bbb82611c22565b9150611bc683611c22565b925082821015611bd957611bd8611c98565b5b828203905092915050565b6000611bef82611c02565b9050919050565b60008115159050919050565b600073ffffffffffffffffffffffffffffffffffffffff82169050919050565b6000819050919050565b6000611c3782611c3e565b9050919050565b6000611c4982611c02565b9050919050565b6000611c5b82611c62565b9050919050565b6000611c6d82611c02565b9050919050565b6000611c7f82611c86565b9050919050565b6000611c9182611c02565b9050919050565b7f4e487b7100000000000000000000000000000000000000000000000000000000600052601160045260246000fd5b7f4e487b7100000000000000000000000000000000000000000000000000000000600052601260045260246000fd5b7f4e487b7100000000000000000000000000000000000000000000000000000000600052604160045260246000fd5b60008160011c9050919050565b611d3b81611be4565b8114611d4657600080fd5b50565b611d5281611bf6565b8114611d5d57600080fd5b50565b611d6981611c22565b8114611d7457600080fd5b5056fea2646970667358221220b89ce3c089a1a4739441d93e5032a81c698b5a144219a0770af3b0cc437aab8064736f6c63430008000033",
  "linkReferences": {
    "contracts/lib/Compute.sol": {
      "Compute": [
        {
          "length": 20,
          "start": 2929
        },
        {
          "length": 20,
          "start": 3261
        }
      ]
    },
    "contracts/lib/Math.sol": {
      "Math": [
        {
          "length": 20,
          "start": 3683
        },
        {
          "length": 20,
          "start": 5438
        },
        {
          "length": 20,
          "start": 5635
        }
      ]
    }
  },
  "deployedLinkReferences": {
    "contracts/lib/Compute.sol": {
      "Compute": [
        {
          "length": 20,
          "start": 2231
        },
        {
          "length": 20,
          "start": 2563
        }
      ]
    },
    "contracts/lib/Math.sol": {
      "Math": [
        {
          "length": 20,
          "start": 2985
        },
        {
          "length": 20,
          "start": 4740
        },
        {
          "length": 20,
          "start": 4937
        }
      ]
    }
  }
}