{
  "_format": "hh-sol-artifact-1",
  "contractName": "CombatModule",
  "sourceName": "contracts/modules/CombatModule.sol",
  "abi": [
    {
      "inputs": [
        {
          "internalType": "address",
          "name": "warriorSkillsAddr",
          "type": "address"
        },
        {
          "internalType": "address",
          "name": "warriorStatsAddr",
          "type": "address"
        },
        {
          "internalType": "address",
          "name": "treasuryAddr",
          "type": "address"
        }
      ],
      "stateMutability": "nonpayable",
      "type": "constructor"
    },
    {
      "anonymous": false,
      "inputs": [
        {
          "indexed": true,
          "internalType": "uint256",
          "name": "winner",
          "type": "uint256"
        },
        {
          "indexed": true,
          "internalType": "uint256",
          "name": "loser",
          "type": "uint256"
        },
        {
          "indexed": false,
          "internalType": "uint256",
          "name": "epSwapped",
          "type": "uint256"
        }
      ],
      "name": "FightDone",
      "type": "event"
    },
    {
      "anonymous": false,
      "inputs": [
        {
          "indexed": true,
          "internalType": "bytes32",
          "name": "role",
          "type": "bytes32"
        },
        {
          "indexed": true,
          "internalType": "bytes32",
          "name": "previousAdminRole",
          "type": "bytes32"
        },
        {
          "indexed": true,
          "internalType": "bytes32",
          "name": "newAdminRole",
          "type": "bytes32"
        }
      ],
      "name": "RoleAdminChanged",
      "type": "event"
    },
    {
      "anonymous": false,
      "inputs": [
        {
          "indexed": true,
          "internalType": "bytes32",
          "name": "role",
          "type": "bytes32"
        },
        {
          "indexed": true,
          "internalType": "address",
          "name": "account",
          "type": "address"
        },
        {
          "indexed": true,
          "internalType": "address",
          "name": "sender",
          "type": "address"
        }
      ],
      "name": "RoleGranted",
      "type": "event"
    },
    {
      "anonymous": false,
      "inputs": [
        {
          "indexed": true,
          "internalType": "bytes32",
          "name": "role",
          "type": "bytes32"
        },
        {
          "indexed": true,
          "internalType": "address",
          "name": "account",
          "type": "address"
        },
        {
          "indexed": true,
          "internalType": "address",
          "name": "sender",
          "type": "address"
        }
      ],
      "name": "RoleRevoked",
      "type": "event"
    },
    {
      "inputs": [],
      "name": "COMBAT_ROLE",
      "outputs": [
        {
          "internalType": "bytes32",
          "name": "",
          "type": "bytes32"
        }
      ],
      "stateMutability": "view",
      "type": "function"
    },
    {
      "inputs": [],
      "name": "DEFAULT_ADMIN_ROLE",
      "outputs": [
        {
          "internalType": "bytes32",
          "name": "",
          "type": "bytes32"
        }
      ],
      "stateMutability": "view",
      "type": "function"
    },
    {
      "inputs": [
        {
          "internalType": "uint256",
          "name": "w1",
          "type": "uint256"
        },
        {
          "internalType": "uint256",
          "name": "w2",
          "type": "uint256"
        }
      ],
      "name": "fight",
      "outputs": [],
      "stateMutability": "nonpayable",
      "type": "function"
    },
    {
      "inputs": [
        {
          "internalType": "bytes32",
          "name": "role",
          "type": "bytes32"
        }
      ],
      "name": "getRoleAdmin",
      "outputs": [
        {
          "internalType": "bytes32",
          "name": "",
          "type": "bytes32"
        }
      ],
      "stateMutability": "view",
      "type": "function"
    },
    {
      "inputs": [
        {
          "internalType": "bytes32",
          "name": "role",
          "type": "bytes32"
        },
        {
          "internalType": "address",
          "name": "account",
          "type": "address"
        }
      ],
      "name": "grantRole",
      "outputs": [],
      "stateMutability": "nonpayable",
      "type": "function"
    },
    {
      "inputs": [
        {
          "internalType": "bytes32",
          "name": "role",
          "type": "bytes32"
        },
        {
          "internalType": "address",
          "name": "account",
          "type": "address"
        }
      ],
      "name": "hasRole",
      "outputs": [
        {
          "internalType": "bool",
          "name": "",
          "type": "bool"
        }
      ],
      "stateMutability": "view",
      "type": "function"
    },
    {
      "inputs": [
        {
          "internalType": "bytes32",
          "name": "role",
          "type": "bytes32"
        },
        {
          "internalType": "address",
          "name": "account",
          "type": "address"
        }
      ],
      "name": "renounceRole",
      "outputs": [],
      "stateMutability": "nonpayable",
      "type": "function"
    },
    {
      "inputs": [
        {
          "internalType": "bytes32",
          "name": "role",
          "type": "bytes32"
        },
        {
          "internalType": "address",
          "name": "account",
          "type": "address"
        }
      ],
      "name": "revokeRole",
      "outputs": [],
      "stateMutability": "nonpayable",
      "type": "function"
    },
    {
      "inputs": [
        {
          "internalType": "bytes4",
          "name": "interfaceId",
          "type": "bytes4"
        }
      ],
      "name": "supportsInterface",
      "outputs": [
        {
          "internalType": "bool",
          "name": "",
          "type": "bool"
        }
      ],
      "stateMutability": "view",
      "type": "function"
    },
    {
      "inputs": [],
      "name": "treasury",
      "outputs": [
        {
          "internalType": "contract Treasury",
          "name": "",
          "type": "address"
        }
      ],
      "stateMutability": "view",
      "type": "function"
    },
    {
      "inputs": [],
      "name": "warriorSkills",
      "outputs": [
        {
          "internalType": "contract WarriorSkills",
          "name": "",
          "type": "address"
        }
      ],
      "stateMutability": "view",
      "type": "function"
    },
    {
      "inputs": [],
      "name": "warriorStats",
      "outputs": [
        {
          "internalType": "contract WarriorStats",
          "name": "",
          "type": "address"
        }
      ],
      "stateMutability": "view",
      "type": "function"
    }
  ],
  "bytecode": "0x60806040523480156200001157600080fd5b5060405162002d1238038062002d128339818101604052810190620000379190620002a8565b82600160006101000a81548173ffffffffffffffffffffffffffffffffffffffff021916908373ffffffffffffffffffffffffffffffffffffffff16021790555081600260006101000a81548173ffffffffffffffffffffffffffffffffffffffff021916908373ffffffffffffffffffffffffffffffffffffffff16021790555080600360006101000a81548173ffffffffffffffffffffffffffffffffffffffff021916908373ffffffffffffffffffffffffffffffffffffffff1602179055506200010f6000801b336200011860201b60201c565b5050506200034c565b6200012a82826200012e60201b60201c565b5050565b6200014082826200021f60201b60201c565b6200021b57600160008084815260200190815260200160002060000160008373ffffffffffffffffffffffffffffffffffffffff1673ffffffffffffffffffffffffffffffffffffffff16815260200190815260200160002060006101000a81548160ff021916908315150217905550620001c06200028960201b60201c565b73ffffffffffffffffffffffffffffffffffffffff168173ffffffffffffffffffffffffffffffffffffffff16837f2f8788117e7eff1d82e926ec794901d17c78024a50270940304540a733656f0d60405160405180910390a45b5050565b600080600084815260200190815260200160002060000160008373ffffffffffffffffffffffffffffffffffffffff1673ffffffffffffffffffffffffffffffffffffffff16815260200190815260200160002060009054906101000a900460ff16905092915050565b600033905090565b600081519050620002a28162000332565b92915050565b600080600060608486031215620002be57600080fd5b6000620002ce8682870162000291565b9350506020620002e18682870162000291565b9250506040620002f48682870162000291565b9150509250925092565b60006200030b8262000312565b9050919050565b600073ffffffffffffffffffffffffffffffffffffffff82169050919050565b6200033d81620002fe565b81146200034957600080fd5b50565b6129b6806200035c6000396000f3fe608060405234801561001057600080fd5b50600436106100b45760003560e01c806391d148541161007157806391d148541461018d5780639cee4822146101bd578063a217fddf146101db578063ca39e5ef146101f9578063d547741f14610215578063f99cd25b14610231576100b4565b806301ffc9a7146100b9578063248a9ca3146100e95780632f2ff15d1461011957806336568abe1461013557806361d027b314610151578063823c51f11461016f575b600080fd5b6100d360048036038101906100ce9190611f38565b61024f565b6040516100e091906121ab565b60405180910390f35b61010360048036038101906100fe9190611ed3565b6102c9565b60405161011091906121c6565b60405180910390f35b610133600480360381019061012e9190611efc565b6102e8565b005b61014f600480360381019061014a9190611efc565b610311565b005b610159610394565b60405161016691906121e1565b60405180910390f35b6101776103ba565b60405161018491906121c6565b60405180910390f35b6101a760048036038101906101a29190611efc565b6103de565b6040516101b491906121ab565b60405180910390f35b6101c5610448565b6040516101d291906121fc565b60405180910390f35b6101e361046e565b6040516101f091906121c6565b60405180910390f35b610213600480360381019061020e9190611fb3565b610475565b005b61022f600480360381019061022a9190611efc565b611504565b005b61023961152d565b6040516102469190612217565b60405180910390f35b60007f7965db0b000000000000000000000000000000000000000000000000000000007bffffffffffffffffffffffffffffffffffffffffffffffffffffffff1916827bffffffffffffffffffffffffffffffffffffffffffffffffffffffff191614806102c257506102c182611553565b5b9050919050565b6000806000838152602001908152602001600020600101549050919050565b6102f1826102c9565b610302816102fd6115bd565b6115c5565b61030c8383611662565b505050565b6103196115bd565b73ffffffffffffffffffffffffffffffffffffffff168173ffffffffffffffffffffffffffffffffffffffff1614610386576040517f08c379a000000000000000000000000000000000000000000000000000000000815260040161037d90612294565b60405180910390fd5b6103908282611742565b5050565b600360009054906101000a900473ffffffffffffffffffffffffffffffffffffffff1681565b7f3e080ec955b0872a48616505668afef3d5feb6f6ed7066618b240a262412ea7581565b600080600084815260200190815260200160002060000160008373ffffffffffffffffffffffffffffffffffffffff1673ffffffffffffffffffffffffffffffffffffffff16815260200190815260200160002060009054906101000a900460ff16905092915050565b600160009054906101000a900473ffffffffffffffffffffffffffffffffffffffff1681565b6000801b81565b7f3e080ec955b0872a48616505668afef3d5feb6f6ed7066618b240a262412ea756104a7816104a26115bd565b6115c5565b6004600084815260200190815260200160002060009054906101000a900460ff1615610508576040517f08c379a00000000000000000000000000000000000000000000000000000000081526004016104ff90612274565b60405180910390fd5b6004600083815260200190815260200160002060009054906101000a900460ff1615610569576040517f08c379a000000000000000000000000000000000000000000000000000000000815260040161056090612274565b60405180910390fd5b610571611d64565b600160009054906101000a900473ffffffffffffffffffffffffffffffffffffffff1673ffffffffffffffffffffffffffffffffffffffff166350d15fbe856040518263ffffffff1660e01b81526004016105cc91906122cf565b60a06040518083038186803b1580156105e457600080fd5b505afa1580156105f8573d6000803e3d6000fd5b505050506040513d601f19601f8201168201806040525081019061061c9190611f61565b81600060028110610656577f4e487b7100000000000000000000000000000000000000000000000000000000600052603260045260246000fd5b6020020181905250600160009054906101000a900473ffffffffffffffffffffffffffffffffffffffff1673ffffffffffffffffffffffffffffffffffffffff166350d15fbe846040518263ffffffff1660e01b81526004016106b991906122cf565b60a06040518083038186803b1580156106d157600080fd5b505afa1580156106e5573d6000803e3d6000fd5b505050506040513d601f19601f820116820180604052508101906107099190611f61565b81600160028110610743577f4e487b7100000000000000000000000000000000000000000000000000000000600052603260045260246000fd5b6020020181905250610753611d91565b600360009054906101000a900473ffffffffffffffffffffffffffffffffffffffff1673ffffffffffffffffffffffffffffffffffffffff1663d3e97165866040518263ffffffff1660e01b81526004016107ae91906122cf565b60206040518083038186803b1580156107c657600080fd5b505afa1580156107da573d6000803e3d6000fd5b505050506040513d601f19601f820116820180604052508101906107fe9190611f8a565b81600060028110610838577f4e487b7100000000000000000000000000000000000000000000000000000000600052603260045260246000fd5b602002018181525050600360009054906101000a900473ffffffffffffffffffffffffffffffffffffffff1673ffffffffffffffffffffffffffffffffffffffff1663d3e97165856040518263ffffffff1660e01b815260040161089c91906122cf565b60206040518083038186803b1580156108b457600080fd5b505afa1580156108c8573d6000803e3d6000fd5b505050506040513d601f19601f820116820180604052508101906108ec9190611f8a565b81600160028110610926577f4e487b7100000000000000000000000000000000000000000000000000000000600052603260045260246000fd5b602002018181525050610937611d91565b600173__$785a3750a744651a4256c1a0a9b0861e2b$__63c30ab0358460006002811061098d577f4e487b7100000000000000000000000000000000000000000000000000000000600052603260045260246000fd5b6020020151866000600281106109cc577f4e487b7100000000000000000000000000000000000000000000000000000000600052603260045260246000fd5b6020020151608001516040518363ffffffff1660e01b81526004016109f29291906122ea565b60206040518083038186803b158015610a0a57600080fd5b505af4158015610a1e573d6000803e3d6000fd5b505050506040513d601f19601f82011682018060405250810190610a429190611f8a565b610a4c91906125da565b81600060028110610a86577f4e487b7100000000000000000000000000000000000000000000000000000000600052603260045260246000fd5b602002018181525050600173__$785a3750a744651a4256c1a0a9b0861e2b$__63c30ab03584600160028110610ae5577f4e487b7100000000000000000000000000000000000000000000000000000000600052603260045260246000fd5b602002015186600160028110610b24577f4e487b7100000000000000000000000000000000000000000000000000000000600052603260045260246000fd5b6020020151608001516040518363ffffffff1660e01b8152600401610b4a9291906122ea565b60206040518083038186803b158015610b6257600080fd5b505af4158015610b76573d6000803e3d6000fd5b505050506040513d601f19601f82011682018060405250810190610b9a9190611f8a565b610ba491906125da565b81600160028110610bde577f4e487b7100000000000000000000000000000000000000000000000000000000600052603260045260246000fd5b6020020181815250506000600190506000610bf7611d91565b73__$785a3750a744651a4256c1a0a9b0861e2b$__636f644fa186600060028110610c4b577f4e487b7100000000000000000000000000000000000000000000000000000000600052603260045260246000fd5b602002015188600060028110610c8a577f4e487b7100000000000000000000000000000000000000000000000000000000600052603260045260246000fd5b6020020151606001516040518363ffffffff1660e01b8152600401610cb09291906122ea565b60206040518083038186803b158015610cc857600080fd5b505af4158015610cdc573d6000803e3d6000fd5b505050506040513d601f19601f82011682018060405250810190610d009190611f8a565b81600060028110610d3a577f4e487b7100000000000000000000000000000000000000000000000000000000600052603260045260246000fd5b60200201818152505073__$785a3750a744651a4256c1a0a9b0861e2b$__636f644fa186600160028110610d97577f4e487b7100000000000000000000000000000000000000000000000000000000600052603260045260246000fd5b602002015188600160028110610dd6577f4e487b7100000000000000000000000000000000000000000000000000000000600052603260045260246000fd5b6020020151606001516040518363ffffffff1660e01b8152600401610dfc9291906122ea565b60206040518083038186803b158015610e1457600080fd5b505af4158015610e28573d6000803e3d6000fd5b505050506040513d601f19601f82011682018060405250810190610e4c9190611f8a565b81600160028110610e86577f4e487b7100000000000000000000000000000000000000000000000000000000600052603260045260246000fd5b6020020181815250506001600460008b815260200190815260200160002060006101000a81548160ff0219169083151502179055506001600460008a815260200190815260200160002060006101000a81548160ff021916908315150217905550600073__$dd1ab798ac7c049bf7bfb1525e9810c58f$__633b3dca766040518163ffffffff1660e01b815260040160206040518083038186803b158015610f2d57600080fd5b505af4158015610f41573d6000803e3d6000fd5b505050506040513d601f19601f82011682018060405250810190610f659190611f8a565b9050600087600160028110610fa3577f4e487b7100000000000000000000000000000000000000000000000000000000600052603260045260246000fd5b60200201516080015188600060028110610fe6577f4e487b7100000000000000000000000000000000000000000000000000000000600052603260045260246000fd5b60200201516080015111610ffb576001610ffe565b60005b60ff1690508760016002811061103d577f4e487b7100000000000000000000000000000000000000000000000000000000600052603260045260246000fd5b60200201516080015188600060028110611080577f4e487b7100000000000000000000000000000000000000000000000000000000600052603260045260246000fd5b60200201516080015114156110a8576101f3821061109f5760016110a2565b60005b60ff1690505b60008160016110b791906125da565b90505b85156113105760008483600281106110fb577f4e487b7100000000000000000000000000000000000000000000000000000000600052603260045260246000fd5b6020020151905061120c89846002811061113e577f4e487b7100000000000000000000000000000000000000000000000000000000600052603260045260246000fd5b60200201518b856002811061117c577f4e487b7100000000000000000000000000000000000000000000000000000000600052603260045260246000fd5b6020020151602001518c85600281106111be577f4e487b7100000000000000000000000000000000000000000000000000000000600052603260045260246000fd5b6020020151604001518b8760028110611200577f4e487b7100000000000000000000000000000000000000000000000000000000600052603260045260246000fd5b60200201518810611823565b95508086101561130557858161122291906125da565b85836002811061125b577f4e487b7100000000000000000000000000000000000000000000000000000000600052603260045260246000fd5b60200201818152505082600161127191906125da565b925081600161128091906125da565b915073__$dd1ab798ac7c049bf7bfb1525e9810c58f$__633b3dca766040518163ffffffff1660e01b815260040160206040518083038186803b1580156112c657600080fd5b505af41580156112da573d6000803e3d6000fd5b505050506040513d601f19601f820116820180604052508101906112fe9190611f8a565b935061130a565b600096505b506110ba565b6000821461131e578a611320565b8b5b915060008114611330578a611332565b8b5b90506000600360009054906101000a900473ffffffffffffffffffffffffffffffffffffffff1673ffffffffffffffffffffffffffffffffffffffff16630a12b9d984846040518363ffffffff1660e01b8152600401611393929190612313565b602060405180830381600087803b1580156113ad57600080fd5b505af11580156113c1573d6000803e3d6000fd5b505050506040513d601f19601f820116820180604052508101906113e59190611f8a565b9050600260009054906101000a900473ffffffffffffffffffffffffffffffffffffffff1673ffffffffffffffffffffffffffffffffffffffff1663c81f7c5284846040518363ffffffff1660e01b8152600401611444929190612313565b600060405180830381600087803b15801561145e57600080fd5b505af1158015611472573d6000803e3d6000fd5b50505050600460008e815260200190815260200160002060006101000a81549060ff0219169055600460008d815260200190815260200160002060006101000a81549060ff021916905581837f680b54ab86ca952f02b77489ab3ff16beb6472ef10a146d666e082c0a703f4e3836040516114ed91906122cf565b60405180910390a350505050505050505050505050565b61150d826102c9565b61151e816115196115bd565b6115c5565b6115288383611742565b505050565b600260009054906101000a900473ffffffffffffffffffffffffffffffffffffffff1681565b60007f01ffc9a7000000000000000000000000000000000000000000000000000000007bffffffffffffffffffffffffffffffffffffffffffffffffffffffff1916827bffffffffffffffffffffffffffffffffffffffffffffffffffffffff1916149050919050565b600033905090565b6115cf82826103de565b61165e576115f48173ffffffffffffffffffffffffffffffffffffffff1660146118e8565b6116028360001c60206118e8565b604051602001611613929190612171565b6040516020818303038152906040526040517f08c379a00000000000000000000000000000000000000000000000000000000081526004016116559190612232565b60405180910390fd5b5050565b61166c82826103de565b61173e57600160008084815260200190815260200160002060000160008373ffffffffffffffffffffffffffffffffffffffff1673ffffffffffffffffffffffffffffffffffffffff16815260200190815260200160002060006101000a81548160ff0219169083151502179055506116e36115bd565b73ffffffffffffffffffffffffffffffffffffffff168173ffffffffffffffffffffffffffffffffffffffff16837f2f8788117e7eff1d82e926ec794901d17c78024a50270940304540a733656f0d60405160405180910390a45b5050565b61174c82826103de565b1561181f57600080600084815260200190815260200160002060000160008373ffffffffffffffffffffffffffffffffffffffff1673ffffffffffffffffffffffffffffffffffffffff16815260200190815260200160002060006101000a81548160ff0219169083151502179055506117c46115bd565b73ffffffffffffffffffffffffffffffffffffffff168173ffffffffffffffffffffffffffffffffffffffff16837ff6391f5c32d9c69d2a47ea670b442974b53935d1edc7fd64eb21e047a839171b60405160405180910390a45b5050565b6000806402540be400600a61183788611be2565b60026118439190612580565b61184d9190612388565b6118579190612580565b905060006402540be4008561186c9190612580565b6402540be4008761187d9190612580565b61188791906123de565b905060028261189691906123de565b915080826118a49190612580565b91506402540be400826118b791906123de565b915083156118db57600a600f836118ce9190612580565b6118d891906123de565b91505b8192505050949350505050565b6060600060028360026118fb9190612580565b6119059190612388565b67ffffffffffffffff811115611944577f4e487b7100000000000000000000000000000000000000000000000000000000600052604160045260246000fd5b6040519080825280601f01601f1916602001820160405280156119765781602001600182028036833780820191505090505b5090507f3000000000000000000000000000000000000000000000000000000000000000816000815181106119d4577f4e487b7100000000000000000000000000000000000000000000000000000000600052603260045260246000fd5b60200101907effffffffffffffffffffffffffffffffffffffffffffffffffffffffffffff1916908160001a9053507f780000000000000000000000000000000000000000000000000000000000000081600181518110611a5e577f4e487b7100000000000000000000000000000000000000000000000000000000600052603260045260246000fd5b60200101907effffffffffffffffffffffffffffffffffffffffffffffffffffffffffffff1916908160001a90535060006001846002611a9e9190612580565b611aa89190612388565b90505b6001811115611b94577f3031323334353637383961626364656600000000000000000000000000000000600f861660108110611b10577f4e487b7100000000000000000000000000000000000000000000000000000000600052603260045260246000fd5b1a60f81b828281518110611b4d577f4e487b7100000000000000000000000000000000000000000000000000000000600052603260045260246000fd5b60200101907effffffffffffffffffffffffffffffffffffffffffffffffffffffffffffff1916908160001a905350600485901c945080611b8d9061272b565b9050611aab565b5060008414611bd8576040517f08c379a0000000000000000000000000000000000000000000000000000000008152600401611bcf90612254565b60405180910390fd5b8091505092915050565b60008073__$dd1ab798ac7c049bf7bfb1525e9810c58f$__63b83f21b5846012600a611c0e9190612462565b602d611c1a9190612580565b6040518363ffffffff1660e01b8152600401611c379291906122ea565b60206040518083038186803b158015611c4f57600080fd5b505af4158015611c63573d6000803e3d6000fd5b505050506040513d601f19601f82011682018060405250810190611c879190611f8a565b9050600a80611c969190612462565b81611ca191906123de565b9050601960ff1681611cb39190612580565b905073__$dd1ab798ac7c049bf7bfb1525e9810c58f$__63677342ce826040518263ffffffff1660e01b8152600401611cec91906122b4565b60206040518083038186803b158015611d0457600080fd5b505af4158015611d18573d6000803e3d6000fd5b505050506040513d601f19601f82011682018060405250810190611d3c9190611f8a565b90506001620186a082611d4f91906123de565b611d599190612388565b905080915050919050565b60405180604001604052806002905b611d7b611db3565b815260200190600190039081611d735790505090565b6040518060400160405280600290602082028036833780820191505090505090565b6040518060a0016040528060008152602001600081526020016000815260200160008152602001600081525090565b600081359050611df181612924565b92915050565b600081359050611e068161293b565b92915050565b600081359050611e1b81612952565b92915050565b600060a08284031215611e3357600080fd5b611e3d60a061233c565b90506000611e4d84828501611ebe565b6000830152506020611e6184828501611ebe565b6020830152506040611e7584828501611ebe565b6040830152506060611e8984828501611ebe565b6060830152506080611e9d84828501611ebe565b60808301525092915050565b600081359050611eb881612969565b92915050565b600081519050611ecd81612969565b92915050565b600060208284031215611ee557600080fd5b6000611ef384828501611df7565b91505092915050565b60008060408385031215611f0f57600080fd5b6000611f1d85828601611df7565b9250506020611f2e85828601611de2565b9150509250929050565b600060208284031215611f4a57600080fd5b6000611f5884828501611e0c565b91505092915050565b600060a08284031215611f7357600080fd5b6000611f8184828501611e21565b91505092915050565b600060208284031215611f9c57600080fd5b6000611faa84828501611ebe565b91505092915050565b60008060408385031215611fc657600080fd5b6000611fd485828601611ea9565b9250506020611fe585828601611ea9565b9150509250929050565b611ff881612620565b82525050565b6120078161262c565b82525050565b6120168161268c565b82525050565b612025816126b0565b82525050565b612034816126d4565b82525050565b600061204582612361565b61204f818561236c565b935061205f8185602086016126f8565b61206881612813565b840191505092915050565b600061207e82612361565b612088818561237d565b93506120988185602086016126f8565b80840191505092915050565b60006120b160208361236c565b91506120bc82612831565b602082019050919050565b60006120d460108361236c565b91506120df8261285a565b602082019050919050565b60006120f760178361237d565b915061210282612883565b601782019050919050565b600061211a60118361237d565b9150612125826128ac565b601182019050919050565b600061213d602f8361236c565b9150612148826128d5565b604082019050919050565b61215c81612682565b82525050565b61216b81612682565b82525050565b600061217c826120ea565b91506121888285612073565b91506121938261210d565b915061219f8284612073565b91508190509392505050565b60006020820190506121c06000830184611fef565b92915050565b60006020820190506121db6000830184611ffe565b92915050565b60006020820190506121f6600083018461200d565b92915050565b6000602082019050612211600083018461201c565b92915050565b600060208201905061222c600083018461202b565b92915050565b6000602082019050818103600083015261224c818461203a565b905092915050565b6000602082019050818103600083015261226d816120a4565b9050919050565b6000602082019050818103600083015261228d816120c7565b9050919050565b600060208201905081810360008301526122ad81612130565b9050919050565b60006020820190506122c96000830184612162565b92915050565b60006020820190506122e46000830184612153565b92915050565b60006040820190506122ff6000830185612162565b61230c6020830184612162565b9392505050565b60006040820190506123286000830185612153565b6123356020830184612153565b9392505050565b6000612346612357565b90506123528282612755565b919050565b6000604051905090565b600081519050919050565b600082825260208201905092915050565b600081905092915050565b600061239382612682565b915061239e83612682565b9250827fffffffffffffffffffffffffffffffffffffffffffffffffffffffffffffffff038211156123d3576123d2612786565b5b828201905092915050565b60006123e982612682565b91506123f483612682565b925082612404576124036127b5565b5b828204905092915050565b6000808291508390505b60018511156124595780860481111561243557612434612786565b5b60018516156124445780820291505b808102905061245285612824565b9450612419565b94509492505050565b600061246d82612682565b915061247883612682565b92506124a57fffffffffffffffffffffffffffffffffffffffffffffffffffffffffffffffff84846124ad565b905092915050565b6000826124bd5760019050612579565b816124cb5760009050612579565b81600181146124e157600281146124eb5761251a565b6001915050612579565b60ff8411156124fd576124fc612786565b5b8360020a91508482111561251457612513612786565b5b50612579565b5060208310610133831016604e8410600b841016171561254f5782820a90508381111561254a57612549612786565b5b612579565b61255c848484600161240f565b9250905081840481111561257357612572612786565b5b81810290505b9392505050565b600061258b82612682565b915061259683612682565b9250817fffffffffffffffffffffffffffffffffffffffffffffffffffffffffffffffff04831182151516156125cf576125ce612786565b5b828202905092915050565b60006125e582612682565b91506125f083612682565b92508282101561260357612602612786565b5b828203905092915050565b600061261982612662565b9050919050565b60008115159050919050565b6000819050919050565b60007fffffffff0000000000000000000000000000000000000000000000000000000082169050919050565b600073ffffffffffffffffffffffffffffffffffffffff82169050919050565b6000819050919050565b60006126978261269e565b9050919050565b60006126a982612662565b9050919050565b60006126bb826126c2565b9050919050565b60006126cd82612662565b9050919050565b60006126df826126e6565b9050919050565b60006126f182612662565b9050919050565b60005b838110156127165780820151818401526020810190506126fb565b83811115612725576000848401525b50505050565b600061273682612682565b9150600082141561274a57612749612786565b5b600182039050919050565b61275e82612813565b810181811067ffffffffffffffff8211171561277d5761277c6127e4565b5b80604052505050565b7f4e487b7100000000000000000000000000000000000000000000000000000000600052601160045260246000fd5b7f4e487b7100000000000000000000000000000000000000000000000000000000600052601260045260246000fd5b7f4e487b7100000000000000000000000000000000000000000000000000000000600052604160045260246000fd5b6000601f19601f8301169050919050565b60008160011c9050919050565b7f537472696e67733a20686578206c656e67746820696e73756666696369656e74600082015250565b7f616c7265616479206669676874696e6700000000000000000000000000000000600082015250565b7f416363657373436f6e74726f6c3a206163636f756e7420000000000000000000600082015250565b7f206973206d697373696e6720726f6c6520000000000000000000000000000000600082015250565b7f416363657373436f6e74726f6c3a2063616e206f6e6c792072656e6f756e636560008201527f20726f6c657320666f722073656c660000000000000000000000000000000000602082015250565b61292d8161260e565b811461293857600080fd5b50565b6129448161262c565b811461294f57600080fd5b50565b61295b81612636565b811461296657600080fd5b50565b61297281612682565b811461297d57600080fd5b5056fea26469706673582212207b8ee616da5e44c02a8282b8719e4f01fd6609a0de4c2af6753cdf30781febbc64736f6c63430008040033",
  "linkReferences": {
    "contracts/lib/Compute.sol": {
      "Compute": [
        {
          "length": 20,
          "start": 3223
        },
        {
          "length": 20,
          "start": 3567
        },
        {
          "length": 20,
          "start": 3925
        },
        {
          "length": 20,
          "start": 4257
        }
      ]
    },
    "contracts/lib/Math.sol": {
      "Math": [
        {
          "length": 20,
          "start": 4679
        },
        {
          "length": 20,
          "start": 5600
        },
        {
          "length": 20,
          "start": 8003
        },
        {
          "length": 20,
          "start": 8211
        }
      ]
    }
  },
  "deployedLinkReferences": {
    "contracts/lib/Compute.sol": {
      "Compute": [
        {
          "length": 20,
          "start": 2363
        },
        {
          "length": 20,
          "start": 2707
        },
        {
          "length": 20,
          "start": 3065
        },
        {
          "length": 20,
          "start": 3397
        }
      ]
    },
    "contracts/lib/Math.sol": {
      "Math": [
        {
          "length": 20,
          "start": 3819
        },
        {
          "length": 20,
          "start": 4740
        },
        {
          "length": 20,
          "start": 7143
        },
        {
          "length": 20,
          "start": 7351
        }
      ]
    }
  }
}