{
  "_format": "hh-sol-artifact-1",
  "contractName": "CombatModule",
  "sourceName": "contracts/modules/CombatModule.sol",
  "abi": [
    {
      "inputs": [
        {
          "internalType": "address",
          "name": "warriorSkillsAddr",
          "type": "address"
        },
        {
          "internalType": "address",
          "name": "warriorStatsAddr",
          "type": "address"
        },
        {
          "internalType": "address",
          "name": "treasuryAddr",
          "type": "address"
        }
      ],
      "stateMutability": "nonpayable",
      "type": "constructor"
    },
    {
      "anonymous": false,
      "inputs": [
        {
          "indexed": true,
          "internalType": "uint256",
          "name": "winner",
          "type": "uint256"
        },
        {
          "indexed": true,
          "internalType": "uint256",
          "name": "loser",
          "type": "uint256"
        },
        {
          "indexed": false,
          "internalType": "uint256",
          "name": "epSwapped",
          "type": "uint256"
        }
      ],
      "name": "FightDone",
      "type": "event"
    },
    {
      "anonymous": false,
      "inputs": [
        {
          "indexed": true,
          "internalType": "bytes32",
          "name": "role",
          "type": "bytes32"
        },
        {
          "indexed": true,
          "internalType": "bytes32",
          "name": "previousAdminRole",
          "type": "bytes32"
        },
        {
          "indexed": true,
          "internalType": "bytes32",
          "name": "newAdminRole",
          "type": "bytes32"
        }
      ],
      "name": "RoleAdminChanged",
      "type": "event"
    },
    {
      "anonymous": false,
      "inputs": [
        {
          "indexed": true,
          "internalType": "bytes32",
          "name": "role",
          "type": "bytes32"
        },
        {
          "indexed": true,
          "internalType": "address",
          "name": "account",
          "type": "address"
        },
        {
          "indexed": true,
          "internalType": "address",
          "name": "sender",
          "type": "address"
        }
      ],
      "name": "RoleGranted",
      "type": "event"
    },
    {
      "anonymous": false,
      "inputs": [
        {
          "indexed": true,
          "internalType": "bytes32",
          "name": "role",
          "type": "bytes32"
        },
        {
          "indexed": true,
          "internalType": "address",
          "name": "account",
          "type": "address"
        },
        {
          "indexed": true,
          "internalType": "address",
          "name": "sender",
          "type": "address"
        }
      ],
      "name": "RoleRevoked",
      "type": "event"
    },
    {
      "inputs": [],
      "name": "COMBAT_ROLE",
      "outputs": [
        {
          "internalType": "bytes32",
          "name": "",
          "type": "bytes32"
        }
      ],
      "stateMutability": "view",
      "type": "function"
    },
    {
      "inputs": [],
      "name": "DEFAULT_ADMIN_ROLE",
      "outputs": [
        {
          "internalType": "bytes32",
          "name": "",
          "type": "bytes32"
        }
      ],
      "stateMutability": "view",
      "type": "function"
    },
    {
      "inputs": [
        {
          "internalType": "uint256",
          "name": "w1",
          "type": "uint256"
        },
        {
          "internalType": "uint256",
          "name": "w2",
          "type": "uint256"
        }
      ],
      "name": "fight",
      "outputs": [],
      "stateMutability": "nonpayable",
      "type": "function"
    },
    {
      "inputs": [
        {
          "internalType": "bytes32",
          "name": "role",
          "type": "bytes32"
        }
      ],
      "name": "getRoleAdmin",
      "outputs": [
        {
          "internalType": "bytes32",
          "name": "",
          "type": "bytes32"
        }
      ],
      "stateMutability": "view",
      "type": "function"
    },
    {
      "inputs": [
        {
          "internalType": "bytes32",
          "name": "role",
          "type": "bytes32"
        },
        {
          "internalType": "address",
          "name": "account",
          "type": "address"
        }
      ],
      "name": "grantRole",
      "outputs": [],
      "stateMutability": "nonpayable",
      "type": "function"
    },
    {
      "inputs": [
        {
          "internalType": "bytes32",
          "name": "role",
          "type": "bytes32"
        },
        {
          "internalType": "address",
          "name": "account",
          "type": "address"
        }
      ],
      "name": "hasRole",
      "outputs": [
        {
          "internalType": "bool",
          "name": "",
          "type": "bool"
        }
      ],
      "stateMutability": "view",
      "type": "function"
    },
    {
      "inputs": [
        {
          "internalType": "bytes32",
          "name": "role",
          "type": "bytes32"
        },
        {
          "internalType": "address",
          "name": "account",
          "type": "address"
        }
      ],
      "name": "renounceRole",
      "outputs": [],
      "stateMutability": "nonpayable",
      "type": "function"
    },
    {
      "inputs": [
        {
          "internalType": "bytes32",
          "name": "role",
          "type": "bytes32"
        },
        {
          "internalType": "address",
          "name": "account",
          "type": "address"
        }
      ],
      "name": "revokeRole",
      "outputs": [],
      "stateMutability": "nonpayable",
      "type": "function"
    },
    {
      "inputs": [
        {
          "internalType": "bytes4",
          "name": "interfaceId",
          "type": "bytes4"
        }
      ],
      "name": "supportsInterface",
      "outputs": [
        {
          "internalType": "bool",
          "name": "",
          "type": "bool"
        }
      ],
      "stateMutability": "view",
      "type": "function"
    },
    {
      "inputs": [],
      "name": "treasury",
      "outputs": [
        {
          "internalType": "contract Treasury",
          "name": "",
          "type": "address"
        }
      ],
      "stateMutability": "view",
      "type": "function"
    },
    {
      "inputs": [],
      "name": "warriorSkills",
      "outputs": [
        {
          "internalType": "contract WarriorSkills",
          "name": "",
          "type": "address"
        }
      ],
      "stateMutability": "view",
      "type": "function"
    },
    {
      "inputs": [],
      "name": "warriorStats",
      "outputs": [
        {
          "internalType": "contract WarriorStats",
          "name": "",
          "type": "address"
        }
      ],
      "stateMutability": "view",
      "type": "function"
    }
  ],
  "bytecode": "0x60806040523480156200001157600080fd5b50604051620027ca380380620027ca8339818101604052810190620000379190620002a8565b82600160006101000a81548173ffffffffffffffffffffffffffffffffffffffff021916908373ffffffffffffffffffffffffffffffffffffffff16021790555081600260006101000a81548173ffffffffffffffffffffffffffffffffffffffff021916908373ffffffffffffffffffffffffffffffffffffffff16021790555080600360006101000a81548173ffffffffffffffffffffffffffffffffffffffff021916908373ffffffffffffffffffffffffffffffffffffffff1602179055506200010f6000801b336200011860201b60201c565b5050506200034c565b6200012a82826200012e60201b60201c565b5050565b6200014082826200021f60201b60201c565b6200021b57600160008084815260200190815260200160002060000160008373ffffffffffffffffffffffffffffffffffffffff1673ffffffffffffffffffffffffffffffffffffffff16815260200190815260200160002060006101000a81548160ff021916908315150217905550620001c06200028960201b60201c565b73ffffffffffffffffffffffffffffffffffffffff168173ffffffffffffffffffffffffffffffffffffffff16837f2f8788117e7eff1d82e926ec794901d17c78024a50270940304540a733656f0d60405160405180910390a45b5050565b600080600084815260200190815260200160002060000160008373ffffffffffffffffffffffffffffffffffffffff1673ffffffffffffffffffffffffffffffffffffffff16815260200190815260200160002060009054906101000a900460ff16905092915050565b600033905090565b600081519050620002a28162000332565b92915050565b600080600060608486031215620002be57600080fd5b6000620002ce8682870162000291565b9350506020620002e18682870162000291565b9250506040620002f48682870162000291565b9150509250925092565b60006200030b8262000312565b9050919050565b600073ffffffffffffffffffffffffffffffffffffffff82169050919050565b6200033d81620002fe565b81146200034957600080fd5b50565b61246e806200035c6000396000f3fe608060405234801561001057600080fd5b50600436106100b45760003560e01c806391d148541161007157806391d148541461018d5780639cee4822146101bd578063a217fddf146101db578063ca39e5ef146101f9578063d547741f14610215578063f99cd25b14610231576100b4565b806301ffc9a7146100b9578063248a9ca3146100e95780632f2ff15d1461011957806336568abe1461013557806361d027b314610151578063823c51f11461016f575b600080fd5b6100d360048036038101906100ce9190611a51565b61024f565b6040516100e09190611d7b565b60405180910390f35b61010360048036038101906100fe91906119ec565b6102c9565b6040516101109190611d96565b60405180910390f35b610133600480360381019061012e9190611a15565b6102e8565b005b61014f600480360381019061014a9190611a15565b610311565b005b610159610394565b6040516101669190611db1565b60405180910390f35b6101776103ba565b6040516101849190611d96565b60405180910390f35b6101a760048036038101906101a29190611a15565b6103de565b6040516101b49190611d7b565b60405180910390f35b6101c5610448565b6040516101d29190611dcc565b60405180910390f35b6101e361046e565b6040516101f09190611d96565b60405180910390f35b610213600480360381019061020e9190611acc565b610475565b005b61022f600480360381019061022a9190611a15565b611066565b005b61023961108f565b6040516102469190611de7565b60405180910390f35b60007f7965db0b000000000000000000000000000000000000000000000000000000007bffffffffffffffffffffffffffffffffffffffffffffffffffffffff1916827bffffffffffffffffffffffffffffffffffffffffffffffffffffffff191614806102c257506102c1826110b5565b5b9050919050565b6000806000838152602001908152602001600020600101549050919050565b6102f1826102c9565b610302816102fd61111f565b611127565b61030c83836111c4565b505050565b61031961111f565b73ffffffffffffffffffffffffffffffffffffffff168173ffffffffffffffffffffffffffffffffffffffff1614610386576040517f08c379a000000000000000000000000000000000000000000000000000000000815260040161037d90611e64565b60405180910390fd5b61039082826112a4565b5050565b600360009054906101000a900473ffffffffffffffffffffffffffffffffffffffff1681565b7f3e080ec955b0872a48616505668afef3d5feb6f6ed7066618b240a262412ea7581565b600080600084815260200190815260200160002060000160008373ffffffffffffffffffffffffffffffffffffffff1673ffffffffffffffffffffffffffffffffffffffff16815260200190815260200160002060009054906101000a900460ff16905092915050565b600160009054906101000a900473ffffffffffffffffffffffffffffffffffffffff1681565b6000801b81565b7f3e080ec955b0872a48616505668afef3d5feb6f6ed7066618b240a262412ea756104a7816104a261111f565b611127565b6004600084815260200190815260200160002060009054906101000a900460ff1615610508576040517f08c379a00000000000000000000000000000000000000000000000000000000081526004016104ff90611e44565b60405180910390fd5b6004600083815260200190815260200160002060009054906101000a900460ff1615610569576040517f08c379a000000000000000000000000000000000000000000000000000000000815260040161056090611e44565b60405180910390fd5b610571611898565b600160009054906101000a900473ffffffffffffffffffffffffffffffffffffffff1673ffffffffffffffffffffffffffffffffffffffff166350d15fbe856040518263ffffffff1660e01b81526004016105cc9190611e9f565b60806040518083038186803b1580156105e457600080fd5b505afa1580156105f8573d6000803e3d6000fd5b505050506040513d601f19601f8201168201806040525081019061061c9190611a7a565b81600060028110610656577f4e487b7100000000000000000000000000000000000000000000000000000000600052603260045260246000fd5b6020020181905250600160009054906101000a900473ffffffffffffffffffffffffffffffffffffffff1673ffffffffffffffffffffffffffffffffffffffff166350d15fbe846040518263ffffffff1660e01b81526004016106b99190611e9f565b60806040518083038186803b1580156106d157600080fd5b505afa1580156106e5573d6000803e3d6000fd5b505050506040513d601f19601f820116820180604052508101906107099190611a7a565b81600160028110610743577f4e487b7100000000000000000000000000000000000000000000000000000000600052603260045260246000fd5b60200201819052506107536118c5565b600360009054906101000a900473ffffffffffffffffffffffffffffffffffffffff1673ffffffffffffffffffffffffffffffffffffffff1663d3e97165866040518263ffffffff1660e01b81526004016107ae9190611e9f565b60206040518083038186803b1580156107c657600080fd5b505afa1580156107da573d6000803e3d6000fd5b505050506040513d601f19601f820116820180604052508101906107fe9190611aa3565b81600060028110610838577f4e487b7100000000000000000000000000000000000000000000000000000000600052603260045260246000fd5b602002018181525050600360009054906101000a900473ffffffffffffffffffffffffffffffffffffffff1673ffffffffffffffffffffffffffffffffffffffff1663d3e97165856040518263ffffffff1660e01b815260040161089c9190611e9f565b60206040518083038186803b1580156108b457600080fd5b505afa1580156108c8573d6000803e3d6000fd5b505050506040513d601f19601f820116820180604052508101906108ec9190611aa3565b81600160028110610926577f4e487b7100000000000000000000000000000000000000000000000000000000600052603260045260246000fd5b602002018181525050600060019050600061093f6118c5565b73__$785a3750a744651a4256c1a0a9b0861e2b$__636f644fa185600060028110610993577f4e487b7100000000000000000000000000000000000000000000000000000000600052603260045260246000fd5b6020020151876000600281106109d2577f4e487b7100000000000000000000000000000000000000000000000000000000600052603260045260246000fd5b6020020151606001516040518363ffffffff1660e01b81526004016109f8929190611eba565b60206040518083038186803b158015610a1057600080fd5b505af4158015610a24573d6000803e3d6000fd5b505050506040513d601f19601f82011682018060405250810190610a489190611aa3565b81600060028110610a82577f4e487b7100000000000000000000000000000000000000000000000000000000600052603260045260246000fd5b60200201818152505073__$785a3750a744651a4256c1a0a9b0861e2b$__636f644fa185600160028110610adf577f4e487b7100000000000000000000000000000000000000000000000000000000600052603260045260246000fd5b602002015187600160028110610b1e577f4e487b7100000000000000000000000000000000000000000000000000000000600052603260045260246000fd5b6020020151606001516040518363ffffffff1660e01b8152600401610b44929190611eba565b60206040518083038186803b158015610b5c57600080fd5b505af4158015610b70573d6000803e3d6000fd5b505050506040513d601f19601f82011682018060405250810190610b949190611aa3565b81600160028110610bce577f4e487b7100000000000000000000000000000000000000000000000000000000600052603260045260246000fd5b6020020181815250506001600460008a815260200190815260200160002060006101000a81548160ff02191690831515021790555060016004600089815260200190815260200160002060006101000a81548160ff021916908315150217905550600073__$dd1ab798ac7c049bf7bfb1525e9810c58f$__633b3dca766040518163ffffffff1660e01b815260040160206040518083038186803b158015610c7557600080fd5b505af4158015610c89573d6000803e3d6000fd5b505050506040513d601f19601f82011682018060405250810190610cad9190611aa3565b905060006101f38210610cc1576001610cc4565b60005b60ff1690506000816001610cd891906121b6565b90505b8515610e73576000848360028110610d1c577f4e487b7100000000000000000000000000000000000000000000000000000000600052603260045260246000fd5b60200201519050610ded888460028110610d5f577f4e487b7100000000000000000000000000000000000000000000000000000000600052603260045260246000fd5b60200201518a8560028110610d9d577f4e487b7100000000000000000000000000000000000000000000000000000000600052603260045260246000fd5b6020020151602001518b8560028110610ddf577f4e487b7100000000000000000000000000000000000000000000000000000000600052603260045260246000fd5b602002015160400151611385565b955080861015610e68578581610e0391906121b6565b858360028110610e3c577f4e487b7100000000000000000000000000000000000000000000000000000000600052603260045260246000fd5b602002018181525050826001610e5291906121b6565b9250816001610e6191906121b6565b9150610e6d565b600096505b50610cdb565b60008214610e815789610e83565b8a5b915060008114610e935789610e95565b8a5b90506000600360009054906101000a900473ffffffffffffffffffffffffffffffffffffffff1673ffffffffffffffffffffffffffffffffffffffff16630a12b9d984846040518363ffffffff1660e01b8152600401610ef6929190611ee3565b602060405180830381600087803b158015610f1057600080fd5b505af1158015610f24573d6000803e3d6000fd5b505050506040513d601f19601f82011682018060405250810190610f489190611aa3565b9050600260009054906101000a900473ffffffffffffffffffffffffffffffffffffffff1673ffffffffffffffffffffffffffffffffffffffff1663c81f7c5284846040518363ffffffff1660e01b8152600401610fa7929190611ee3565b600060405180830381600087803b158015610fc157600080fd5b505af1158015610fd5573d6000803e3d6000fd5b50505050600460008d815260200190815260200160002060006101000a81549060ff0219169055600460008c815260200190815260200160002060006101000a81549060ff021916905581837f680b54ab86ca952f02b77489ab3ff16beb6472ef10a146d666e082c0a703f4e3836040516110509190611e9f565b60405180910390a3505050505050505050505050565b61106f826102c9565b6110808161107b61111f565b611127565b61108a83836112a4565b505050565b600260009054906101000a900473ffffffffffffffffffffffffffffffffffffffff1681565b60007f01ffc9a7000000000000000000000000000000000000000000000000000000007bffffffffffffffffffffffffffffffffffffffffffffffffffffffff1916827bffffffffffffffffffffffffffffffffffffffffffffffffffffffff1916149050919050565b600033905090565b61113182826103de565b6111c0576111568173ffffffffffffffffffffffffffffffffffffffff166014611427565b6111648360001c6020611427565b604051602001611175929190611d41565b6040516020818303038152906040526040517f08c379a00000000000000000000000000000000000000000000000000000000081526004016111b79190611e02565b60405180910390fd5b5050565b6111ce82826103de565b6112a057600160008084815260200190815260200160002060000160008373ffffffffffffffffffffffffffffffffffffffff1673ffffffffffffffffffffffffffffffffffffffff16815260200190815260200160002060006101000a81548160ff02191690831515021790555061124561111f565b73ffffffffffffffffffffffffffffffffffffffff168173ffffffffffffffffffffffffffffffffffffffff16837f2f8788117e7eff1d82e926ec794901d17c78024a50270940304540a733656f0d60405160405180910390a45b5050565b6112ae82826103de565b1561138157600080600084815260200190815260200160002060000160008373ffffffffffffffffffffffffffffffffffffffff1673ffffffffffffffffffffffffffffffffffffffff16815260200190815260200160002060006101000a81548160ff02191690831515021790555061132661111f565b73ffffffffffffffffffffffffffffffffffffffff168173ffffffffffffffffffffffffffffffffffffffff16837ff6391f5c32d9c69d2a47ea670b442974b53935d1edc7fd64eb21e047a839171b60405160405180910390a45b5050565b6000806402540be400600a61139987611721565b60026113a5919061215c565b6113af9190611f64565b6113b9919061215c565b905060006402540be400846113ce919061215c565b6402540be400866113df919061215c565b6113e99190611fba565b90506002826113f89190611fba565b91508082611406919061215c565b91506402540be400826114199190611fba565b915081925050509392505050565b60606000600283600261143a919061215c565b6114449190611f64565b67ffffffffffffffff811115611483577f4e487b7100000000000000000000000000000000000000000000000000000000600052604160045260246000fd5b6040519080825280601f01601f1916602001820160405280156114b55781602001600182028036833780820191505090505b5090507f300000000000000000000000000000000000000000000000000000000000000081600081518110611513577f4e487b7100000000000000000000000000000000000000000000000000000000600052603260045260246000fd5b60200101907effffffffffffffffffffffffffffffffffffffffffffffffffffffffffffff1916908160001a9053507f78000000000000000000000000000000000000000000000000000000000000008160018151811061159d577f4e487b7100000000000000000000000000000000000000000000000000000000600052603260045260246000fd5b60200101907effffffffffffffffffffffffffffffffffffffffffffffffffffffffffffff1916908160001a905350600060018460026115dd919061215c565b6115e79190611f64565b90505b60018111156116d3577f3031323334353637383961626364656600000000000000000000000000000000600f86166010811061164f577f4e487b7100000000000000000000000000000000000000000000000000000000600052603260045260246000fd5b1a60f81b82828151811061168c577f4e487b7100000000000000000000000000000000000000000000000000000000600052603260045260246000fd5b60200101907effffffffffffffffffffffffffffffffffffffffffffffffffffffffffffff1916908160001a905350600485901c9450806116cc90612307565b90506115ea565b5060008414611717576040517f08c379a000000000000000000000000000000000000000000000000000000000815260040161170e90611e24565b60405180910390fd5b8091505092915050565b60008073__$dd1ab798ac7c049bf7bfb1525e9810c58f$__63b83f21b5846012600a61174d919061203e565b6040518363ffffffff1660e01b815260040161176a929190611eba565b60206040518083038186803b15801561178257600080fd5b505af4158015611796573d6000803e3d6000fd5b505050506040513d601f19601f820116820180604052508101906117ba9190611aa3565b90506008600a6117ca919061203e565b816117d59190611fba565b9050600a60ff16816117e7919061215c565b905073__$dd1ab798ac7c049bf7bfb1525e9810c58f$__63677342ce826040518263ffffffff1660e01b81526004016118209190611e84565b60206040518083038186803b15801561183857600080fd5b505af415801561184c573d6000803e3d6000fd5b505050506040513d601f19601f820116820180604052508101906118709190611aa3565b90506001620186a0826118839190611fba565b61188d9190611f64565b905080915050919050565b60405180604001604052806002905b6118af6118e7565b8152602001906001900390816118a75790505090565b6040518060400160405280600290602082028036833780820191505090505090565b6040518060800160405280600081526020016000815260200160008152602001600081525090565b60008135905061191e816123dc565b92915050565b600081359050611933816123f3565b92915050565b6000813590506119488161240a565b92915050565b60006080828403121561196057600080fd5b61196a6080611f0c565b9050600061197a848285016119d7565b600083015250602061198e848285016119d7565b60208301525060406119a2848285016119d7565b60408301525060606119b6848285016119d7565b60608301525092915050565b6000813590506119d181612421565b92915050565b6000815190506119e681612421565b92915050565b6000602082840312156119fe57600080fd5b6000611a0c84828501611924565b91505092915050565b60008060408385031215611a2857600080fd5b6000611a3685828601611924565b9250506020611a478582860161190f565b9150509250929050565b600060208284031215611a6357600080fd5b6000611a7184828501611939565b91505092915050565b600060808284031215611a8c57600080fd5b6000611a9a8482850161194e565b91505092915050565b600060208284031215611ab557600080fd5b6000611ac3848285016119d7565b91505092915050565b60008060408385031215611adf57600080fd5b6000611aed858286016119c2565b9250506020611afe858286016119c2565b9150509250929050565b611b11816121fc565b82525050565b611b2081612208565b82525050565b611b2f81612268565b82525050565b611b3e8161228c565b82525050565b611b4d816122b0565b82525050565b6000611b5e82611f3d565b611b688185611f48565b9350611b788185602086016122d4565b611b81816123be565b840191505092915050565b6000611b9782611f3d565b611ba18185611f59565b9350611bb18185602086016122d4565b80840191505092915050565b6000611bca602083611f48565b91507f537472696e67733a20686578206c656e67746820696e73756666696369656e746000830152602082019050919050565b6000611c0a601083611f48565b91507f616c7265616479206669676874696e67000000000000000000000000000000006000830152602082019050919050565b6000611c4a601783611f59565b91507f416363657373436f6e74726f6c3a206163636f756e74200000000000000000006000830152601782019050919050565b6000611c8a601183611f59565b91507f206973206d697373696e6720726f6c65200000000000000000000000000000006000830152601182019050919050565b6000611cca602f83611f48565b91507f416363657373436f6e74726f6c3a2063616e206f6e6c792072656e6f756e636560008301527f20726f6c657320666f722073656c6600000000000000000000000000000000006020830152604082019050919050565b611d2c8161225e565b82525050565b611d3b8161225e565b82525050565b6000611d4c82611c3d565b9150611d588285611b8c565b9150611d6382611c7d565b9150611d6f8284611b8c565b91508190509392505050565b6000602082019050611d906000830184611b08565b92915050565b6000602082019050611dab6000830184611b17565b92915050565b6000602082019050611dc66000830184611b26565b92915050565b6000602082019050611de16000830184611b35565b92915050565b6000602082019050611dfc6000830184611b44565b92915050565b60006020820190508181036000830152611e1c8184611b53565b905092915050565b60006020820190508181036000830152611e3d81611bbd565b9050919050565b60006020820190508181036000830152611e5d81611bfd565b9050919050565b60006020820190508181036000830152611e7d81611cbd565b9050919050565b6000602082019050611e996000830184611d32565b92915050565b6000602082019050611eb46000830184611d23565b92915050565b6000604082019050611ecf6000830185611d32565b611edc6020830184611d32565b9392505050565b6000604082019050611ef86000830185611d23565b611f056020830184611d23565b9392505050565b6000604051905081810181811067ffffffffffffffff82111715611f3357611f3261238f565b5b8060405250919050565b600081519050919050565b600082825260208201905092915050565b600081905092915050565b6000611f6f8261225e565b9150611f7a8361225e565b9250827fffffffffffffffffffffffffffffffffffffffffffffffffffffffffffffffff03821115611faf57611fae612331565b5b828201905092915050565b6000611fc58261225e565b9150611fd08361225e565b925082611fe057611fdf612360565b5b828204905092915050565b6000808291508390505b60018511156120355780860481111561201157612010612331565b5b60018516156120205780820291505b808102905061202e856123cf565b9450611ff5565b94509492505050565b60006120498261225e565b91506120548361225e565b92506120817fffffffffffffffffffffffffffffffffffffffffffffffffffffffffffffffff8484612089565b905092915050565b6000826120995760019050612155565b816120a75760009050612155565b81600181146120bd57600281146120c7576120f6565b6001915050612155565b60ff8411156120d9576120d8612331565b5b8360020a9150848211156120f0576120ef612331565b5b50612155565b5060208310610133831016604e8410600b841016171561212b5782820a90508381111561212657612125612331565b5b612155565b6121388484846001611feb565b9250905081840481111561214f5761214e612331565b5b81810290505b9392505050565b60006121678261225e565b91506121728361225e565b9250817fffffffffffffffffffffffffffffffffffffffffffffffffffffffffffffffff04831182151516156121ab576121aa612331565b5b828202905092915050565b60006121c18261225e565b91506121cc8361225e565b9250828210156121df576121de612331565b5b828203905092915050565b60006121f58261223e565b9050919050565b60008115159050919050565b6000819050919050565b60007fffffffff0000000000000000000000000000000000000000000000000000000082169050919050565b600073ffffffffffffffffffffffffffffffffffffffff82169050919050565b6000819050919050565b60006122738261227a565b9050919050565b60006122858261223e565b9050919050565b60006122978261229e565b9050919050565b60006122a98261223e565b9050919050565b60006122bb826122c2565b9050919050565b60006122cd8261223e565b9050919050565b60005b838110156122f25780820151818401526020810190506122d7565b83811115612301576000848401525b50505050565b60006123128261225e565b9150600082141561232657612325612331565b5b600182039050919050565b7f4e487b7100000000000000000000000000000000000000000000000000000000600052601160045260246000fd5b7f4e487b7100000000000000000000000000000000000000000000000000000000600052601260045260246000fd5b7f4e487b7100000000000000000000000000000000000000000000000000000000600052604160045260246000fd5b6000601f19601f8301169050919050565b60008160011c9050919050565b6123e5816121ea565b81146123f057600080fd5b50565b6123fc81612208565b811461240757600080fd5b50565b61241381612212565b811461241e57600080fd5b50565b61242a8161225e565b811461243557600080fd5b5056fea26469706673582212206a02df89821e5d219fd8d6f1c0b748120858b040c7d3dbd53084e9f727d42ce964736f6c63430008000033",
  "linkReferences": {
    "contracts/lib/Compute.sol": {
      "Compute": [
        {
          "length": 20,
          "start": 3229
        },
        {
          "length": 20,
          "start": 3561
        }
      ]
    },
    "contracts/lib/Math.sol": {
      "Math": [
        {
          "length": 20,
          "start": 3983
        },
        {
          "length": 20,
          "start": 6786
        },
        {
          "length": 20,
          "start": 6983
        }
      ]
    }
  },
  "deployedLinkReferences": {
    "contracts/lib/Compute.sol": {
      "Compute": [
        {
          "length": 20,
          "start": 2369
        },
        {
          "length": 20,
          "start": 2701
        }
      ]
    },
    "contracts/lib/Math.sol": {
      "Math": [
        {
          "length": 20,
          "start": 3123
        },
        {
          "length": 20,
          "start": 5926
        },
        {
          "length": 20,
          "start": 6123
        }
      ]
    }
  }
}