{
  "_format": "hh-sol-artifact-1",
  "contractName": "CronosWarriors",
  "sourceName": "contracts/EPToken.sol",
  "abi": [
    {
      "inputs": [],
      "stateMutability": "nonpayable",
      "type": "constructor"
    },
    {
      "anonymous": false,
      "inputs": [
        {
          "indexed": true,
          "internalType": "address",
          "name": "owner",
          "type": "address"
        },
        {
          "indexed": true,
          "internalType": "address",
          "name": "approved",
          "type": "address"
        },
        {
          "indexed": true,
          "internalType": "uint256",
          "name": "tokenId",
          "type": "uint256"
        }
      ],
      "name": "Approval",
      "type": "event"
    },
    {
      "anonymous": false,
      "inputs": [
        {
          "indexed": true,
          "internalType": "address",
          "name": "owner",
          "type": "address"
        },
        {
          "indexed": true,
          "internalType": "address",
          "name": "operator",
          "type": "address"
        },
        {
          "indexed": false,
          "internalType": "bool",
          "name": "approved",
          "type": "bool"
        }
      ],
      "name": "ApprovalForAll",
      "type": "event"
    },
    {
      "anonymous": false,
      "inputs": [
        {
          "indexed": true,
          "internalType": "address",
          "name": "from",
          "type": "address"
        },
        {
          "indexed": true,
          "internalType": "address",
          "name": "to",
          "type": "address"
        },
        {
          "indexed": true,
          "internalType": "uint256",
          "name": "tokenId",
          "type": "uint256"
        }
      ],
      "name": "Transfer",
      "type": "event"
    },
    {
      "inputs": [
        {
          "internalType": "address",
          "name": "to",
          "type": "address"
        },
        {
          "internalType": "uint256",
          "name": "tokenId",
          "type": "uint256"
        }
      ],
      "name": "approve",
      "outputs": [],
      "stateMutability": "nonpayable",
      "type": "function"
    },
    {
      "inputs": [
        {
          "internalType": "address",
          "name": "owner",
          "type": "address"
        }
      ],
      "name": "balanceOf",
      "outputs": [
        {
          "internalType": "uint256",
          "name": "",
          "type": "uint256"
        }
      ],
      "stateMutability": "view",
      "type": "function"
    },
    {
      "inputs": [
        {
          "internalType": "uint256",
          "name": "w1",
          "type": "uint256"
        },
        {
          "internalType": "uint256",
          "name": "w2",
          "type": "uint256"
        }
      ],
      "name": "damage",
      "outputs": [
        {
          "internalType": "uint256",
          "name": "",
          "type": "uint256"
        }
      ],
      "stateMutability": "view",
      "type": "function"
    },
    {
      "inputs": [],
      "name": "decimalsEp",
      "outputs": [
        {
          "internalType": "uint256",
          "name": "",
          "type": "uint256"
        }
      ],
      "stateMutability": "view",
      "type": "function"
    },
    {
      "inputs": [],
      "name": "decimalsEth",
      "outputs": [
        {
          "internalType": "uint256",
          "name": "",
          "type": "uint256"
        }
      ],
      "stateMutability": "view",
      "type": "function"
    },
    {
      "inputs": [],
      "name": "epS1",
      "outputs": [
        {
          "internalType": "uint256",
          "name": "",
          "type": "uint256"
        }
      ],
      "stateMutability": "view",
      "type": "function"
    },
    {
      "inputs": [],
      "name": "epS1Root",
      "outputs": [
        {
          "internalType": "uint256",
          "name": "",
          "type": "uint256"
        }
      ],
      "stateMutability": "view",
      "type": "function"
    },
    {
      "inputs": [],
      "name": "epScale",
      "outputs": [
        {
          "internalType": "uint256",
          "name": "",
          "type": "uint256"
        }
      ],
      "stateMutability": "view",
      "type": "function"
    },
    {
      "inputs": [
        {
          "internalType": "uint256",
          "name": "w1",
          "type": "uint256"
        },
        {
          "internalType": "uint256",
          "name": "w2",
          "type": "uint256"
        }
      ],
      "name": "fight",
      "outputs": [
        {
          "internalType": "uint256",
          "name": "",
          "type": "uint256"
        }
      ],
      "stateMutability": "nonpayable",
      "type": "function"
    },
    {
      "inputs": [
        {
          "internalType": "uint256",
          "name": "tokenId",
          "type": "uint256"
        }
      ],
      "name": "getApproved",
      "outputs": [
        {
          "internalType": "address",
          "name": "",
          "type": "address"
        }
      ],
      "stateMutability": "view",
      "type": "function"
    },
    {
      "inputs": [
        {
          "internalType": "uint256",
          "name": "id",
          "type": "uint256"
        }
      ],
      "name": "increaseAttack",
      "outputs": [],
      "stateMutability": "nonpayable",
      "type": "function"
    },
    {
      "inputs": [
        {
          "internalType": "uint256",
          "name": "id",
          "type": "uint256"
        }
      ],
      "name": "increaseDefense",
      "outputs": [],
      "stateMutability": "nonpayable",
      "type": "function"
    },
    {
      "inputs": [
        {
          "internalType": "uint256",
          "name": "id",
          "type": "uint256"
        }
      ],
      "name": "increaseStamina",
      "outputs": [],
      "stateMutability": "nonpayable",
      "type": "function"
    },
    {
      "inputs": [
        {
          "internalType": "address",
          "name": "owner",
          "type": "address"
        },
        {
          "internalType": "address",
          "name": "operator",
          "type": "address"
        }
      ],
      "name": "isApprovedForAll",
      "outputs": [
        {
          "internalType": "bool",
          "name": "",
          "type": "bool"
        }
      ],
      "stateMutability": "view",
      "type": "function"
    },
    {
      "inputs": [
        {
          "internalType": "string",
          "name": "name",
          "type": "string"
        }
      ],
      "name": "mint",
      "outputs": [],
      "stateMutability": "payable",
      "type": "function"
    },
    {
      "inputs": [],
      "name": "mintFee",
      "outputs": [
        {
          "internalType": "uint256",
          "name": "",
          "type": "uint256"
        }
      ],
      "stateMutability": "view",
      "type": "function"
    },
    {
      "inputs": [],
      "name": "name",
      "outputs": [
        {
          "internalType": "string",
          "name": "",
          "type": "string"
        }
      ],
      "stateMutability": "view",
      "type": "function"
    },
    {
      "inputs": [
        {
          "internalType": "uint256",
          "name": "tokenId",
          "type": "uint256"
        }
      ],
      "name": "ownerOf",
      "outputs": [
        {
          "internalType": "address",
          "name": "",
          "type": "address"
        }
      ],
      "stateMutability": "view",
      "type": "function"
    },
    {
      "inputs": [
        {
          "internalType": "address",
          "name": "from",
          "type": "address"
        },
        {
          "internalType": "address",
          "name": "to",
          "type": "address"
        },
        {
          "internalType": "uint256",
          "name": "tokenId",
          "type": "uint256"
        }
      ],
      "name": "safeTransferFrom",
      "outputs": [],
      "stateMutability": "nonpayable",
      "type": "function"
    },
    {
      "inputs": [
        {
          "internalType": "address",
          "name": "from",
          "type": "address"
        },
        {
          "internalType": "address",
          "name": "to",
          "type": "address"
        },
        {
          "internalType": "uint256",
          "name": "tokenId",
          "type": "uint256"
        },
        {
          "internalType": "bytes",
          "name": "_data",
          "type": "bytes"
        }
      ],
      "name": "safeTransferFrom",
      "outputs": [],
      "stateMutability": "nonpayable",
      "type": "function"
    },
    {
      "inputs": [
        {
          "internalType": "address",
          "name": "operator",
          "type": "address"
        },
        {
          "internalType": "bool",
          "name": "approved",
          "type": "bool"
        }
      ],
      "name": "setApprovalForAll",
      "outputs": [],
      "stateMutability": "nonpayable",
      "type": "function"
    },
    {
      "inputs": [
        {
          "internalType": "bytes4",
          "name": "interfaceId",
          "type": "bytes4"
        }
      ],
      "name": "supportsInterface",
      "outputs": [
        {
          "internalType": "bool",
          "name": "",
          "type": "bool"
        }
      ],
      "stateMutability": "view",
      "type": "function"
    },
    {
      "inputs": [],
      "name": "symbol",
      "outputs": [
        {
          "internalType": "string",
          "name": "",
          "type": "string"
        }
      ],
      "stateMutability": "view",
      "type": "function"
    },
    {
      "inputs": [
        {
          "internalType": "uint256",
          "name": "index",
          "type": "uint256"
        }
      ],
      "name": "tokenByIndex",
      "outputs": [
        {
          "internalType": "uint256",
          "name": "",
          "type": "uint256"
        }
      ],
      "stateMutability": "view",
      "type": "function"
    },
    {
      "inputs": [
        {
          "internalType": "address",
          "name": "owner",
          "type": "address"
        },
        {
          "internalType": "uint256",
          "name": "index",
          "type": "uint256"
        }
      ],
      "name": "tokenOfOwnerByIndex",
      "outputs": [
        {
          "internalType": "uint256",
          "name": "",
          "type": "uint256"
        }
      ],
      "stateMutability": "view",
      "type": "function"
    },
    {
      "inputs": [
        {
          "internalType": "uint256",
          "name": "tokenId",
          "type": "uint256"
        }
      ],
      "name": "tokenURI",
      "outputs": [
        {
          "internalType": "string",
          "name": "",
          "type": "string"
        }
      ],
      "stateMutability": "view",
      "type": "function"
    },
    {
      "inputs": [],
      "name": "totalSupply",
      "outputs": [
        {
          "internalType": "uint256",
          "name": "",
          "type": "uint256"
        }
      ],
      "stateMutability": "view",
      "type": "function"
    },
    {
      "inputs": [
        {
          "internalType": "address",
          "name": "from",
          "type": "address"
        },
        {
          "internalType": "address",
          "name": "to",
          "type": "address"
        },
        {
          "internalType": "uint256",
          "name": "tokenId",
          "type": "uint256"
        }
      ],
      "name": "transferFrom",
      "outputs": [],
      "stateMutability": "nonpayable",
      "type": "function"
    },
    {
      "inputs": [
        {
          "internalType": "uint256",
          "name": "id",
          "type": "uint256"
        }
      ],
      "name": "warriorExperience",
      "outputs": [
        {
          "internalType": "uint256",
          "name": "",
          "type": "uint256"
        }
      ],
      "stateMutability": "view",
      "type": "function"
    },
    {
      "inputs": [
        {
          "internalType": "uint256",
          "name": "id",
          "type": "uint256"
        }
      ],
      "name": "warriorHealth",
      "outputs": [
        {
          "internalType": "uint256",
          "name": "",
          "type": "uint256"
        }
      ],
      "stateMutability": "view",
      "type": "function"
    },
    {
      "inputs": [
        {
          "internalType": "uint256",
          "name": "id",
          "type": "uint256"
        }
      ],
      "name": "warriorLevel",
      "outputs": [
        {
          "internalType": "uint256",
          "name": "",
          "type": "uint256"
        }
      ],
      "stateMutability": "view",
      "type": "function"
    },
    {
      "inputs": [
        {
          "internalType": "uint256",
          "name": "id",
          "type": "uint256"
        }
      ],
      "name": "warriorName",
      "outputs": [
        {
          "internalType": "string",
          "name": "",
          "type": "string"
        }
      ],
      "stateMutability": "view",
      "type": "function"
    },
    {
      "inputs": [
        {
          "internalType": "uint256",
          "name": "id",
          "type": "uint256"
        }
      ],
      "name": "warriorPointsAvailable",
      "outputs": [
        {
          "internalType": "uint256",
          "name": "",
          "type": "uint256"
        }
      ],
      "stateMutability": "view",
      "type": "function"
    },
    {
      "inputs": [
        {
          "internalType": "uint256",
          "name": "id",
          "type": "uint256"
        }
      ],
      "name": "warriorSkills",
      "outputs": [
        {
          "internalType": "uint256",
          "name": "",
          "type": "uint256"
        },
        {
          "internalType": "uint256",
          "name": "",
          "type": "uint256"
        },
        {
          "internalType": "uint256",
          "name": "",
          "type": "uint256"
        }
      ],
      "stateMutability": "view",
      "type": "function"
    },
    {
      "inputs": [
        {
          "internalType": "uint256",
          "name": "id",
          "type": "uint256"
        }
      ],
      "name": "warriorStats",
      "outputs": [
        {
          "internalType": "uint256",
          "name": "",
          "type": "uint256"
        },
        {
          "internalType": "uint256",
          "name": "",
          "type": "uint256"
        },
        {
          "internalType": "uint256",
          "name": "",
          "type": "uint256"
        }
      ],
      "stateMutability": "view",
      "type": "function"
    }
  ],
  "bytecode": "0x60806040526012600a556008600b55600b54600a6200001f919062000385565b600c55600b54600a54620000349190620004c2565b600a62000042919062000385565b600d5562000058600d546200016760201b60201c565b600e553480156200006857600080fd5b506040518060400160405280600f81526020017f43726f6e6f732057617272696f727300000000000000000000000000000000008152506040518060400160405280600381526020017f57415200000000000000000000000000000000000000000000000000000000008152508160009080519060200190620000ed929190620001e5565b50806001908051906020019062000106929190620001e5565b505050600a54600a6200011a919062000385565b60108190555033600f60006101000a81548173ffffffffffffffffffffffffffffffffffffffff021916908373ffffffffffffffffffffffffffffffffffffffff160217905550620005d7565b6000808214156200017c5760009050620001e0565b600060026001846200018f919062000295565b6200019b9190620002f2565b90508291505b81811015620001de578091506002818285620001be9190620002f2565b620001ca919062000295565b620001d69190620002f2565b9050620001a1565b505b919050565b828054620001f39062000507565b90600052602060002090601f01602090048101928262000217576000855562000263565b82601f106200023257805160ff191683800117855562000263565b8280016001018555821562000263579182015b828111156200026257825182559160200191906001019062000245565b5b50905062000272919062000276565b5090565b5b808211156200029157600081600090555060010162000277565b5090565b6000620002a282620004fd565b9150620002af83620004fd565b9250827fffffffffffffffffffffffffffffffffffffffffffffffffffffffffffffffff03821115620002e757620002e66200053d565b5b828201905092915050565b6000620002ff82620004fd565b91506200030c83620004fd565b9250826200031f576200031e6200056c565b5b828204905092915050565b6000808291508390505b60018511156200037c578086048111156200035457620003536200053d565b5b6001851615620003645780820291505b80810290506200037485620005ca565b945062000334565b94509492505050565b60006200039282620004fd565b91506200039f83620004fd565b9250620003ce7fffffffffffffffffffffffffffffffffffffffffffffffffffffffffffffffff8484620003d6565b905092915050565b600082620003e85760019050620004bb565b81620003f85760009050620004bb565b81600181146200041157600281146200041c5762000452565b6001915050620004bb565b60ff8411156200043157620004306200053d565b5b8360020a9150848211156200044b576200044a6200053d565b5b50620004bb565b5060208310610133831016604e8410600b84101617156200048c5782820a9050838111156200048657620004856200053d565b5b620004bb565b6200049b84848460016200032a565b92509050818404811115620004b557620004b46200053d565b5b81810290505b9392505050565b6000620004cf82620004fd565b9150620004dc83620004fd565b925082821015620004f257620004f16200053d565b5b828203905092915050565b6000819050919050565b600060028204905060018216806200052057607f821691505b602082108114156200053757620005366200059b565b5b50919050565b7f4e487b7100000000000000000000000000000000000000000000000000000000600052601160045260246000fd5b7f4e487b7100000000000000000000000000000000000000000000000000000000600052601260045260246000fd5b7f4e487b7100000000000000000000000000000000000000000000000000000000600052602260045260246000fd5b60008160011c9050919050565b6147a480620005e76000396000f3fe6080604052600436106102045760003560e01c806377224f1811610118578063c6362851116100a0578063d85d3d271161006f578063d85d3d2714610803578063e43f8e271461081f578063e985e9c51461084a578063ed07f3ae14610887578063f3fc7b24146108c457610204565b8063c636285114610723578063c87b56dd1461074c578063ca39e5ef14610789578063d79d9e0d146107c657610204565b8063a22cb465116100e7578063a22cb46514610640578063a698a75014610669578063a7be77ca14610694578063b88d4fde146106bd578063baee89b2146106e657610204565b806377224f181461057057806382e3675a146105ad5780638db6fd58146105d657806395d89b411461061557610204565b80631b3ad6a41161019b5780634f6ccce71161016a5780634f6ccce71461044f5780635c5188951461048c5780636352211e146104cb578063638eba6f1461050857806370a082311461053357610204565b80631b3ad6a41461038357806323b872dd146103c05780632f745c59146103e957806342842e0e1461042657610204565b80630bec0b6e116101d75780630bec0b6e146102d757806313966db5146103025780631578a9f11461032d57806318160ddd1461035857610204565b806301ffc9a71461020957806306fdde0314610246578063081812fc14610271578063095ea7b3146102ae575b600080fd5b34801561021557600080fd5b50610230600480360381019061022b919061352a565b610901565b60405161023d9190613f6b565b60405180910390f35b34801561025257600080fd5b5061025b61097b565b6040516102689190613f86565b60405180910390f35b34801561027d57600080fd5b50610298600480360381019061029391906135bd565b610a0d565b6040516102a59190613f04565b60405180910390f35b3480156102ba57600080fd5b506102d560048036038101906102d091906134ee565b610a92565b005b3480156102e357600080fd5b506102ec610baa565b6040516102f991906142a8565b60405180910390f35b34801561030e57600080fd5b50610317610bb0565b60405161032491906142a8565b60405180910390f35b34801561033957600080fd5b50610342610bba565b60405161034f91906142a8565b60405180910390f35b34801561036457600080fd5b5061036d610bc0565b60405161037a91906142a8565b60405180910390f35b34801561038f57600080fd5b506103aa60048036038101906103a591906135bd565b610bcd565b6040516103b791906142a8565b60405180910390f35b3480156103cc57600080fd5b506103e760048036038101906103e291906133e8565b610c1b565b005b3480156103f557600080fd5b50610410600480360381019061040b91906134ee565b610c7b565b60405161041d91906142a8565b60405180910390f35b34801561043257600080fd5b5061044d600480360381019061044891906133e8565b610d20565b005b34801561045b57600080fd5b50610476600480360381019061047191906135bd565b610d40565b60405161048391906142a8565b60405180910390f35b34801561049857600080fd5b506104b360048036038101906104ae91906135bd565b610dd7565b6040516104c2939291906142c3565b60405180910390f35b3480156104d757600080fd5b506104f260048036038101906104ed91906135bd565b610e75565b6040516104ff9190613f04565b60405180910390f35b34801561051457600080fd5b5061051d610f27565b60405161052a91906142a8565b60405180910390f35b34801561053f57600080fd5b5061055a60048036038101906105559190613383565b610f2d565b60405161056791906142a8565b60405180910390f35b34801561057c57600080fd5b50610597600480360381019061059291906135bd565b610fe5565b6040516105a49190613f86565b60405180910390f35b3480156105b957600080fd5b506105d460048036038101906105cf91906135bd565b6110d2565b005b3480156105e257600080fd5b506105fd60048036038101906105f891906135bd565b611231565b60405161060c939291906142c3565b60405180910390f35b34801561062157600080fd5b5061062a6112cf565b6040516106379190613f86565b60405180910390f35b34801561064c57600080fd5b50610667600480360381019061066291906134b2565b611361565b005b34801561067557600080fd5b5061067e6114e2565b60405161068b91906142a8565b60405180910390f35b3480156106a057600080fd5b506106bb60048036038101906106b691906135bd565b6114e8565b005b3480156106c957600080fd5b506106e460048036038101906106df9190613437565b611647565b005b3480156106f257600080fd5b5061070d600480360381019061070891906135bd565b6116a9565b60405161071a91906142a8565b60405180910390f35b34801561072f57600080fd5b5061074a600480360381019061074591906135bd565b611702565b005b34801561075857600080fd5b50610773600480360381019061076e91906135bd565b611861565b6040516107809190613f86565b60405180910390f35b34801561079557600080fd5b506107b060048036038101906107ab91906135e6565b611908565b6040516107bd91906142a8565b60405180910390f35b3480156107d257600080fd5b506107ed60048036038101906107e891906135bd565b611a62565b6040516107fa91906142a8565b60405180910390f35b61081d6004803603810190610818919061357c565b611ad1565b005b34801561082b57600080fd5b50610834611c1f565b60405161084191906142a8565b60405180910390f35b34801561085657600080fd5b50610871600480360381019061086c91906133ac565b611c25565b60405161087e9190613f6b565b60405180910390f35b34801561089357600080fd5b506108ae60048036038101906108a991906135bd565b611cb9565b6040516108bb91906142a8565b60405180910390f35b3480156108d057600080fd5b506108eb60048036038101906108e691906135e6565b611d07565b6040516108f891906142a8565b60405180910390f35b60007f780e9d63000000000000000000000000000000000000000000000000000000007bffffffffffffffffffffffffffffffffffffffffffffffffffffffff1916827bffffffffffffffffffffffffffffffffffffffffffffffffffffffff19161480610974575061097382611dab565b5b9050919050565b60606000805461098a90614599565b80601f01602080910402602001604051908101604052809291908181526020018280546109b690614599565b8015610a035780601f106109d857610100808354040283529160200191610a03565b820191906000526020600020905b8154815290600101906020018083116109e657829003601f168201915b5050505050905090565b6000610a1882611e8d565b610a57576040517f08c379a0000000000000000000000000000000000000000000000000000000008152600401610a4e90614188565b60405180910390fd5b6004600083815260200190815260200160002060009054906101000a900473ffffffffffffffffffffffffffffffffffffffff169050919050565b6000610a9d82610e75565b90508073ffffffffffffffffffffffffffffffffffffffff168373ffffffffffffffffffffffffffffffffffffffff161415610b0e576040517f08c379a0000000000000000000000000000000000000000000000000000000008152600401610b0590614208565b60405180910390fd5b8073ffffffffffffffffffffffffffffffffffffffff16610b2d611ef9565b73ffffffffffffffffffffffffffffffffffffffff161480610b5c5750610b5b81610b56611ef9565b611c25565b5b610b9b576040517f08c379a0000000000000000000000000000000000000000000000000000000008152600401610b9290614108565b60405180910390fd5b610ba58383611f01565b505050565b600e5481565b6000601054905090565b600b5481565b6000600880549050905090565b6000610bd882611e8d565b610c0b577f4e487b7100000000000000000000000000000000000000000000000000000000600052600160045260246000fd5b610c1482611fba565b9050919050565b610c2c610c26611ef9565b8261202d565b610c6b576040517f08c379a0000000000000000000000000000000000000000000000000000000008152600401610c6290614228565b60405180910390fd5b610c7683838361210b565b505050565b6000610c8683610f2d565b8210610cc7576040517f08c379a0000000000000000000000000000000000000000000000000000000008152600401610cbe90613fe8565b60405180910390fd5b600660008473ffffffffffffffffffffffffffffffffffffffff1673ffffffffffffffffffffffffffffffffffffffff168152602001908152602001600020600083815260200190815260200160002054905092915050565b610d3b83838360405180602001604052806000815250611647565b505050565b6000610d4a610bc0565b8210610d8b576040517f08c379a0000000000000000000000000000000000000000000000000000000008152600401610d8290614248565b60405180910390fd5b60088281548110610dc5577f4e487b7100000000000000000000000000000000000000000000000000000000600052603260045260246000fd5b90600052602060002001549050919050565b6000806000610de584611e8d565b610e18577f4e487b7100000000000000000000000000000000000000000000000000000000600052600160045260246000fd5b60006013600086815260200190815260200160002060405180606001604052908160008201548152602001600182015481526020016002820154815250509050806000015181602001518260400151935093509350509193909250565b6000806002600084815260200190815260200160002060009054906101000a900473ffffffffffffffffffffffffffffffffffffffff169050600073ffffffffffffffffffffffffffffffffffffffff168173ffffffffffffffffffffffffffffffffffffffff161415610f1e576040517f08c379a0000000000000000000000000000000000000000000000000000000008152600401610f1590614148565b60405180910390fd5b80915050919050565b600d5481565b60008073ffffffffffffffffffffffffffffffffffffffff168273ffffffffffffffffffffffffffffffffffffffff161415610f9e576040517f08c379a0000000000000000000000000000000000000000000000000000000008152600401610f9590614128565b60405180910390fd5b600360008373ffffffffffffffffffffffffffffffffffffffff1673ffffffffffffffffffffffffffffffffffffffff168152602001908152602001600020549050919050565b6060610ff082611e8d565b61102f576040517f08c379a000000000000000000000000000000000000000000000000000000000815260040161102690614288565b60405180910390fd5b60126000838152602001908152602001600020805461104d90614599565b80601f016020809104026020016040519081016040528092919081815260200182805461107990614599565b80156110c65780601f1061109b576101008083540402835291602001916110c6565b820191906000526020600020905b8154815290600101906020018083116110a957829003601f168201915b50505050509050919050565b3373ffffffffffffffffffffffffffffffffffffffff166110f282610e75565b73ffffffffffffffffffffffffffffffffffffffff1614611148576040517f08c379a000000000000000000000000000000000000000000000000000000000815260040161113f906140e8565b60405180910390fd5b6000601460008381526020019081526020016000206002015461116a83611fba565b61117491906144af565b116111b4576040517f08c379a00000000000000000000000000000000000000000000000000000000081526004016111ab906141e8565b60405180910390fd5b600160136000838152602001908152602001600020600101546111d791906143ce565b60136000838152602001908152602001600020600101819055506001601460008381526020019081526020016000206002015461121491906143ce565b601460008381526020019081526020016000206002018190555050565b600080600061123f84611e8d565b611272577f4e487b7100000000000000000000000000000000000000000000000000000000600052600160045260246000fd5b60006014600086815260200190815260200160002060405180606001604052908160008201548152602001600182015481526020016002820154815250509050806000015181602001518260400151935093509350509193909250565b6060600180546112de90614599565b80601f016020809104026020016040519081016040528092919081815260200182805461130a90614599565b80156113575780601f1061132c57610100808354040283529160200191611357565b820191906000526020600020905b81548152906001019060200180831161133a57829003601f168201915b5050505050905090565b611369611ef9565b73ffffffffffffffffffffffffffffffffffffffff168273ffffffffffffffffffffffffffffffffffffffff1614156113d7576040517f08c379a00000000000000000000000000000000000000000000000000000000081526004016113ce906140a8565b60405180910390fd5b80600560006113e4611ef9565b73ffffffffffffffffffffffffffffffffffffffff1673ffffffffffffffffffffffffffffffffffffffff16815260200190815260200160002060008473ffffffffffffffffffffffffffffffffffffffff1673ffffffffffffffffffffffffffffffffffffffff16815260200190815260200160002060006101000a81548160ff0219169083151502179055508173ffffffffffffffffffffffffffffffffffffffff16611491611ef9565b73ffffffffffffffffffffffffffffffffffffffff167f17307eab39ab6107e8899845ad3d59bd9653f200f220920489ca2b5937696c31836040516114d69190613f6b565b60405180910390a35050565b600a5481565b3373ffffffffffffffffffffffffffffffffffffffff1661150882610e75565b73ffffffffffffffffffffffffffffffffffffffff161461155e576040517f08c379a0000000000000000000000000000000000000000000000000000000008152600401611555906140e8565b60405180910390fd5b6000601460008381526020019081526020016000206002015461158083611fba565b61158a91906144af565b116115ca576040517f08c379a00000000000000000000000000000000000000000000000000000000081526004016115c1906141e8565b60405180910390fd5b600160136000838152602001908152602001600020600201546115ed91906143ce565b60136000838152602001908152602001600020600201819055506001601460008381526020019081526020016000206002015461162a91906143ce565b601460008381526020019081526020016000206002018190555050565b611658611652611ef9565b8361202d565b611697576040517f08c379a000000000000000000000000000000000000000000000000000000000815260040161168e90614228565b60405180910390fd5b6116a384848484612367565b50505050565b60006116b482611e8d565b6116e7577f4e487b7100000000000000000000000000000000000000000000000000000000600052600160045260246000fd5b60116000838152602001908152602001600020549050919050565b3373ffffffffffffffffffffffffffffffffffffffff1661172282610e75565b73ffffffffffffffffffffffffffffffffffffffff1614611778576040517f08c379a000000000000000000000000000000000000000000000000000000000815260040161176f906140e8565b60405180910390fd5b6000601460008381526020019081526020016000206002015461179a83611fba565b6117a491906144af565b116117e4576040517f08c379a00000000000000000000000000000000000000000000000000000000081526004016117db906141e8565b60405180910390fd5b6001601360008381526020019081526020016000206000015461180791906143ce565b60136000838152602001908152602001600020600001819055506001601460008381526020019081526020016000206002015461184491906143ce565b601460008381526020019081526020016000206002018190555050565b606061186c82611e8d565b6118ab576040517f08c379a00000000000000000000000000000000000000000000000000000000081526004016118a2906141c8565b60405180910390fd5b60006118b56123c3565b905060008151116118d55760405180602001604052806000815250611900565b806118df846123da565b6040516020016118f0929190613ee0565b6040516020818303038152906040525b915050919050565b600061191383611e8d565b611952576040517f08c379a000000000000000000000000000000000000000000000000000000000815260040161194990614268565b60405180910390fd5b61195b83611e8d565b61199a576040517f08c379a000000000000000000000000000000000000000000000000000000000815260040161199190613fa8565b60405180910390fd5b60006119a584612587565b905060006119b284612587565b90506000600190506000859050600087905060005b8315611a30576119d7888a6125c6565b905085811015611a265780866119ed91906144af565b95506119f989896125c6565b905084811015611a16578085611a0f91906144af565b9450611a21565b600093508892508791505b611a2b565b600093505b6119c7565b6000611a3c8a8a612693565b9050611a4883826126f2565b611a52848261278b565b8397505050505050505092915050565b6000611a6d82611e8d565b611aa0577f4e487b7100000000000000000000000000000000000000000000000000000000600052600160045260246000fd5b6014600083815260200190815260200160002060020154611ac083611fba565b611aca91906144af565b9050919050565b6010543414611b15576040517f08c379a0000000000000000000000000000000000000000000000000000000008152600401611b0c90614028565b60405180910390fd5b60006001611b21610bc0565b611b2b91906143ce565b9050611b373382612824565b81601260008381526020019081526020016000209080519060200190611b5e9291906131a7565b5034601160008381526020019081526020016000208190555060405180606001604052806001815260200160018152602001600181525060136000838152602001908152602001600020600082015181600001556020820151816001015560408201518160020155905050604051806060016040528060008152602001600081526020016000815250601460008381526020019081526020016000206000820151816000015560208201518160010155604082015181600201559050505050565b600c5481565b6000600560008473ffffffffffffffffffffffffffffffffffffffff1673ffffffffffffffffffffffffffffffffffffffff16815260200190815260200160002060008373ffffffffffffffffffffffffffffffffffffffff1673ffffffffffffffffffffffffffffffffffffffff16815260200190815260200160002060009054906101000a900460ff16905092915050565b6000611cc482611e8d565b611cf7577f4e487b7100000000000000000000000000000000000000000000000000000000600052600160045260246000fd5b611d0082612587565b9050919050565b6000611d1283611e8d565b611d51576040517f08c379a0000000000000000000000000000000000000000000000000000000008152600401611d4890614268565b60405180910390fd5b611d5a83611e8d565b611d99576040517f08c379a0000000000000000000000000000000000000000000000000000000008152600401611d9090613fa8565b60405180910390fd5b611da383836125c6565b905092915050565b60007f80ac58cd000000000000000000000000000000000000000000000000000000007bffffffffffffffffffffffffffffffffffffffffffffffffffffffff1916827bffffffffffffffffffffffffffffffffffffffffffffffffffffffff19161480611e7657507f5b5e139f000000000000000000000000000000000000000000000000000000007bffffffffffffffffffffffffffffffffffffffffffffffffffffffff1916827bffffffffffffffffffffffffffffffffffffffffffffffffffffffff1916145b80611e865750611e8582612842565b5b9050919050565b60008073ffffffffffffffffffffffffffffffffffffffff166002600084815260200190815260200160002060009054906101000a900473ffffffffffffffffffffffffffffffffffffffff1673ffffffffffffffffffffffffffffffffffffffff1614159050919050565b600033905090565b816004600083815260200190815260200160002060006101000a81548173ffffffffffffffffffffffffffffffffffffffff021916908373ffffffffffffffffffffffffffffffffffffffff160217905550808273ffffffffffffffffffffffffffffffffffffffff16611f7483610e75565b73ffffffffffffffffffffffffffffffffffffffff167f8c5be1e5ebec7d5bd14f71427d1e84f3dd0314c0f7b2291e5b200ac8c7c3b92560405160405180910390a45050565b600080611fdc60116000858152602001908152602001600020546010546128ac565b9050600c5481611fec9190614424565b9050600a81611ffb9190614455565b9050612006816128d3565b90506001600e54826120189190614424565b61202291906143ce565b905080915050919050565b600061203882611e8d565b612077576040517f08c379a000000000000000000000000000000000000000000000000000000000815260040161206e906140c8565b60405180910390fd5b600061208283610e75565b90508073ffffffffffffffffffffffffffffffffffffffff168473ffffffffffffffffffffffffffffffffffffffff1614806120f157508373ffffffffffffffffffffffffffffffffffffffff166120d984610a0d565b73ffffffffffffffffffffffffffffffffffffffff16145b8061210257506121018185611c25565b5b91505092915050565b8273ffffffffffffffffffffffffffffffffffffffff1661212b82610e75565b73ffffffffffffffffffffffffffffffffffffffff1614612181576040517f08c379a0000000000000000000000000000000000000000000000000000000008152600401612178906141a8565b60405180910390fd5b600073ffffffffffffffffffffffffffffffffffffffff168273ffffffffffffffffffffffffffffffffffffffff1614156121f1576040517f08c379a00000000000000000000000000000000000000000000000000000000081526004016121e890614088565b60405180910390fd5b6121fc838383612943565b612207600082611f01565b6001600360008573ffffffffffffffffffffffffffffffffffffffff1673ffffffffffffffffffffffffffffffffffffffff168152602001908152602001600020600082825461225791906144af565b925050819055506001600360008473ffffffffffffffffffffffffffffffffffffffff1673ffffffffffffffffffffffffffffffffffffffff16815260200190815260200160002060008282546122ae91906143ce565b92505081905550816002600083815260200190815260200160002060006101000a81548173ffffffffffffffffffffffffffffffffffffffff021916908373ffffffffffffffffffffffffffffffffffffffff160217905550808273ffffffffffffffffffffffffffffffffffffffff168473ffffffffffffffffffffffffffffffffffffffff167fddf252ad1be2c89b69c2b068fc378daa952ba7f163c4a11628f55a4df523b3ef60405160405180910390a4505050565b61237284848461210b565b61237e84848484612a57565b6123bd576040517f08c379a00000000000000000000000000000000000000000000000000000000081526004016123b490614008565b60405180910390fd5b50505050565b606060405180602001604052806000815250905090565b60606000821415612422576040518060400160405280600181526020017f30000000000000000000000000000000000000000000000000000000000000008152509050612582565b600082905060005b6000821461245457808061243d906145cb565b915050600a8261244d9190614424565b915061242a565b60008167ffffffffffffffff811115612496577f4e487b7100000000000000000000000000000000000000000000000000000000600052604160045260246000fd5b6040519080825280601f01601f1916602001820160405280156124c85781602001600182028036833780820191505090505b5090505b6000851461257b576001826124e191906144af565b9150600a856124f09190614614565b60306124fc91906143ce565b60f81b818381518110612538577f4e487b7100000000000000000000000000000000000000000000000000000000600052603260045260246000fd5b60200101907effffffffffffffffffffffffffffffffffffffffffffffffffffffffffffff1916908160001a905350600a856125749190614424565b94506124cc565b8093505050505b919050565b600060136000838152602001908152602001600020600201546125a983611fba565b6125b391906143ce565b600a6125bf9190614455565b9050919050565b6000806402540be400600a6125da86611fba565b60026125e69190614455565b6125f091906143ce565b6125fa9190614455565b905060006402540be40060136000868152602001908152602001600020600101546126259190614455565b6402540be400601360008881526020019081526020016000206000015461264c9190614455565b6126569190614424565b90506002826126659190614424565b915080826126739190614455565b91506402540be400826126869190614424565b9150819250505092915050565b600080601160008481526020019081526020016000205460116000868152602001908152602001600020546126c891906143ce565b90506002816126d79190614424565b9050600a816126e69190614424565b90508091505092915050565b600060116000848152602001908152602001600020549050818161271691906144af565b9050601160008481526020019081526020016000205481111561276e576040517f08c379a000000000000000000000000000000000000000000000000000000000815260040161276590613fc8565b60405180910390fd5b806011600085815260200190815260200160002081905550505050565b60006011600084815260200190815260200160002054905081816127af91906143ce565b90506011600084815260200190815260200160002054811015612807576040517f08c379a00000000000000000000000000000000000000000000000000000000081526004016127fe90614048565b60405180910390fd5b806011600085815260200190815260200160002081905550505050565b61283e828260405180602001604052806000815250612bee565b5050565b60007f01ffc9a7000000000000000000000000000000000000000000000000000000007bffffffffffffffffffffffffffffffffffffffffffffffffffffffff1916827bffffffffffffffffffffffffffffffffffffffffffffffffffffffff1916149050919050565b60008282106128be57600090506128cd565b81836128ca91906144af565b90505b92915050565b6000808214156128e6576000905061293e565b600060026001846128f791906143ce565b6129019190614424565b90508291505b8181101561293c5780915060028182856129219190614424565b61292b91906143ce565b6129359190614424565b9050612907565b505b919050565b61294e838383612c49565b600073ffffffffffffffffffffffffffffffffffffffff168373ffffffffffffffffffffffffffffffffffffffff1614156129915761298c81612c4e565b6129d0565b8173ffffffffffffffffffffffffffffffffffffffff168373ffffffffffffffffffffffffffffffffffffffff16146129cf576129ce8382612c97565b5b5b600073ffffffffffffffffffffffffffffffffffffffff168273ffffffffffffffffffffffffffffffffffffffff161415612a1357612a0e81612e04565b612a52565b8273ffffffffffffffffffffffffffffffffffffffff168273ffffffffffffffffffffffffffffffffffffffff1614612a5157612a508282612f47565b5b5b505050565b6000612a788473ffffffffffffffffffffffffffffffffffffffff16612fc6565b15612be1578373ffffffffffffffffffffffffffffffffffffffff1663150b7a02612aa1611ef9565b8786866040518563ffffffff1660e01b8152600401612ac39493929190613f1f565b602060405180830381600087803b158015612add57600080fd5b505af1925050508015612b0e57506040513d601f19601f82011682018060405250810190612b0b9190613553565b60015b612b91573d8060008114612b3e576040519150601f19603f3d011682016040523d82523d6000602084013e612b43565b606091505b50600081511415612b89576040517f08c379a0000000000000000000000000000000000000000000000000000000008152600401612b8090614008565b60405180910390fd5b805181602001fd5b63150b7a0260e01b7bffffffffffffffffffffffffffffffffffffffffffffffffffffffff1916817bffffffffffffffffffffffffffffffffffffffffffffffffffffffff191614915050612be6565b600190505b949350505050565b612bf88383612fd9565b612c056000848484612a57565b612c44576040517f08c379a0000000000000000000000000000000000000000000000000000000008152600401612c3b90614008565b60405180910390fd5b505050565b505050565b6008805490506009600083815260200190815260200160002081905550600881908060018154018082558091505060019003906000526020600020016000909190919091505550565b60006001612ca484610f2d565b612cae91906144af565b9050600060076000848152602001908152602001600020549050818114612d93576000600660008673ffffffffffffffffffffffffffffffffffffffff1673ffffffffffffffffffffffffffffffffffffffff168152602001908152602001600020600084815260200190815260200160002054905080600660008773ffffffffffffffffffffffffffffffffffffffff1673ffffffffffffffffffffffffffffffffffffffff168152602001908152602001600020600084815260200190815260200160002081905550816007600083815260200190815260200160002081905550505b6007600084815260200190815260200160002060009055600660008573ffffffffffffffffffffffffffffffffffffffff1673ffffffffffffffffffffffffffffffffffffffff16815260200190815260200160002060008381526020019081526020016000206000905550505050565b60006001600880549050612e1891906144af565b9050600060096000848152602001908152602001600020549050600060088381548110612e6e577f4e487b7100000000000000000000000000000000000000000000000000000000600052603260045260246000fd5b906000526020600020015490508060088381548110612eb6577f4e487b7100000000000000000000000000000000000000000000000000000000600052603260045260246000fd5b906000526020600020018190555081600960008381526020019081526020016000208190555060096000858152602001908152602001600020600090556008805480612f2b577f4e487b7100000000000000000000000000000000000000000000000000000000600052603160045260246000fd5b6001900381819060005260206000200160009055905550505050565b6000612f5283610f2d565b905081600660008573ffffffffffffffffffffffffffffffffffffffff1673ffffffffffffffffffffffffffffffffffffffff168152602001908152602001600020600083815260200190815260200160002081905550806007600084815260200190815260200160002081905550505050565b600080823b905060008111915050919050565b600073ffffffffffffffffffffffffffffffffffffffff168273ffffffffffffffffffffffffffffffffffffffff161415613049576040517f08c379a000000000000000000000000000000000000000000000000000000000815260040161304090614168565b60405180910390fd5b61305281611e8d565b15613092576040517f08c379a000000000000000000000000000000000000000000000000000000000815260040161308990614068565b60405180910390fd5b61309e60008383612943565b6001600360008473ffffffffffffffffffffffffffffffffffffffff1673ffffffffffffffffffffffffffffffffffffffff16815260200190815260200160002060008282546130ee91906143ce565b92505081905550816002600083815260200190815260200160002060006101000a81548173ffffffffffffffffffffffffffffffffffffffff021916908373ffffffffffffffffffffffffffffffffffffffff160217905550808273ffffffffffffffffffffffffffffffffffffffff16600073ffffffffffffffffffffffffffffffffffffffff167fddf252ad1be2c89b69c2b068fc378daa952ba7f163c4a11628f55a4df523b3ef60405160405180910390a45050565b8280546131b390614599565b90600052602060002090601f0160209004810192826131d5576000855561321c565b82601f106131ee57805160ff191683800117855561321c565b8280016001018555821561321c579182015b8281111561321b578251825591602001919060010190613200565b5b509050613229919061322d565b5090565b5b8082111561324657600081600090555060010161322e565b5090565b600061325d6132588461432b565b6142fa565b90508281526020810184848401111561327557600080fd5b613280848285614557565b509392505050565b600061329b6132968461435b565b6142fa565b9050828152602081018484840111156132b357600080fd5b6132be848285614557565b509392505050565b6000813590506132d581614712565b92915050565b6000813590506132ea81614729565b92915050565b6000813590506132ff81614740565b92915050565b60008151905061331481614740565b92915050565b600082601f83011261332b57600080fd5b813561333b84826020860161324a565b91505092915050565b600082601f83011261335557600080fd5b8135613365848260208601613288565b91505092915050565b60008135905061337d81614757565b92915050565b60006020828403121561339557600080fd5b60006133a3848285016132c6565b91505092915050565b600080604083850312156133bf57600080fd5b60006133cd858286016132c6565b92505060206133de858286016132c6565b9150509250929050565b6000806000606084860312156133fd57600080fd5b600061340b868287016132c6565b935050602061341c868287016132c6565b925050604061342d8682870161336e565b9150509250925092565b6000806000806080858703121561344d57600080fd5b600061345b878288016132c6565b945050602061346c878288016132c6565b935050604061347d8782880161336e565b925050606085013567ffffffffffffffff81111561349a57600080fd5b6134a68782880161331a565b91505092959194509250565b600080604083850312156134c557600080fd5b60006134d3858286016132c6565b92505060206134e4858286016132db565b9150509250929050565b6000806040838503121561350157600080fd5b600061350f858286016132c6565b92505060206135208582860161336e565b9150509250929050565b60006020828403121561353c57600080fd5b600061354a848285016132f0565b91505092915050565b60006020828403121561356557600080fd5b600061357384828501613305565b91505092915050565b60006020828403121561358e57600080fd5b600082013567ffffffffffffffff8111156135a857600080fd5b6135b484828501613344565b91505092915050565b6000602082840312156135cf57600080fd5b60006135dd8482850161336e565b91505092915050565b600080604083850312156135f957600080fd5b60006136078582860161336e565b92505060206136188582860161336e565b9150509250929050565b61362b816144e3565b82525050565b61363a816144f5565b82525050565b600061364b8261438b565b61365581856143a1565b9350613665818560208601614566565b61366e81614701565b840191505092915050565b600061368482614396565b61368e81856143b2565b935061369e818560208601614566565b6136a781614701565b840191505092915050565b60006136bd82614396565b6136c781856143c3565b93506136d7818560208601614566565b80840191505092915050565b60006136f06018836143b2565b91507f57617272696f72203220646f6573206e6f7420657869737400000000000000006000830152602082019050919050565b60006137306010836143b2565b91507f546f206d756368206570206c6f737421000000000000000000000000000000006000830152602082019050919050565b6000613770602b836143b2565b91507f455243373231456e756d657261626c653a206f776e657220696e646578206f7560008301527f74206f6620626f756e64730000000000000000000000000000000000000000006020830152604082019050919050565b60006137d66032836143b2565b91507f4552433732313a207472616e7366657220746f206e6f6e20455243373231526560008301527f63656976657220696d706c656d656e74657200000000000000000000000000006020830152604082019050919050565b600061383c6011836143b2565b91507f496e76616c6964206d696e7420666565210000000000000000000000000000006000830152602082019050919050565b600061387c6012836143b2565b91507f546f206d756368206570206761696e65642100000000000000000000000000006000830152602082019050919050565b60006138bc601c836143b2565b91507f4552433732313a20746f6b656e20616c7265616479206d696e746564000000006000830152602082019050919050565b60006138fc6024836143b2565b91507f4552433732313a207472616e7366657220746f20746865207a65726f2061646460008301527f72657373000000000000000000000000000000000000000000000000000000006020830152604082019050919050565b60006139626019836143b2565b91507f4552433732313a20617070726f766520746f2063616c6c6572000000000000006000830152602082019050919050565b60006139a2602c836143b2565b91507f4552433732313a206f70657261746f7220717565727920666f72206e6f6e657860008301527f697374656e7420746f6b656e00000000000000000000000000000000000000006020830152604082019050919050565b6000613a08601a836143b2565b91507f4f6e6c7920746865206f776e65722063616e20646f20746869730000000000006000830152602082019050919050565b6000613a486038836143b2565b91507f4552433732313a20617070726f76652063616c6c6572206973206e6f74206f7760008301527f6e6572206e6f7220617070726f76656420666f7220616c6c00000000000000006020830152604082019050919050565b6000613aae602a836143b2565b91507f4552433732313a2062616c616e636520717565727920666f7220746865207a6560008301527f726f2061646472657373000000000000000000000000000000000000000000006020830152604082019050919050565b6000613b146029836143b2565b91507f4552433732313a206f776e657220717565727920666f72206e6f6e657869737460008301527f656e7420746f6b656e00000000000000000000000000000000000000000000006020830152604082019050919050565b6000613b7a6020836143b2565b91507f4552433732313a206d696e7420746f20746865207a65726f20616464726573736000830152602082019050919050565b6000613bba602c836143b2565b91507f4552433732313a20617070726f76656420717565727920666f72206e6f6e657860008301527f697374656e7420746f6b656e00000000000000000000000000000000000000006020830152604082019050919050565b6000613c206029836143b2565b91507f4552433732313a207472616e73666572206f6620746f6b656e2074686174206960008301527f73206e6f74206f776e00000000000000000000000000000000000000000000006020830152604082019050919050565b6000613c86602f836143b2565b91507f4552433732314d657461646174613a2055524920717565727920666f72206e6f60008301527f6e6578697374656e7420746f6b656e00000000000000000000000000000000006020830152604082019050919050565b6000613cec6013836143b2565b91507f4e6f207370656e6461626c6520706f696e7473000000000000000000000000006000830152602082019050919050565b6000613d2c6021836143b2565b91507f4552433732313a20617070726f76616c20746f2063757272656e74206f776e6560008301527f72000000000000000000000000000000000000000000000000000000000000006020830152604082019050919050565b6000613d926031836143b2565b91507f4552433732313a207472616e736665722063616c6c6572206973206e6f74206f60008301527f776e6572206e6f7220617070726f7665640000000000000000000000000000006020830152604082019050919050565b6000613df8602c836143b2565b91507f455243373231456e756d657261626c653a20676c6f62616c20696e646578206f60008301527f7574206f6620626f756e647300000000000000000000000000000000000000006020830152604082019050919050565b6000613e5e6018836143b2565b91507f57617272696f72203120646f6573206e6f7420657869737400000000000000006000830152602082019050919050565b6000613e9e600e836143b2565b91507f756e6b6f776e2077617272696f720000000000000000000000000000000000006000830152602082019050919050565b613eda8161454d565b82525050565b6000613eec82856136b2565b9150613ef882846136b2565b91508190509392505050565b6000602082019050613f196000830184613622565b92915050565b6000608082019050613f346000830187613622565b613f416020830186613622565b613f4e6040830185613ed1565b8181036060830152613f608184613640565b905095945050505050565b6000602082019050613f806000830184613631565b92915050565b60006020820190508181036000830152613fa08184613679565b905092915050565b60006020820190508181036000830152613fc1816136e3565b9050919050565b60006020820190508181036000830152613fe181613723565b9050919050565b6000602082019050818103600083015261400181613763565b9050919050565b60006020820190508181036000830152614021816137c9565b9050919050565b600060208201905081810360008301526140418161382f565b9050919050565b600060208201905081810360008301526140618161386f565b9050919050565b60006020820190508181036000830152614081816138af565b9050919050565b600060208201905081810360008301526140a1816138ef565b9050919050565b600060208201905081810360008301526140c181613955565b9050919050565b600060208201905081810360008301526140e181613995565b9050919050565b60006020820190508181036000830152614101816139fb565b9050919050565b6000602082019050818103600083015261412181613a3b565b9050919050565b6000602082019050818103600083015261414181613aa1565b9050919050565b6000602082019050818103600083015261416181613b07565b9050919050565b6000602082019050818103600083015261418181613b6d565b9050919050565b600060208201905081810360008301526141a181613bad565b9050919050565b600060208201905081810360008301526141c181613c13565b9050919050565b600060208201905081810360008301526141e181613c79565b9050919050565b6000602082019050818103600083015261420181613cdf565b9050919050565b6000602082019050818103600083015261422181613d1f565b9050919050565b6000602082019050818103600083015261424181613d85565b9050919050565b6000602082019050818103600083015261426181613deb565b9050919050565b6000602082019050818103600083015261428181613e51565b9050919050565b600060208201905081810360008301526142a181613e91565b9050919050565b60006020820190506142bd6000830184613ed1565b92915050565b60006060820190506142d86000830186613ed1565b6142e56020830185613ed1565b6142f26040830184613ed1565b949350505050565b6000604051905081810181811067ffffffffffffffff82111715614321576143206146d2565b5b8060405250919050565b600067ffffffffffffffff821115614346576143456146d2565b5b601f19601f8301169050602081019050919050565b600067ffffffffffffffff821115614376576143756146d2565b5b601f19601f8301169050602081019050919050565b600081519050919050565b600081519050919050565b600082825260208201905092915050565b600082825260208201905092915050565b600081905092915050565b60006143d98261454d565b91506143e48361454d565b9250827fffffffffffffffffffffffffffffffffffffffffffffffffffffffffffffffff0382111561441957614418614645565b5b828201905092915050565b600061442f8261454d565b915061443a8361454d565b92508261444a57614449614674565b5b828204905092915050565b60006144608261454d565b915061446b8361454d565b9250817fffffffffffffffffffffffffffffffffffffffffffffffffffffffffffffffff04831182151516156144a4576144a3614645565b5b828202905092915050565b60006144ba8261454d565b91506144c58361454d565b9250828210156144d8576144d7614645565b5b828203905092915050565b60006144ee8261452d565b9050919050565b60008115159050919050565b60007fffffffff0000000000000000000000000000000000000000000000000000000082169050919050565b600073ffffffffffffffffffffffffffffffffffffffff82169050919050565b6000819050919050565b82818337600083830152505050565b60005b83811015614584578082015181840152602081019050614569565b83811115614593576000848401525b50505050565b600060028204905060018216806145b157607f821691505b602082108114156145c5576145c46146a3565b5b50919050565b60006145d68261454d565b91507fffffffffffffffffffffffffffffffffffffffffffffffffffffffffffffffff82141561460957614608614645565b5b600182019050919050565b600061461f8261454d565b915061462a8361454d565b92508261463a57614639614674565b5b828206905092915050565b7f4e487b7100000000000000000000000000000000000000000000000000000000600052601160045260246000fd5b7f4e487b7100000000000000000000000000000000000000000000000000000000600052601260045260246000fd5b7f4e487b7100000000000000000000000000000000000000000000000000000000600052602260045260246000fd5b7f4e487b7100000000000000000000000000000000000000000000000000000000600052604160045260246000fd5b6000601f19601f8301169050919050565b61471b816144e3565b811461472657600080fd5b50565b614732816144f5565b811461473d57600080fd5b50565b61474981614501565b811461475457600080fd5b50565b6147608161454d565b811461476b57600080fd5b5056fea2646970667358221220522938f4228f715b9f8adf0dae476729379c3cbb125cd101ecd771be53a8e49a64736f6c63430008000033",
  "linkReferences": {},
  "deployedLinkReferences": {}
}