{
  "_format": "hh-sol-artifact-1",
  "contractName": "CronosWarriors",
  "sourceName": "contracts/CronosWarriors.sol",
  "abi": [
    {
      "inputs": [],
      "stateMutability": "nonpayable",
      "type": "constructor"
    },
    {
      "anonymous": false,
      "inputs": [
        {
          "indexed": true,
          "internalType": "address",
          "name": "owner",
          "type": "address"
        },
        {
          "indexed": true,
          "internalType": "address",
          "name": "approved",
          "type": "address"
        },
        {
          "indexed": true,
          "internalType": "uint256",
          "name": "tokenId",
          "type": "uint256"
        }
      ],
      "name": "Approval",
      "type": "event"
    },
    {
      "anonymous": false,
      "inputs": [
        {
          "indexed": true,
          "internalType": "address",
          "name": "owner",
          "type": "address"
        },
        {
          "indexed": true,
          "internalType": "address",
          "name": "operator",
          "type": "address"
        },
        {
          "indexed": false,
          "internalType": "bool",
          "name": "approved",
          "type": "bool"
        }
      ],
      "name": "ApprovalForAll",
      "type": "event"
    },
    {
      "anonymous": false,
      "inputs": [
        {
          "indexed": true,
          "internalType": "bytes32",
          "name": "role",
          "type": "bytes32"
        },
        {
          "indexed": true,
          "internalType": "bytes32",
          "name": "previousAdminRole",
          "type": "bytes32"
        },
        {
          "indexed": true,
          "internalType": "bytes32",
          "name": "newAdminRole",
          "type": "bytes32"
        }
      ],
      "name": "RoleAdminChanged",
      "type": "event"
    },
    {
      "anonymous": false,
      "inputs": [
        {
          "indexed": true,
          "internalType": "bytes32",
          "name": "role",
          "type": "bytes32"
        },
        {
          "indexed": true,
          "internalType": "address",
          "name": "account",
          "type": "address"
        },
        {
          "indexed": true,
          "internalType": "address",
          "name": "sender",
          "type": "address"
        }
      ],
      "name": "RoleGranted",
      "type": "event"
    },
    {
      "anonymous": false,
      "inputs": [
        {
          "indexed": true,
          "internalType": "bytes32",
          "name": "role",
          "type": "bytes32"
        },
        {
          "indexed": true,
          "internalType": "address",
          "name": "account",
          "type": "address"
        },
        {
          "indexed": true,
          "internalType": "address",
          "name": "sender",
          "type": "address"
        }
      ],
      "name": "RoleRevoked",
      "type": "event"
    },
    {
      "anonymous": false,
      "inputs": [
        {
          "indexed": true,
          "internalType": "address",
          "name": "from",
          "type": "address"
        },
        {
          "indexed": true,
          "internalType": "address",
          "name": "to",
          "type": "address"
        },
        {
          "indexed": true,
          "internalType": "uint256",
          "name": "tokenId",
          "type": "uint256"
        }
      ],
      "name": "Transfer",
      "type": "event"
    },
    {
      "inputs": [],
      "name": "DEFAULT_ADMIN_ROLE",
      "outputs": [
        {
          "internalType": "bytes32",
          "name": "",
          "type": "bytes32"
        }
      ],
      "stateMutability": "view",
      "type": "function"
    },
    {
      "inputs": [],
      "name": "MINTER_ROLE",
      "outputs": [
        {
          "internalType": "bytes32",
          "name": "",
          "type": "bytes32"
        }
      ],
      "stateMutability": "view",
      "type": "function"
    },
    {
      "inputs": [
        {
          "internalType": "address",
          "name": "to",
          "type": "address"
        },
        {
          "internalType": "uint256",
          "name": "tokenId",
          "type": "uint256"
        }
      ],
      "name": "approve",
      "outputs": [],
      "stateMutability": "nonpayable",
      "type": "function"
    },
    {
      "inputs": [
        {
          "internalType": "address",
          "name": "owner",
          "type": "address"
        }
      ],
      "name": "balanceOf",
      "outputs": [
        {
          "internalType": "uint256",
          "name": "",
          "type": "uint256"
        }
      ],
      "stateMutability": "view",
      "type": "function"
    },
    {
      "inputs": [
        {
          "internalType": "uint256",
          "name": "id",
          "type": "uint256"
        }
      ],
      "name": "burn",
      "outputs": [],
      "stateMutability": "nonpayable",
      "type": "function"
    },
    {
      "inputs": [
        {
          "internalType": "uint256",
          "name": "id",
          "type": "uint256"
        }
      ],
      "name": "exists",
      "outputs": [
        {
          "internalType": "bool",
          "name": "",
          "type": "bool"
        }
      ],
      "stateMutability": "view",
      "type": "function"
    },
    {
      "inputs": [
        {
          "internalType": "uint256",
          "name": "tokenId",
          "type": "uint256"
        }
      ],
      "name": "getApproved",
      "outputs": [
        {
          "internalType": "address",
          "name": "",
          "type": "address"
        }
      ],
      "stateMutability": "view",
      "type": "function"
    },
    {
      "inputs": [
        {
          "internalType": "bytes32",
          "name": "role",
          "type": "bytes32"
        }
      ],
      "name": "getRoleAdmin",
      "outputs": [
        {
          "internalType": "bytes32",
          "name": "",
          "type": "bytes32"
        }
      ],
      "stateMutability": "view",
      "type": "function"
    },
    {
      "inputs": [
        {
          "internalType": "bytes32",
          "name": "role",
          "type": "bytes32"
        },
        {
          "internalType": "address",
          "name": "account",
          "type": "address"
        }
      ],
      "name": "grantRole",
      "outputs": [],
      "stateMutability": "nonpayable",
      "type": "function"
    },
    {
      "inputs": [
        {
          "internalType": "bytes32",
          "name": "role",
          "type": "bytes32"
        },
        {
          "internalType": "address",
          "name": "account",
          "type": "address"
        }
      ],
      "name": "hasRole",
      "outputs": [
        {
          "internalType": "bool",
          "name": "",
          "type": "bool"
        }
      ],
      "stateMutability": "view",
      "type": "function"
    },
    {
      "inputs": [
        {
          "internalType": "address",
          "name": "owner",
          "type": "address"
        },
        {
          "internalType": "address",
          "name": "operator",
          "type": "address"
        }
      ],
      "name": "isApprovedForAll",
      "outputs": [
        {
          "internalType": "bool",
          "name": "",
          "type": "bool"
        }
      ],
      "stateMutability": "view",
      "type": "function"
    },
    {
      "inputs": [
        {
          "internalType": "uint256",
          "name": "id",
          "type": "uint256"
        }
      ],
      "name": "mint",
      "outputs": [],
      "stateMutability": "nonpayable",
      "type": "function"
    },
    {
      "inputs": [],
      "name": "name",
      "outputs": [
        {
          "internalType": "string",
          "name": "",
          "type": "string"
        }
      ],
      "stateMutability": "view",
      "type": "function"
    },
    {
      "inputs": [
        {
          "internalType": "uint256",
          "name": "tokenId",
          "type": "uint256"
        }
      ],
      "name": "ownerOf",
      "outputs": [
        {
          "internalType": "address",
          "name": "",
          "type": "address"
        }
      ],
      "stateMutability": "view",
      "type": "function"
    },
    {
      "inputs": [
        {
          "internalType": "bytes32",
          "name": "role",
          "type": "bytes32"
        },
        {
          "internalType": "address",
          "name": "account",
          "type": "address"
        }
      ],
      "name": "renounceRole",
      "outputs": [],
      "stateMutability": "nonpayable",
      "type": "function"
    },
    {
      "inputs": [
        {
          "internalType": "bytes32",
          "name": "role",
          "type": "bytes32"
        },
        {
          "internalType": "address",
          "name": "account",
          "type": "address"
        }
      ],
      "name": "revokeRole",
      "outputs": [],
      "stateMutability": "nonpayable",
      "type": "function"
    },
    {
      "inputs": [
        {
          "internalType": "address",
          "name": "from",
          "type": "address"
        },
        {
          "internalType": "address",
          "name": "to",
          "type": "address"
        },
        {
          "internalType": "uint256",
          "name": "tokenId",
          "type": "uint256"
        }
      ],
      "name": "safeTransferFrom",
      "outputs": [],
      "stateMutability": "nonpayable",
      "type": "function"
    },
    {
      "inputs": [
        {
          "internalType": "address",
          "name": "from",
          "type": "address"
        },
        {
          "internalType": "address",
          "name": "to",
          "type": "address"
        },
        {
          "internalType": "uint256",
          "name": "tokenId",
          "type": "uint256"
        },
        {
          "internalType": "bytes",
          "name": "_data",
          "type": "bytes"
        }
      ],
      "name": "safeTransferFrom",
      "outputs": [],
      "stateMutability": "nonpayable",
      "type": "function"
    },
    {
      "inputs": [
        {
          "internalType": "address",
          "name": "operator",
          "type": "address"
        },
        {
          "internalType": "bool",
          "name": "approved",
          "type": "bool"
        }
      ],
      "name": "setApprovalForAll",
      "outputs": [],
      "stateMutability": "nonpayable",
      "type": "function"
    },
    {
      "inputs": [
        {
          "internalType": "bytes4",
          "name": "interfaceId",
          "type": "bytes4"
        }
      ],
      "name": "supportsInterface",
      "outputs": [
        {
          "internalType": "bool",
          "name": "",
          "type": "bool"
        }
      ],
      "stateMutability": "pure",
      "type": "function"
    },
    {
      "inputs": [],
      "name": "symbol",
      "outputs": [
        {
          "internalType": "string",
          "name": "",
          "type": "string"
        }
      ],
      "stateMutability": "view",
      "type": "function"
    },
    {
      "inputs": [
        {
          "internalType": "uint256",
          "name": "index",
          "type": "uint256"
        }
      ],
      "name": "tokenByIndex",
      "outputs": [
        {
          "internalType": "uint256",
          "name": "",
          "type": "uint256"
        }
      ],
      "stateMutability": "view",
      "type": "function"
    },
    {
      "inputs": [
        {
          "internalType": "address",
          "name": "owner",
          "type": "address"
        },
        {
          "internalType": "uint256",
          "name": "index",
          "type": "uint256"
        }
      ],
      "name": "tokenOfOwnerByIndex",
      "outputs": [
        {
          "internalType": "uint256",
          "name": "",
          "type": "uint256"
        }
      ],
      "stateMutability": "view",
      "type": "function"
    },
    {
      "inputs": [
        {
          "internalType": "uint256",
          "name": "tokenId",
          "type": "uint256"
        }
      ],
      "name": "tokenURI",
      "outputs": [
        {
          "internalType": "string",
          "name": "",
          "type": "string"
        }
      ],
      "stateMutability": "view",
      "type": "function"
    },
    {
      "inputs": [],
      "name": "totalSupply",
      "outputs": [
        {
          "internalType": "uint256",
          "name": "",
          "type": "uint256"
        }
      ],
      "stateMutability": "view",
      "type": "function"
    },
    {
      "inputs": [
        {
          "internalType": "address",
          "name": "from",
          "type": "address"
        },
        {
          "internalType": "address",
          "name": "to",
          "type": "address"
        },
        {
          "internalType": "uint256",
          "name": "tokenId",
          "type": "uint256"
        }
      ],
      "name": "transferFrom",
      "outputs": [],
      "stateMutability": "nonpayable",
      "type": "function"
    }
  ],
  "bytecode": "0x60806040523480156200001157600080fd5b506040518060400160405280600f81526020017f43726f6e6f732057617272696f727300000000000000000000000000000000008152506040518060400160405280600381526020017f574152000000000000000000000000000000000000000000000000000000000081525081600090805190602001906200009692919062000248565b508060019080519060200190620000af92919062000248565b505050620000c76000801b33620000cd60201b60201c565b6200035d565b620000df8282620000e360201b60201c565b5050565b620000f58282620001d560201b60201c565b620001d1576001600a600084815260200190815260200160002060000160008373ffffffffffffffffffffffffffffffffffffffff1673ffffffffffffffffffffffffffffffffffffffff16815260200190815260200160002060006101000a81548160ff021916908315150217905550620001766200024060201b60201c565b73ffffffffffffffffffffffffffffffffffffffff168173ffffffffffffffffffffffffffffffffffffffff16837f2f8788117e7eff1d82e926ec794901d17c78024a50270940304540a733656f0d60405160405180910390a45b5050565b6000600a600084815260200190815260200160002060000160008373ffffffffffffffffffffffffffffffffffffffff1673ffffffffffffffffffffffffffffffffffffffff16815260200190815260200160002060009054906101000a900460ff16905092915050565b600033905090565b8280546200025690620002f8565b90600052602060002090601f0160209004810192826200027a5760008555620002c6565b82601f106200029557805160ff1916838001178555620002c6565b82800160010185558215620002c6579182015b82811115620002c5578251825591602001919060010190620002a8565b5b509050620002d59190620002d9565b5090565b5b80821115620002f4576000816000905550600101620002da565b5090565b600060028204905060018216806200031157607f821691505b602082108114156200032857620003276200032e565b5b50919050565b7f4e487b7100000000000000000000000000000000000000000000000000000000600052602260045260246000fd5b613a62806200036d6000396000f3fe608060405234801561001057600080fd5b506004361061018e5760003560e01c80634f6ccce7116100de578063a217fddf11610097578063c87b56dd11610071578063c87b56dd146104b7578063d5391393146104e7578063d547741f14610505578063e985e9c5146105215761018e565b8063a217fddf14610461578063a22cb4651461047f578063b88d4fde1461049b5761018e565b80634f6ccce7146103675780636352211e1461039757806370a08231146103c757806391d14854146103f757806395d89b4114610427578063a0712d68146104455761018e565b8063248a9ca31161014b57806336568abe1161012557806336568abe146102e357806342842e0e146102ff57806342966c681461031b5780634f558e79146103375761018e565b8063248a9ca3146102675780632f2ff15d146102975780632f745c59146102b35761018e565b806301ffc9a71461019357806306fdde03146101c3578063081812fc146101e1578063095ea7b31461021157806318160ddd1461022d57806323b872dd1461024b575b600080fd5b6101ad60048036038101906101a891906129b7565b610551565b6040516101ba91906132ea565b60405180910390f35b6101cb610623565b6040516101d89190613320565b60405180910390f35b6101fb60048036038101906101f69190612a09565b6106b5565b6040516102089190613283565b60405180910390f35b61022b60048036038101906102269190612916565b61073a565b005b610235610852565b6040516102429190613582565b60405180910390f35b61026560048036038101906102609190612810565b61085f565b005b610281600480360381019061027c9190612952565b6108bf565b60405161028e9190613305565b60405180910390f35b6102b160048036038101906102ac919061297b565b6108df565b005b6102cd60048036038101906102c89190612916565b610908565b6040516102da9190613582565b60405180910390f35b6102fd60048036038101906102f8919061297b565b6109ad565b005b61031960048036038101906103149190612810565b610a30565b005b61033560048036038101906103309190612a09565b610a50565b005b610351600480360381019061034c9190612a09565b610a8f565b60405161035e91906132ea565b60405180910390f35b610381600480360381019061037c9190612a09565b610aa1565b60405161038e9190613582565b60405180910390f35b6103b160048036038101906103ac9190612a09565b610b38565b6040516103be9190613283565b60405180910390f35b6103e160048036038101906103dc91906127ab565b610bea565b6040516103ee9190613582565b60405180910390f35b610411600480360381019061040c919061297b565b610ca2565b60405161041e91906132ea565b60405180910390f35b61042f610d0d565b60405161043c9190613320565b60405180910390f35b61045f600480360381019061045a9190612a09565b610d9f565b005b610469610ddf565b6040516104769190613305565b60405180910390f35b610499600480360381019061049491906128da565b610de6565b005b6104b560048036038101906104b0919061285f565b610f67565b005b6104d160048036038101906104cc9190612a09565b610fc9565b6040516104de9190613320565b60405180910390f35b6104ef611070565b6040516104fc9190613305565b60405180910390f35b61051f600480360381019061051a919061297b565b611094565b005b61053b600480360381019061053691906127d4565b6110bd565b60405161054891906132ea565b60405180910390f35b60007f780e9d63000000000000000000000000000000000000000000000000000000007bffffffffffffffffffffffffffffffffffffffffffffffffffffffff1916827bffffffffffffffffffffffffffffffffffffffffffffffffffffffff1916148061061c57507f7965db0b000000000000000000000000000000000000000000000000000000007bffffffffffffffffffffffffffffffffffffffffffffffffffffffff1916827bffffffffffffffffffffffffffffffffffffffffffffffffffffffff1916145b9050919050565b60606000805461063290613840565b80601f016020809104026020016040519081016040528092919081815260200182805461065e90613840565b80156106ab5780601f10610680576101008083540402835291602001916106ab565b820191906000526020600020905b81548152906001019060200180831161068e57829003601f168201915b5050505050905090565b60006106c082611151565b6106ff576040517f08c379a00000000000000000000000000000000000000000000000000000000081526004016106f6906134a2565b60405180910390fd5b6004600083815260200190815260200160002060009054906101000a900473ffffffffffffffffffffffffffffffffffffffff169050919050565b600061074582610b38565b90508073ffffffffffffffffffffffffffffffffffffffff168373ffffffffffffffffffffffffffffffffffffffff1614156107b6576040517f08c379a00000000000000000000000000000000000000000000000000000000081526004016107ad90613502565b60405180910390fd5b8073ffffffffffffffffffffffffffffffffffffffff166107d56111bd565b73ffffffffffffffffffffffffffffffffffffffff1614806108045750610803816107fe6111bd565b6110bd565b5b610843576040517f08c379a000000000000000000000000000000000000000000000000000000000815260040161083a90613422565b60405180910390fd5b61084d83836111c5565b505050565b6000600880549050905090565b61087061086a6111bd565b8261127e565b6108af576040517f08c379a00000000000000000000000000000000000000000000000000000000081526004016108a690613522565b60405180910390fd5b6108ba83838361135c565b505050565b6000600a6000838152602001908152602001600020600101549050919050565b6108e8826108bf565b6108f9816108f46111bd565b6115b8565b6109038383611655565b505050565b600061091383610bea565b8210610954576040517f08c379a000000000000000000000000000000000000000000000000000000000815260040161094b90613362565b60405180910390fd5b600660008473ffffffffffffffffffffffffffffffffffffffff1673ffffffffffffffffffffffffffffffffffffffff168152602001908152602001600020600083815260200190815260200160002054905092915050565b6109b56111bd565b73ffffffffffffffffffffffffffffffffffffffff168173ffffffffffffffffffffffffffffffffffffffff1614610a22576040517f08c379a0000000000000000000000000000000000000000000000000000000008152600401610a1990613562565b60405180910390fd5b610a2c8282611736565b5050565b610a4b83838360405180602001604052806000815250610f67565b505050565b7f9f2df0fed2c77648de5860a4cc508cd0818c85b8b8a1ab4ceeef8d981c8956a6610a8281610a7d6111bd565b6115b8565b610a8b82611818565b5050565b6000610a9a82611151565b9050919050565b6000610aab610852565b8210610aec576040517f08c379a0000000000000000000000000000000000000000000000000000000008152600401610ae390613542565b60405180910390fd5b60088281548110610b26577f4e487b7100000000000000000000000000000000000000000000000000000000600052603260045260246000fd5b90600052602060002001549050919050565b6000806002600084815260200190815260200160002060009054906101000a900473ffffffffffffffffffffffffffffffffffffffff169050600073ffffffffffffffffffffffffffffffffffffffff168173ffffffffffffffffffffffffffffffffffffffff161415610be1576040517f08c379a0000000000000000000000000000000000000000000000000000000008152600401610bd890613462565b60405180910390fd5b80915050919050565b60008073ffffffffffffffffffffffffffffffffffffffff168273ffffffffffffffffffffffffffffffffffffffff161415610c5b576040517f08c379a0000000000000000000000000000000000000000000000000000000008152600401610c5290613442565b60405180910390fd5b600360008373ffffffffffffffffffffffffffffffffffffffff1673ffffffffffffffffffffffffffffffffffffffff168152602001908152602001600020549050919050565b6000600a600084815260200190815260200160002060000160008373ffffffffffffffffffffffffffffffffffffffff1673ffffffffffffffffffffffffffffffffffffffff16815260200190815260200160002060009054906101000a900460ff16905092915050565b606060018054610d1c90613840565b80601f0160208091040260200160405190810160405280929190818152602001828054610d4890613840565b8015610d955780601f10610d6a57610100808354040283529160200191610d95565b820191906000526020600020905b815481529060010190602001808311610d7857829003601f168201915b5050505050905090565b7f9f2df0fed2c77648de5860a4cc508cd0818c85b8b8a1ab4ceeef8d981c8956a6610dd181610dcc6111bd565b6115b8565b610ddb3283611929565b5050565b6000801b81565b610dee6111bd565b73ffffffffffffffffffffffffffffffffffffffff168273ffffffffffffffffffffffffffffffffffffffff161415610e5c576040517f08c379a0000000000000000000000000000000000000000000000000000000008152600401610e53906133e2565b60405180910390fd5b8060056000610e696111bd565b73ffffffffffffffffffffffffffffffffffffffff1673ffffffffffffffffffffffffffffffffffffffff16815260200190815260200160002060008473ffffffffffffffffffffffffffffffffffffffff1673ffffffffffffffffffffffffffffffffffffffff16815260200190815260200160002060006101000a81548160ff0219169083151502179055508173ffffffffffffffffffffffffffffffffffffffff16610f166111bd565b73ffffffffffffffffffffffffffffffffffffffff167f17307eab39ab6107e8899845ad3d59bd9653f200f220920489ca2b5937696c3183604051610f5b91906132ea565b60405180910390a35050565b610f78610f726111bd565b8361127e565b610fb7576040517f08c379a0000000000000000000000000000000000000000000000000000000008152600401610fae90613522565b60405180910390fd5b610fc384848484611947565b50505050565b6060610fd482611151565b611013576040517f08c379a000000000000000000000000000000000000000000000000000000000815260040161100a906134e2565b60405180910390fd5b600061101d6119a3565b9050600081511161103d5760405180602001604052806000815250611068565b80611047846119ba565b604051602001611058929190613225565b6040516020818303038152906040525b915050919050565b7f9f2df0fed2c77648de5860a4cc508cd0818c85b8b8a1ab4ceeef8d981c8956a681565b61109d826108bf565b6110ae816110a96111bd565b6115b8565b6110b88383611736565b505050565b6000600560008473ffffffffffffffffffffffffffffffffffffffff1673ffffffffffffffffffffffffffffffffffffffff16815260200190815260200160002060008373ffffffffffffffffffffffffffffffffffffffff1673ffffffffffffffffffffffffffffffffffffffff16815260200190815260200160002060009054906101000a900460ff16905092915050565b60008073ffffffffffffffffffffffffffffffffffffffff166002600084815260200190815260200160002060009054906101000a900473ffffffffffffffffffffffffffffffffffffffff1673ffffffffffffffffffffffffffffffffffffffff1614159050919050565b600033905090565b816004600083815260200190815260200160002060006101000a81548173ffffffffffffffffffffffffffffffffffffffff021916908373ffffffffffffffffffffffffffffffffffffffff160217905550808273ffffffffffffffffffffffffffffffffffffffff1661123883610b38565b73ffffffffffffffffffffffffffffffffffffffff167f8c5be1e5ebec7d5bd14f71427d1e84f3dd0314c0f7b2291e5b200ac8c7c3b92560405160405180910390a45050565b600061128982611151565b6112c8576040517f08c379a00000000000000000000000000000000000000000000000000000000081526004016112bf90613402565b60405180910390fd5b60006112d383610b38565b90508073ffffffffffffffffffffffffffffffffffffffff168473ffffffffffffffffffffffffffffffffffffffff16148061134257508373ffffffffffffffffffffffffffffffffffffffff1661132a846106b5565b73ffffffffffffffffffffffffffffffffffffffff16145b80611353575061135281856110bd565b5b91505092915050565b8273ffffffffffffffffffffffffffffffffffffffff1661137c82610b38565b73ffffffffffffffffffffffffffffffffffffffff16146113d2576040517f08c379a00000000000000000000000000000000000000000000000000000000081526004016113c9906134c2565b60405180910390fd5b600073ffffffffffffffffffffffffffffffffffffffff168273ffffffffffffffffffffffffffffffffffffffff161415611442576040517f08c379a0000000000000000000000000000000000000000000000000000000008152600401611439906133c2565b60405180910390fd5b61144d838383611b67565b6114586000826111c5565b6001600360008573ffffffffffffffffffffffffffffffffffffffff1673ffffffffffffffffffffffffffffffffffffffff16815260200190815260200160002060008282546114a89190613722565b925050819055506001600360008473ffffffffffffffffffffffffffffffffffffffff1673ffffffffffffffffffffffffffffffffffffffff16815260200190815260200160002060008282546114ff9190613641565b92505081905550816002600083815260200190815260200160002060006101000a81548173ffffffffffffffffffffffffffffffffffffffff021916908373ffffffffffffffffffffffffffffffffffffffff160217905550808273ffffffffffffffffffffffffffffffffffffffff168473ffffffffffffffffffffffffffffffffffffffff167fddf252ad1be2c89b69c2b068fc378daa952ba7f163c4a11628f55a4df523b3ef60405160405180910390a4505050565b6115c28282610ca2565b611651576115e78173ffffffffffffffffffffffffffffffffffffffff166014611c7b565b6115f58360001c6020611c7b565b604051602001611606929190613249565b6040516020818303038152906040526040517f08c379a00000000000000000000000000000000000000000000000000000000081526004016116489190613320565b60405180910390fd5b5050565b61165f8282610ca2565b611732576001600a600084815260200190815260200160002060000160008373ffffffffffffffffffffffffffffffffffffffff1673ffffffffffffffffffffffffffffffffffffffff16815260200190815260200160002060006101000a81548160ff0219169083151502179055506116d76111bd565b73ffffffffffffffffffffffffffffffffffffffff168173ffffffffffffffffffffffffffffffffffffffff16837f2f8788117e7eff1d82e926ec794901d17c78024a50270940304540a733656f0d60405160405180910390a45b5050565b6117408282610ca2565b15611814576000600a600084815260200190815260200160002060000160008373ffffffffffffffffffffffffffffffffffffffff1673ffffffffffffffffffffffffffffffffffffffff16815260200190815260200160002060006101000a81548160ff0219169083151502179055506117b96111bd565b73ffffffffffffffffffffffffffffffffffffffff168173ffffffffffffffffffffffffffffffffffffffff16837ff6391f5c32d9c69d2a47ea670b442974b53935d1edc7fd64eb21e047a839171b60405160405180910390a45b5050565b600061182382610b38565b905061183181600084611b67565b61183c6000836111c5565b6001600360008373ffffffffffffffffffffffffffffffffffffffff1673ffffffffffffffffffffffffffffffffffffffff168152602001908152602001600020600082825461188c9190613722565b925050819055506002600083815260200190815260200160002060006101000a81549073ffffffffffffffffffffffffffffffffffffffff021916905581600073ffffffffffffffffffffffffffffffffffffffff168273ffffffffffffffffffffffffffffffffffffffff167fddf252ad1be2c89b69c2b068fc378daa952ba7f163c4a11628f55a4df523b3ef60405160405180910390a45050565b611943828260405180602001604052806000815250611f75565b5050565b61195284848461135c565b61195e84848484611fd0565b61199d576040517f08c379a000000000000000000000000000000000000000000000000000000000815260040161199490613382565b60405180910390fd5b50505050565b606060405180602001604052806000815250905090565b60606000821415611a02576040518060400160405280600181526020017f30000000000000000000000000000000000000000000000000000000000000008152509050611b62565b600082905060005b60008214611a34578080611a1d90613872565b915050600a82611a2d9190613697565b9150611a0a565b60008167ffffffffffffffff811115611a76577f4e487b7100000000000000000000000000000000000000000000000000000000600052604160045260246000fd5b6040519080825280601f01601f191660200182016040528015611aa85781602001600182028036833780820191505090505b5090505b60008514611b5b57600182611ac19190613722565b9150600a85611ad091906138bb565b6030611adc9190613641565b60f81b818381518110611b18577f4e487b7100000000000000000000000000000000000000000000000000000000600052603260045260246000fd5b60200101907effffffffffffffffffffffffffffffffffffffffffffffffffffffffffffff1916908160001a905350600a85611b549190613697565b9450611aac565b8093505050505b919050565b611b72838383612167565b600073ffffffffffffffffffffffffffffffffffffffff168373ffffffffffffffffffffffffffffffffffffffff161415611bb557611bb08161216c565b611bf4565b8173ffffffffffffffffffffffffffffffffffffffff168373ffffffffffffffffffffffffffffffffffffffff1614611bf357611bf283826121b5565b5b5b600073ffffffffffffffffffffffffffffffffffffffff168273ffffffffffffffffffffffffffffffffffffffff161415611c3757611c3281612322565b611c76565b8273ffffffffffffffffffffffffffffffffffffffff168273ffffffffffffffffffffffffffffffffffffffff1614611c7557611c748282612465565b5b5b505050565b606060006002836002611c8e91906136c8565b611c989190613641565b67ffffffffffffffff811115611cd7577f4e487b7100000000000000000000000000000000000000000000000000000000600052604160045260246000fd5b6040519080825280601f01601f191660200182016040528015611d095781602001600182028036833780820191505090505b5090507f300000000000000000000000000000000000000000000000000000000000000081600081518110611d67577f4e487b7100000000000000000000000000000000000000000000000000000000600052603260045260246000fd5b60200101907effffffffffffffffffffffffffffffffffffffffffffffffffffffffffffff1916908160001a9053507f780000000000000000000000000000000000000000000000000000000000000081600181518110611df1577f4e487b7100000000000000000000000000000000000000000000000000000000600052603260045260246000fd5b60200101907effffffffffffffffffffffffffffffffffffffffffffffffffffffffffffff1916908160001a90535060006001846002611e3191906136c8565b611e3b9190613641565b90505b6001811115611f27577f3031323334353637383961626364656600000000000000000000000000000000600f861660108110611ea3577f4e487b7100000000000000000000000000000000000000000000000000000000600052603260045260246000fd5b1a60f81b828281518110611ee0577f4e487b7100000000000000000000000000000000000000000000000000000000600052603260045260246000fd5b60200101907effffffffffffffffffffffffffffffffffffffffffffffffffffffffffffff1916908160001a905350600485901c945080611f2090613816565b9050611e3e565b5060008414611f6b576040517f08c379a0000000000000000000000000000000000000000000000000000000008152600401611f6290613342565b60405180910390fd5b8091505092915050565b611f7f83836124e4565b611f8c6000848484611fd0565b611fcb576040517f08c379a0000000000000000000000000000000000000000000000000000000008152600401611fc290613382565b60405180910390fd5b505050565b6000611ff18473ffffffffffffffffffffffffffffffffffffffff166126b2565b1561215a578373ffffffffffffffffffffffffffffffffffffffff1663150b7a0261201a6111bd565b8786866040518563ffffffff1660e01b815260040161203c949392919061329e565b602060405180830381600087803b15801561205657600080fd5b505af192505050801561208757506040513d601f19601f8201168201806040525081019061208491906129e0565b60015b61210a573d80600081146120b7576040519150601f19603f3d011682016040523d82523d6000602084013e6120bc565b606091505b50600081511415612102576040517f08c379a00000000000000000000000000000000000000000000000000000000081526004016120f990613382565b60405180910390fd5b805181602001fd5b63150b7a0260e01b7bffffffffffffffffffffffffffffffffffffffffffffffffffffffff1916817bffffffffffffffffffffffffffffffffffffffffffffffffffffffff19161491505061215f565b600190505b949350505050565b505050565b6008805490506009600083815260200190815260200160002081905550600881908060018154018082558091505060019003906000526020600020016000909190919091505550565b600060016121c284610bea565b6121cc9190613722565b90506000600760008481526020019081526020016000205490508181146122b1576000600660008673ffffffffffffffffffffffffffffffffffffffff1673ffffffffffffffffffffffffffffffffffffffff168152602001908152602001600020600084815260200190815260200160002054905080600660008773ffffffffffffffffffffffffffffffffffffffff1673ffffffffffffffffffffffffffffffffffffffff168152602001908152602001600020600084815260200190815260200160002081905550816007600083815260200190815260200160002081905550505b6007600084815260200190815260200160002060009055600660008573ffffffffffffffffffffffffffffffffffffffff1673ffffffffffffffffffffffffffffffffffffffff16815260200190815260200160002060008381526020019081526020016000206000905550505050565b600060016008805490506123369190613722565b905060006009600084815260200190815260200160002054905060006008838154811061238c577f4e487b7100000000000000000000000000000000000000000000000000000000600052603260045260246000fd5b9060005260206000200154905080600883815481106123d4577f4e487b7100000000000000000000000000000000000000000000000000000000600052603260045260246000fd5b906000526020600020018190555081600960008381526020019081526020016000208190555060096000858152602001908152602001600020600090556008805480612449577f4e487b7100000000000000000000000000000000000000000000000000000000600052603160045260246000fd5b6001900381819060005260206000200160009055905550505050565b600061247083610bea565b905081600660008573ffffffffffffffffffffffffffffffffffffffff1673ffffffffffffffffffffffffffffffffffffffff168152602001908152602001600020600083815260200190815260200160002081905550806007600084815260200190815260200160002081905550505050565b600073ffffffffffffffffffffffffffffffffffffffff168273ffffffffffffffffffffffffffffffffffffffff161415612554576040517f08c379a000000000000000000000000000000000000000000000000000000000815260040161254b90613482565b60405180910390fd5b61255d81611151565b1561259d576040517f08c379a0000000000000000000000000000000000000000000000000000000008152600401612594906133a2565b60405180910390fd5b6125a960008383611b67565b6001600360008473ffffffffffffffffffffffffffffffffffffffff1673ffffffffffffffffffffffffffffffffffffffff16815260200190815260200160002060008282546125f99190613641565b92505081905550816002600083815260200190815260200160002060006101000a81548173ffffffffffffffffffffffffffffffffffffffff021916908373ffffffffffffffffffffffffffffffffffffffff160217905550808273ffffffffffffffffffffffffffffffffffffffff16600073ffffffffffffffffffffffffffffffffffffffff167fddf252ad1be2c89b69c2b068fc378daa952ba7f163c4a11628f55a4df523b3ef60405160405180910390a45050565b600080823b905060008111915050919050565b60006126d86126d3846135ce565b61359d565b9050828152602081018484840111156126f057600080fd5b6126fb8482856137d4565b509392505050565b600081359050612712816139b9565b92915050565b600081359050612727816139d0565b92915050565b60008135905061273c816139e7565b92915050565b600081359050612751816139fe565b92915050565b600081519050612766816139fe565b92915050565b600082601f83011261277d57600080fd5b813561278d8482602086016126c5565b91505092915050565b6000813590506127a581613a15565b92915050565b6000602082840312156127bd57600080fd5b60006127cb84828501612703565b91505092915050565b600080604083850312156127e757600080fd5b60006127f585828601612703565b925050602061280685828601612703565b9150509250929050565b60008060006060848603121561282557600080fd5b600061283386828701612703565b935050602061284486828701612703565b925050604061285586828701612796565b9150509250925092565b6000806000806080858703121561287557600080fd5b600061288387828801612703565b945050602061289487828801612703565b93505060406128a587828801612796565b925050606085013567ffffffffffffffff8111156128c257600080fd5b6128ce8782880161276c565b91505092959194509250565b600080604083850312156128ed57600080fd5b60006128fb85828601612703565b925050602061290c85828601612718565b9150509250929050565b6000806040838503121561292957600080fd5b600061293785828601612703565b925050602061294885828601612796565b9150509250929050565b60006020828403121561296457600080fd5b60006129728482850161272d565b91505092915050565b6000806040838503121561298e57600080fd5b600061299c8582860161272d565b92505060206129ad85828601612703565b9150509250929050565b6000602082840312156129c957600080fd5b60006129d784828501612742565b91505092915050565b6000602082840312156129f257600080fd5b6000612a0084828501612757565b91505092915050565b600060208284031215612a1b57600080fd5b6000612a2984828501612796565b91505092915050565b612a3b81613756565b82525050565b612a4a81613768565b82525050565b612a5981613774565b82525050565b6000612a6a826135fe565b612a748185613614565b9350612a848185602086016137e3565b612a8d816139a8565b840191505092915050565b6000612aa382613609565b612aad8185613625565b9350612abd8185602086016137e3565b612ac6816139a8565b840191505092915050565b6000612adc82613609565b612ae68185613636565b9350612af68185602086016137e3565b80840191505092915050565b6000612b0f602083613625565b91507f537472696e67733a20686578206c656e67746820696e73756666696369656e746000830152602082019050919050565b6000612b4f602b83613625565b91507f455243373231456e756d657261626c653a206f776e657220696e646578206f7560008301527f74206f6620626f756e64730000000000000000000000000000000000000000006020830152604082019050919050565b6000612bb5603283613625565b91507f4552433732313a207472616e7366657220746f206e6f6e20455243373231526560008301527f63656976657220696d706c656d656e74657200000000000000000000000000006020830152604082019050919050565b6000612c1b601c83613625565b91507f4552433732313a20746f6b656e20616c7265616479206d696e746564000000006000830152602082019050919050565b6000612c5b602483613625565b91507f4552433732313a207472616e7366657220746f20746865207a65726f2061646460008301527f72657373000000000000000000000000000000000000000000000000000000006020830152604082019050919050565b6000612cc1601983613625565b91507f4552433732313a20617070726f766520746f2063616c6c6572000000000000006000830152602082019050919050565b6000612d01602c83613625565b91507f4552433732313a206f70657261746f7220717565727920666f72206e6f6e657860008301527f697374656e7420746f6b656e00000000000000000000000000000000000000006020830152604082019050919050565b6000612d67603883613625565b91507f4552433732313a20617070726f76652063616c6c6572206973206e6f74206f7760008301527f6e6572206e6f7220617070726f76656420666f7220616c6c00000000000000006020830152604082019050919050565b6000612dcd602a83613625565b91507f4552433732313a2062616c616e636520717565727920666f7220746865207a6560008301527f726f2061646472657373000000000000000000000000000000000000000000006020830152604082019050919050565b6000612e33602983613625565b91507f4552433732313a206f776e657220717565727920666f72206e6f6e657869737460008301527f656e7420746f6b656e00000000000000000000000000000000000000000000006020830152604082019050919050565b6000612e99602083613625565b91507f4552433732313a206d696e7420746f20746865207a65726f20616464726573736000830152602082019050919050565b6000612ed9602c83613625565b91507f4552433732313a20617070726f76656420717565727920666f72206e6f6e657860008301527f697374656e7420746f6b656e00000000000000000000000000000000000000006020830152604082019050919050565b6000612f3f602983613625565b91507f4552433732313a207472616e73666572206f6620746f6b656e2074686174206960008301527f73206e6f74206f776e00000000000000000000000000000000000000000000006020830152604082019050919050565b6000612fa5602f83613625565b91507f4552433732314d657461646174613a2055524920717565727920666f72206e6f60008301527f6e6578697374656e7420746f6b656e00000000000000000000000000000000006020830152604082019050919050565b600061300b602183613625565b91507f4552433732313a20617070726f76616c20746f2063757272656e74206f776e6560008301527f72000000000000000000000000000000000000000000000000000000000000006020830152604082019050919050565b6000613071603183613625565b91507f4552433732313a207472616e736665722063616c6c6572206973206e6f74206f60008301527f776e6572206e6f7220617070726f7665640000000000000000000000000000006020830152604082019050919050565b60006130d7602c83613625565b91507f455243373231456e756d657261626c653a20676c6f62616c20696e646578206f60008301527f7574206f6620626f756e647300000000000000000000000000000000000000006020830152604082019050919050565b600061313d601783613636565b91507f416363657373436f6e74726f6c3a206163636f756e74200000000000000000006000830152601782019050919050565b600061317d601183613636565b91507f206973206d697373696e6720726f6c65200000000000000000000000000000006000830152601182019050919050565b60006131bd602f83613625565b91507f416363657373436f6e74726f6c3a2063616e206f6e6c792072656e6f756e636560008301527f20726f6c657320666f722073656c6600000000000000000000000000000000006020830152604082019050919050565b61321f816137ca565b82525050565b60006132318285612ad1565b915061323d8284612ad1565b91508190509392505050565b600061325482613130565b91506132608285612ad1565b915061326b82613170565b91506132778284612ad1565b91508190509392505050565b60006020820190506132986000830184612a32565b92915050565b60006080820190506132b36000830187612a32565b6132c06020830186612a32565b6132cd6040830185613216565b81810360608301526132df8184612a5f565b905095945050505050565b60006020820190506132ff6000830184612a41565b92915050565b600060208201905061331a6000830184612a50565b92915050565b6000602082019050818103600083015261333a8184612a98565b905092915050565b6000602082019050818103600083015261335b81612b02565b9050919050565b6000602082019050818103600083015261337b81612b42565b9050919050565b6000602082019050818103600083015261339b81612ba8565b9050919050565b600060208201905081810360008301526133bb81612c0e565b9050919050565b600060208201905081810360008301526133db81612c4e565b9050919050565b600060208201905081810360008301526133fb81612cb4565b9050919050565b6000602082019050818103600083015261341b81612cf4565b9050919050565b6000602082019050818103600083015261343b81612d5a565b9050919050565b6000602082019050818103600083015261345b81612dc0565b9050919050565b6000602082019050818103600083015261347b81612e26565b9050919050565b6000602082019050818103600083015261349b81612e8c565b9050919050565b600060208201905081810360008301526134bb81612ecc565b9050919050565b600060208201905081810360008301526134db81612f32565b9050919050565b600060208201905081810360008301526134fb81612f98565b9050919050565b6000602082019050818103600083015261351b81612ffe565b9050919050565b6000602082019050818103600083015261353b81613064565b9050919050565b6000602082019050818103600083015261355b816130ca565b9050919050565b6000602082019050818103600083015261357b816131b0565b9050919050565b60006020820190506135976000830184613216565b92915050565b6000604051905081810181811067ffffffffffffffff821117156135c4576135c3613979565b5b8060405250919050565b600067ffffffffffffffff8211156135e9576135e8613979565b5b601f19601f8301169050602081019050919050565b600081519050919050565b600081519050919050565b600082825260208201905092915050565b600082825260208201905092915050565b600081905092915050565b600061364c826137ca565b9150613657836137ca565b9250827fffffffffffffffffffffffffffffffffffffffffffffffffffffffffffffffff0382111561368c5761368b6138ec565b5b828201905092915050565b60006136a2826137ca565b91506136ad836137ca565b9250826136bd576136bc61391b565b5b828204905092915050565b60006136d3826137ca565b91506136de836137ca565b9250817fffffffffffffffffffffffffffffffffffffffffffffffffffffffffffffffff0483118215151615613717576137166138ec565b5b828202905092915050565b600061372d826137ca565b9150613738836137ca565b92508282101561374b5761374a6138ec565b5b828203905092915050565b6000613761826137aa565b9050919050565b60008115159050919050565b6000819050919050565b60007fffffffff0000000000000000000000000000000000000000000000000000000082169050919050565b600073ffffffffffffffffffffffffffffffffffffffff82169050919050565b6000819050919050565b82818337600083830152505050565b60005b838110156138015780820151818401526020810190506137e6565b83811115613810576000848401525b50505050565b6000613821826137ca565b91506000821415613835576138346138ec565b5b600182039050919050565b6000600282049050600182168061385857607f821691505b6020821081141561386c5761386b61394a565b5b50919050565b600061387d826137ca565b91507fffffffffffffffffffffffffffffffffffffffffffffffffffffffffffffffff8214156138b0576138af6138ec565b5b600182019050919050565b60006138c6826137ca565b91506138d1836137ca565b9250826138e1576138e061391b565b5b828206905092915050565b7f4e487b7100000000000000000000000000000000000000000000000000000000600052601160045260246000fd5b7f4e487b7100000000000000000000000000000000000000000000000000000000600052601260045260246000fd5b7f4e487b7100000000000000000000000000000000000000000000000000000000600052602260045260246000fd5b7f4e487b7100000000000000000000000000000000000000000000000000000000600052604160045260246000fd5b6000601f19601f8301169050919050565b6139c281613756565b81146139cd57600080fd5b50565b6139d981613768565b81146139e457600080fd5b50565b6139f081613774565b81146139fb57600080fd5b50565b613a078161377e565b8114613a1257600080fd5b50565b613a1e816137ca565b8114613a2957600080fd5b5056fea264697066735822122071e8999dd1851345cb9d31319ae0de00ad9f81f0d373fdbe93440c672cc86c9d64736f6c63430008000033",
  "linkReferences": {},
  "deployedLinkReferences": {}
}