{
  "_format": "hh-sol-artifact-1",
  "contractName": "CronosWarriors",
  "sourceName": "contracts/CronosWarriors.sol",
  "abi": [
    {
      "inputs": [],
      "stateMutability": "nonpayable",
      "type": "constructor"
    },
    {
      "anonymous": false,
      "inputs": [
        {
          "indexed": true,
          "internalType": "address",
          "name": "owner",
          "type": "address"
        },
        {
          "indexed": true,
          "internalType": "address",
          "name": "approved",
          "type": "address"
        },
        {
          "indexed": true,
          "internalType": "uint256",
          "name": "tokenId",
          "type": "uint256"
        }
      ],
      "name": "Approval",
      "type": "event"
    },
    {
      "anonymous": false,
      "inputs": [
        {
          "indexed": true,
          "internalType": "address",
          "name": "owner",
          "type": "address"
        },
        {
          "indexed": true,
          "internalType": "address",
          "name": "operator",
          "type": "address"
        },
        {
          "indexed": false,
          "internalType": "bool",
          "name": "approved",
          "type": "bool"
        }
      ],
      "name": "ApprovalForAll",
      "type": "event"
    },
    {
      "anonymous": false,
      "inputs": [
        {
          "indexed": true,
          "internalType": "bytes32",
          "name": "role",
          "type": "bytes32"
        },
        {
          "indexed": true,
          "internalType": "bytes32",
          "name": "previousAdminRole",
          "type": "bytes32"
        },
        {
          "indexed": true,
          "internalType": "bytes32",
          "name": "newAdminRole",
          "type": "bytes32"
        }
      ],
      "name": "RoleAdminChanged",
      "type": "event"
    },
    {
      "anonymous": false,
      "inputs": [
        {
          "indexed": true,
          "internalType": "bytes32",
          "name": "role",
          "type": "bytes32"
        },
        {
          "indexed": true,
          "internalType": "address",
          "name": "account",
          "type": "address"
        },
        {
          "indexed": true,
          "internalType": "address",
          "name": "sender",
          "type": "address"
        }
      ],
      "name": "RoleGranted",
      "type": "event"
    },
    {
      "anonymous": false,
      "inputs": [
        {
          "indexed": true,
          "internalType": "bytes32",
          "name": "role",
          "type": "bytes32"
        },
        {
          "indexed": true,
          "internalType": "address",
          "name": "account",
          "type": "address"
        },
        {
          "indexed": true,
          "internalType": "address",
          "name": "sender",
          "type": "address"
        }
      ],
      "name": "RoleRevoked",
      "type": "event"
    },
    {
      "anonymous": false,
      "inputs": [
        {
          "indexed": true,
          "internalType": "address",
          "name": "from",
          "type": "address"
        },
        {
          "indexed": true,
          "internalType": "address",
          "name": "to",
          "type": "address"
        },
        {
          "indexed": true,
          "internalType": "uint256",
          "name": "tokenId",
          "type": "uint256"
        }
      ],
      "name": "Transfer",
      "type": "event"
    },
    {
      "inputs": [],
      "name": "DEFAULT_ADMIN_ROLE",
      "outputs": [
        {
          "internalType": "bytes32",
          "name": "",
          "type": "bytes32"
        }
      ],
      "stateMutability": "view",
      "type": "function"
    },
    {
      "inputs": [],
      "name": "MINTER_ROLE",
      "outputs": [
        {
          "internalType": "bytes32",
          "name": "",
          "type": "bytes32"
        }
      ],
      "stateMutability": "view",
      "type": "function"
    },
    {
      "inputs": [],
      "name": "URI_ROLE",
      "outputs": [
        {
          "internalType": "bytes32",
          "name": "",
          "type": "bytes32"
        }
      ],
      "stateMutability": "view",
      "type": "function"
    },
    {
      "inputs": [
        {
          "internalType": "address",
          "name": "to",
          "type": "address"
        },
        {
          "internalType": "uint256",
          "name": "tokenId",
          "type": "uint256"
        }
      ],
      "name": "approve",
      "outputs": [],
      "stateMutability": "nonpayable",
      "type": "function"
    },
    {
      "inputs": [
        {
          "internalType": "address",
          "name": "owner",
          "type": "address"
        }
      ],
      "name": "balanceOf",
      "outputs": [
        {
          "internalType": "uint256",
          "name": "",
          "type": "uint256"
        }
      ],
      "stateMutability": "view",
      "type": "function"
    },
    {
      "inputs": [
        {
          "internalType": "uint256",
          "name": "id",
          "type": "uint256"
        }
      ],
      "name": "burn",
      "outputs": [],
      "stateMutability": "nonpayable",
      "type": "function"
    },
    {
      "inputs": [
        {
          "internalType": "uint256",
          "name": "id",
          "type": "uint256"
        }
      ],
      "name": "exists",
      "outputs": [
        {
          "internalType": "bool",
          "name": "",
          "type": "bool"
        }
      ],
      "stateMutability": "view",
      "type": "function"
    },
    {
      "inputs": [
        {
          "internalType": "uint256",
          "name": "tokenId",
          "type": "uint256"
        }
      ],
      "name": "getApproved",
      "outputs": [
        {
          "internalType": "address",
          "name": "",
          "type": "address"
        }
      ],
      "stateMutability": "view",
      "type": "function"
    },
    {
      "inputs": [
        {
          "internalType": "bytes32",
          "name": "role",
          "type": "bytes32"
        }
      ],
      "name": "getRoleAdmin",
      "outputs": [
        {
          "internalType": "bytes32",
          "name": "",
          "type": "bytes32"
        }
      ],
      "stateMutability": "view",
      "type": "function"
    },
    {
      "inputs": [
        {
          "internalType": "bytes32",
          "name": "role",
          "type": "bytes32"
        },
        {
          "internalType": "address",
          "name": "account",
          "type": "address"
        }
      ],
      "name": "grantRole",
      "outputs": [],
      "stateMutability": "nonpayable",
      "type": "function"
    },
    {
      "inputs": [
        {
          "internalType": "bytes32",
          "name": "role",
          "type": "bytes32"
        },
        {
          "internalType": "address",
          "name": "account",
          "type": "address"
        }
      ],
      "name": "hasRole",
      "outputs": [
        {
          "internalType": "bool",
          "name": "",
          "type": "bool"
        }
      ],
      "stateMutability": "view",
      "type": "function"
    },
    {
      "inputs": [
        {
          "internalType": "address",
          "name": "owner",
          "type": "address"
        },
        {
          "internalType": "address",
          "name": "operator",
          "type": "address"
        }
      ],
      "name": "isApprovedForAll",
      "outputs": [
        {
          "internalType": "bool",
          "name": "",
          "type": "bool"
        }
      ],
      "stateMutability": "view",
      "type": "function"
    },
    {
      "inputs": [
        {
          "internalType": "uint256",
          "name": "id",
          "type": "uint256"
        }
      ],
      "name": "mint",
      "outputs": [],
      "stateMutability": "nonpayable",
      "type": "function"
    },
    {
      "inputs": [],
      "name": "name",
      "outputs": [
        {
          "internalType": "string",
          "name": "",
          "type": "string"
        }
      ],
      "stateMutability": "view",
      "type": "function"
    },
    {
      "inputs": [
        {
          "internalType": "uint256",
          "name": "tokenId",
          "type": "uint256"
        }
      ],
      "name": "ownerOf",
      "outputs": [
        {
          "internalType": "address",
          "name": "",
          "type": "address"
        }
      ],
      "stateMutability": "view",
      "type": "function"
    },
    {
      "inputs": [
        {
          "internalType": "bytes32",
          "name": "role",
          "type": "bytes32"
        },
        {
          "internalType": "address",
          "name": "account",
          "type": "address"
        }
      ],
      "name": "renounceRole",
      "outputs": [],
      "stateMutability": "nonpayable",
      "type": "function"
    },
    {
      "inputs": [
        {
          "internalType": "bytes32",
          "name": "role",
          "type": "bytes32"
        },
        {
          "internalType": "address",
          "name": "account",
          "type": "address"
        }
      ],
      "name": "revokeRole",
      "outputs": [],
      "stateMutability": "nonpayable",
      "type": "function"
    },
    {
      "inputs": [
        {
          "internalType": "address",
          "name": "from",
          "type": "address"
        },
        {
          "internalType": "address",
          "name": "to",
          "type": "address"
        },
        {
          "internalType": "uint256",
          "name": "tokenId",
          "type": "uint256"
        }
      ],
      "name": "safeTransferFrom",
      "outputs": [],
      "stateMutability": "nonpayable",
      "type": "function"
    },
    {
      "inputs": [
        {
          "internalType": "address",
          "name": "from",
          "type": "address"
        },
        {
          "internalType": "address",
          "name": "to",
          "type": "address"
        },
        {
          "internalType": "uint256",
          "name": "tokenId",
          "type": "uint256"
        },
        {
          "internalType": "bytes",
          "name": "_data",
          "type": "bytes"
        }
      ],
      "name": "safeTransferFrom",
      "outputs": [],
      "stateMutability": "nonpayable",
      "type": "function"
    },
    {
      "inputs": [
        {
          "internalType": "address",
          "name": "operator",
          "type": "address"
        },
        {
          "internalType": "bool",
          "name": "approved",
          "type": "bool"
        }
      ],
      "name": "setApprovalForAll",
      "outputs": [],
      "stateMutability": "nonpayable",
      "type": "function"
    },
    {
      "inputs": [
        {
          "internalType": "uint256",
          "name": "tokenID",
          "type": "uint256"
        },
        {
          "internalType": "string",
          "name": "uri",
          "type": "string"
        }
      ],
      "name": "setTokenURI",
      "outputs": [],
      "stateMutability": "nonpayable",
      "type": "function"
    },
    {
      "inputs": [
        {
          "internalType": "bytes4",
          "name": "interfaceId",
          "type": "bytes4"
        }
      ],
      "name": "supportsInterface",
      "outputs": [
        {
          "internalType": "bool",
          "name": "",
          "type": "bool"
        }
      ],
      "stateMutability": "pure",
      "type": "function"
    },
    {
      "inputs": [],
      "name": "symbol",
      "outputs": [
        {
          "internalType": "string",
          "name": "",
          "type": "string"
        }
      ],
      "stateMutability": "view",
      "type": "function"
    },
    {
      "inputs": [
        {
          "internalType": "uint256",
          "name": "index",
          "type": "uint256"
        }
      ],
      "name": "tokenByIndex",
      "outputs": [
        {
          "internalType": "uint256",
          "name": "",
          "type": "uint256"
        }
      ],
      "stateMutability": "view",
      "type": "function"
    },
    {
      "inputs": [
        {
          "internalType": "address",
          "name": "owner",
          "type": "address"
        },
        {
          "internalType": "uint256",
          "name": "index",
          "type": "uint256"
        }
      ],
      "name": "tokenOfOwnerByIndex",
      "outputs": [
        {
          "internalType": "uint256",
          "name": "",
          "type": "uint256"
        }
      ],
      "stateMutability": "view",
      "type": "function"
    },
    {
      "inputs": [
        {
          "internalType": "uint256",
          "name": "tokenID",
          "type": "uint256"
        }
      ],
      "name": "tokenURI",
      "outputs": [
        {
          "internalType": "string",
          "name": "",
          "type": "string"
        }
      ],
      "stateMutability": "view",
      "type": "function"
    },
    {
      "inputs": [],
      "name": "totalSupply",
      "outputs": [
        {
          "internalType": "uint256",
          "name": "",
          "type": "uint256"
        }
      ],
      "stateMutability": "view",
      "type": "function"
    },
    {
      "inputs": [
        {
          "internalType": "address",
          "name": "from",
          "type": "address"
        },
        {
          "internalType": "address",
          "name": "to",
          "type": "address"
        },
        {
          "internalType": "uint256",
          "name": "tokenId",
          "type": "uint256"
        }
      ],
      "name": "transferFrom",
      "outputs": [],
      "stateMutability": "nonpayable",
      "type": "function"
    }
  ],
  "bytecode": "0x60806040523480156200001157600080fd5b506040518060400160405280600f81526020017f43726f6e6f732057617272696f727300000000000000000000000000000000008152506040518060400160405280600381526020017f574152000000000000000000000000000000000000000000000000000000000081525081600090805190602001906200009692919062000248565b508060019080519060200190620000af92919062000248565b505050620000c76000801b33620000cd60201b60201c565b6200035d565b620000df8282620000e360201b60201c565b5050565b620000f58282620001d560201b60201c565b620001d1576001600a600084815260200190815260200160002060000160008373ffffffffffffffffffffffffffffffffffffffff1673ffffffffffffffffffffffffffffffffffffffff16815260200190815260200160002060006101000a81548160ff021916908315150217905550620001766200024060201b60201c565b73ffffffffffffffffffffffffffffffffffffffff168173ffffffffffffffffffffffffffffffffffffffff16837f2f8788117e7eff1d82e926ec794901d17c78024a50270940304540a733656f0d60405160405180910390a45b5050565b6000600a600084815260200190815260200160002060000160008373ffffffffffffffffffffffffffffffffffffffff1673ffffffffffffffffffffffffffffffffffffffff16815260200190815260200160002060009054906101000a900460ff16905092915050565b600033905090565b8280546200025690620002f8565b90600052602060002090601f0160209004810192826200027a5760008555620002c6565b82601f106200029557805160ff1916838001178555620002c6565b82800160010185558215620002c6579182015b82811115620002c5578251825591602001919060010190620002a8565b5b509050620002d59190620002d9565b5090565b5b80821115620002f4576000816000905550600101620002da565b5090565b600060028204905060018216806200031157607f821691505b602082108114156200032857620003276200032e565b5b50919050565b7f4e487b7100000000000000000000000000000000000000000000000000000000600052602260045260246000fd5b613bde806200036d6000396000f3fe608060405234801561001057600080fd5b50600436106101c45760003560e01c80634f558e79116100f9578063a217fddf11610097578063c87b56dd11610071578063c87b56dd14610527578063d539139314610557578063d547741f14610575578063e985e9c514610591576101c4565b8063a217fddf146104d1578063a22cb465146104ef578063b88d4fde1461050b576101c4565b806370a08231116100d357806370a082311461043757806391d148541461046757806395d89b4114610497578063a0712d68146104b5576101c4565b80634f558e79146103a75780634f6ccce7146103d75780636352211e14610407576101c4565b806323b872dd116101665780632f745c59116101405780632f745c591461032357806336568abe1461035357806342842e0e1461036f57806342966c681461038b576101c4565b806323b872dd146102bb578063248a9ca3146102d75780632f2ff15d14610307576101c4565b8063095ea7b3116101a2578063095ea7b3146102475780630ab5f32a14610263578063162094c41461028157806318160ddd1461029d576101c4565b806301ffc9a7146101c957806306fdde03146101f9578063081812fc14610217575b600080fd5b6101e360048036038101906101de9190612a96565b6105c1565b6040516101f09190612fa1565b60405180910390f35b610201610693565b60405161020e9190612fd7565b60405180910390f35b610231600480360381019061022c9190612ae8565b610725565b60405161023e9190612f3a565b60405180910390f35b610261600480360381019061025c91906129f5565b6107aa565b005b61026b6108c2565b6040516102789190612fbc565b60405180910390f35b61029b60048036038101906102969190612b11565b6108e6565b005b6102a5610945565b6040516102b29190613239565b60405180910390f35b6102d560048036038101906102d091906128ef565b610952565b005b6102f160048036038101906102ec9190612a31565b6109b2565b6040516102fe9190612fbc565b60405180910390f35b610321600480360381019061031c9190612a5a565b6109d2565b005b61033d600480360381019061033891906129f5565b6109fb565b60405161034a9190613239565b60405180910390f35b61036d60048036038101906103689190612a5a565b610aa0565b005b610389600480360381019061038491906128ef565b610b23565b005b6103a560048036038101906103a09190612ae8565b610b43565b005b6103c160048036038101906103bc9190612ae8565b610ba1565b6040516103ce9190612fa1565b60405180910390f35b6103f160048036038101906103ec9190612ae8565b610bb3565b6040516103fe9190613239565b60405180910390f35b610421600480360381019061041c9190612ae8565b610c4a565b60405161042e9190612f3a565b60405180910390f35b610451600480360381019061044c919061288a565b610cfc565b60405161045e9190613239565b60405180910390f35b610481600480360381019061047c9190612a5a565b610db4565b60405161048e9190612fa1565b60405180910390f35b61049f610e1f565b6040516104ac9190612fd7565b60405180910390f35b6104cf60048036038101906104ca9190612ae8565b610eb1565b005b6104d9610ef1565b6040516104e69190612fbc565b60405180910390f35b610509600480360381019061050491906129b9565b610ef8565b005b6105256004803603810190610520919061293e565b611079565b005b610541600480360381019061053c9190612ae8565b6110db565b60405161054e9190612fd7565b60405180910390f35b61055f6111c8565b60405161056c9190612fbc565b60405180910390f35b61058f600480360381019061058a9190612a5a565b6111ec565b005b6105ab60048036038101906105a691906128b3565b611215565b6040516105b89190612fa1565b60405180910390f35b60007f780e9d63000000000000000000000000000000000000000000000000000000007bffffffffffffffffffffffffffffffffffffffffffffffffffffffff1916827bffffffffffffffffffffffffffffffffffffffffffffffffffffffff1916148061068c57507f7965db0b000000000000000000000000000000000000000000000000000000007bffffffffffffffffffffffffffffffffffffffffffffffffffffffff1916827bffffffffffffffffffffffffffffffffffffffffffffffffffffffff1916145b9050919050565b6060600080546106a2906134ec565b80601f01602080910402602001604051908101604052809291908181526020018280546106ce906134ec565b801561071b5780601f106106f05761010080835404028352916020019161071b565b820191906000526020600020905b8154815290600101906020018083116106fe57829003601f168201915b5050505050905090565b6000610730826112a9565b61076f576040517f08c379a000000000000000000000000000000000000000000000000000000000815260040161076690613159565b60405180910390fd5b6004600083815260200190815260200160002060009054906101000a900473ffffffffffffffffffffffffffffffffffffffff169050919050565b60006107b582610c4a565b90508073ffffffffffffffffffffffffffffffffffffffff168373ffffffffffffffffffffffffffffffffffffffff161415610826576040517f08c379a000000000000000000000000000000000000000000000000000000000815260040161081d906131b9565b60405180910390fd5b8073ffffffffffffffffffffffffffffffffffffffff16610845611315565b73ffffffffffffffffffffffffffffffffffffffff16148061087457506108738161086e611315565b611215565b5b6108b3576040517f08c379a00000000000000000000000000000000000000000000000000000000081526004016108aa906130d9565b60405180910390fd5b6108bd838361131d565b505050565b7fa62d8e55240185837238af9adc11e51727e005b95707f32446366dbe58f727e281565b7fa62d8e55240185837238af9adc11e51727e005b95707f32446366dbe58f727e261091881610913611315565b6113d6565b81600b6000858152602001908152602001600020908051906020019061093f929190612659565b50505050565b6000600880549050905090565b61096361095d611315565b82611473565b6109a2576040517f08c379a0000000000000000000000000000000000000000000000000000000008152600401610999906131d9565b60405180910390fd5b6109ad838383611551565b505050565b6000600a6000838152602001908152602001600020600101549050919050565b6109db826109b2565b6109ec816109e7611315565b6113d6565b6109f683836117ad565b505050565b6000610a0683610cfc565b8210610a47576040517f08c379a0000000000000000000000000000000000000000000000000000000008152600401610a3e90613019565b60405180910390fd5b600660008473ffffffffffffffffffffffffffffffffffffffff1673ffffffffffffffffffffffffffffffffffffffff168152602001908152602001600020600083815260200190815260200160002054905092915050565b610aa8611315565b73ffffffffffffffffffffffffffffffffffffffff168173ffffffffffffffffffffffffffffffffffffffff1614610b15576040517f08c379a0000000000000000000000000000000000000000000000000000000008152600401610b0c90613219565b60405180910390fd5b610b1f828261188e565b5050565b610b3e83838360405180602001604052806000815250611079565b505050565b7f9f2df0fed2c77648de5860a4cc508cd0818c85b8b8a1ab4ceeef8d981c8956a6610b7581610b70611315565b6113d6565b610b7e82611970565b600b60008381526020019081526020016000206000610b9d91906126df565b5050565b6000610bac826112a9565b9050919050565b6000610bbd610945565b8210610bfe576040517f08c379a0000000000000000000000000000000000000000000000000000000008152600401610bf5906131f9565b60405180910390fd5b60088281548110610c38577f4e487b7100000000000000000000000000000000000000000000000000000000600052603260045260246000fd5b90600052602060002001549050919050565b6000806002600084815260200190815260200160002060009054906101000a900473ffffffffffffffffffffffffffffffffffffffff169050600073ffffffffffffffffffffffffffffffffffffffff168173ffffffffffffffffffffffffffffffffffffffff161415610cf3576040517f08c379a0000000000000000000000000000000000000000000000000000000008152600401610cea90613119565b60405180910390fd5b80915050919050565b60008073ffffffffffffffffffffffffffffffffffffffff168273ffffffffffffffffffffffffffffffffffffffff161415610d6d576040517f08c379a0000000000000000000000000000000000000000000000000000000008152600401610d64906130f9565b60405180910390fd5b600360008373ffffffffffffffffffffffffffffffffffffffff1673ffffffffffffffffffffffffffffffffffffffff168152602001908152602001600020549050919050565b6000600a600084815260200190815260200160002060000160008373ffffffffffffffffffffffffffffffffffffffff1673ffffffffffffffffffffffffffffffffffffffff16815260200190815260200160002060009054906101000a900460ff16905092915050565b606060018054610e2e906134ec565b80601f0160208091040260200160405190810160405280929190818152602001828054610e5a906134ec565b8015610ea75780601f10610e7c57610100808354040283529160200191610ea7565b820191906000526020600020905b815481529060010190602001808311610e8a57829003601f168201915b5050505050905090565b7f9f2df0fed2c77648de5860a4cc508cd0818c85b8b8a1ab4ceeef8d981c8956a6610ee381610ede611315565b6113d6565b610eed3283611a81565b5050565b6000801b81565b610f00611315565b73ffffffffffffffffffffffffffffffffffffffff168273ffffffffffffffffffffffffffffffffffffffff161415610f6e576040517f08c379a0000000000000000000000000000000000000000000000000000000008152600401610f6590613099565b60405180910390fd5b8060056000610f7b611315565b73ffffffffffffffffffffffffffffffffffffffff1673ffffffffffffffffffffffffffffffffffffffff16815260200190815260200160002060008473ffffffffffffffffffffffffffffffffffffffff1673ffffffffffffffffffffffffffffffffffffffff16815260200190815260200160002060006101000a81548160ff0219169083151502179055508173ffffffffffffffffffffffffffffffffffffffff16611028611315565b73ffffffffffffffffffffffffffffffffffffffff167f17307eab39ab6107e8899845ad3d59bd9653f200f220920489ca2b5937696c318360405161106d9190612fa1565b60405180910390a35050565b61108a611084611315565b83611473565b6110c9576040517f08c379a00000000000000000000000000000000000000000000000000000000081526004016110c0906131d9565b60405180910390fd5b6110d584848484611a9f565b50505050565b60606110e6826112a9565b611125576040517f08c379a000000000000000000000000000000000000000000000000000000000815260040161111c90613199565b60405180910390fd5b600b60008381526020019081526020016000208054611143906134ec565b80601f016020809104026020016040519081016040528092919081815260200182805461116f906134ec565b80156111bc5780601f10611191576101008083540402835291602001916111bc565b820191906000526020600020905b81548152906001019060200180831161119f57829003601f168201915b50505050509050919050565b7f9f2df0fed2c77648de5860a4cc508cd0818c85b8b8a1ab4ceeef8d981c8956a681565b6111f5826109b2565b61120681611201611315565b6113d6565b611210838361188e565b505050565b6000600560008473ffffffffffffffffffffffffffffffffffffffff1673ffffffffffffffffffffffffffffffffffffffff16815260200190815260200160002060008373ffffffffffffffffffffffffffffffffffffffff1673ffffffffffffffffffffffffffffffffffffffff16815260200190815260200160002060009054906101000a900460ff16905092915050565b60008073ffffffffffffffffffffffffffffffffffffffff166002600084815260200190815260200160002060009054906101000a900473ffffffffffffffffffffffffffffffffffffffff1673ffffffffffffffffffffffffffffffffffffffff1614159050919050565b600033905090565b816004600083815260200190815260200160002060006101000a81548173ffffffffffffffffffffffffffffffffffffffff021916908373ffffffffffffffffffffffffffffffffffffffff160217905550808273ffffffffffffffffffffffffffffffffffffffff1661139083610c4a565b73ffffffffffffffffffffffffffffffffffffffff167f8c5be1e5ebec7d5bd14f71427d1e84f3dd0314c0f7b2291e5b200ac8c7c3b92560405160405180910390a45050565b6113e08282610db4565b61146f576114058173ffffffffffffffffffffffffffffffffffffffff166014611afb565b6114138360001c6020611afb565b604051602001611424929190612f00565b6040516020818303038152906040526040517f08c379a00000000000000000000000000000000000000000000000000000000081526004016114669190612fd7565b60405180910390fd5b5050565b600061147e826112a9565b6114bd576040517f08c379a00000000000000000000000000000000000000000000000000000000081526004016114b4906130b9565b60405180910390fd5b60006114c883610c4a565b90508073ffffffffffffffffffffffffffffffffffffffff168473ffffffffffffffffffffffffffffffffffffffff16148061153757508373ffffffffffffffffffffffffffffffffffffffff1661151f84610725565b73ffffffffffffffffffffffffffffffffffffffff16145b8061154857506115478185611215565b5b91505092915050565b8273ffffffffffffffffffffffffffffffffffffffff1661157182610c4a565b73ffffffffffffffffffffffffffffffffffffffff16146115c7576040517f08c379a00000000000000000000000000000000000000000000000000000000081526004016115be90613179565b60405180910390fd5b600073ffffffffffffffffffffffffffffffffffffffff168273ffffffffffffffffffffffffffffffffffffffff161415611637576040517f08c379a000000000000000000000000000000000000000000000000000000000815260040161162e90613079565b60405180910390fd5b611642838383611df5565b61164d60008261131d565b6001600360008573ffffffffffffffffffffffffffffffffffffffff1673ffffffffffffffffffffffffffffffffffffffff168152602001908152602001600020600082825461169d91906133ce565b925050819055506001600360008473ffffffffffffffffffffffffffffffffffffffff1673ffffffffffffffffffffffffffffffffffffffff16815260200190815260200160002060008282546116f4919061331e565b92505081905550816002600083815260200190815260200160002060006101000a81548173ffffffffffffffffffffffffffffffffffffffff021916908373ffffffffffffffffffffffffffffffffffffffff160217905550808273ffffffffffffffffffffffffffffffffffffffff168473ffffffffffffffffffffffffffffffffffffffff167fddf252ad1be2c89b69c2b068fc378daa952ba7f163c4a11628f55a4df523b3ef60405160405180910390a4505050565b6117b78282610db4565b61188a576001600a600084815260200190815260200160002060000160008373ffffffffffffffffffffffffffffffffffffffff1673ffffffffffffffffffffffffffffffffffffffff16815260200190815260200160002060006101000a81548160ff02191690831515021790555061182f611315565b73ffffffffffffffffffffffffffffffffffffffff168173ffffffffffffffffffffffffffffffffffffffff16837f2f8788117e7eff1d82e926ec794901d17c78024a50270940304540a733656f0d60405160405180910390a45b5050565b6118988282610db4565b1561196c576000600a600084815260200190815260200160002060000160008373ffffffffffffffffffffffffffffffffffffffff1673ffffffffffffffffffffffffffffffffffffffff16815260200190815260200160002060006101000a81548160ff021916908315150217905550611911611315565b73ffffffffffffffffffffffffffffffffffffffff168173ffffffffffffffffffffffffffffffffffffffff16837ff6391f5c32d9c69d2a47ea670b442974b53935d1edc7fd64eb21e047a839171b60405160405180910390a45b5050565b600061197b82610c4a565b905061198981600084611df5565b61199460008361131d565b6001600360008373ffffffffffffffffffffffffffffffffffffffff1673ffffffffffffffffffffffffffffffffffffffff16815260200190815260200160002060008282546119e491906133ce565b925050819055506002600083815260200190815260200160002060006101000a81549073ffffffffffffffffffffffffffffffffffffffff021916905581600073ffffffffffffffffffffffffffffffffffffffff168273ffffffffffffffffffffffffffffffffffffffff167fddf252ad1be2c89b69c2b068fc378daa952ba7f163c4a11628f55a4df523b3ef60405160405180910390a45050565b611a9b828260405180602001604052806000815250611f09565b5050565b611aaa848484611551565b611ab684848484611f64565b611af5576040517f08c379a0000000000000000000000000000000000000000000000000000000008152600401611aec90613039565b60405180910390fd5b50505050565b606060006002836002611b0e9190613374565b611b18919061331e565b67ffffffffffffffff811115611b57577f4e487b7100000000000000000000000000000000000000000000000000000000600052604160045260246000fd5b6040519080825280601f01601f191660200182016040528015611b895781602001600182028036833780820191505090505b5090507f300000000000000000000000000000000000000000000000000000000000000081600081518110611be7577f4e487b7100000000000000000000000000000000000000000000000000000000600052603260045260246000fd5b60200101907effffffffffffffffffffffffffffffffffffffffffffffffffffffffffffff1916908160001a9053507f780000000000000000000000000000000000000000000000000000000000000081600181518110611c71577f4e487b7100000000000000000000000000000000000000000000000000000000600052603260045260246000fd5b60200101907effffffffffffffffffffffffffffffffffffffffffffffffffffffffffffff1916908160001a90535060006001846002611cb19190613374565b611cbb919061331e565b90505b6001811115611da7577f3031323334353637383961626364656600000000000000000000000000000000600f861660108110611d23577f4e487b7100000000000000000000000000000000000000000000000000000000600052603260045260246000fd5b1a60f81b828281518110611d60577f4e487b7100000000000000000000000000000000000000000000000000000000600052603260045260246000fd5b60200101907effffffffffffffffffffffffffffffffffffffffffffffffffffffffffffff1916908160001a905350600485901c945080611da0906134c2565b9050611cbe565b5060008414611deb576040517f08c379a0000000000000000000000000000000000000000000000000000000008152600401611de290612ff9565b60405180910390fd5b8091505092915050565b611e008383836120fb565b600073ffffffffffffffffffffffffffffffffffffffff168373ffffffffffffffffffffffffffffffffffffffff161415611e4357611e3e81612100565b611e82565b8173ffffffffffffffffffffffffffffffffffffffff168373ffffffffffffffffffffffffffffffffffffffff1614611e8157611e808382612149565b5b5b600073ffffffffffffffffffffffffffffffffffffffff168273ffffffffffffffffffffffffffffffffffffffff161415611ec557611ec0816122b6565b611f04565b8273ffffffffffffffffffffffffffffffffffffffff168273ffffffffffffffffffffffffffffffffffffffff1614611f0357611f0282826123f9565b5b5b505050565b611f138383612478565b611f206000848484611f64565b611f5f576040517f08c379a0000000000000000000000000000000000000000000000000000000008152600401611f5690613039565b60405180910390fd5b505050565b6000611f858473ffffffffffffffffffffffffffffffffffffffff16612646565b156120ee578373ffffffffffffffffffffffffffffffffffffffff1663150b7a02611fae611315565b8786866040518563ffffffff1660e01b8152600401611fd09493929190612f55565b602060405180830381600087803b158015611fea57600080fd5b505af192505050801561201b57506040513d601f19601f820116820180604052508101906120189190612abf565b60015b61209e573d806000811461204b576040519150601f19603f3d011682016040523d82523d6000602084013e612050565b606091505b50600081511415612096576040517f08c379a000000000000000000000000000000000000000000000000000000000815260040161208d90613039565b60405180910390fd5b805181602001fd5b63150b7a0260e01b7bffffffffffffffffffffffffffffffffffffffffffffffffffffffff1916817bffffffffffffffffffffffffffffffffffffffffffffffffffffffff1916149150506120f3565b600190505b949350505050565b505050565b6008805490506009600083815260200190815260200160002081905550600881908060018154018082558091505060019003906000526020600020016000909190919091505550565b6000600161215684610cfc565b61216091906133ce565b9050600060076000848152602001908152602001600020549050818114612245576000600660008673ffffffffffffffffffffffffffffffffffffffff1673ffffffffffffffffffffffffffffffffffffffff168152602001908152602001600020600084815260200190815260200160002054905080600660008773ffffffffffffffffffffffffffffffffffffffff1673ffffffffffffffffffffffffffffffffffffffff168152602001908152602001600020600084815260200190815260200160002081905550816007600083815260200190815260200160002081905550505b6007600084815260200190815260200160002060009055600660008573ffffffffffffffffffffffffffffffffffffffff1673ffffffffffffffffffffffffffffffffffffffff16815260200190815260200160002060008381526020019081526020016000206000905550505050565b600060016008805490506122ca91906133ce565b9050600060096000848152602001908152602001600020549050600060088381548110612320577f4e487b7100000000000000000000000000000000000000000000000000000000600052603260045260246000fd5b906000526020600020015490508060088381548110612368577f4e487b7100000000000000000000000000000000000000000000000000000000600052603260045260246000fd5b9060005260206000200181905550816009600083815260200190815260200160002081905550600960008581526020019081526020016000206000905560088054806123dd577f4e487b7100000000000000000000000000000000000000000000000000000000600052603160045260246000fd5b6001900381819060005260206000200160009055905550505050565b600061240483610cfc565b905081600660008573ffffffffffffffffffffffffffffffffffffffff1673ffffffffffffffffffffffffffffffffffffffff168152602001908152602001600020600083815260200190815260200160002081905550806007600084815260200190815260200160002081905550505050565b600073ffffffffffffffffffffffffffffffffffffffff168273ffffffffffffffffffffffffffffffffffffffff1614156124e8576040517f08c379a00000000000000000000000000000000000000000000000000000000081526004016124df90613139565b60405180910390fd5b6124f1816112a9565b15612531576040517f08c379a000000000000000000000000000000000000000000000000000000000815260040161252890613059565b60405180910390fd5b61253d60008383611df5565b6001600360008473ffffffffffffffffffffffffffffffffffffffff1673ffffffffffffffffffffffffffffffffffffffff168152602001908152602001600020600082825461258d919061331e565b92505081905550816002600083815260200190815260200160002060006101000a81548173ffffffffffffffffffffffffffffffffffffffff021916908373ffffffffffffffffffffffffffffffffffffffff160217905550808273ffffffffffffffffffffffffffffffffffffffff16600073ffffffffffffffffffffffffffffffffffffffff167fddf252ad1be2c89b69c2b068fc378daa952ba7f163c4a11628f55a4df523b3ef60405160405180910390a45050565b600080823b905060008111915050919050565b828054612665906134ec565b90600052602060002090601f01602090048101928261268757600085556126ce565b82601f106126a057805160ff19168380011785556126ce565b828001600101855582156126ce579182015b828111156126cd5782518255916020019190600101906126b2565b5b5090506126db919061271f565b5090565b5080546126eb906134ec565b6000825580601f106126fd575061271c565b601f01602090049060005260206000209081019061271b919061271f565b5b50565b5b80821115612738576000816000905550600101612720565b5090565b600061274f61274a84613279565b613254565b90508281526020810184848401111561276757600080fd5b612772848285613480565b509392505050565b600061278d612788846132aa565b613254565b9050828152602081018484840111156127a557600080fd5b6127b0848285613480565b509392505050565b6000813590506127c781613b35565b92915050565b6000813590506127dc81613b4c565b92915050565b6000813590506127f181613b63565b92915050565b60008135905061280681613b7a565b92915050565b60008151905061281b81613b7a565b92915050565b600082601f83011261283257600080fd5b813561284284826020860161273c565b91505092915050565b600082601f83011261285c57600080fd5b813561286c84826020860161277a565b91505092915050565b60008135905061288481613b91565b92915050565b60006020828403121561289c57600080fd5b60006128aa848285016127b8565b91505092915050565b600080604083850312156128c657600080fd5b60006128d4858286016127b8565b92505060206128e5858286016127b8565b9150509250929050565b60008060006060848603121561290457600080fd5b6000612912868287016127b8565b9350506020612923868287016127b8565b925050604061293486828701612875565b9150509250925092565b6000806000806080858703121561295457600080fd5b6000612962878288016127b8565b9450506020612973878288016127b8565b935050604061298487828801612875565b925050606085013567ffffffffffffffff8111156129a157600080fd5b6129ad87828801612821565b91505092959194509250565b600080604083850312156129cc57600080fd5b60006129da858286016127b8565b92505060206129eb858286016127cd565b9150509250929050565b60008060408385031215612a0857600080fd5b6000612a16858286016127b8565b9250506020612a2785828601612875565b9150509250929050565b600060208284031215612a4357600080fd5b6000612a51848285016127e2565b91505092915050565b60008060408385031215612a6d57600080fd5b6000612a7b858286016127e2565b9250506020612a8c858286016127b8565b9150509250929050565b600060208284031215612aa857600080fd5b6000612ab6848285016127f7565b91505092915050565b600060208284031215612ad157600080fd5b6000612adf8482850161280c565b91505092915050565b600060208284031215612afa57600080fd5b6000612b0884828501612875565b91505092915050565b60008060408385031215612b2457600080fd5b6000612b3285828601612875565b925050602083013567ffffffffffffffff811115612b4f57600080fd5b612b5b8582860161284b565b9150509250929050565b612b6e81613402565b82525050565b612b7d81613414565b82525050565b612b8c81613420565b82525050565b6000612b9d826132db565b612ba781856132f1565b9350612bb781856020860161348f565b612bc0816135dc565b840191505092915050565b6000612bd6826132e6565b612be08185613302565b9350612bf081856020860161348f565b612bf9816135dc565b840191505092915050565b6000612c0f826132e6565b612c198185613313565b9350612c2981856020860161348f565b80840191505092915050565b6000612c42602083613302565b9150612c4d826135ed565b602082019050919050565b6000612c65602b83613302565b9150612c7082613616565b604082019050919050565b6000612c88603283613302565b9150612c9382613665565b604082019050919050565b6000612cab601c83613302565b9150612cb6826136b4565b602082019050919050565b6000612cce602483613302565b9150612cd9826136dd565b604082019050919050565b6000612cf1601983613302565b9150612cfc8261372c565b602082019050919050565b6000612d14602c83613302565b9150612d1f82613755565b604082019050919050565b6000612d37603883613302565b9150612d42826137a4565b604082019050919050565b6000612d5a602a83613302565b9150612d65826137f3565b604082019050919050565b6000612d7d602983613302565b9150612d8882613842565b604082019050919050565b6000612da0602083613302565b9150612dab82613891565b602082019050919050565b6000612dc3602c83613302565b9150612dce826138ba565b604082019050919050565b6000612de6602983613302565b9150612df182613909565b604082019050919050565b6000612e09602f83613302565b9150612e1482613958565b604082019050919050565b6000612e2c602183613302565b9150612e37826139a7565b604082019050919050565b6000612e4f603183613302565b9150612e5a826139f6565b604082019050919050565b6000612e72602c83613302565b9150612e7d82613a45565b604082019050919050565b6000612e95601783613313565b9150612ea082613a94565b601782019050919050565b6000612eb8601183613313565b9150612ec382613abd565b601182019050919050565b6000612edb602f83613302565b9150612ee682613ae6565b604082019050919050565b612efa81613476565b82525050565b6000612f0b82612e88565b9150612f178285612c04565b9150612f2282612eab565b9150612f2e8284612c04565b91508190509392505050565b6000602082019050612f4f6000830184612b65565b92915050565b6000608082019050612f6a6000830187612b65565b612f776020830186612b65565b612f846040830185612ef1565b8181036060830152612f968184612b92565b905095945050505050565b6000602082019050612fb66000830184612b74565b92915050565b6000602082019050612fd16000830184612b83565b92915050565b60006020820190508181036000830152612ff18184612bcb565b905092915050565b6000602082019050818103600083015261301281612c35565b9050919050565b6000602082019050818103600083015261303281612c58565b9050919050565b6000602082019050818103600083015261305281612c7b565b9050919050565b6000602082019050818103600083015261307281612c9e565b9050919050565b6000602082019050818103600083015261309281612cc1565b9050919050565b600060208201905081810360008301526130b281612ce4565b9050919050565b600060208201905081810360008301526130d281612d07565b9050919050565b600060208201905081810360008301526130f281612d2a565b9050919050565b6000602082019050818103600083015261311281612d4d565b9050919050565b6000602082019050818103600083015261313281612d70565b9050919050565b6000602082019050818103600083015261315281612d93565b9050919050565b6000602082019050818103600083015261317281612db6565b9050919050565b6000602082019050818103600083015261319281612dd9565b9050919050565b600060208201905081810360008301526131b281612dfc565b9050919050565b600060208201905081810360008301526131d281612e1f565b9050919050565b600060208201905081810360008301526131f281612e42565b9050919050565b6000602082019050818103600083015261321281612e65565b9050919050565b6000602082019050818103600083015261323281612ece565b9050919050565b600060208201905061324e6000830184612ef1565b92915050565b600061325e61326f565b905061326a828261351e565b919050565b6000604051905090565b600067ffffffffffffffff821115613294576132936135ad565b5b61329d826135dc565b9050602081019050919050565b600067ffffffffffffffff8211156132c5576132c46135ad565b5b6132ce826135dc565b9050602081019050919050565b600081519050919050565b600081519050919050565b600082825260208201905092915050565b600082825260208201905092915050565b600081905092915050565b600061332982613476565b915061333483613476565b9250827fffffffffffffffffffffffffffffffffffffffffffffffffffffffffffffffff038211156133695761336861354f565b5b828201905092915050565b600061337f82613476565b915061338a83613476565b9250817fffffffffffffffffffffffffffffffffffffffffffffffffffffffffffffffff04831182151516156133c3576133c261354f565b5b828202905092915050565b60006133d982613476565b91506133e483613476565b9250828210156133f7576133f661354f565b5b828203905092915050565b600061340d82613456565b9050919050565b60008115159050919050565b6000819050919050565b60007fffffffff0000000000000000000000000000000000000000000000000000000082169050919050565b600073ffffffffffffffffffffffffffffffffffffffff82169050919050565b6000819050919050565b82818337600083830152505050565b60005b838110156134ad578082015181840152602081019050613492565b838111156134bc576000848401525b50505050565b60006134cd82613476565b915060008214156134e1576134e061354f565b5b600182039050919050565b6000600282049050600182168061350457607f821691505b602082108114156135185761351761357e565b5b50919050565b613527826135dc565b810181811067ffffffffffffffff82111715613546576135456135ad565b5b80604052505050565b7f4e487b7100000000000000000000000000000000000000000000000000000000600052601160045260246000fd5b7f4e487b7100000000000000000000000000000000000000000000000000000000600052602260045260246000fd5b7f4e487b7100000000000000000000000000000000000000000000000000000000600052604160045260246000fd5b6000601f19601f8301169050919050565b7f537472696e67733a20686578206c656e67746820696e73756666696369656e74600082015250565b7f455243373231456e756d657261626c653a206f776e657220696e646578206f7560008201527f74206f6620626f756e6473000000000000000000000000000000000000000000602082015250565b7f4552433732313a207472616e7366657220746f206e6f6e20455243373231526560008201527f63656976657220696d706c656d656e7465720000000000000000000000000000602082015250565b7f4552433732313a20746f6b656e20616c7265616479206d696e74656400000000600082015250565b7f4552433732313a207472616e7366657220746f20746865207a65726f2061646460008201527f7265737300000000000000000000000000000000000000000000000000000000602082015250565b7f4552433732313a20617070726f766520746f2063616c6c657200000000000000600082015250565b7f4552433732313a206f70657261746f7220717565727920666f72206e6f6e657860008201527f697374656e7420746f6b656e0000000000000000000000000000000000000000602082015250565b7f4552433732313a20617070726f76652063616c6c6572206973206e6f74206f7760008201527f6e6572206e6f7220617070726f76656420666f7220616c6c0000000000000000602082015250565b7f4552433732313a2062616c616e636520717565727920666f7220746865207a6560008201527f726f206164647265737300000000000000000000000000000000000000000000602082015250565b7f4552433732313a206f776e657220717565727920666f72206e6f6e657869737460008201527f656e7420746f6b656e0000000000000000000000000000000000000000000000602082015250565b7f4552433732313a206d696e7420746f20746865207a65726f2061646472657373600082015250565b7f4552433732313a20617070726f76656420717565727920666f72206e6f6e657860008201527f697374656e7420746f6b656e0000000000000000000000000000000000000000602082015250565b7f4552433732313a207472616e73666572206f6620746f6b656e2074686174206960008201527f73206e6f74206f776e0000000000000000000000000000000000000000000000602082015250565b7f4552433732314d657461646174613a2055524920717565727920666f72206e6f60008201527f6e6578697374656e7420746f6b656e0000000000000000000000000000000000602082015250565b7f4552433732313a20617070726f76616c20746f2063757272656e74206f776e6560008201527f7200000000000000000000000000000000000000000000000000000000000000602082015250565b7f4552433732313a207472616e736665722063616c6c6572206973206e6f74206f60008201527f776e6572206e6f7220617070726f766564000000000000000000000000000000602082015250565b7f455243373231456e756d657261626c653a20676c6f62616c20696e646578206f60008201527f7574206f6620626f756e64730000000000000000000000000000000000000000602082015250565b7f416363657373436f6e74726f6c3a206163636f756e7420000000000000000000600082015250565b7f206973206d697373696e6720726f6c6520000000000000000000000000000000600082015250565b7f416363657373436f6e74726f6c3a2063616e206f6e6c792072656e6f756e636560008201527f20726f6c657320666f722073656c660000000000000000000000000000000000602082015250565b613b3e81613402565b8114613b4957600080fd5b50565b613b5581613414565b8114613b6057600080fd5b50565b613b6c81613420565b8114613b7757600080fd5b50565b613b838161342a565b8114613b8e57600080fd5b50565b613b9a81613476565b8114613ba557600080fd5b5056fea2646970667358221220195730c52aaf603461310c04acd658d96d482be56ec8a3a0cdad3dfe6cc5919464736f6c63430008040033",
  "linkReferences": {},
  "deployedLinkReferences": {}
}