{
  "_format": "hh-sol-artifact-1",
  "contractName": "CronosWarriors",
  "sourceName": "contracts/CronosWarriors.sol",
  "abi": [
    {
      "inputs": [],
      "stateMutability": "nonpayable",
      "type": "constructor"
    },
    {
      "anonymous": false,
      "inputs": [
        {
          "indexed": true,
          "internalType": "address",
          "name": "owner",
          "type": "address"
        },
        {
          "indexed": true,
          "internalType": "address",
          "name": "approved",
          "type": "address"
        },
        {
          "indexed": true,
          "internalType": "uint256",
          "name": "tokenId",
          "type": "uint256"
        }
      ],
      "name": "Approval",
      "type": "event"
    },
    {
      "anonymous": false,
      "inputs": [
        {
          "indexed": true,
          "internalType": "address",
          "name": "owner",
          "type": "address"
        },
        {
          "indexed": true,
          "internalType": "address",
          "name": "operator",
          "type": "address"
        },
        {
          "indexed": false,
          "internalType": "bool",
          "name": "approved",
          "type": "bool"
        }
      ],
      "name": "ApprovalForAll",
      "type": "event"
    },
    {
      "anonymous": false,
      "inputs": [
        {
          "indexed": true,
          "internalType": "address",
          "name": "previousOwner",
          "type": "address"
        },
        {
          "indexed": true,
          "internalType": "address",
          "name": "newOwner",
          "type": "address"
        }
      ],
      "name": "OwnershipTransferred",
      "type": "event"
    },
    {
      "anonymous": false,
      "inputs": [
        {
          "indexed": true,
          "internalType": "address",
          "name": "from",
          "type": "address"
        },
        {
          "indexed": true,
          "internalType": "address",
          "name": "to",
          "type": "address"
        },
        {
          "indexed": true,
          "internalType": "uint256",
          "name": "tokenId",
          "type": "uint256"
        }
      ],
      "name": "Transfer",
      "type": "event"
    },
    {
      "inputs": [
        {
          "internalType": "address",
          "name": "to",
          "type": "address"
        },
        {
          "internalType": "uint256",
          "name": "tokenId",
          "type": "uint256"
        }
      ],
      "name": "approve",
      "outputs": [],
      "stateMutability": "nonpayable",
      "type": "function"
    },
    {
      "inputs": [
        {
          "internalType": "address",
          "name": "owner",
          "type": "address"
        }
      ],
      "name": "balanceOf",
      "outputs": [
        {
          "internalType": "uint256",
          "name": "",
          "type": "uint256"
        }
      ],
      "stateMutability": "view",
      "type": "function"
    },
    {
      "inputs": [
        {
          "internalType": "uint256",
          "name": "id",
          "type": "uint256"
        }
      ],
      "name": "burn",
      "outputs": [],
      "stateMutability": "nonpayable",
      "type": "function"
    },
    {
      "inputs": [
        {
          "internalType": "uint256",
          "name": "id",
          "type": "uint256"
        }
      ],
      "name": "exists",
      "outputs": [
        {
          "internalType": "bool",
          "name": "",
          "type": "bool"
        }
      ],
      "stateMutability": "view",
      "type": "function"
    },
    {
      "inputs": [
        {
          "internalType": "uint256",
          "name": "tokenId",
          "type": "uint256"
        }
      ],
      "name": "getApproved",
      "outputs": [
        {
          "internalType": "address",
          "name": "",
          "type": "address"
        }
      ],
      "stateMutability": "view",
      "type": "function"
    },
    {
      "inputs": [
        {
          "internalType": "address",
          "name": "owner",
          "type": "address"
        },
        {
          "internalType": "address",
          "name": "operator",
          "type": "address"
        }
      ],
      "name": "isApprovedForAll",
      "outputs": [
        {
          "internalType": "bool",
          "name": "",
          "type": "bool"
        }
      ],
      "stateMutability": "view",
      "type": "function"
    },
    {
      "inputs": [
        {
          "internalType": "uint256",
          "name": "id",
          "type": "uint256"
        }
      ],
      "name": "mint",
      "outputs": [],
      "stateMutability": "nonpayable",
      "type": "function"
    },
    {
      "inputs": [],
      "name": "name",
      "outputs": [
        {
          "internalType": "string",
          "name": "",
          "type": "string"
        }
      ],
      "stateMutability": "view",
      "type": "function"
    },
    {
      "inputs": [],
      "name": "owner",
      "outputs": [
        {
          "internalType": "address",
          "name": "",
          "type": "address"
        }
      ],
      "stateMutability": "view",
      "type": "function"
    },
    {
      "inputs": [
        {
          "internalType": "uint256",
          "name": "tokenId",
          "type": "uint256"
        }
      ],
      "name": "ownerOf",
      "outputs": [
        {
          "internalType": "address",
          "name": "",
          "type": "address"
        }
      ],
      "stateMutability": "view",
      "type": "function"
    },
    {
      "inputs": [],
      "name": "renounceOwnership",
      "outputs": [],
      "stateMutability": "nonpayable",
      "type": "function"
    },
    {
      "inputs": [
        {
          "internalType": "address",
          "name": "from",
          "type": "address"
        },
        {
          "internalType": "address",
          "name": "to",
          "type": "address"
        },
        {
          "internalType": "uint256",
          "name": "tokenId",
          "type": "uint256"
        }
      ],
      "name": "safeTransferFrom",
      "outputs": [],
      "stateMutability": "nonpayable",
      "type": "function"
    },
    {
      "inputs": [
        {
          "internalType": "address",
          "name": "from",
          "type": "address"
        },
        {
          "internalType": "address",
          "name": "to",
          "type": "address"
        },
        {
          "internalType": "uint256",
          "name": "tokenId",
          "type": "uint256"
        },
        {
          "internalType": "bytes",
          "name": "_data",
          "type": "bytes"
        }
      ],
      "name": "safeTransferFrom",
      "outputs": [],
      "stateMutability": "nonpayable",
      "type": "function"
    },
    {
      "inputs": [
        {
          "internalType": "address",
          "name": "operator",
          "type": "address"
        },
        {
          "internalType": "bool",
          "name": "approved",
          "type": "bool"
        }
      ],
      "name": "setApprovalForAll",
      "outputs": [],
      "stateMutability": "nonpayable",
      "type": "function"
    },
    {
      "inputs": [
        {
          "internalType": "address",
          "name": "addr",
          "type": "address"
        },
        {
          "internalType": "bool",
          "name": "allow",
          "type": "bool"
        }
      ],
      "name": "setModule",
      "outputs": [],
      "stateMutability": "nonpayable",
      "type": "function"
    },
    {
      "inputs": [
        {
          "internalType": "bytes4",
          "name": "interfaceId",
          "type": "bytes4"
        }
      ],
      "name": "supportsInterface",
      "outputs": [
        {
          "internalType": "bool",
          "name": "",
          "type": "bool"
        }
      ],
      "stateMutability": "view",
      "type": "function"
    },
    {
      "inputs": [],
      "name": "symbol",
      "outputs": [
        {
          "internalType": "string",
          "name": "",
          "type": "string"
        }
      ],
      "stateMutability": "view",
      "type": "function"
    },
    {
      "inputs": [
        {
          "internalType": "uint256",
          "name": "index",
          "type": "uint256"
        }
      ],
      "name": "tokenByIndex",
      "outputs": [
        {
          "internalType": "uint256",
          "name": "",
          "type": "uint256"
        }
      ],
      "stateMutability": "view",
      "type": "function"
    },
    {
      "inputs": [
        {
          "internalType": "address",
          "name": "owner",
          "type": "address"
        },
        {
          "internalType": "uint256",
          "name": "index",
          "type": "uint256"
        }
      ],
      "name": "tokenOfOwnerByIndex",
      "outputs": [
        {
          "internalType": "uint256",
          "name": "",
          "type": "uint256"
        }
      ],
      "stateMutability": "view",
      "type": "function"
    },
    {
      "inputs": [
        {
          "internalType": "uint256",
          "name": "tokenId",
          "type": "uint256"
        }
      ],
      "name": "tokenURI",
      "outputs": [
        {
          "internalType": "string",
          "name": "",
          "type": "string"
        }
      ],
      "stateMutability": "view",
      "type": "function"
    },
    {
      "inputs": [],
      "name": "totalSupply",
      "outputs": [
        {
          "internalType": "uint256",
          "name": "",
          "type": "uint256"
        }
      ],
      "stateMutability": "view",
      "type": "function"
    },
    {
      "inputs": [
        {
          "internalType": "address",
          "name": "from",
          "type": "address"
        },
        {
          "internalType": "address",
          "name": "to",
          "type": "address"
        },
        {
          "internalType": "uint256",
          "name": "tokenId",
          "type": "uint256"
        }
      ],
      "name": "transferFrom",
      "outputs": [],
      "stateMutability": "nonpayable",
      "type": "function"
    },
    {
      "inputs": [
        {
          "internalType": "address",
          "name": "newOwner",
          "type": "address"
        }
      ],
      "name": "transferOwnership",
      "outputs": [],
      "stateMutability": "nonpayable",
      "type": "function"
    }
  ],
  "bytecode": "0x60806040523480156200001157600080fd5b506040518060400160405280600f81526020017f43726f6e6f732057617272696f727300000000000000000000000000000000008152506040518060400160405280600381526020017f5741520000000000000000000000000000000000000000000000000000000000815250816000908051906020019062000096929190620001a6565b508060019080519060200190620000af929190620001a6565b505050620000d2620000c6620000d860201b60201c565b620000e060201b60201c565b620002bb565b600033905090565b6000600a60009054906101000a900473ffffffffffffffffffffffffffffffffffffffff16905081600a60006101000a81548173ffffffffffffffffffffffffffffffffffffffff021916908373ffffffffffffffffffffffffffffffffffffffff1602179055508173ffffffffffffffffffffffffffffffffffffffff168173ffffffffffffffffffffffffffffffffffffffff167f8be0079c531659141344cd1fd0a4f28419497f9722a3daafe3b4186f6b6457e060405160405180910390a35050565b828054620001b49062000256565b90600052602060002090601f016020900481019282620001d8576000855562000224565b82601f10620001f357805160ff191683800117855562000224565b8280016001018555821562000224579182015b828111156200022357825182559160200191906001019062000206565b5b50905062000233919062000237565b5090565b5b808211156200025257600081600090555060010162000238565b5090565b600060028204905060018216806200026f57607f821691505b602082108114156200028657620002856200028c565b5b50919050565b7f4e487b7100000000000000000000000000000000000000000000000000000000600052602260045260246000fd5b61365180620002cb6000396000f3fe608060405234801561001057600080fd5b506004361061014d5760003560e01c80636352211e116100c3578063a22cb4651161007c578063a22cb465146103b0578063b1662d58146103cc578063b88d4fde146103e8578063c87b56dd14610404578063e985e9c514610434578063f2fde38b146104645761014d565b80636352211e146102ee57806370a082311461031e578063715018a61461034e5780638da5cb5b1461035857806395d89b4114610376578063a0712d68146103945761014d565b806323b872dd1161011557806323b872dd1461020a5780632f745c591461022657806342842e0e1461025657806342966c68146102725780634f558e791461028e5780634f6ccce7146102be5761014d565b806301ffc9a71461015257806306fdde0314610182578063081812fc146101a0578063095ea7b3146101d057806318160ddd146101ec575b600080fd5b61016c600480360381019061016791906126cf565b610480565b6040516101799190612f79565b60405180910390f35b61018a6104fa565b6040516101979190612f94565b60405180910390f35b6101ba60048036038101906101b59190612721565b61058c565b6040516101c79190612f12565b60405180910390f35b6101ea60048036038101906101e59190612693565b610611565b005b6101f4610729565b6040516102019190613216565b60405180910390f35b610224600480360381019061021f919061258d565b610736565b005b610240600480360381019061023b9190612693565b610796565b60405161024d9190613216565b60405180910390f35b610270600480360381019061026b919061258d565b61083b565b005b61028c60048036038101906102879190612721565b61085b565b005b6102a860048036038101906102a39190612721565b6108f3565b6040516102b59190612f79565b60405180910390f35b6102d860048036038101906102d39190612721565b610905565b6040516102e59190613216565b60405180910390f35b61030860048036038101906103039190612721565b61099c565b6040516103159190612f12565b60405180910390f35b61033860048036038101906103339190612528565b610a4e565b6040516103459190613216565b60405180910390f35b610356610b06565b005b610360610b8e565b60405161036d9190612f12565b60405180910390f35b61037e610bb8565b60405161038b9190612f94565b60405180910390f35b6103ae60048036038101906103a99190612721565b610c4a565b005b6103ca60048036038101906103c59190612657565b610ce3565b005b6103e660048036038101906103e19190612657565b610e64565b005b61040260048036038101906103fd91906125dc565b610f96565b005b61041e60048036038101906104199190612721565b610ff8565b60405161042b9190612f94565b60405180910390f35b61044e60048036038101906104499190612551565b61109f565b60405161045b9190612f79565b60405180910390f35b61047e60048036038101906104799190612528565b611133565b005b60007f780e9d63000000000000000000000000000000000000000000000000000000007bffffffffffffffffffffffffffffffffffffffffffffffffffffffff1916827bffffffffffffffffffffffffffffffffffffffffffffffffffffffff191614806104f357506104f28261122b565b5b9050919050565b60606000805461050990613446565b80601f016020809104026020016040519081016040528092919081815260200182805461053590613446565b80156105825780601f1061055757610100808354040283529160200191610582565b820191906000526020600020905b81548152906001019060200180831161056557829003601f168201915b5050505050905090565b60006105978261130d565b6105d6576040517f08c379a00000000000000000000000000000000000000000000000000000000081526004016105cd90613136565b60405180910390fd5b6004600083815260200190815260200160002060009054906101000a900473ffffffffffffffffffffffffffffffffffffffff169050919050565b600061061c8261099c565b90508073ffffffffffffffffffffffffffffffffffffffff168373ffffffffffffffffffffffffffffffffffffffff16141561068d576040517f08c379a0000000000000000000000000000000000000000000000000000000008152600401610684906131b6565b60405180910390fd5b8073ffffffffffffffffffffffffffffffffffffffff166106ac611379565b73ffffffffffffffffffffffffffffffffffffffff1614806106db57506106da816106d5611379565b61109f565b5b61071a576040517f08c379a0000000000000000000000000000000000000000000000000000000008152600401610711906130b6565b60405180910390fd5b6107248383611381565b505050565b6000600880549050905090565b610747610741611379565b8261143a565b610786576040517f08c379a000000000000000000000000000000000000000000000000000000000815260040161077d906131d6565b60405180910390fd5b610791838383611518565b505050565b60006107a183610a4e565b82106107e2576040517f08c379a00000000000000000000000000000000000000000000000000000000081526004016107d990612fb6565b60405180910390fd5b600660008473ffffffffffffffffffffffffffffffffffffffff1673ffffffffffffffffffffffffffffffffffffffff168152602001908152602001600020600083815260200190815260200160002054905092915050565b61085683838360405180602001604052806000815250610f96565b505050565b600b60003373ffffffffffffffffffffffffffffffffffffffff1673ffffffffffffffffffffffffffffffffffffffff16815260200190815260200160002060009054906101000a900460ff166108e7576040517f08c379a00000000000000000000000000000000000000000000000000000000081526004016108de90613076565b60405180910390fd5b6108f081611774565b50565b60006108fe8261130d565b9050919050565b600061090f610729565b8210610950576040517f08c379a0000000000000000000000000000000000000000000000000000000008152600401610947906131f6565b60405180910390fd5b6008828154811061098a577f4e487b7100000000000000000000000000000000000000000000000000000000600052603260045260246000fd5b90600052602060002001549050919050565b6000806002600084815260200190815260200160002060009054906101000a900473ffffffffffffffffffffffffffffffffffffffff169050600073ffffffffffffffffffffffffffffffffffffffff168173ffffffffffffffffffffffffffffffffffffffff161415610a45576040517f08c379a0000000000000000000000000000000000000000000000000000000008152600401610a3c906130f6565b60405180910390fd5b80915050919050565b60008073ffffffffffffffffffffffffffffffffffffffff168273ffffffffffffffffffffffffffffffffffffffff161415610abf576040517f08c379a0000000000000000000000000000000000000000000000000000000008152600401610ab6906130d6565b60405180910390fd5b600360008373ffffffffffffffffffffffffffffffffffffffff1673ffffffffffffffffffffffffffffffffffffffff168152602001908152602001600020549050919050565b610b0e611379565b73ffffffffffffffffffffffffffffffffffffffff16610b2c610b8e565b73ffffffffffffffffffffffffffffffffffffffff1614610b82576040517f08c379a0000000000000000000000000000000000000000000000000000000008152600401610b7990613156565b60405180910390fd5b610b8c6000611885565b565b6000600a60009054906101000a900473ffffffffffffffffffffffffffffffffffffffff16905090565b606060018054610bc790613446565b80601f0160208091040260200160405190810160405280929190818152602001828054610bf390613446565b8015610c405780601f10610c1557610100808354040283529160200191610c40565b820191906000526020600020905b815481529060010190602001808311610c2357829003601f168201915b5050505050905090565b600b60003373ffffffffffffffffffffffffffffffffffffffff1673ffffffffffffffffffffffffffffffffffffffff16815260200190815260200160002060009054906101000a900460ff16610cd6576040517f08c379a0000000000000000000000000000000000000000000000000000000008152600401610ccd90613076565b60405180910390fd5b610ce0328261194b565b50565b610ceb611379565b73ffffffffffffffffffffffffffffffffffffffff168273ffffffffffffffffffffffffffffffffffffffff161415610d59576040517f08c379a0000000000000000000000000000000000000000000000000000000008152600401610d5090613056565b60405180910390fd5b8060056000610d66611379565b73ffffffffffffffffffffffffffffffffffffffff1673ffffffffffffffffffffffffffffffffffffffff16815260200190815260200160002060008473ffffffffffffffffffffffffffffffffffffffff1673ffffffffffffffffffffffffffffffffffffffff16815260200190815260200160002060006101000a81548160ff0219169083151502179055508173ffffffffffffffffffffffffffffffffffffffff16610e13611379565b73ffffffffffffffffffffffffffffffffffffffff167f17307eab39ab6107e8899845ad3d59bd9653f200f220920489ca2b5937696c3183604051610e589190612f79565b60405180910390a35050565b610e6c611379565b73ffffffffffffffffffffffffffffffffffffffff16610e8a610b8e565b73ffffffffffffffffffffffffffffffffffffffff1614610ee0576040517f08c379a0000000000000000000000000000000000000000000000000000000008152600401610ed790613156565b60405180910390fd5b80610f3957600b60008373ffffffffffffffffffffffffffffffffffffffff1673ffffffffffffffffffffffffffffffffffffffff16815260200190815260200160002060006101000a81549060ff0219169055610f92565b6001600b60008473ffffffffffffffffffffffffffffffffffffffff1673ffffffffffffffffffffffffffffffffffffffff16815260200190815260200160002060006101000a81548160ff0219169083151502179055505b5050565b610fa7610fa1611379565b8361143a565b610fe6576040517f08c379a0000000000000000000000000000000000000000000000000000000008152600401610fdd906131d6565b60405180910390fd5b610ff284848484611969565b50505050565b60606110038261130d565b611042576040517f08c379a000000000000000000000000000000000000000000000000000000000815260040161103990613196565b60405180910390fd5b600061104c6119c5565b9050600081511161106c5760405180602001604052806000815250611097565b80611076846119dc565b604051602001611087929190612eee565b6040516020818303038152906040525b915050919050565b6000600560008473ffffffffffffffffffffffffffffffffffffffff1673ffffffffffffffffffffffffffffffffffffffff16815260200190815260200160002060008373ffffffffffffffffffffffffffffffffffffffff1673ffffffffffffffffffffffffffffffffffffffff16815260200190815260200160002060009054906101000a900460ff16905092915050565b61113b611379565b73ffffffffffffffffffffffffffffffffffffffff16611159610b8e565b73ffffffffffffffffffffffffffffffffffffffff16146111af576040517f08c379a00000000000000000000000000000000000000000000000000000000081526004016111a690613156565b60405180910390fd5b600073ffffffffffffffffffffffffffffffffffffffff168173ffffffffffffffffffffffffffffffffffffffff16141561121f576040517f08c379a000000000000000000000000000000000000000000000000000000000815260040161121690612ff6565b60405180910390fd5b61122881611885565b50565b60007f80ac58cd000000000000000000000000000000000000000000000000000000007bffffffffffffffffffffffffffffffffffffffffffffffffffffffff1916827bffffffffffffffffffffffffffffffffffffffffffffffffffffffff191614806112f657507f5b5e139f000000000000000000000000000000000000000000000000000000007bffffffffffffffffffffffffffffffffffffffffffffffffffffffff1916827bffffffffffffffffffffffffffffffffffffffffffffffffffffffff1916145b80611306575061130582611b89565b5b9050919050565b60008073ffffffffffffffffffffffffffffffffffffffff166002600084815260200190815260200160002060009054906101000a900473ffffffffffffffffffffffffffffffffffffffff1673ffffffffffffffffffffffffffffffffffffffff1614159050919050565b600033905090565b816004600083815260200190815260200160002060006101000a81548173ffffffffffffffffffffffffffffffffffffffff021916908373ffffffffffffffffffffffffffffffffffffffff160217905550808273ffffffffffffffffffffffffffffffffffffffff166113f48361099c565b73ffffffffffffffffffffffffffffffffffffffff167f8c5be1e5ebec7d5bd14f71427d1e84f3dd0314c0f7b2291e5b200ac8c7c3b92560405160405180910390a45050565b60006114458261130d565b611484576040517f08c379a000000000000000000000000000000000000000000000000000000000815260040161147b90613096565b60405180910390fd5b600061148f8361099c565b90508073ffffffffffffffffffffffffffffffffffffffff168473ffffffffffffffffffffffffffffffffffffffff1614806114fe57508373ffffffffffffffffffffffffffffffffffffffff166114e68461058c565b73ffffffffffffffffffffffffffffffffffffffff16145b8061150f575061150e818561109f565b5b91505092915050565b8273ffffffffffffffffffffffffffffffffffffffff166115388261099c565b73ffffffffffffffffffffffffffffffffffffffff161461158e576040517f08c379a000000000000000000000000000000000000000000000000000000000815260040161158590613176565b60405180910390fd5b600073ffffffffffffffffffffffffffffffffffffffff168273ffffffffffffffffffffffffffffffffffffffff1614156115fe576040517f08c379a00000000000000000000000000000000000000000000000000000000081526004016115f590613036565b60405180910390fd5b611609838383611bf3565b611614600082611381565b6001600360008573ffffffffffffffffffffffffffffffffffffffff1673ffffffffffffffffffffffffffffffffffffffff1681526020019081526020016000206000828254611664919061335c565b925050819055506001600360008473ffffffffffffffffffffffffffffffffffffffff1673ffffffffffffffffffffffffffffffffffffffff16815260200190815260200160002060008282546116bb91906132d5565b92505081905550816002600083815260200190815260200160002060006101000a81548173ffffffffffffffffffffffffffffffffffffffff021916908373ffffffffffffffffffffffffffffffffffffffff160217905550808273ffffffffffffffffffffffffffffffffffffffff168473ffffffffffffffffffffffffffffffffffffffff167fddf252ad1be2c89b69c2b068fc378daa952ba7f163c4a11628f55a4df523b3ef60405160405180910390a4505050565b600061177f8261099c565b905061178d81600084611bf3565b611798600083611381565b6001600360008373ffffffffffffffffffffffffffffffffffffffff1673ffffffffffffffffffffffffffffffffffffffff16815260200190815260200160002060008282546117e8919061335c565b925050819055506002600083815260200190815260200160002060006101000a81549073ffffffffffffffffffffffffffffffffffffffff021916905581600073ffffffffffffffffffffffffffffffffffffffff168273ffffffffffffffffffffffffffffffffffffffff167fddf252ad1be2c89b69c2b068fc378daa952ba7f163c4a11628f55a4df523b3ef60405160405180910390a45050565b6000600a60009054906101000a900473ffffffffffffffffffffffffffffffffffffffff16905081600a60006101000a81548173ffffffffffffffffffffffffffffffffffffffff021916908373ffffffffffffffffffffffffffffffffffffffff1602179055508173ffffffffffffffffffffffffffffffffffffffff168173ffffffffffffffffffffffffffffffffffffffff167f8be0079c531659141344cd1fd0a4f28419497f9722a3daafe3b4186f6b6457e060405160405180910390a35050565b611965828260405180602001604052806000815250611d07565b5050565b611974848484611518565b61198084848484611d62565b6119bf576040517f08c379a00000000000000000000000000000000000000000000000000000000081526004016119b690612fd6565b60405180910390fd5b50505050565b606060405180602001604052806000815250905090565b60606000821415611a24576040518060400160405280600181526020017f30000000000000000000000000000000000000000000000000000000000000008152509050611b84565b600082905060005b60008214611a56578080611a3f90613478565b915050600a82611a4f919061332b565b9150611a2c565b60008167ffffffffffffffff811115611a98577f4e487b7100000000000000000000000000000000000000000000000000000000600052604160045260246000fd5b6040519080825280601f01601f191660200182016040528015611aca5781602001600182028036833780820191505090505b5090505b60008514611b7d57600182611ae3919061335c565b9150600a85611af291906134c1565b6030611afe91906132d5565b60f81b818381518110611b3a577f4e487b7100000000000000000000000000000000000000000000000000000000600052603260045260246000fd5b60200101907effffffffffffffffffffffffffffffffffffffffffffffffffffffffffffff1916908160001a905350600a85611b76919061332b565b9450611ace565b8093505050505b919050565b60007f01ffc9a7000000000000000000000000000000000000000000000000000000007bffffffffffffffffffffffffffffffffffffffffffffffffffffffff1916827bffffffffffffffffffffffffffffffffffffffffffffffffffffffff1916149050919050565b611bfe838383611ef9565b600073ffffffffffffffffffffffffffffffffffffffff168373ffffffffffffffffffffffffffffffffffffffff161415611c4157611c3c81611efe565b611c80565b8173ffffffffffffffffffffffffffffffffffffffff168373ffffffffffffffffffffffffffffffffffffffff1614611c7f57611c7e8382611f47565b5b5b600073ffffffffffffffffffffffffffffffffffffffff168273ffffffffffffffffffffffffffffffffffffffff161415611cc357611cbe816120b4565b611d02565b8273ffffffffffffffffffffffffffffffffffffffff168273ffffffffffffffffffffffffffffffffffffffff1614611d0157611d0082826121f7565b5b5b505050565b611d118383612276565b611d1e6000848484611d62565b611d5d576040517f08c379a0000000000000000000000000000000000000000000000000000000008152600401611d5490612fd6565b60405180910390fd5b505050565b6000611d838473ffffffffffffffffffffffffffffffffffffffff16612444565b15611eec578373ffffffffffffffffffffffffffffffffffffffff1663150b7a02611dac611379565b8786866040518563ffffffff1660e01b8152600401611dce9493929190612f2d565b602060405180830381600087803b158015611de857600080fd5b505af1925050508015611e1957506040513d601f19601f82011682018060405250810190611e1691906126f8565b60015b611e9c573d8060008114611e49576040519150601f19603f3d011682016040523d82523d6000602084013e611e4e565b606091505b50600081511415611e94576040517f08c379a0000000000000000000000000000000000000000000000000000000008152600401611e8b90612fd6565b60405180910390fd5b805181602001fd5b63150b7a0260e01b7bffffffffffffffffffffffffffffffffffffffffffffffffffffffff1916817bffffffffffffffffffffffffffffffffffffffffffffffffffffffff191614915050611ef1565b600190505b949350505050565b505050565b6008805490506009600083815260200190815260200160002081905550600881908060018154018082558091505060019003906000526020600020016000909190919091505550565b60006001611f5484610a4e565b611f5e919061335c565b9050600060076000848152602001908152602001600020549050818114612043576000600660008673ffffffffffffffffffffffffffffffffffffffff1673ffffffffffffffffffffffffffffffffffffffff168152602001908152602001600020600084815260200190815260200160002054905080600660008773ffffffffffffffffffffffffffffffffffffffff1673ffffffffffffffffffffffffffffffffffffffff168152602001908152602001600020600084815260200190815260200160002081905550816007600083815260200190815260200160002081905550505b6007600084815260200190815260200160002060009055600660008573ffffffffffffffffffffffffffffffffffffffff1673ffffffffffffffffffffffffffffffffffffffff16815260200190815260200160002060008381526020019081526020016000206000905550505050565b600060016008805490506120c8919061335c565b905060006009600084815260200190815260200160002054905060006008838154811061211e577f4e487b7100000000000000000000000000000000000000000000000000000000600052603260045260246000fd5b906000526020600020015490508060088381548110612166577f4e487b7100000000000000000000000000000000000000000000000000000000600052603260045260246000fd5b9060005260206000200181905550816009600083815260200190815260200160002081905550600960008581526020019081526020016000206000905560088054806121db577f4e487b7100000000000000000000000000000000000000000000000000000000600052603160045260246000fd5b6001900381819060005260206000200160009055905550505050565b600061220283610a4e565b905081600660008573ffffffffffffffffffffffffffffffffffffffff1673ffffffffffffffffffffffffffffffffffffffff168152602001908152602001600020600083815260200190815260200160002081905550806007600084815260200190815260200160002081905550505050565b600073ffffffffffffffffffffffffffffffffffffffff168273ffffffffffffffffffffffffffffffffffffffff1614156122e6576040517f08c379a00000000000000000000000000000000000000000000000000000000081526004016122dd90613116565b60405180910390fd5b6122ef8161130d565b1561232f576040517f08c379a000000000000000000000000000000000000000000000000000000000815260040161232690613016565b60405180910390fd5b61233b60008383611bf3565b6001600360008473ffffffffffffffffffffffffffffffffffffffff1673ffffffffffffffffffffffffffffffffffffffff168152602001908152602001600020600082825461238b91906132d5565b92505081905550816002600083815260200190815260200160002060006101000a81548173ffffffffffffffffffffffffffffffffffffffff021916908373ffffffffffffffffffffffffffffffffffffffff160217905550808273ffffffffffffffffffffffffffffffffffffffff16600073ffffffffffffffffffffffffffffffffffffffff167fddf252ad1be2c89b69c2b068fc378daa952ba7f163c4a11628f55a4df523b3ef60405160405180910390a45050565b600080823b905060008111915050919050565b600061246a61246584613262565b613231565b90508281526020810184848401111561248257600080fd5b61248d848285613404565b509392505050565b6000813590506124a4816135bf565b92915050565b6000813590506124b9816135d6565b92915050565b6000813590506124ce816135ed565b92915050565b6000815190506124e3816135ed565b92915050565b600082601f8301126124fa57600080fd5b813561250a848260208601612457565b91505092915050565b60008135905061252281613604565b92915050565b60006020828403121561253a57600080fd5b600061254884828501612495565b91505092915050565b6000806040838503121561256457600080fd5b600061257285828601612495565b925050602061258385828601612495565b9150509250929050565b6000806000606084860312156125a257600080fd5b60006125b086828701612495565b93505060206125c186828701612495565b92505060406125d286828701612513565b9150509250925092565b600080600080608085870312156125f257600080fd5b600061260087828801612495565b945050602061261187828801612495565b935050604061262287828801612513565b925050606085013567ffffffffffffffff81111561263f57600080fd5b61264b878288016124e9565b91505092959194509250565b6000806040838503121561266a57600080fd5b600061267885828601612495565b9250506020612689858286016124aa565b9150509250929050565b600080604083850312156126a657600080fd5b60006126b485828601612495565b92505060206126c585828601612513565b9150509250929050565b6000602082840312156126e157600080fd5b60006126ef848285016124bf565b91505092915050565b60006020828403121561270a57600080fd5b6000612718848285016124d4565b91505092915050565b60006020828403121561273357600080fd5b600061274184828501612513565b91505092915050565b61275381613390565b82525050565b612762816133a2565b82525050565b600061277382613292565b61277d81856132a8565b935061278d818560208601613413565b612796816135ae565b840191505092915050565b60006127ac8261329d565b6127b681856132b9565b93506127c6818560208601613413565b6127cf816135ae565b840191505092915050565b60006127e58261329d565b6127ef81856132ca565b93506127ff818560208601613413565b80840191505092915050565b6000612818602b836132b9565b91507f455243373231456e756d657261626c653a206f776e657220696e646578206f7560008301527f74206f6620626f756e64730000000000000000000000000000000000000000006020830152604082019050919050565b600061287e6032836132b9565b91507f4552433732313a207472616e7366657220746f206e6f6e20455243373231526560008301527f63656976657220696d706c656d656e74657200000000000000000000000000006020830152604082019050919050565b60006128e46026836132b9565b91507f4f776e61626c653a206e6577206f776e657220697320746865207a65726f206160008301527f64647265737300000000000000000000000000000000000000000000000000006020830152604082019050919050565b600061294a601c836132b9565b91507f4552433732313a20746f6b656e20616c7265616479206d696e746564000000006000830152602082019050919050565b600061298a6024836132b9565b91507f4552433732313a207472616e7366657220746f20746865207a65726f2061646460008301527f72657373000000000000000000000000000000000000000000000000000000006020830152604082019050919050565b60006129f06019836132b9565b91507f4552433732313a20617070726f766520746f2063616c6c6572000000000000006000830152602082019050919050565b6000612a306018836132b9565b91507f6f6e6c79206d6f64756c65732063616e20646f207468697300000000000000006000830152602082019050919050565b6000612a70602c836132b9565b91507f4552433732313a206f70657261746f7220717565727920666f72206e6f6e657860008301527f697374656e7420746f6b656e00000000000000000000000000000000000000006020830152604082019050919050565b6000612ad66038836132b9565b91507f4552433732313a20617070726f76652063616c6c6572206973206e6f74206f7760008301527f6e6572206e6f7220617070726f76656420666f7220616c6c00000000000000006020830152604082019050919050565b6000612b3c602a836132b9565b91507f4552433732313a2062616c616e636520717565727920666f7220746865207a6560008301527f726f2061646472657373000000000000000000000000000000000000000000006020830152604082019050919050565b6000612ba26029836132b9565b91507f4552433732313a206f776e657220717565727920666f72206e6f6e657869737460008301527f656e7420746f6b656e00000000000000000000000000000000000000000000006020830152604082019050919050565b6000612c086020836132b9565b91507f4552433732313a206d696e7420746f20746865207a65726f20616464726573736000830152602082019050919050565b6000612c48602c836132b9565b91507f4552433732313a20617070726f76656420717565727920666f72206e6f6e657860008301527f697374656e7420746f6b656e00000000000000000000000000000000000000006020830152604082019050919050565b6000612cae6020836132b9565b91507f4f776e61626c653a2063616c6c6572206973206e6f7420746865206f776e65726000830152602082019050919050565b6000612cee6029836132b9565b91507f4552433732313a207472616e73666572206f6620746f6b656e2074686174206960008301527f73206e6f74206f776e00000000000000000000000000000000000000000000006020830152604082019050919050565b6000612d54602f836132b9565b91507f4552433732314d657461646174613a2055524920717565727920666f72206e6f60008301527f6e6578697374656e7420746f6b656e00000000000000000000000000000000006020830152604082019050919050565b6000612dba6021836132b9565b91507f4552433732313a20617070726f76616c20746f2063757272656e74206f776e6560008301527f72000000000000000000000000000000000000000000000000000000000000006020830152604082019050919050565b6000612e206031836132b9565b91507f4552433732313a207472616e736665722063616c6c6572206973206e6f74206f60008301527f776e6572206e6f7220617070726f7665640000000000000000000000000000006020830152604082019050919050565b6000612e86602c836132b9565b91507f455243373231456e756d657261626c653a20676c6f62616c20696e646578206f60008301527f7574206f6620626f756e647300000000000000000000000000000000000000006020830152604082019050919050565b612ee8816133fa565b82525050565b6000612efa82856127da565b9150612f0682846127da565b91508190509392505050565b6000602082019050612f27600083018461274a565b92915050565b6000608082019050612f42600083018761274a565b612f4f602083018661274a565b612f5c6040830185612edf565b8181036060830152612f6e8184612768565b905095945050505050565b6000602082019050612f8e6000830184612759565b92915050565b60006020820190508181036000830152612fae81846127a1565b905092915050565b60006020820190508181036000830152612fcf8161280b565b9050919050565b60006020820190508181036000830152612fef81612871565b9050919050565b6000602082019050818103600083015261300f816128d7565b9050919050565b6000602082019050818103600083015261302f8161293d565b9050919050565b6000602082019050818103600083015261304f8161297d565b9050919050565b6000602082019050818103600083015261306f816129e3565b9050919050565b6000602082019050818103600083015261308f81612a23565b9050919050565b600060208201905081810360008301526130af81612a63565b9050919050565b600060208201905081810360008301526130cf81612ac9565b9050919050565b600060208201905081810360008301526130ef81612b2f565b9050919050565b6000602082019050818103600083015261310f81612b95565b9050919050565b6000602082019050818103600083015261312f81612bfb565b9050919050565b6000602082019050818103600083015261314f81612c3b565b9050919050565b6000602082019050818103600083015261316f81612ca1565b9050919050565b6000602082019050818103600083015261318f81612ce1565b9050919050565b600060208201905081810360008301526131af81612d47565b9050919050565b600060208201905081810360008301526131cf81612dad565b9050919050565b600060208201905081810360008301526131ef81612e13565b9050919050565b6000602082019050818103600083015261320f81612e79565b9050919050565b600060208201905061322b6000830184612edf565b92915050565b6000604051905081810181811067ffffffffffffffff821117156132585761325761357f565b5b8060405250919050565b600067ffffffffffffffff82111561327d5761327c61357f565b5b601f19601f8301169050602081019050919050565b600081519050919050565b600081519050919050565b600082825260208201905092915050565b600082825260208201905092915050565b600081905092915050565b60006132e0826133fa565b91506132eb836133fa565b9250827fffffffffffffffffffffffffffffffffffffffffffffffffffffffffffffffff038211156133205761331f6134f2565b5b828201905092915050565b6000613336826133fa565b9150613341836133fa565b92508261335157613350613521565b5b828204905092915050565b6000613367826133fa565b9150613372836133fa565b925082821015613385576133846134f2565b5b828203905092915050565b600061339b826133da565b9050919050565b60008115159050919050565b60007fffffffff0000000000000000000000000000000000000000000000000000000082169050919050565b600073ffffffffffffffffffffffffffffffffffffffff82169050919050565b6000819050919050565b82818337600083830152505050565b60005b83811015613431578082015181840152602081019050613416565b83811115613440576000848401525b50505050565b6000600282049050600182168061345e57607f821691505b6020821081141561347257613471613550565b5b50919050565b6000613483826133fa565b91507fffffffffffffffffffffffffffffffffffffffffffffffffffffffffffffffff8214156134b6576134b56134f2565b5b600182019050919050565b60006134cc826133fa565b91506134d7836133fa565b9250826134e7576134e6613521565b5b828206905092915050565b7f4e487b7100000000000000000000000000000000000000000000000000000000600052601160045260246000fd5b7f4e487b7100000000000000000000000000000000000000000000000000000000600052601260045260246000fd5b7f4e487b7100000000000000000000000000000000000000000000000000000000600052602260045260246000fd5b7f4e487b7100000000000000000000000000000000000000000000000000000000600052604160045260246000fd5b6000601f19601f8301169050919050565b6135c881613390565b81146135d357600080fd5b50565b6135df816133a2565b81146135ea57600080fd5b50565b6135f6816133ae565b811461360157600080fd5b50565b61360d816133fa565b811461361857600080fd5b5056fea2646970667358221220a5d6505b1a8d01f28f2bcca02e4d6e023ebdd3923dc6f0bae83ab5430ad6312864736f6c63430008000033",
  "linkReferences": {},
  "deployedLinkReferences": {}
}