{
  "_format": "hh-sol-artifact-1",
  "contractName": "Treasury",
  "sourceName": "contracts/Treasury.sol",
  "abi": [
    {
      "inputs": [],
      "stateMutability": "nonpayable",
      "type": "constructor"
    },
    {
      "anonymous": false,
      "inputs": [
        {
          "indexed": true,
          "internalType": "uint256",
          "name": "id",
          "type": "uint256"
        },
        {
          "indexed": false,
          "internalType": "uint256",
          "name": "amount",
          "type": "uint256"
        }
      ],
      "name": "FundsAdded",
      "type": "event"
    },
    {
      "anonymous": false,
      "inputs": [
        {
          "indexed": true,
          "internalType": "address",
          "name": "receiver",
          "type": "address"
        },
        {
          "indexed": false,
          "internalType": "uint256",
          "name": "id",
          "type": "uint256"
        },
        {
          "indexed": false,
          "internalType": "uint256",
          "name": "amount",
          "type": "uint256"
        }
      ],
      "name": "FundsWithdrawn",
      "type": "event"
    },
    {
      "anonymous": false,
      "inputs": [
        {
          "indexed": true,
          "internalType": "bytes32",
          "name": "role",
          "type": "bytes32"
        },
        {
          "indexed": true,
          "internalType": "bytes32",
          "name": "previousAdminRole",
          "type": "bytes32"
        },
        {
          "indexed": true,
          "internalType": "bytes32",
          "name": "newAdminRole",
          "type": "bytes32"
        }
      ],
      "name": "RoleAdminChanged",
      "type": "event"
    },
    {
      "anonymous": false,
      "inputs": [
        {
          "indexed": true,
          "internalType": "bytes32",
          "name": "role",
          "type": "bytes32"
        },
        {
          "indexed": true,
          "internalType": "address",
          "name": "account",
          "type": "address"
        },
        {
          "indexed": true,
          "internalType": "address",
          "name": "sender",
          "type": "address"
        }
      ],
      "name": "RoleGranted",
      "type": "event"
    },
    {
      "anonymous": false,
      "inputs": [
        {
          "indexed": true,
          "internalType": "bytes32",
          "name": "role",
          "type": "bytes32"
        },
        {
          "indexed": true,
          "internalType": "address",
          "name": "account",
          "type": "address"
        },
        {
          "indexed": true,
          "internalType": "address",
          "name": "sender",
          "type": "address"
        }
      ],
      "name": "RoleRevoked",
      "type": "event"
    },
    {
      "inputs": [],
      "name": "DEFAULT_ADMIN_ROLE",
      "outputs": [
        {
          "internalType": "bytes32",
          "name": "",
          "type": "bytes32"
        }
      ],
      "stateMutability": "view",
      "type": "function"
    },
    {
      "inputs": [],
      "name": "DISTRIBUTION_ROLE",
      "outputs": [
        {
          "internalType": "bytes32",
          "name": "",
          "type": "bytes32"
        }
      ],
      "stateMutability": "view",
      "type": "function"
    },
    {
      "inputs": [],
      "name": "EXCHANGE_ROLE",
      "outputs": [
        {
          "internalType": "bytes32",
          "name": "",
          "type": "bytes32"
        }
      ],
      "stateMutability": "view",
      "type": "function"
    },
    {
      "inputs": [],
      "name": "LEADERBOARD_LENGTH",
      "outputs": [
        {
          "internalType": "uint8",
          "name": "",
          "type": "uint8"
        }
      ],
      "stateMutability": "view",
      "type": "function"
    },
    {
      "inputs": [],
      "name": "MINTER_ROLE",
      "outputs": [
        {
          "internalType": "bytes32",
          "name": "",
          "type": "bytes32"
        }
      ],
      "stateMutability": "view",
      "type": "function"
    },
    {
      "inputs": [
        {
          "internalType": "uint256",
          "name": "id",
          "type": "uint256"
        }
      ],
      "name": "experience",
      "outputs": [
        {
          "internalType": "uint256",
          "name": "",
          "type": "uint256"
        }
      ],
      "stateMutability": "view",
      "type": "function"
    },
    {
      "inputs": [
        {
          "internalType": "bytes32",
          "name": "role",
          "type": "bytes32"
        }
      ],
      "name": "getRoleAdmin",
      "outputs": [
        {
          "internalType": "bytes32",
          "name": "",
          "type": "bytes32"
        }
      ],
      "stateMutability": "view",
      "type": "function"
    },
    {
      "inputs": [
        {
          "internalType": "bytes32",
          "name": "role",
          "type": "bytes32"
        },
        {
          "internalType": "address",
          "name": "account",
          "type": "address"
        }
      ],
      "name": "grantRole",
      "outputs": [],
      "stateMutability": "nonpayable",
      "type": "function"
    },
    {
      "inputs": [
        {
          "internalType": "bytes32",
          "name": "role",
          "type": "bytes32"
        },
        {
          "internalType": "address",
          "name": "account",
          "type": "address"
        }
      ],
      "name": "hasRole",
      "outputs": [
        {
          "internalType": "bool",
          "name": "",
          "type": "bool"
        }
      ],
      "stateMutability": "view",
      "type": "function"
    },
    {
      "inputs": [
        {
          "internalType": "uint256",
          "name": "start",
          "type": "uint256"
        },
        {
          "internalType": "uint8",
          "name": "size",
          "type": "uint8"
        }
      ],
      "name": "leaderboard",
      "outputs": [
        {
          "internalType": "uint256[]",
          "name": "",
          "type": "uint256[]"
        }
      ],
      "stateMutability": "view",
      "type": "function"
    },
    {
      "inputs": [
        {
          "internalType": "uint256",
          "name": "id",
          "type": "uint256"
        }
      ],
      "name": "mint",
      "outputs": [],
      "stateMutability": "payable",
      "type": "function"
    },
    {
      "inputs": [
        {
          "internalType": "bytes32",
          "name": "role",
          "type": "bytes32"
        },
        {
          "internalType": "address",
          "name": "account",
          "type": "address"
        }
      ],
      "name": "renounceRole",
      "outputs": [],
      "stateMutability": "nonpayable",
      "type": "function"
    },
    {
      "inputs": [
        {
          "internalType": "uint256",
          "name": "id",
          "type": "uint256"
        }
      ],
      "name": "replenish",
      "outputs": [],
      "stateMutability": "payable",
      "type": "function"
    },
    {
      "inputs": [],
      "name": "reserve",
      "outputs": [
        {
          "internalType": "uint256",
          "name": "",
          "type": "uint256"
        }
      ],
      "stateMutability": "view",
      "type": "function"
    },
    {
      "inputs": [
        {
          "internalType": "bytes32",
          "name": "role",
          "type": "bytes32"
        },
        {
          "internalType": "address",
          "name": "account",
          "type": "address"
        }
      ],
      "name": "revokeRole",
      "outputs": [],
      "stateMutability": "nonpayable",
      "type": "function"
    },
    {
      "inputs": [
        {
          "internalType": "bytes4",
          "name": "interfaceId",
          "type": "bytes4"
        }
      ],
      "name": "supportsInterface",
      "outputs": [
        {
          "internalType": "bool",
          "name": "",
          "type": "bool"
        }
      ],
      "stateMutability": "view",
      "type": "function"
    },
    {
      "inputs": [
        {
          "internalType": "uint256",
          "name": "winner",
          "type": "uint256"
        },
        {
          "internalType": "uint256",
          "name": "loser",
          "type": "uint256"
        }
      ],
      "name": "swapExperienceFor",
      "outputs": [
        {
          "internalType": "uint256",
          "name": "",
          "type": "uint256"
        }
      ],
      "stateMutability": "nonpayable",
      "type": "function"
    },
    {
      "inputs": [
        {
          "internalType": "uint256",
          "name": "id",
          "type": "uint256"
        },
        {
          "internalType": "address payable",
          "name": "receiver",
          "type": "address"
        }
      ],
      "name": "withdrawExperience",
      "outputs": [],
      "stateMutability": "nonpayable",
      "type": "function"
    },
    {
      "inputs": [
        {
          "internalType": "address payable",
          "name": "receiver",
          "type": "address"
        },
        {
          "internalType": "uint256",
          "name": "amount",
          "type": "uint256"
        }
      ],
      "name": "withdrawFromReserve",
      "outputs": [],
      "stateMutability": "nonpayable",
      "type": "function"
    }
  ],
  "bytecode": "0x60806040523480156200001157600080fd5b50620000276000801b336200002d60201b60201c565b620001a6565b6200003f82826200004360201b60201c565b5050565b6200005582826200013460201b60201c565b6200013057600160008084815260200190815260200160002060000160008373ffffffffffffffffffffffffffffffffffffffff1673ffffffffffffffffffffffffffffffffffffffff16815260200190815260200160002060006101000a81548160ff021916908315150217905550620000d56200019e60201b60201c565b73ffffffffffffffffffffffffffffffffffffffff168173ffffffffffffffffffffffffffffffffffffffff16837f2f8788117e7eff1d82e926ec794901d17c78024a50270940304540a733656f0d60405160405180910390a45b5050565b600080600084815260200190815260200160002060000160008373ffffffffffffffffffffffffffffffffffffffff1673ffffffffffffffffffffffffffffffffffffffff16815260200190815260200160002060009054906101000a900460ff16905092915050565b600033905090565b612b1e80620001b66000396000f3fe6080604052600436106101145760003560e01c806391d14854116100a0578063d3e9716511610064578063d3e9716514610397578063d5391393146103d4578063d547741f146103ff578063e09d918114610428578063ff5ee77f1461046557610114565b806391d14854146102bd578063a0712d68146102fa578063a217fddf14610316578063cd3293de14610341578063d134c1361461036c57610114565b80632f2ff15d116100e75780632f2ff15d146101f957806336568abe146102225780633b7345011461024b5780635de2e428146102765780638554ba15146102a157610114565b806301ffc9a7146101195780630a12b9d914610156578063248a9ca31461019357806327f576d1146101d0575b600080fd5b34801561012557600080fd5b50610140600480360381019061013b9190611e37565b61048e565b60405161014d9190612246565b60405180910390f35b34801561016257600080fd5b5061017d60048036038101906101789190611eee565b610508565b60405161018a91906123a7565b60405180910390f35b34801561019f57600080fd5b506101ba60048036038101906101b59190611dd2565b6107f9565b6040516101c79190612261565b60405180910390f35b3480156101dc57600080fd5b506101f760048036038101906101f29190611d96565b610818565b005b34801561020557600080fd5b50610220600480360381019061021b9190611dfb565b61096b565b005b34801561022e57600080fd5b5061024960048036038101906102449190611dfb565b610994565b005b34801561025757600080fd5b50610260610a17565b60405161026d9190612261565b60405180910390f35b34801561028257600080fd5b5061028b610a3b565b6040516102989190612414565b60405180910390f35b6102bb60048036038101906102b69190611e60565b610a40565b005b3480156102c957600080fd5b506102e460048036038101906102df9190611dfb565b610be2565b6040516102f19190612246565b60405180910390f35b610314600480360381019061030f9190611e60565b610c4c565b005b34801561032257600080fd5b5061032b610df4565b6040516103389190612261565b60405180910390f35b34801561034d57600080fd5b50610356610dfb565b60405161036391906123a7565b60405180910390f35b34801561037857600080fd5b50610381610e05565b60405161038e9190612261565b60405180910390f35b3480156103a357600080fd5b506103be60048036038101906103b99190611e60565b610e29565b6040516103cb91906123a7565b60405180910390f35b3480156103e057600080fd5b506103e9610e46565b6040516103f69190612261565b60405180910390f35b34801561040b57600080fd5b5061042660048036038101906104219190611dfb565b610e6a565b005b34801561043457600080fd5b5061044f600480360381019061044a9190611f2a565b610e93565b60405161045c9190612224565b60405180910390f35b34801561047157600080fd5b5061048c60048036038101906104879190611eb2565b610fe9565b005b60007f7965db0b000000000000000000000000000000000000000000000000000000007bffffffffffffffffffffffffffffffffffffffffffffffffffffffff1916827bffffffffffffffffffffffffffffffffffffffffffffffffffffffff19161480610501575061050082611127565b5b9050919050565b60007f28d62fc77014de57a1bbaa8212ff0979fa61ab00d377b4b8d9762048fb41996161053c81610537611191565b611199565b600073__$785a3750a744651a4256c1a0a9b0861e2b$__632e9e2852600260008881526020019081526020016000205460026000888152602001908152602001600020546040518363ffffffff1660e01b815260040161059d9291906123c2565b60206040518083038186803b1580156105b557600080fd5b505af41580156105c9573d6000803e3d6000fd5b505050506040513d601f19601f820116820180604052508101906105ed9190611e89565b905060006103e8826105ff91906124e5565b905060026000868152602001908152602001600020548210610656576040517f08c379a000000000000000000000000000000000000000000000000000000000815260040161064d90612347565b60405180910390fd5b73__$dd1ab798ac7c049bf7bfb1525e9810c58f$__63b83f21b583836040518363ffffffff1660e01b815260040161068f9291906123c2565b60206040518083038186803b1580156106a757600080fd5b505af41580156106bb573d6000803e3d6000fd5b505050506040513d601f19601f820116820180604052508101906106df9190611e89565b915060008211610724576040517f08c379a000000000000000000000000000000000000000000000000000000000815260040161071b90612327565b60405180910390fd5b818110610766576040517f08c379a000000000000000000000000000000000000000000000000000000000815260040161075d90612367565b60405180910390fd5b61076f81611236565b81600260008881526020019081526020016000205461078e919061248f565b60026000888152602001908152602001600020819055508160026000878152602001908152602001600020546107c491906126e1565b60026000878152602001908152602001600020819055506107e48661124d565b6107ed8561124d565b81935050505092915050565b6000806000838152602001908152602001600020600101549050919050565b7fb7b0a8b00357f0e4c4a4839008cf90d61a23fe1c55511ea70753532d8bab02c561084a81610845611191565b611199565b60008211610881577f4e487b7100000000000000000000000000000000000000000000000000000000600052600160045260246000fd5b6001548211156108ba577f4e487b7100000000000000000000000000000000000000000000000000000000600052600160045260246000fd5b8273ffffffffffffffffffffffffffffffffffffffff166108fc839081150290604051600060405180830381858888f19350505050158015610900573d6000803e3d6000fd5b508160015461090f91906126e1565b6001819055508273ffffffffffffffffffffffffffffffffffffffff167ffbc3a599b784fe88772fc5abcc07223f64ca0b13acc341f4fb1e46bef0510eb460008460405161095e92919061227c565b60405180910390a2505050565b610974826107f9565b61098581610980611191565b611199565b61098f8383611390565b505050565b61099c611191565b73ffffffffffffffffffffffffffffffffffffffff168173ffffffffffffffffffffffffffffffffffffffff1614610a09576040517f08c379a0000000000000000000000000000000000000000000000000000000008152600401610a0090612387565b60405180910390fd5b610a138282611470565b5050565b7f28d62fc77014de57a1bbaa8212ff0979fa61ab00d377b4b8d9762048fb41996181565b603281565b7f9f2df0fed2c77648de5860a4cc508cd0818c85b8b8a1ab4ceeef8d981c8956a6610a7281610a6d611191565b611199565b6000600260008481526020019081526020016000205490506012600a610a989190612569565b602d610aa49190612687565b8110610ad9577f4e487b7100000000000000000000000000000000000000000000000000000000600052600160045260246000fd5b6000816012600a610aea9190612569565b602d610af69190612687565b610b0091906126e1565b9050803414610b44576040517f08c379a0000000000000000000000000000000000000000000000000000000008152600401610b3b90612307565b60405180910390fd5b346002600086815260200190815260200160002054610b63919061248f565b60026000868152602001908152602001600020819055506012600a610b889190612569565b602d610b949190612687565b600260008681526020019081526020016000205414610bdc577f4e487b7100000000000000000000000000000000000000000000000000000000600052600160045260246000fd5b50505050565b600080600084815260200190815260200160002060000160008373ffffffffffffffffffffffffffffffffffffffff1673ffffffffffffffffffffffffffffffffffffffff16815260200190815260200160002060009054906101000a900460ff16905092915050565b7f9f2df0fed2c77648de5860a4cc508cd0818c85b8b8a1ab4ceeef8d981c8956a6610c7e81610c79611191565b611199565b6000600260008481526020019081526020016000205414610cc8577f4e487b7100000000000000000000000000000000000000000000000000000000600052600160045260246000fd5b6012600a610cd69190612569565b6005610ce29190612687565b6012600a610cf09190612569565b602d610cfc9190612687565b610d06919061248f565b3414610d47576040517f08c379a0000000000000000000000000000000000000000000000000000000008152600401610d3e906122e7565b60405180910390fd5b6012600a610d559190612569565b602d610d619190612687565b60026000848152602001908152602001600020819055506012600a610d869190612569565b6005610d929190612687565b600154610d9f919061248f565b600181905550817ff5e4934928a1e45d88c7a5aa2661fe0a801ca5017922e15122d74f1880155e1a6002600085815260200190815260200160002054604051610de891906123a7565b60405180910390a25050565b6000801b81565b6000600154905090565b7fb7b0a8b00357f0e4c4a4839008cf90d61a23fe1c55511ea70753532d8bab02c581565b600060026000838152602001908152602001600020549050919050565b7f9f2df0fed2c77648de5860a4cc508cd0818c85b8b8a1ab4ceeef8d981c8956a681565b610e73826107f9565b610e8481610e7f611191565b611199565b610e8e8383611470565b505050565b60606000831415610ea75760036002015492505b6003600001548260ff161115610ec257600360000154610ec4565b815b915060008260ff1667ffffffffffffffff811115610f0b577f4e487b7100000000000000000000000000000000000000000000000000000000600052604160045260246000fd5b604051908082528060200260200182016040528015610f395781602001602082028036833780820191505090505b50905060008060005b8560ff168160ff161015610fdc57610f6487600361155190919063ffffffff16565b5080935081945050508215610fc45786848260ff1681518110610fb0577f4e487b7100000000000000000000000000000000000000000000000000000000600052603260045260246000fd5b602002602001018181525050819650610fc9565b610fdc565b8080610fd490612821565b915050610f42565b5082935050505092915050565b7f9f2df0fed2c77648de5860a4cc508cd0818c85b8b8a1ab4ceeef8d981c8956a661101b81611016611191565b611199565b6000600260008581526020019081526020016000205490506000811161106a577f4e487b7100000000000000000000000000000000000000000000000000000000600052600160045260246000fd5b8273ffffffffffffffffffffffffffffffffffffffff166108fc829081150290604051600060405180830381858888f193505050501580156110b0573d6000803e3d6000fd5b5060026000858152602001908152602001600020600090556110d1846115db565b8273ffffffffffffffffffffffffffffffffffffffff167ffbc3a599b784fe88772fc5abcc07223f64ca0b13acc341f4fb1e46bef0510eb485836040516111199291906123eb565b60405180910390a250505050565b60007f01ffc9a7000000000000000000000000000000000000000000000000000000007bffffffffffffffffffffffffffffffffffffffffffffffffffffffff1916827bffffffffffffffffffffffffffffffffffffffffffffffffffffffff1916149050919050565b600033905090565b6111a38282610be2565b611232576111c88173ffffffffffffffffffffffffffffffffffffffff166014611615565b6111d68360001c6020611615565b6040516020016111e79291906121ea565b6040516020818303038152906040526040517f08c379a000000000000000000000000000000000000000000000000000000000815260040161122991906122a5565b60405180910390fd5b5050565b80600154611244919061248f565b60018190555050565b60008061126483600361155190919063ffffffff16565b925050915081156112db576000811180156112a4575060026000828152602001908152602001600020546002600085815260200190815260200160002054115b156112d6576112bd83600361190f90919063ffffffff16565b506112d481846003611a9a9092919063ffffffff16565b505b61135f565b600260006003600101548152602001908152602001600020546002600085815260200190815260200160002054111561132f57611329600360010154846003611a9a9092919063ffffffff16565b5061135e565b603260ff16600360000154101561135d5761135b600360010154846003611ab29092919063ffffffff16565b505b5b5b603260ff16600360000154111561138b57611389600360010154600361190f90919063ffffffff16565b505b505050565b61139a8282610be2565b61146c57600160008084815260200190815260200160002060000160008373ffffffffffffffffffffffffffffffffffffffff1673ffffffffffffffffffffffffffffffffffffffff16815260200190815260200160002060006101000a81548160ff021916908315150217905550611411611191565b73ffffffffffffffffffffffffffffffffffffffff168173ffffffffffffffffffffffffffffffffffffffff16837f2f8788117e7eff1d82e926ec794901d17c78024a50270940304540a733656f0d60405160405180910390a45b5050565b61147a8282610be2565b1561154d57600080600084815260200190815260200160002060000160008373ffffffffffffffffffffffffffffffffffffffff1673ffffffffffffffffffffffffffffffffffffffff16815260200190815260200160002060006101000a81548160ff0219169083151502179055506114f2611191565b73ffffffffffffffffffffffffffffffffffffffff168173ffffffffffffffffffffffffffffffffffffffff16837ff6391f5c32d9c69d2a47ea670b442974b53935d1edc7fd64eb21e047a839171b60405160405180910390a45b5050565b60008060006115608585611aca565b6115745760008060009250925092506115d4565b60018560030160008681526020019081526020016000206000801515151581526020019081526020016000205486600301600087815260200190815260200160002060006001151515158152602001908152602001600020549250925092505b9250925092565b60006115f182600361155190919063ffffffff16565b5050905080156116115761160f82600361190f90919063ffffffff16565b505b5050565b6060600060028360026116289190612687565b611632919061248f565b67ffffffffffffffff811115611671577f4e487b7100000000000000000000000000000000000000000000000000000000600052604160045260246000fd5b6040519080825280601f01601f1916602001820160405280156116a35781602001600182028036833780820191505090505b5090507f300000000000000000000000000000000000000000000000000000000000000081600081518110611701577f4e487b7100000000000000000000000000000000000000000000000000000000600052603260045260246000fd5b60200101907effffffffffffffffffffffffffffffffffffffffffffffffffffffffffffff1916908160001a9053507f78000000000000000000000000000000000000000000000000000000000000008160018151811061178b577f4e487b7100000000000000000000000000000000000000000000000000000000600052603260045260246000fd5b60200101907effffffffffffffffffffffffffffffffffffffffffffffffffffffffffffff1916908160001a905350600060018460026117cb9190612687565b6117d5919061248f565b90505b60018111156118c1577f3031323334353637383961626364656600000000000000000000000000000000600f86166010811061183d577f4e487b7100000000000000000000000000000000000000000000000000000000600052603260045260246000fd5b1a60f81b82828151811061187a577f4e487b7100000000000000000000000000000000000000000000000000000000600052603260045260246000fd5b60200101907effffffffffffffffffffffffffffffffffffffffffffffffffffffffffffff1916908160001a905350600485901c9450806118ba906127f7565b90506117d8565b5060008414611905576040517f08c379a00000000000000000000000000000000000000000000000000000000081526004016118fc906122c7565b60405180910390fd5b8091505092915050565b60008082148061192657506119248383611aca565b155b156119345760009050611a94565b826001015482141561197557826003016000838152602001908152602001600020600060011515151581526020019081526020016000205483600101819055505b82600201548214156119b5578260030160008381526020019081526020016000206000801515151581526020019081526020016000205483600201819055505b611a17838460030160008581526020019081526020016000206000801515151581526020019081526020016000205485600301600086815260200190815260200160002060006001151515158152602001908152602001600020546001611b85565b8260030160008381526020019081526020016000206000801515151581526020019081526020016000206000905582600301600083815260200190815260200160002060006001151515158152602001908152602001600020600090556001836000016000828254611a8991906126e1565b925050819055508190505b92915050565b6000611aa98484846001611bea565b90509392505050565b6000611ac18484846000611bea565b90509392505050565b60008083600301600084815260200190815260200160002060008015151515815260200190815260200160002054148015611b30575060008360030160008481526020019081526020016000206000600115151515815260200190815260200160002054145b15611b7a578183600301600080815260200190815260200160002060006001151515158152602001908152602001600020541415611b715760019050611b7f565b60009050611b7f565b600190505b92915050565b828460030160008481526020019081526020016000206000831515151515815260200190815260200160002081905550818460030160008581526020019081526020016000206000831515151581526020019081526020016000208190555050505050565b6000611bf68584611aca565b158015611c095750611c088585611aca565b5b15611cf6576000856003016000868152602001908152602001600020600084151515158152602001908152602001600020549050611c4986868686611b85565b611c5586858386611b85565b600086600301600086815260200190815260200160002060006001151515158152602001908152602001600020541415611c93578386600201819055505b6000866003016000868152602001908152602001600020600080151515158152602001908152602001600020541415611cd0578386600101819055505b6001866000016000828254611ce5919061248f565b925050819055506001915050611cfb565b600090505b949350505050565b600081359050611d1281612a5e565b92915050565b600081359050611d2781612a75565b92915050565b600081359050611d3c81612a8c565b92915050565b600081359050611d5181612aa3565b92915050565b600081359050611d6681612aba565b92915050565b600081519050611d7b81612aba565b92915050565b600081359050611d9081612ad1565b92915050565b60008060408385031215611da957600080fd5b6000611db785828601611d18565b9250506020611dc885828601611d57565b9150509250929050565b600060208284031215611de457600080fd5b6000611df284828501611d2d565b91505092915050565b60008060408385031215611e0e57600080fd5b6000611e1c85828601611d2d565b9250506020611e2d85828601611d03565b9150509250929050565b600060208284031215611e4957600080fd5b6000611e5784828501611d42565b91505092915050565b600060208284031215611e7257600080fd5b6000611e8084828501611d57565b91505092915050565b600060208284031215611e9b57600080fd5b6000611ea984828501611d6c565b91505092915050565b60008060408385031215611ec557600080fd5b6000611ed385828601611d57565b9250506020611ee485828601611d18565b9150509250929050565b60008060408385031215611f0157600080fd5b6000611f0f85828601611d57565b9250506020611f2085828601611d57565b9150509250929050565b60008060408385031215611f3d57600080fd5b6000611f4b85828601611d57565b9250506020611f5c85828601611d81565b9150509250929050565b6000611f7283836121ae565b60208301905092915050565b6000611f898261243f565b611f938185612462565b9350611f9e8361242f565b8060005b83811015611fcf578151611fb68882611f66565b9750611fc183612455565b925050600181019050611fa2565b5085935050505092915050565b611fe581612739565b82525050565b611ff481612745565b82525050565b612003816127b2565b82525050565b60006120148261244a565b61201e8185612473565b935061202e8185602086016127c4565b612037816128a9565b840191505092915050565b600061204d8261244a565b6120578185612484565b93506120678185602086016127c4565b80840191505092915050565b6000612080602083612473565b915061208b826128c7565b602082019050919050565b60006120a3601183612473565b91506120ae826128f0565b602082019050919050565b60006120c6601c83612473565b91506120d182612919565b602082019050919050565b60006120e9600d83612473565b91506120f482612942565b602082019050919050565b600061210c601583612473565b91506121178261296b565b602082019050919050565b600061212f600a83612473565b915061213a82612994565b602082019050919050565b6000612152601783612484565b915061215d826129bd565b601782019050919050565b6000612175601183612484565b9150612180826129e6565b601182019050919050565b6000612198602f83612473565b91506121a382612a0f565b604082019050919050565b6121b78161279b565b82525050565b6121c68161279b565b82525050565b6121d58161279b565b82525050565b6121e4816127a5565b82525050565b60006121f582612145565b91506122018285612042565b915061220c82612168565b91506122188284612042565b91508190509392505050565b6000602082019050818103600083015261223e8184611f7e565b905092915050565b600060208201905061225b6000830184611fdc565b92915050565b60006020820190506122766000830184611feb565b92915050565b60006040820190506122916000830185611ffa565b61229e60208301846121bd565b9392505050565b600060208201905081810360008301526122bf8184612009565b905092915050565b600060208201905081810360008301526122e081612073565b9050919050565b6000602082019050818103600083015261230081612096565b9050919050565b60006020820190508181036000830152612320816120b9565b9050919050565b60006020820190508181036000830152612340816120dc565b9050919050565b60006020820190508181036000830152612360816120ff565b9050919050565b6000602082019050818103600083015261238081612122565b9050919050565b600060208201905081810360008301526123a08161218b565b9050919050565b60006020820190506123bc60008301846121bd565b92915050565b60006040820190506123d760008301856121cc565b6123e460208301846121cc565b9392505050565b600060408201905061240060008301856121bd565b61240d60208301846121bd565b9392505050565b600060208201905061242960008301846121db565b92915050565b6000819050602082019050919050565b600081519050919050565b600081519050919050565b6000602082019050919050565b600082825260208201905092915050565b600082825260208201905092915050565b600081905092915050565b600061249a8261279b565b91506124a58361279b565b9250827fffffffffffffffffffffffffffffffffffffffffffffffffffffffffffffffff038211156124da576124d961284b565b5b828201905092915050565b60006124f08261279b565b91506124fb8361279b565b92508261250b5761250a61287a565b5b828204905092915050565b6000808291508390505b60018511156125605780860481111561253c5761253b61284b565b5b600185161561254b5780820291505b8081029050612559856128ba565b9450612520565b94509492505050565b60006125748261279b565b915061257f8361279b565b92506125ac7fffffffffffffffffffffffffffffffffffffffffffffffffffffffffffffffff84846125b4565b905092915050565b6000826125c45760019050612680565b816125d25760009050612680565b81600181146125e857600281146125f257612621565b6001915050612680565b60ff8411156126045761260361284b565b5b8360020a91508482111561261b5761261a61284b565b5b50612680565b5060208310610133831016604e8410600b84101617156126565782820a9050838111156126515761265061284b565b5b612680565b6126638484846001612516565b9250905081840481111561267a5761267961284b565b5b81810290505b9392505050565b60006126928261279b565b915061269d8361279b565b9250817fffffffffffffffffffffffffffffffffffffffffffffffffffffffffffffffff04831182151516156126d6576126d561284b565b5b828202905092915050565b60006126ec8261279b565b91506126f78361279b565b92508282101561270a5761270961284b565b5b828203905092915050565b60006127208261277b565b9050919050565b60006127328261277b565b9050919050565b60008115159050919050565b6000819050919050565b60007fffffffff0000000000000000000000000000000000000000000000000000000082169050919050565b600073ffffffffffffffffffffffffffffffffffffffff82169050919050565b6000819050919050565b600060ff82169050919050565b60006127bd8261279b565b9050919050565b60005b838110156127e25780820151818401526020810190506127c7565b838111156127f1576000848401525b50505050565b60006128028261279b565b915060008214156128165761281561284b565b5b600182039050919050565b600061282c826127a5565b915060ff8214156128405761283f61284b565b5b600182019050919050565b7f4e487b7100000000000000000000000000000000000000000000000000000000600052601160045260246000fd5b7f4e487b7100000000000000000000000000000000000000000000000000000000600052601260045260246000fd5b6000601f19601f8301169050919050565b60008160011c9050919050565b7f537472696e67733a20686578206c656e67746820696e73756666696369656e74600082015250565b7f496e76616c6964206d696e742066656521000000000000000000000000000000600082015250565b7f496e76616c6964207265706c656e6973686d656e742076616c75652100000000600082015250565b7f4e6f20657020746f207377617000000000000000000000000000000000000000600082015250565b7f74686973207377617020697320696c6c6567616c210000000000000000000000600082015250565b7f6d617468206572726f7200000000000000000000000000000000000000000000600082015250565b7f416363657373436f6e74726f6c3a206163636f756e7420000000000000000000600082015250565b7f206973206d697373696e6720726f6c6520000000000000000000000000000000600082015250565b7f416363657373436f6e74726f6c3a2063616e206f6e6c792072656e6f756e636560008201527f20726f6c657320666f722073656c660000000000000000000000000000000000602082015250565b612a6781612715565b8114612a7257600080fd5b50565b612a7e81612727565b8114612a8957600080fd5b50565b612a9581612745565b8114612aa057600080fd5b50565b612aac8161274f565b8114612ab757600080fd5b50565b612ac38161279b565b8114612ace57600080fd5b50565b612ada816127a5565b8114612ae557600080fd5b5056fea26469706673582212202857d1a2bb563f52b1c45ace34e3066601e5ee1849fec19d936308bbecffb06f64736f6c63430008040033",
  "linkReferences": {
    "contracts/lib/Compute.sol": {
      "Compute": [
        {
          "length": 20,
          "start": 1782
        }
      ]
    },
    "contracts/lib/Math.sol": {
      "Math": [
        {
          "length": 20,
          "start": 2062
        }
      ]
    }
  },
  "deployedLinkReferences": {
    "contracts/lib/Compute.sol": {
      "Compute": [
        {
          "length": 20,
          "start": 1344
        }
      ]
    },
    "contracts/lib/Math.sol": {
      "Math": [
        {
          "length": 20,
          "start": 1624
        }
      ]
    }
  }
}