{
  "_format": "hh-sol-artifact-1",
  "contractName": "Treasury",
  "sourceName": "contracts/Treasury.sol",
  "abi": [
    {
      "inputs": [],
      "stateMutability": "nonpayable",
      "type": "constructor"
    },
    {
      "anonymous": false,
      "inputs": [
        {
          "indexed": true,
          "internalType": "uint256",
          "name": "id",
          "type": "uint256"
        },
        {
          "indexed": false,
          "internalType": "uint256",
          "name": "amount",
          "type": "uint256"
        }
      ],
      "name": "FundsAdded",
      "type": "event"
    },
    {
      "anonymous": false,
      "inputs": [
        {
          "indexed": true,
          "internalType": "address",
          "name": "receiver",
          "type": "address"
        },
        {
          "indexed": false,
          "internalType": "uint256",
          "name": "id",
          "type": "uint256"
        },
        {
          "indexed": false,
          "internalType": "uint256",
          "name": "amount",
          "type": "uint256"
        }
      ],
      "name": "FundsWithdrawn",
      "type": "event"
    },
    {
      "anonymous": false,
      "inputs": [
        {
          "indexed": true,
          "internalType": "bytes32",
          "name": "role",
          "type": "bytes32"
        },
        {
          "indexed": true,
          "internalType": "bytes32",
          "name": "previousAdminRole",
          "type": "bytes32"
        },
        {
          "indexed": true,
          "internalType": "bytes32",
          "name": "newAdminRole",
          "type": "bytes32"
        }
      ],
      "name": "RoleAdminChanged",
      "type": "event"
    },
    {
      "anonymous": false,
      "inputs": [
        {
          "indexed": true,
          "internalType": "bytes32",
          "name": "role",
          "type": "bytes32"
        },
        {
          "indexed": true,
          "internalType": "address",
          "name": "account",
          "type": "address"
        },
        {
          "indexed": true,
          "internalType": "address",
          "name": "sender",
          "type": "address"
        }
      ],
      "name": "RoleGranted",
      "type": "event"
    },
    {
      "anonymous": false,
      "inputs": [
        {
          "indexed": true,
          "internalType": "bytes32",
          "name": "role",
          "type": "bytes32"
        },
        {
          "indexed": true,
          "internalType": "address",
          "name": "account",
          "type": "address"
        },
        {
          "indexed": true,
          "internalType": "address",
          "name": "sender",
          "type": "address"
        }
      ],
      "name": "RoleRevoked",
      "type": "event"
    },
    {
      "inputs": [],
      "name": "DEFAULT_ADMIN_ROLE",
      "outputs": [
        {
          "internalType": "bytes32",
          "name": "",
          "type": "bytes32"
        }
      ],
      "stateMutability": "view",
      "type": "function"
    },
    {
      "inputs": [],
      "name": "DISTRIBUTION_ROLE",
      "outputs": [
        {
          "internalType": "bytes32",
          "name": "",
          "type": "bytes32"
        }
      ],
      "stateMutability": "view",
      "type": "function"
    },
    {
      "inputs": [],
      "name": "EXCHANGE_ROLE",
      "outputs": [
        {
          "internalType": "bytes32",
          "name": "",
          "type": "bytes32"
        }
      ],
      "stateMutability": "view",
      "type": "function"
    },
    {
      "inputs": [],
      "name": "LEADERBOARD_LENGTH",
      "outputs": [
        {
          "internalType": "uint8",
          "name": "",
          "type": "uint8"
        }
      ],
      "stateMutability": "view",
      "type": "function"
    },
    {
      "inputs": [],
      "name": "MINTER_ROLE",
      "outputs": [
        {
          "internalType": "bytes32",
          "name": "",
          "type": "bytes32"
        }
      ],
      "stateMutability": "view",
      "type": "function"
    },
    {
      "inputs": [
        {
          "internalType": "uint256",
          "name": "id",
          "type": "uint256"
        }
      ],
      "name": "experience",
      "outputs": [
        {
          "internalType": "uint256",
          "name": "",
          "type": "uint256"
        }
      ],
      "stateMutability": "view",
      "type": "function"
    },
    {
      "inputs": [
        {
          "internalType": "bytes32",
          "name": "role",
          "type": "bytes32"
        }
      ],
      "name": "getRoleAdmin",
      "outputs": [
        {
          "internalType": "bytes32",
          "name": "",
          "type": "bytes32"
        }
      ],
      "stateMutability": "view",
      "type": "function"
    },
    {
      "inputs": [
        {
          "internalType": "bytes32",
          "name": "role",
          "type": "bytes32"
        },
        {
          "internalType": "address",
          "name": "account",
          "type": "address"
        }
      ],
      "name": "grantRole",
      "outputs": [],
      "stateMutability": "nonpayable",
      "type": "function"
    },
    {
      "inputs": [
        {
          "internalType": "bytes32",
          "name": "role",
          "type": "bytes32"
        },
        {
          "internalType": "address",
          "name": "account",
          "type": "address"
        }
      ],
      "name": "hasRole",
      "outputs": [
        {
          "internalType": "bool",
          "name": "",
          "type": "bool"
        }
      ],
      "stateMutability": "view",
      "type": "function"
    },
    {
      "inputs": [
        {
          "internalType": "uint256",
          "name": "start",
          "type": "uint256"
        },
        {
          "internalType": "uint8",
          "name": "size",
          "type": "uint8"
        }
      ],
      "name": "leaderboard",
      "outputs": [
        {
          "internalType": "uint256[]",
          "name": "",
          "type": "uint256[]"
        }
      ],
      "stateMutability": "view",
      "type": "function"
    },
    {
      "inputs": [
        {
          "internalType": "uint256",
          "name": "id",
          "type": "uint256"
        }
      ],
      "name": "mint",
      "outputs": [],
      "stateMutability": "payable",
      "type": "function"
    },
    {
      "inputs": [
        {
          "internalType": "bytes32",
          "name": "role",
          "type": "bytes32"
        },
        {
          "internalType": "address",
          "name": "account",
          "type": "address"
        }
      ],
      "name": "renounceRole",
      "outputs": [],
      "stateMutability": "nonpayable",
      "type": "function"
    },
    {
      "inputs": [],
      "name": "reserve",
      "outputs": [
        {
          "internalType": "uint256",
          "name": "",
          "type": "uint256"
        }
      ],
      "stateMutability": "view",
      "type": "function"
    },
    {
      "inputs": [
        {
          "internalType": "bytes32",
          "name": "role",
          "type": "bytes32"
        },
        {
          "internalType": "address",
          "name": "account",
          "type": "address"
        }
      ],
      "name": "revokeRole",
      "outputs": [],
      "stateMutability": "nonpayable",
      "type": "function"
    },
    {
      "inputs": [
        {
          "internalType": "bytes4",
          "name": "interfaceId",
          "type": "bytes4"
        }
      ],
      "name": "supportsInterface",
      "outputs": [
        {
          "internalType": "bool",
          "name": "",
          "type": "bool"
        }
      ],
      "stateMutability": "view",
      "type": "function"
    },
    {
      "inputs": [
        {
          "internalType": "uint256",
          "name": "winner",
          "type": "uint256"
        },
        {
          "internalType": "uint256",
          "name": "loser",
          "type": "uint256"
        }
      ],
      "name": "swapExperienceFor",
      "outputs": [
        {
          "internalType": "uint256",
          "name": "",
          "type": "uint256"
        }
      ],
      "stateMutability": "nonpayable",
      "type": "function"
    },
    {
      "inputs": [
        {
          "internalType": "uint256",
          "name": "id",
          "type": "uint256"
        },
        {
          "internalType": "address payable",
          "name": "receiver",
          "type": "address"
        }
      ],
      "name": "withdrawExperience",
      "outputs": [],
      "stateMutability": "nonpayable",
      "type": "function"
    },
    {
      "inputs": [
        {
          "internalType": "address payable",
          "name": "receiver",
          "type": "address"
        },
        {
          "internalType": "uint256",
          "name": "amount",
          "type": "uint256"
        }
      ],
      "name": "withdrawFromReserve",
      "outputs": [],
      "stateMutability": "nonpayable",
      "type": "function"
    }
  ],
  "bytecode": "0x60806040523480156200001157600080fd5b50620000276000801b336200002d60201b60201c565b620001a6565b6200003f82826200004360201b60201c565b5050565b6200005582826200013460201b60201c565b6200013057600160008084815260200190815260200160002060000160008373ffffffffffffffffffffffffffffffffffffffff1673ffffffffffffffffffffffffffffffffffffffff16815260200190815260200160002060006101000a81548160ff021916908315150217905550620000d56200019e60201b60201c565b73ffffffffffffffffffffffffffffffffffffffff168173ffffffffffffffffffffffffffffffffffffffff16837f2f8788117e7eff1d82e926ec794901d17c78024a50270940304540a733656f0d60405160405180910390a45b5050565b600080600084815260200190815260200160002060000160008373ffffffffffffffffffffffffffffffffffffffff1673ffffffffffffffffffffffffffffffffffffffff16815260200190815260200160002060009054906101000a900460ff16905092915050565b600033905090565b6128cc80620001b66000396000f3fe6080604052600436106101095760003560e01c8063a0712d6811610095578063d3e9716511610064578063d3e9716514610370578063d5391393146103ad578063d547741f146103d8578063e09d918114610401578063ff5ee77f1461043e57610109565b8063a0712d68146102d3578063a217fddf146102ef578063cd3293de1461031a578063d134c1361461034557610109565b80632f2ff15d116100dc5780632f2ff15d146101ee57806336568abe146102175780633b734501146102405780635de2e4281461026b57806391d148541461029657610109565b806301ffc9a71461010e5780630a12b9d91461014b578063248a9ca31461018857806327f576d1146101c5575b600080fd5b34801561011a57600080fd5b5061013560048036038101906101309190611c51565b610467565b604051610142919061203d565b60405180910390f35b34801561015757600080fd5b50610172600480360381019061016d9190611d08565b6104e1565b60405161017f919061217e565b60405180910390f35b34801561019457600080fd5b506101af60048036038101906101aa9190611bec565b6107c9565b6040516101bc9190612058565b60405180910390f35b3480156101d157600080fd5b506101ec60048036038101906101e79190611bb0565b6107e8565b005b3480156101fa57600080fd5b5061021560048036038101906102109190611c15565b610927565b005b34801561022357600080fd5b5061023e60048036038101906102399190611c15565b610950565b005b34801561024c57600080fd5b506102556109d3565b6040516102629190612058565b60405180910390f35b34801561027757600080fd5b506102806109f7565b60405161028d91906121eb565b60405180910390f35b3480156102a257600080fd5b506102bd60048036038101906102b89190611c15565b6109fc565b6040516102ca919061203d565b60405180910390f35b6102ed60048036038101906102e89190611c7a565b610a66565b005b3480156102fb57600080fd5b50610304610c0e565b6040516103119190612058565b60405180910390f35b34801561032657600080fd5b5061032f610c15565b60405161033c919061217e565b60405180910390f35b34801561035157600080fd5b5061035a610c1f565b6040516103679190612058565b60405180910390f35b34801561037c57600080fd5b5061039760048036038101906103929190611c7a565b610c43565b6040516103a4919061217e565b60405180910390f35b3480156103b957600080fd5b506103c2610c60565b6040516103cf9190612058565b60405180910390f35b3480156103e457600080fd5b506103ff60048036038101906103fa9190611c15565b610c84565b005b34801561040d57600080fd5b5061042860048036038101906104239190611d44565b610cad565b604051610435919061201b565b60405180910390f35b34801561044a57600080fd5b5061046560048036038101906104609190611ccc565b610e03565b005b60007f7965db0b000000000000000000000000000000000000000000000000000000007bffffffffffffffffffffffffffffffffffffffffffffffffffffffff1916827bffffffffffffffffffffffffffffffffffffffffffffffffffffffff191614806104da57506104d982610f41565b5b9050919050565b60007f28d62fc77014de57a1bbaa8212ff0979fa61ab00d377b4b8d9762048fb41996161051581610510610fab565b610fb3565b600073__$785a3750a744651a4256c1a0a9b0861e2b$__632e9e2852600260008881526020019081526020016000205460026000888152602001908152602001600020546040518363ffffffff1660e01b8152600401610576929190612199565b60206040518083038186803b15801561058e57600080fd5b505af41580156105a2573d6000803e3d6000fd5b505050506040513d601f19601f820116820180604052508101906105c69190611ca3565b905060006103e8826105d891906122bc565b90506002600086815260200190815260200160002054821061062f576040517f08c379a00000000000000000000000000000000000000000000000000000000081526004016106269061211e565b60405180910390fd5b73__$dd1ab798ac7c049bf7bfb1525e9810c58f$__63b83f21b583836040518363ffffffff1660e01b8152600401610668929190612199565b60206040518083038186803b15801561068057600080fd5b505af4158015610694573d6000803e3d6000fd5b505050506040513d601f19601f820116820180604052508101906106b89190611ca3565b9150600082116106fd576040517f08c379a00000000000000000000000000000000000000000000000000000000081526004016106f4906120fe565b60405180910390fd5b81811061073f576040517f08c379a00000000000000000000000000000000000000000000000000000000081526004016107369061213e565b60405180910390fd5b61074881611050565b8160026000888152602001908152602001600020546107679190612266565b600260008881526020019081526020016000208190555081600260008781526020019081526020016000205461079d91906124b8565b60026000878152602001908152602001600020819055506107bd86611067565b81935050505092915050565b6000806000838152602001908152602001600020600101549050919050565b7fb7b0a8b00357f0e4c4a4839008cf90d61a23fe1c55511ea70753532d8bab02c561081a81610815610fab565b610fb3565b60008211610851577f4e487b7100000000000000000000000000000000000000000000000000000000600052600160045260246000fd5b60015482111561088a577f4e487b7100000000000000000000000000000000000000000000000000000000600052600160045260246000fd5b8273ffffffffffffffffffffffffffffffffffffffff166108fc839081150290604051600060405180830381858888f193505050501580156108d0573d6000803e3d6000fd5b508273ffffffffffffffffffffffffffffffffffffffff167ffbc3a599b784fe88772fc5abcc07223f64ca0b13acc341f4fb1e46bef0510eb460008460405161091a929190612073565b60405180910390a2505050565b610930826107c9565b6109418161093c610fab565b610fb3565b61094b83836111aa565b505050565b610958610fab565b73ffffffffffffffffffffffffffffffffffffffff168173ffffffffffffffffffffffffffffffffffffffff16146109c5576040517f08c379a00000000000000000000000000000000000000000000000000000000081526004016109bc9061215e565b60405180910390fd5b6109cf828261128a565b5050565b7f28d62fc77014de57a1bbaa8212ff0979fa61ab00d377b4b8d9762048fb41996181565b603281565b600080600084815260200190815260200160002060000160008373ffffffffffffffffffffffffffffffffffffffff1673ffffffffffffffffffffffffffffffffffffffff16815260200190815260200160002060009054906101000a900460ff16905092915050565b7f9f2df0fed2c77648de5860a4cc508cd0818c85b8b8a1ab4ceeef8d981c8956a6610a9881610a93610fab565b610fb3565b6000600260008481526020019081526020016000205414610ae2577f4e487b7100000000000000000000000000000000000000000000000000000000600052600160045260246000fd5b6012600a610af09190612340565b6005610afc919061245e565b6012600a610b0a9190612340565b602d610b16919061245e565b610b209190612266565b3414610b61576040517f08c379a0000000000000000000000000000000000000000000000000000000008152600401610b58906120de565b60405180910390fd5b6012600a610b6f9190612340565b602d610b7b919061245e565b60026000848152602001908152602001600020819055506012600a610ba09190612340565b6005610bac919061245e565b600154610bb99190612266565b600181905550817ff5e4934928a1e45d88c7a5aa2661fe0a801ca5017922e15122d74f1880155e1a6002600085815260200190815260200160002054604051610c02919061217e565b60405180910390a25050565b6000801b81565b6000600154905090565b7fb7b0a8b00357f0e4c4a4839008cf90d61a23fe1c55511ea70753532d8bab02c581565b600060026000838152602001908152602001600020549050919050565b7f9f2df0fed2c77648de5860a4cc508cd0818c85b8b8a1ab4ceeef8d981c8956a681565b610c8d826107c9565b610c9e81610c99610fab565b610fb3565b610ca8838361128a565b505050565b60606000831415610cc15760036002015492505b6003600001548260ff161115610cdc57600360000154610cde565b815b915060008260ff1667ffffffffffffffff811115610d25577f4e487b7100000000000000000000000000000000000000000000000000000000600052604160045260246000fd5b604051908082528060200260200182016040528015610d535781602001602082028036833780820191505090505b50905060008060005b8560ff168160ff161015610df657610d7e87600361136b90919063ffffffff16565b5080935081945050508215610dde5786848260ff1681518110610dca577f4e487b7100000000000000000000000000000000000000000000000000000000600052603260045260246000fd5b602002602001018181525050819650610de3565b610df6565b8080610dee906125f8565b915050610d5c565b5082935050505092915050565b7f9f2df0fed2c77648de5860a4cc508cd0818c85b8b8a1ab4ceeef8d981c8956a6610e3581610e30610fab565b610fb3565b60006002600085815260200190815260200160002054905060008111610e84577f4e487b7100000000000000000000000000000000000000000000000000000000600052600160045260246000fd5b8273ffffffffffffffffffffffffffffffffffffffff166108fc829081150290604051600060405180830381858888f19350505050158015610eca573d6000803e3d6000fd5b506002600085815260200190815260200160002060009055610eeb846113f5565b8273ffffffffffffffffffffffffffffffffffffffff167ffbc3a599b784fe88772fc5abcc07223f64ca0b13acc341f4fb1e46bef0510eb48583604051610f339291906121c2565b60405180910390a250505050565b60007f01ffc9a7000000000000000000000000000000000000000000000000000000007bffffffffffffffffffffffffffffffffffffffffffffffffffffffff1916827bffffffffffffffffffffffffffffffffffffffffffffffffffffffff1916149050919050565b600033905090565b610fbd82826109fc565b61104c57610fe28173ffffffffffffffffffffffffffffffffffffffff16601461142f565b610ff08360001c602061142f565b604051602001611001929190611fe1565b6040516020818303038152906040526040517f08c379a0000000000000000000000000000000000000000000000000000000008152600401611043919061209c565b60405180910390fd5b5050565b8060015461105e9190612266565b60018190555050565b60008061107e83600361136b90919063ffffffff16565b925050915081156110f5576000811180156110be575060026000828152602001908152602001600020546002600085815260200190815260200160002054115b156110f0576110d783600361172990919063ffffffff16565b506110ee818460036118b49092919063ffffffff16565b505b611179565b6002600060036001015481526020019081526020016000205460026000858152602001908152602001600020541115611149576111436003600101548460036118b49092919063ffffffff16565b50611178565b603260ff166003600001541015611177576111756003600101548460036118cc9092919063ffffffff16565b505b5b5b603260ff1660036000015411156111a5576111a3600360010154600361172990919063ffffffff16565b505b505050565b6111b482826109fc565b61128657600160008084815260200190815260200160002060000160008373ffffffffffffffffffffffffffffffffffffffff1673ffffffffffffffffffffffffffffffffffffffff16815260200190815260200160002060006101000a81548160ff02191690831515021790555061122b610fab565b73ffffffffffffffffffffffffffffffffffffffff168173ffffffffffffffffffffffffffffffffffffffff16837f2f8788117e7eff1d82e926ec794901d17c78024a50270940304540a733656f0d60405160405180910390a45b5050565b61129482826109fc565b1561136757600080600084815260200190815260200160002060000160008373ffffffffffffffffffffffffffffffffffffffff1673ffffffffffffffffffffffffffffffffffffffff16815260200190815260200160002060006101000a81548160ff02191690831515021790555061130c610fab565b73ffffffffffffffffffffffffffffffffffffffff168173ffffffffffffffffffffffffffffffffffffffff16837ff6391f5c32d9c69d2a47ea670b442974b53935d1edc7fd64eb21e047a839171b60405160405180910390a45b5050565b600080600061137a85856118e4565b61138e5760008060009250925092506113ee565b60018560030160008681526020019081526020016000206000801515151581526020019081526020016000205486600301600087815260200190815260200160002060006001151515158152602001908152602001600020549250925092505b9250925092565b600061140b82600361136b90919063ffffffff16565b50509050801561142b5761142982600361172990919063ffffffff16565b505b5050565b606060006002836002611442919061245e565b61144c9190612266565b67ffffffffffffffff81111561148b577f4e487b7100000000000000000000000000000000000000000000000000000000600052604160045260246000fd5b6040519080825280601f01601f1916602001820160405280156114bd5781602001600182028036833780820191505090505b5090507f30000000000000000000000000000000000000000000000000000000000000008160008151811061151b577f4e487b7100000000000000000000000000000000000000000000000000000000600052603260045260246000fd5b60200101907effffffffffffffffffffffffffffffffffffffffffffffffffffffffffffff1916908160001a9053507f7800000000000000000000000000000000000000000000000000000000000000816001815181106115a5577f4e487b7100000000000000000000000000000000000000000000000000000000600052603260045260246000fd5b60200101907effffffffffffffffffffffffffffffffffffffffffffffffffffffffffffff1916908160001a905350600060018460026115e5919061245e565b6115ef9190612266565b90505b60018111156116db577f3031323334353637383961626364656600000000000000000000000000000000600f861660108110611657577f4e487b7100000000000000000000000000000000000000000000000000000000600052603260045260246000fd5b1a60f81b828281518110611694577f4e487b7100000000000000000000000000000000000000000000000000000000600052603260045260246000fd5b60200101907effffffffffffffffffffffffffffffffffffffffffffffffffffffffffffff1916908160001a905350600485901c9450806116d4906125ce565b90506115f2565b506000841461171f576040517f08c379a0000000000000000000000000000000000000000000000000000000008152600401611716906120be565b60405180910390fd5b8091505092915050565b600080821480611740575061173e83836118e4565b155b1561174e57600090506118ae565b826001015482141561178f57826003016000838152602001908152602001600020600060011515151581526020019081526020016000205483600101819055505b82600201548214156117cf578260030160008381526020019081526020016000206000801515151581526020019081526020016000205483600201819055505b61183183846003016000858152602001908152602001600020600080151515158152602001908152602001600020548560030160008681526020019081526020016000206000600115151515815260200190815260200160002054600161199f565b82600301600083815260200190815260200160002060008015151515815260200190815260200160002060009055826003016000838152602001908152602001600020600060011515151581526020019081526020016000206000905560018360000160008282546118a391906124b8565b925050819055508190505b92915050565b60006118c38484846001611a04565b90509392505050565b60006118db8484846000611a04565b90509392505050565b6000808360030160008481526020019081526020016000206000801515151581526020019081526020016000205414801561194a575060008360030160008481526020019081526020016000206000600115151515815260200190815260200160002054145b1561199457818360030160008081526020019081526020016000206000600115151515815260200190815260200160002054141561198b5760019050611999565b60009050611999565b600190505b92915050565b828460030160008481526020019081526020016000206000831515151515815260200190815260200160002081905550818460030160008581526020019081526020016000206000831515151581526020019081526020016000208190555050505050565b6000611a1085846118e4565b158015611a235750611a2285856118e4565b5b15611b10576000856003016000868152602001908152602001600020600084151515158152602001908152602001600020549050611a638686868661199f565b611a6f8685838661199f565b600086600301600086815260200190815260200160002060006001151515158152602001908152602001600020541415611aad578386600201819055505b6000866003016000868152602001908152602001600020600080151515158152602001908152602001600020541415611aea578386600101819055505b6001866000016000828254611aff9190612266565b925050819055506001915050611b15565b600090505b949350505050565b600081359050611b2c8161280c565b92915050565b600081359050611b4181612823565b92915050565b600081359050611b568161283a565b92915050565b600081359050611b6b81612851565b92915050565b600081359050611b8081612868565b92915050565b600081519050611b9581612868565b92915050565b600081359050611baa8161287f565b92915050565b60008060408385031215611bc357600080fd5b6000611bd185828601611b32565b9250506020611be285828601611b71565b9150509250929050565b600060208284031215611bfe57600080fd5b6000611c0c84828501611b47565b91505092915050565b60008060408385031215611c2857600080fd5b6000611c3685828601611b47565b9250506020611c4785828601611b1d565b9150509250929050565b600060208284031215611c6357600080fd5b6000611c7184828501611b5c565b91505092915050565b600060208284031215611c8c57600080fd5b6000611c9a84828501611b71565b91505092915050565b600060208284031215611cb557600080fd5b6000611cc384828501611b86565b91505092915050565b60008060408385031215611cdf57600080fd5b6000611ced85828601611b71565b9250506020611cfe85828601611b32565b9150509250929050565b60008060408385031215611d1b57600080fd5b6000611d2985828601611b71565b9250506020611d3a85828601611b71565b9150509250929050565b60008060408385031215611d5757600080fd5b6000611d6585828601611b71565b9250506020611d7685828601611b9b565b9150509250929050565b6000611d8c8383611fa5565b60208301905092915050565b6000611da382612216565b611dad8185612239565b9350611db883612206565b8060005b83811015611de9578151611dd08882611d80565b9750611ddb8361222c565b925050600181019050611dbc565b5085935050505092915050565b611dff81612510565b82525050565b611e0e8161251c565b82525050565b611e1d81612589565b82525050565b6000611e2e82612221565b611e38818561224a565b9350611e4881856020860161259b565b611e5181612680565b840191505092915050565b6000611e6782612221565b611e71818561225b565b9350611e8181856020860161259b565b80840191505092915050565b6000611e9a60208361224a565b9150611ea58261269e565b602082019050919050565b6000611ebd60118361224a565b9150611ec8826126c7565b602082019050919050565b6000611ee0600d8361224a565b9150611eeb826126f0565b602082019050919050565b6000611f0360158361224a565b9150611f0e82612719565b602082019050919050565b6000611f26600a8361224a565b9150611f3182612742565b602082019050919050565b6000611f4960178361225b565b9150611f548261276b565b601782019050919050565b6000611f6c60118361225b565b9150611f7782612794565b601182019050919050565b6000611f8f602f8361224a565b9150611f9a826127bd565b604082019050919050565b611fae81612572565b82525050565b611fbd81612572565b82525050565b611fcc81612572565b82525050565b611fdb8161257c565b82525050565b6000611fec82611f3c565b9150611ff88285611e5c565b915061200382611f5f565b915061200f8284611e5c565b91508190509392505050565b600060208201905081810360008301526120358184611d98565b905092915050565b60006020820190506120526000830184611df6565b92915050565b600060208201905061206d6000830184611e05565b92915050565b60006040820190506120886000830185611e14565b6120956020830184611fb4565b9392505050565b600060208201905081810360008301526120b68184611e23565b905092915050565b600060208201905081810360008301526120d781611e8d565b9050919050565b600060208201905081810360008301526120f781611eb0565b9050919050565b6000602082019050818103600083015261211781611ed3565b9050919050565b6000602082019050818103600083015261213781611ef6565b9050919050565b6000602082019050818103600083015261215781611f19565b9050919050565b6000602082019050818103600083015261217781611f82565b9050919050565b60006020820190506121936000830184611fb4565b92915050565b60006040820190506121ae6000830185611fc3565b6121bb6020830184611fc3565b9392505050565b60006040820190506121d76000830185611fb4565b6121e46020830184611fb4565b9392505050565b60006020820190506122006000830184611fd2565b92915050565b6000819050602082019050919050565b600081519050919050565b600081519050919050565b6000602082019050919050565b600082825260208201905092915050565b600082825260208201905092915050565b600081905092915050565b600061227182612572565b915061227c83612572565b9250827fffffffffffffffffffffffffffffffffffffffffffffffffffffffffffffffff038211156122b1576122b0612622565b5b828201905092915050565b60006122c782612572565b91506122d283612572565b9250826122e2576122e1612651565b5b828204905092915050565b6000808291508390505b60018511156123375780860481111561231357612312612622565b5b60018516156123225780820291505b808102905061233085612691565b94506122f7565b94509492505050565b600061234b82612572565b915061235683612572565b92506123837fffffffffffffffffffffffffffffffffffffffffffffffffffffffffffffffff848461238b565b905092915050565b60008261239b5760019050612457565b816123a95760009050612457565b81600181146123bf57600281146123c9576123f8565b6001915050612457565b60ff8411156123db576123da612622565b5b8360020a9150848211156123f2576123f1612622565b5b50612457565b5060208310610133831016604e8410600b841016171561242d5782820a90508381111561242857612427612622565b5b612457565b61243a84848460016122ed565b9250905081840481111561245157612450612622565b5b81810290505b9392505050565b600061246982612572565b915061247483612572565b9250817fffffffffffffffffffffffffffffffffffffffffffffffffffffffffffffffff04831182151516156124ad576124ac612622565b5b828202905092915050565b60006124c382612572565b91506124ce83612572565b9250828210156124e1576124e0612622565b5b828203905092915050565b60006124f782612552565b9050919050565b600061250982612552565b9050919050565b60008115159050919050565b6000819050919050565b60007fffffffff0000000000000000000000000000000000000000000000000000000082169050919050565b600073ffffffffffffffffffffffffffffffffffffffff82169050919050565b6000819050919050565b600060ff82169050919050565b600061259482612572565b9050919050565b60005b838110156125b957808201518184015260208101905061259e565b838111156125c8576000848401525b50505050565b60006125d982612572565b915060008214156125ed576125ec612622565b5b600182039050919050565b60006126038261257c565b915060ff82141561261757612616612622565b5b600182019050919050565b7f4e487b7100000000000000000000000000000000000000000000000000000000600052601160045260246000fd5b7f4e487b7100000000000000000000000000000000000000000000000000000000600052601260045260246000fd5b6000601f19601f8301169050919050565b60008160011c9050919050565b7f537472696e67733a20686578206c656e67746820696e73756666696369656e74600082015250565b7f496e76616c6964206d696e742066656521000000000000000000000000000000600082015250565b7f4e6f20657020746f207377617000000000000000000000000000000000000000600082015250565b7f74686973207377617020697320696c6c6567616c210000000000000000000000600082015250565b7f6d617468206572726f7200000000000000000000000000000000000000000000600082015250565b7f416363657373436f6e74726f6c3a206163636f756e7420000000000000000000600082015250565b7f206973206d697373696e6720726f6c6520000000000000000000000000000000600082015250565b7f416363657373436f6e74726f6c3a2063616e206f6e6c792072656e6f756e636560008201527f20726f6c657320666f722073656c660000000000000000000000000000000000602082015250565b612815816124ec565b811461282057600080fd5b50565b61282c816124fe565b811461283757600080fd5b50565b6128438161251c565b811461284e57600080fd5b50565b61285a81612526565b811461286557600080fd5b50565b61287181612572565b811461287c57600080fd5b50565b6128888161257c565b811461289357600080fd5b5056fea26469706673582212200576c7db9ca1676a9ad5248298719423c8ab14da7993edf51496db76f9a10c4064736f6c63430008040033",
  "linkReferences": {
    "contracts/lib/Compute.sol": {
      "Compute": [
        {
          "length": 20,
          "start": 1743
        }
      ]
    },
    "contracts/lib/Math.sol": {
      "Math": [
        {
          "length": 20,
          "start": 2023
        }
      ]
    }
  },
  "deployedLinkReferences": {
    "contracts/lib/Compute.sol": {
      "Compute": [
        {
          "length": 20,
          "start": 1305
        }
      ]
    },
    "contracts/lib/Math.sol": {
      "Math": [
        {
          "length": 20,
          "start": 1585
        }
      ]
    }
  }
}