{
  "_format": "hh-sol-artifact-1",
  "contractName": "Treasury",
  "sourceName": "contracts/Treasury.sol",
  "abi": [
    {
      "inputs": [],
      "stateMutability": "nonpayable",
      "type": "constructor"
    },
    {
      "anonymous": false,
      "inputs": [
        {
          "indexed": true,
          "internalType": "uint256",
          "name": "id",
          "type": "uint256"
        },
        {
          "indexed": false,
          "internalType": "uint256",
          "name": "amount",
          "type": "uint256"
        }
      ],
      "name": "FundsAdded",
      "type": "event"
    },
    {
      "anonymous": false,
      "inputs": [
        {
          "indexed": true,
          "internalType": "address",
          "name": "receiver",
          "type": "address"
        },
        {
          "indexed": false,
          "internalType": "uint256",
          "name": "id",
          "type": "uint256"
        },
        {
          "indexed": false,
          "internalType": "uint256",
          "name": "amount",
          "type": "uint256"
        }
      ],
      "name": "FundsWithdrawn",
      "type": "event"
    },
    {
      "anonymous": false,
      "inputs": [
        {
          "indexed": true,
          "internalType": "bytes32",
          "name": "role",
          "type": "bytes32"
        },
        {
          "indexed": true,
          "internalType": "bytes32",
          "name": "previousAdminRole",
          "type": "bytes32"
        },
        {
          "indexed": true,
          "internalType": "bytes32",
          "name": "newAdminRole",
          "type": "bytes32"
        }
      ],
      "name": "RoleAdminChanged",
      "type": "event"
    },
    {
      "anonymous": false,
      "inputs": [
        {
          "indexed": true,
          "internalType": "bytes32",
          "name": "role",
          "type": "bytes32"
        },
        {
          "indexed": true,
          "internalType": "address",
          "name": "account",
          "type": "address"
        },
        {
          "indexed": true,
          "internalType": "address",
          "name": "sender",
          "type": "address"
        }
      ],
      "name": "RoleGranted",
      "type": "event"
    },
    {
      "anonymous": false,
      "inputs": [
        {
          "indexed": true,
          "internalType": "bytes32",
          "name": "role",
          "type": "bytes32"
        },
        {
          "indexed": true,
          "internalType": "address",
          "name": "account",
          "type": "address"
        },
        {
          "indexed": true,
          "internalType": "address",
          "name": "sender",
          "type": "address"
        }
      ],
      "name": "RoleRevoked",
      "type": "event"
    },
    {
      "inputs": [],
      "name": "DEFAULT_ADMIN_ROLE",
      "outputs": [
        {
          "internalType": "bytes32",
          "name": "",
          "type": "bytes32"
        }
      ],
      "stateMutability": "view",
      "type": "function"
    },
    {
      "inputs": [],
      "name": "DISTRIBUTION_ROLE",
      "outputs": [
        {
          "internalType": "bytes32",
          "name": "",
          "type": "bytes32"
        }
      ],
      "stateMutability": "view",
      "type": "function"
    },
    {
      "inputs": [],
      "name": "EXCHANGE_ROLE",
      "outputs": [
        {
          "internalType": "bytes32",
          "name": "",
          "type": "bytes32"
        }
      ],
      "stateMutability": "view",
      "type": "function"
    },
    {
      "inputs": [],
      "name": "MINTER_ROLE",
      "outputs": [
        {
          "internalType": "bytes32",
          "name": "",
          "type": "bytes32"
        }
      ],
      "stateMutability": "view",
      "type": "function"
    },
    {
      "inputs": [
        {
          "internalType": "uint256",
          "name": "id",
          "type": "uint256"
        }
      ],
      "name": "experience",
      "outputs": [
        {
          "internalType": "uint256",
          "name": "",
          "type": "uint256"
        }
      ],
      "stateMutability": "view",
      "type": "function"
    },
    {
      "inputs": [
        {
          "internalType": "bytes32",
          "name": "role",
          "type": "bytes32"
        }
      ],
      "name": "getRoleAdmin",
      "outputs": [
        {
          "internalType": "bytes32",
          "name": "",
          "type": "bytes32"
        }
      ],
      "stateMutability": "view",
      "type": "function"
    },
    {
      "inputs": [
        {
          "internalType": "bytes32",
          "name": "role",
          "type": "bytes32"
        },
        {
          "internalType": "address",
          "name": "account",
          "type": "address"
        }
      ],
      "name": "grantRole",
      "outputs": [],
      "stateMutability": "nonpayable",
      "type": "function"
    },
    {
      "inputs": [
        {
          "internalType": "bytes32",
          "name": "role",
          "type": "bytes32"
        },
        {
          "internalType": "address",
          "name": "account",
          "type": "address"
        }
      ],
      "name": "hasRole",
      "outputs": [
        {
          "internalType": "bool",
          "name": "",
          "type": "bool"
        }
      ],
      "stateMutability": "view",
      "type": "function"
    },
    {
      "inputs": [
        {
          "internalType": "uint256",
          "name": "id",
          "type": "uint256"
        }
      ],
      "name": "mint",
      "outputs": [],
      "stateMutability": "payable",
      "type": "function"
    },
    {
      "inputs": [
        {
          "internalType": "bytes32",
          "name": "role",
          "type": "bytes32"
        },
        {
          "internalType": "address",
          "name": "account",
          "type": "address"
        }
      ],
      "name": "renounceRole",
      "outputs": [],
      "stateMutability": "nonpayable",
      "type": "function"
    },
    {
      "inputs": [],
      "name": "reserve",
      "outputs": [
        {
          "internalType": "uint256",
          "name": "",
          "type": "uint256"
        }
      ],
      "stateMutability": "view",
      "type": "function"
    },
    {
      "inputs": [
        {
          "internalType": "bytes32",
          "name": "role",
          "type": "bytes32"
        },
        {
          "internalType": "address",
          "name": "account",
          "type": "address"
        }
      ],
      "name": "revokeRole",
      "outputs": [],
      "stateMutability": "nonpayable",
      "type": "function"
    },
    {
      "inputs": [
        {
          "internalType": "bytes4",
          "name": "interfaceId",
          "type": "bytes4"
        }
      ],
      "name": "supportsInterface",
      "outputs": [
        {
          "internalType": "bool",
          "name": "",
          "type": "bool"
        }
      ],
      "stateMutability": "view",
      "type": "function"
    },
    {
      "inputs": [
        {
          "internalType": "uint256",
          "name": "winner",
          "type": "uint256"
        },
        {
          "internalType": "uint256",
          "name": "loser",
          "type": "uint256"
        }
      ],
      "name": "swapExperienceFor",
      "outputs": [
        {
          "internalType": "uint256",
          "name": "",
          "type": "uint256"
        }
      ],
      "stateMutability": "nonpayable",
      "type": "function"
    },
    {
      "inputs": [
        {
          "internalType": "uint256",
          "name": "id",
          "type": "uint256"
        },
        {
          "internalType": "address payable",
          "name": "receiver",
          "type": "address"
        }
      ],
      "name": "withdrawExperience",
      "outputs": [],
      "stateMutability": "nonpayable",
      "type": "function"
    },
    {
      "inputs": [
        {
          "internalType": "address payable",
          "name": "receiver",
          "type": "address"
        },
        {
          "internalType": "uint256",
          "name": "amount",
          "type": "uint256"
        }
      ],
      "name": "withdrawFromReserve",
      "outputs": [],
      "stateMutability": "nonpayable",
      "type": "function"
    }
  ],
  "bytecode": "0x60806040523480156200001157600080fd5b50620000276000801b336200002d60201b60201c565b620001a6565b6200003f82826200004360201b60201c565b5050565b6200005582826200013460201b60201c565b6200013057600160008084815260200190815260200160002060000160008373ffffffffffffffffffffffffffffffffffffffff1673ffffffffffffffffffffffffffffffffffffffff16815260200190815260200160002060006101000a81548160ff021916908315150217905550620000d56200019e60201b60201c565b73ffffffffffffffffffffffffffffffffffffffff168173ffffffffffffffffffffffffffffffffffffffff16837f2f8788117e7eff1d82e926ec794901d17c78024a50270940304540a733656f0d60405160405180910390a45b5050565b600080600084815260200190815260200160002060000160008373ffffffffffffffffffffffffffffffffffffffff1673ffffffffffffffffffffffffffffffffffffffff16815260200190815260200160002060009054906101000a900460ff16905092915050565b600033905090565b611e6780620001b66000396000f3fe6080604052600436106100f35760003560e01c8063a0712d681161008a578063d3e9716511610059578063d3e971651461032f578063d53913931461036c578063d547741f14610397578063ff5ee77f146103c0576100f3565b8063a0712d6814610292578063a217fddf146102ae578063cd3293de146102d9578063d134c13614610304576100f3565b80632f2ff15d116100c65780632f2ff15d146101d857806336568abe146102015780633b7345011461022a57806391d1485414610255576100f3565b806301ffc9a7146100f85780630a12b9d914610135578063248a9ca31461017257806327f576d1146101af575b600080fd5b34801561010457600080fd5b5061011f600480360381019061011a91906113e0565b6103e9565b60405161012c91906117e8565b60405180910390f35b34801561014157600080fd5b5061015c60048036038101906101579190611497565b610463565b6040516101699190611929565b60405180910390f35b34801561017e57600080fd5b506101996004803603810190610194919061137b565b610742565b6040516101a69190611803565b60405180910390f35b3480156101bb57600080fd5b506101d660048036038101906101d1919061133f565b610761565b005b3480156101e457600080fd5b506101ff60048036038101906101fa91906113a4565b6108a0565b005b34801561020d57600080fd5b50610228600480360381019061022391906113a4565b6108c9565b005b34801561023657600080fd5b5061023f61094c565b60405161024c9190611803565b60405180910390f35b34801561026157600080fd5b5061027c600480360381019061027791906113a4565b610970565b60405161028991906117e8565b60405180910390f35b6102ac60048036038101906102a79190611409565b6109da565b005b3480156102ba57600080fd5b506102c3610b0c565b6040516102d09190611803565b60405180910390f35b3480156102e557600080fd5b506102ee610b13565b6040516102fb9190611929565b60405180910390f35b34801561031057600080fd5b50610319610b1d565b6040516103269190611803565b60405180910390f35b34801561033b57600080fd5b5061035660048036038101906103519190611409565b610b41565b6040516103639190611929565b60405180910390f35b34801561037857600080fd5b50610381610b5e565b60405161038e9190611803565b60405180910390f35b3480156103a357600080fd5b506103be60048036038101906103b991906113a4565b610b82565b005b3480156103cc57600080fd5b506103e760048036038101906103e2919061145b565b610bab565b005b60007f7965db0b000000000000000000000000000000000000000000000000000000007bffffffffffffffffffffffffffffffffffffffffffffffffffffffff1916827bffffffffffffffffffffffffffffffffffffffffffffffffffffffff1916148061045c575061045b82610ce0565b5b9050919050565b60007f28d62fc77014de57a1bbaa8212ff0979fa61ab00d377b4b8d9762048fb41996161049781610492610d4a565b610d52565b600073__$785a3750a744651a4256c1a0a9b0861e2b$__632e9e2852600260008881526020019081526020016000205460026000888152602001908152602001600020546040518363ffffffff1660e01b81526004016104f8929190611944565b60206040518083038186803b15801561051057600080fd5b505af4158015610524573d6000803e3d6000fd5b505050506040513d601f19601f820116820180604052508101906105489190611432565b905060006103e88261055a9190611a13565b9050600260008681526020019081526020016000205482106105b1576040517f08c379a00000000000000000000000000000000000000000000000000000000081526004016105a8906118c9565b60405180910390fd5b73__$dd1ab798ac7c049bf7bfb1525e9810c58f$__63b83f21b583836040518363ffffffff1660e01b81526004016105ea929190611944565b60206040518083038186803b15801561060257600080fd5b505af4158015610616573d6000803e3d6000fd5b505050506040513d601f19601f8201168201806040525081019061063a9190611432565b91506000821161067f576040517f08c379a0000000000000000000000000000000000000000000000000000000008152600401610676906118a9565b60405180910390fd5b8181106106c1576040517f08c379a00000000000000000000000000000000000000000000000000000000081526004016106b8906118e9565b60405180910390fd5b6106ca81610def565b8160026000888152602001908152602001600020546106e991906119bd565b600260008881526020019081526020016000208190555081600260008781526020019081526020016000205461071f9190611c0f565b600260008781526020019081526020016000208190555081935050505092915050565b6000806000838152602001908152602001600020600101549050919050565b7fb7b0a8b00357f0e4c4a4839008cf90d61a23fe1c55511ea70753532d8bab02c56107938161078e610d4a565b610d52565b600082116107ca577f4e487b7100000000000000000000000000000000000000000000000000000000600052600160045260246000fd5b600154821115610803577f4e487b7100000000000000000000000000000000000000000000000000000000600052600160045260246000fd5b8273ffffffffffffffffffffffffffffffffffffffff166108fc839081150290604051600060405180830381858888f19350505050158015610849573d6000803e3d6000fd5b508273ffffffffffffffffffffffffffffffffffffffff167ffbc3a599b784fe88772fc5abcc07223f64ca0b13acc341f4fb1e46bef0510eb460008460405161089392919061181e565b60405180910390a2505050565b6108a982610742565b6108ba816108b5610d4a565b610d52565b6108c48383610e06565b505050565b6108d1610d4a565b73ffffffffffffffffffffffffffffffffffffffff168173ffffffffffffffffffffffffffffffffffffffff161461093e576040517f08c379a000000000000000000000000000000000000000000000000000000000815260040161093590611909565b60405180910390fd5b6109488282610ee6565b5050565b7f28d62fc77014de57a1bbaa8212ff0979fa61ab00d377b4b8d9762048fb41996181565b600080600084815260200190815260200160002060000160008373ffffffffffffffffffffffffffffffffffffffff1673ffffffffffffffffffffffffffffffffffffffff16815260200190815260200160002060009054906101000a900460ff16905092915050565b7f9f2df0fed2c77648de5860a4cc508cd0818c85b8b8a1ab4ceeef8d981c8956a6610a0c81610a07610d4a565b610d52565b6000600260008481526020019081526020016000205414610a56577f4e487b7100000000000000000000000000000000000000000000000000000000600052600160045260246000fd5b6012600a610a649190611a97565b3414610aa5576040517f08c379a0000000000000000000000000000000000000000000000000000000008152600401610a9c90611889565b60405180910390fd5b346002600084815260200190815260200160002081905550817ff5e4934928a1e45d88c7a5aa2661fe0a801ca5017922e15122d74f1880155e1a6002600085815260200190815260200160002054604051610b009190611929565b60405180910390a25050565b6000801b81565b6000600154905090565b7fb7b0a8b00357f0e4c4a4839008cf90d61a23fe1c55511ea70753532d8bab02c581565b600060026000838152602001908152602001600020549050919050565b7f9f2df0fed2c77648de5860a4cc508cd0818c85b8b8a1ab4ceeef8d981c8956a681565b610b8b82610742565b610b9c81610b97610d4a565b610d52565b610ba68383610ee6565b505050565b7f9f2df0fed2c77648de5860a4cc508cd0818c85b8b8a1ab4ceeef8d981c8956a6610bdd81610bd8610d4a565b610d52565b60006002600085815260200190815260200160002054905060008111610c2c577f4e487b7100000000000000000000000000000000000000000000000000000000600052600160045260246000fd5b8273ffffffffffffffffffffffffffffffffffffffff166108fc829081150290604051600060405180830381858888f19350505050158015610c72573d6000803e3d6000fd5b5060026000858152602001908152602001600020600090558273ffffffffffffffffffffffffffffffffffffffff167ffbc3a599b784fe88772fc5abcc07223f64ca0b13acc341f4fb1e46bef0510eb48583604051610cd292919061196d565b60405180910390a250505050565b60007f01ffc9a7000000000000000000000000000000000000000000000000000000007bffffffffffffffffffffffffffffffffffffffffffffffffffffffff1916827bffffffffffffffffffffffffffffffffffffffffffffffffffffffff1916149050919050565b600033905090565b610d5c8282610970565b610deb57610d818173ffffffffffffffffffffffffffffffffffffffff166014610fc7565b610d8f8360001c6020610fc7565b604051602001610da09291906117ae565b6040516020818303038152906040526040517f08c379a0000000000000000000000000000000000000000000000000000000008152600401610de29190611847565b60405180910390fd5b5050565b80600154610dfd91906119bd565b60018190555050565b610e108282610970565b610ee257600160008084815260200190815260200160002060000160008373ffffffffffffffffffffffffffffffffffffffff1673ffffffffffffffffffffffffffffffffffffffff16815260200190815260200160002060006101000a81548160ff021916908315150217905550610e87610d4a565b73ffffffffffffffffffffffffffffffffffffffff168173ffffffffffffffffffffffffffffffffffffffff16837f2f8788117e7eff1d82e926ec794901d17c78024a50270940304540a733656f0d60405160405180910390a45b5050565b610ef08282610970565b15610fc357600080600084815260200190815260200160002060000160008373ffffffffffffffffffffffffffffffffffffffff1673ffffffffffffffffffffffffffffffffffffffff16815260200190815260200160002060006101000a81548160ff021916908315150217905550610f68610d4a565b73ffffffffffffffffffffffffffffffffffffffff168173ffffffffffffffffffffffffffffffffffffffff16837ff6391f5c32d9c69d2a47ea670b442974b53935d1edc7fd64eb21e047a839171b60405160405180910390a45b5050565b606060006002836002610fda9190611bb5565b610fe491906119bd565b67ffffffffffffffff811115611023577f4e487b7100000000000000000000000000000000000000000000000000000000600052604160045260246000fd5b6040519080825280601f01601f1916602001820160405280156110555781602001600182028036833780820191505090505b5090507f3000000000000000000000000000000000000000000000000000000000000000816000815181106110b3577f4e487b7100000000000000000000000000000000000000000000000000000000600052603260045260246000fd5b60200101907effffffffffffffffffffffffffffffffffffffffffffffffffffffffffffff1916908160001a9053507f78000000000000000000000000000000000000000000000000000000000000008160018151811061113d577f4e487b7100000000000000000000000000000000000000000000000000000000600052603260045260246000fd5b60200101907effffffffffffffffffffffffffffffffffffffffffffffffffffffffffffff1916908160001a9053506000600184600261117d9190611bb5565b61118791906119bd565b90505b6001811115611273577f3031323334353637383961626364656600000000000000000000000000000000600f8616601081106111ef577f4e487b7100000000000000000000000000000000000000000000000000000000600052603260045260246000fd5b1a60f81b82828151811061122c577f4e487b7100000000000000000000000000000000000000000000000000000000600052603260045260246000fd5b60200101907effffffffffffffffffffffffffffffffffffffffffffffffffffffffffffff1916908160001a905350600485901c94508061126c90611d18565b905061118a565b50600084146112b7576040517f08c379a00000000000000000000000000000000000000000000000000000000081526004016112ae90611869565b60405180910390fd5b8091505092915050565b6000813590506112d081611dbe565b92915050565b6000813590506112e581611dd5565b92915050565b6000813590506112fa81611dec565b92915050565b60008135905061130f81611e03565b92915050565b60008135905061132481611e1a565b92915050565b60008151905061133981611e1a565b92915050565b6000806040838503121561135257600080fd5b6000611360858286016112d6565b925050602061137185828601611315565b9150509250929050565b60006020828403121561138d57600080fd5b600061139b848285016112eb565b91505092915050565b600080604083850312156113b757600080fd5b60006113c5858286016112eb565b92505060206113d6858286016112c1565b9150509250929050565b6000602082840312156113f257600080fd5b600061140084828501611300565b91505092915050565b60006020828403121561141b57600080fd5b600061142984828501611315565b91505092915050565b60006020828403121561144457600080fd5b60006114528482850161132a565b91505092915050565b6000806040838503121561146e57600080fd5b600061147c85828601611315565b925050602061148d858286016112d6565b9150509250929050565b600080604083850312156114aa57600080fd5b60006114b885828601611315565b92505060206114c985828601611315565b9150509250929050565b6114dc81611c67565b82525050565b6114eb81611c73565b82525050565b6114fa81611cd3565b82525050565b600061150b82611996565b61151581856119a1565b9350611525818560208601611ce5565b61152e81611da0565b840191505092915050565b600061154482611996565b61154e81856119b2565b935061155e818560208601611ce5565b80840191505092915050565b60006115776020836119a1565b91507f537472696e67733a20686578206c656e67746820696e73756666696369656e746000830152602082019050919050565b60006115b76011836119a1565b91507f496e76616c6964206d696e7420666565210000000000000000000000000000006000830152602082019050919050565b60006115f7600d836119a1565b91507f4e6f20657020746f2073776170000000000000000000000000000000000000006000830152602082019050919050565b60006116376015836119a1565b91507f74686973207377617020697320696c6c6567616c2100000000000000000000006000830152602082019050919050565b6000611677600a836119a1565b91507f6d617468206572726f72000000000000000000000000000000000000000000006000830152602082019050919050565b60006116b76017836119b2565b91507f416363657373436f6e74726f6c3a206163636f756e74200000000000000000006000830152601782019050919050565b60006116f76011836119b2565b91507f206973206d697373696e6720726f6c65200000000000000000000000000000006000830152601182019050919050565b6000611737602f836119a1565b91507f416363657373436f6e74726f6c3a2063616e206f6e6c792072656e6f756e636560008301527f20726f6c657320666f722073656c6600000000000000000000000000000000006020830152604082019050919050565b61179981611cc9565b82525050565b6117a881611cc9565b82525050565b60006117b9826116aa565b91506117c58285611539565b91506117d0826116ea565b91506117dc8284611539565b91508190509392505050565b60006020820190506117fd60008301846114d3565b92915050565b600060208201905061181860008301846114e2565b92915050565b600060408201905061183360008301856114f1565b6118406020830184611790565b9392505050565b600060208201905081810360008301526118618184611500565b905092915050565b600060208201905081810360008301526118828161156a565b9050919050565b600060208201905081810360008301526118a2816115aa565b9050919050565b600060208201905081810360008301526118c2816115ea565b9050919050565b600060208201905081810360008301526118e28161162a565b9050919050565b600060208201905081810360008301526119028161166a565b9050919050565b600060208201905081810360008301526119228161172a565b9050919050565b600060208201905061193e6000830184611790565b92915050565b6000604082019050611959600083018561179f565b611966602083018461179f565b9392505050565b60006040820190506119826000830185611790565b61198f6020830184611790565b9392505050565b600081519050919050565b600082825260208201905092915050565b600081905092915050565b60006119c882611cc9565b91506119d383611cc9565b9250827fffffffffffffffffffffffffffffffffffffffffffffffffffffffffffffffff03821115611a0857611a07611d42565b5b828201905092915050565b6000611a1e82611cc9565b9150611a2983611cc9565b925082611a3957611a38611d71565b5b828204905092915050565b6000808291508390505b6001851115611a8e57808604811115611a6a57611a69611d42565b5b6001851615611a795780820291505b8081029050611a8785611db1565b9450611a4e565b94509492505050565b6000611aa282611cc9565b9150611aad83611cc9565b9250611ada7fffffffffffffffffffffffffffffffffffffffffffffffffffffffffffffffff8484611ae2565b905092915050565b600082611af25760019050611bae565b81611b005760009050611bae565b8160018114611b165760028114611b2057611b4f565b6001915050611bae565b60ff841115611b3257611b31611d42565b5b8360020a915084821115611b4957611b48611d42565b5b50611bae565b5060208310610133831016604e8410600b8410161715611b845782820a905083811115611b7f57611b7e611d42565b5b611bae565b611b918484846001611a44565b92509050818404811115611ba857611ba7611d42565b5b81810290505b9392505050565b6000611bc082611cc9565b9150611bcb83611cc9565b9250817fffffffffffffffffffffffffffffffffffffffffffffffffffffffffffffffff0483118215151615611c0457611c03611d42565b5b828202905092915050565b6000611c1a82611cc9565b9150611c2583611cc9565b925082821015611c3857611c37611d42565b5b828203905092915050565b6000611c4e82611ca9565b9050919050565b6000611c6082611ca9565b9050919050565b60008115159050919050565b6000819050919050565b60007fffffffff0000000000000000000000000000000000000000000000000000000082169050919050565b600073ffffffffffffffffffffffffffffffffffffffff82169050919050565b6000819050919050565b6000611cde82611cc9565b9050919050565b60005b83811015611d03578082015181840152602081019050611ce8565b83811115611d12576000848401525b50505050565b6000611d2382611cc9565b91506000821415611d3757611d36611d42565b5b600182039050919050565b7f4e487b7100000000000000000000000000000000000000000000000000000000600052601160045260246000fd5b7f4e487b7100000000000000000000000000000000000000000000000000000000600052601260045260246000fd5b6000601f19601f8301169050919050565b60008160011c9050919050565b611dc781611c43565b8114611dd257600080fd5b50565b611dde81611c55565b8114611de957600080fd5b50565b611df581611c73565b8114611e0057600080fd5b50565b611e0c81611c7d565b8114611e1757600080fd5b50565b611e2381611cc9565b8114611e2e57600080fd5b5056fea264697066735822122054df07ab010cff8a29d0f88621cc4f0df488e2a97adb6948c141440f3645ec1b64736f6c63430008000033",
  "linkReferences": {
    "contracts/lib/Compute.sol": {
      "Compute": [
        {
          "length": 20,
          "start": 1617
        }
      ]
    },
    "contracts/lib/Math.sol": {
      "Math": [
        {
          "length": 20,
          "start": 1897
        }
      ]
    }
  },
  "deployedLinkReferences": {
    "contracts/lib/Compute.sol": {
      "Compute": [
        {
          "length": 20,
          "start": 1179
        }
      ]
    },
    "contracts/lib/Math.sol": {
      "Math": [
        {
          "length": 20,
          "start": 1459
        }
      ]
    }
  }
}