{
  "_format": "hh-sol-artifact-1",
  "contractName": "Treasury",
  "sourceName": "contracts/Treasury.sol",
  "abi": [
    {
      "anonymous": false,
      "inputs": [
        {
          "indexed": false,
          "internalType": "uint256",
          "name": "id",
          "type": "uint256"
        },
        {
          "indexed": false,
          "internalType": "uint256",
          "name": "amount",
          "type": "uint256"
        }
      ],
      "name": "FundsAdded",
      "type": "event"
    },
    {
      "anonymous": false,
      "inputs": [
        {
          "indexed": false,
          "internalType": "uint256",
          "name": "id",
          "type": "uint256"
        },
        {
          "indexed": false,
          "internalType": "uint256",
          "name": "amount",
          "type": "uint256"
        }
      ],
      "name": "FundsWithdrawn",
      "type": "event"
    },
    {
      "anonymous": false,
      "inputs": [
        {
          "indexed": true,
          "internalType": "address",
          "name": "previousOwner",
          "type": "address"
        },
        {
          "indexed": true,
          "internalType": "address",
          "name": "newOwner",
          "type": "address"
        }
      ],
      "name": "OwnershipTransferred",
      "type": "event"
    },
    {
      "inputs": [
        {
          "internalType": "uint256",
          "name": "id",
          "type": "uint256"
        }
      ],
      "name": "experience",
      "outputs": [
        {
          "internalType": "uint256",
          "name": "",
          "type": "uint256"
        }
      ],
      "stateMutability": "view",
      "type": "function"
    },
    {
      "inputs": [
        {
          "internalType": "uint256",
          "name": "id",
          "type": "uint256"
        }
      ],
      "name": "mint",
      "outputs": [],
      "stateMutability": "payable",
      "type": "function"
    },
    {
      "inputs": [],
      "name": "owner",
      "outputs": [
        {
          "internalType": "address",
          "name": "",
          "type": "address"
        }
      ],
      "stateMutability": "view",
      "type": "function"
    },
    {
      "inputs": [],
      "name": "renounceOwnership",
      "outputs": [],
      "stateMutability": "nonpayable",
      "type": "function"
    },
    {
      "inputs": [],
      "name": "reserve",
      "outputs": [
        {
          "internalType": "uint256",
          "name": "",
          "type": "uint256"
        }
      ],
      "stateMutability": "view",
      "type": "function"
    },
    {
      "inputs": [
        {
          "internalType": "address",
          "name": "addr",
          "type": "address"
        },
        {
          "internalType": "bool",
          "name": "allow",
          "type": "bool"
        }
      ],
      "name": "setModule",
      "outputs": [],
      "stateMutability": "nonpayable",
      "type": "function"
    },
    {
      "inputs": [
        {
          "internalType": "uint256",
          "name": "winner",
          "type": "uint256"
        },
        {
          "internalType": "uint256",
          "name": "loser",
          "type": "uint256"
        }
      ],
      "name": "swapExperienceFor",
      "outputs": [],
      "stateMutability": "nonpayable",
      "type": "function"
    },
    {
      "inputs": [
        {
          "internalType": "address",
          "name": "newOwner",
          "type": "address"
        }
      ],
      "name": "transferOwnership",
      "outputs": [],
      "stateMutability": "nonpayable",
      "type": "function"
    },
    {
      "inputs": [
        {
          "internalType": "uint256",
          "name": "id",
          "type": "uint256"
        },
        {
          "internalType": "address payable",
          "name": "receiver",
          "type": "address"
        }
      ],
      "name": "withdrawExperience",
      "outputs": [],
      "stateMutability": "nonpayable",
      "type": "function"
    },
    {
      "inputs": [
        {
          "internalType": "address payable",
          "name": "receiver",
          "type": "address"
        },
        {
          "internalType": "uint256",
          "name": "amount",
          "type": "uint256"
        }
      ],
      "name": "withdrawFromReserve",
      "outputs": [],
      "stateMutability": "nonpayable",
      "type": "function"
    }
  ],
  "bytecode": "0x608060405234801561001057600080fd5b5061002d61002261003260201b60201c565b61003a60201b60201c565b6100fe565b600033905090565b60008060009054906101000a900473ffffffffffffffffffffffffffffffffffffffff169050816000806101000a81548173ffffffffffffffffffffffffffffffffffffffff021916908373ffffffffffffffffffffffffffffffffffffffff1602179055508173ffffffffffffffffffffffffffffffffffffffff168173ffffffffffffffffffffffffffffffffffffffff167f8be0079c531659141344cd1fd0a4f28419497f9722a3daafe3b4186f6b6457e060405160405180910390a35050565b6116df8061010d6000396000f3fe6080604052600436106100915760003560e01c8063b1662d5811610059578063b1662d5814610146578063cd3293de1461016f578063d3e971651461019a578063f2fde38b146101d7578063ff5ee77f1461020057610091565b80630a12b9d91461009657806327f576d1146100bf578063715018a6146100e85780638da5cb5b146100ff578063a0712d681461012a575b600080fd5b3480156100a257600080fd5b506100bd60048036038101906100b89190610f4a565b610229565b005b3480156100cb57600080fd5b506100e660048036038101906100e19190610e44565b61055a565b005b3480156100f457600080fd5b506100fd6106cb565b005b34801561010b57600080fd5b50610114610753565b60405161012191906111a8565b60405180910390f35b610144600480360381019061013f9190610ebc565b61077c565b005b34801561015257600080fd5b5061016d60048036038101906101689190610e80565b610908565b005b34801561017b57600080fd5b50610184610a39565b60405161019191906112cc565b60405180910390f35b3480156101a657600080fd5b506101c160048036038101906101bc9190610ebc565b610a43565b6040516101ce91906112cc565b60405180910390f35b3480156101e357600080fd5b506101fe60048036038101906101f99190610e1b565b610a60565b005b34801561020c57600080fd5b5061022760048036038101906102229190610f0e565b610b58565b005b600160003373ffffffffffffffffffffffffffffffffffffffff1673ffffffffffffffffffffffffffffffffffffffff16815260200190815260200160002060009054906101000a900460ff166102b5576040517f08c379a00000000000000000000000000000000000000000000000000000000081526004016102ac9061122c565b60405180910390fd5b600073__$785a3750a744651a4256c1a0a9b0861e2b$__632e9e2852600360008681526020019081526020016000205460036000868152602001908152602001600020546040518363ffffffff1660e01b81526004016103169291906112e7565b60206040518083038186803b15801561032e57600080fd5b505af4158015610342573d6000803e3d6000fd5b505050506040513d601f19601f820116820180604052508101906103669190610ee5565b905060006103e88261037891906113a0565b9050600360008481526020019081526020016000205482106103cf576040517f08c379a00000000000000000000000000000000000000000000000000000000081526004016103c69061128c565b60405180910390fd5b73__$dd1ab798ac7c049bf7bfb1525e9810c58f$__63b83f21b583836040518363ffffffff1660e01b81526004016104089291906112e7565b60206040518083038186803b15801561042057600080fd5b505af4158015610434573d6000803e3d6000fd5b505050506040513d601f19601f820116820180604052508101906104589190610ee5565b91506000821161049d576040517f08c379a00000000000000000000000000000000000000000000000000000000081526004016104949061124c565b60405180910390fd5b8181106104df576040517f08c379a00000000000000000000000000000000000000000000000000000000081526004016104d6906112ac565b60405180910390fd5b6104e881610ccf565b816003600086815260200190815260200160002054610507919061134a565b600360008681526020019081526020016000208190555081600360008581526020019081526020016000205461053d9190611542565b600360008581526020019081526020016000208190555050505050565b610562610ce6565b73ffffffffffffffffffffffffffffffffffffffff16610580610753565b73ffffffffffffffffffffffffffffffffffffffff16146105d6576040517f08c379a00000000000000000000000000000000000000000000000000000000081526004016105cd9061126c565b60405180910390fd5b6000811161060d577f4e487b7100000000000000000000000000000000000000000000000000000000600052600160045260246000fd5b600254811115610646577f4e487b7100000000000000000000000000000000000000000000000000000000600052600160045260246000fd5b8173ffffffffffffffffffffffffffffffffffffffff166108fc829081150290604051600060405180830381858888f1935050505015801561068c573d6000803e3d6000fd5b507fd66662c0ded9e58fd31d5e44944bcfd07ffc15e6927ecc1382e7941cb7bd24c46000826040516106bf9291906111c3565b60405180910390a15050565b6106d3610ce6565b73ffffffffffffffffffffffffffffffffffffffff166106f1610753565b73ffffffffffffffffffffffffffffffffffffffff1614610747576040517f08c379a000000000000000000000000000000000000000000000000000000000815260040161073e9061126c565b60405180910390fd5b6107516000610cee565b565b60008060009054906101000a900473ffffffffffffffffffffffffffffffffffffffff16905090565b600160003373ffffffffffffffffffffffffffffffffffffffff1673ffffffffffffffffffffffffffffffffffffffff16815260200190815260200160002060009054906101000a900460ff16610808576040517f08c379a00000000000000000000000000000000000000000000000000000000081526004016107ff9061122c565b60405180910390fd5b6000600360008381526020019081526020016000205414610852577f4e487b7100000000000000000000000000000000000000000000000000000000600052600160045260246000fd5b6012600a6108609190611424565b34146108a1576040517f08c379a0000000000000000000000000000000000000000000000000000000008152600401610898906111ec565b60405180910390fd5b3460036000838152602001908152602001600020819055507ff5e4934928a1e45d88c7a5aa2661fe0a801ca5017922e15122d74f1880155e1a8160036000848152602001908152602001600020546040516108fd929190611310565b60405180910390a150565b610910610ce6565b73ffffffffffffffffffffffffffffffffffffffff1661092e610753565b73ffffffffffffffffffffffffffffffffffffffff1614610984576040517f08c379a000000000000000000000000000000000000000000000000000000000815260040161097b9061126c565b60405180910390fd5b806109dd57600160008373ffffffffffffffffffffffffffffffffffffffff1673ffffffffffffffffffffffffffffffffffffffff16815260200190815260200160002060006101000a81549060ff0219169055610a35565b60018060008473ffffffffffffffffffffffffffffffffffffffff1673ffffffffffffffffffffffffffffffffffffffff16815260200190815260200160002060006101000a81548160ff0219169083151502179055505b5050565b6000600254905090565b600060036000838152602001908152602001600020549050919050565b610a68610ce6565b73ffffffffffffffffffffffffffffffffffffffff16610a86610753565b73ffffffffffffffffffffffffffffffffffffffff1614610adc576040517f08c379a0000000000000000000000000000000000000000000000000000000008152600401610ad39061126c565b60405180910390fd5b600073ffffffffffffffffffffffffffffffffffffffff168173ffffffffffffffffffffffffffffffffffffffff161415610b4c576040517f08c379a0000000000000000000000000000000000000000000000000000000008152600401610b439061120c565b60405180910390fd5b610b5581610cee565b50565b600160003373ffffffffffffffffffffffffffffffffffffffff1673ffffffffffffffffffffffffffffffffffffffff16815260200190815260200160002060009054906101000a900460ff16610be4576040517f08c379a0000000000000000000000000000000000000000000000000000000008152600401610bdb9061122c565b60405180910390fd5b60006003600084815260200190815260200160002054905060008111610c33577f4e487b7100000000000000000000000000000000000000000000000000000000600052600160045260246000fd5b8173ffffffffffffffffffffffffffffffffffffffff166108fc829081150290604051600060405180830381858888f19350505050158015610c79573d6000803e3d6000fd5b5060036000848152602001908152602001600020600090557fd66662c0ded9e58fd31d5e44944bcfd07ffc15e6927ecc1382e7941cb7bd24c48382604051610cc2929190611310565b60405180910390a1505050565b80600254610cdd919061134a565b60028190555050565b600033905090565b60008060009054906101000a900473ffffffffffffffffffffffffffffffffffffffff169050816000806101000a81548173ffffffffffffffffffffffffffffffffffffffff021916908373ffffffffffffffffffffffffffffffffffffffff1602179055508173ffffffffffffffffffffffffffffffffffffffff168173ffffffffffffffffffffffffffffffffffffffff167f8be0079c531659141344cd1fd0a4f28419497f9722a3daafe3b4186f6b6457e060405160405180910390a35050565b600081359050610dc18161164d565b92915050565b600081359050610dd681611664565b92915050565b600081359050610deb8161167b565b92915050565b600081359050610e0081611692565b92915050565b600081519050610e1581611692565b92915050565b600060208284031215610e2d57600080fd5b6000610e3b84828501610db2565b91505092915050565b60008060408385031215610e5757600080fd5b6000610e6585828601610dc7565b9250506020610e7685828601610df1565b9150509250929050565b60008060408385031215610e9357600080fd5b6000610ea185828601610db2565b9250506020610eb285828601610ddc565b9150509250929050565b600060208284031215610ece57600080fd5b6000610edc84828501610df1565b91505092915050565b600060208284031215610ef757600080fd5b6000610f0584828501610e06565b91505092915050565b60008060408385031215610f2157600080fd5b6000610f2f85828601610df1565b9250506020610f4085828601610dc7565b9150509250929050565b60008060408385031215610f5d57600080fd5b6000610f6b85828601610df1565b9250506020610f7c85828601610df1565b9150509250929050565b610f8f81611576565b82525050565b610f9e816115d0565b82525050565b6000610fb1601183611339565b91507f496e76616c6964206d696e7420666565210000000000000000000000000000006000830152602082019050919050565b6000610ff1602683611339565b91507f4f776e61626c653a206e6577206f776e657220697320746865207a65726f206160008301527f64647265737300000000000000000000000000000000000000000000000000006020830152604082019050919050565b6000611057601883611339565b91507f6f6e6c79206d6f64756c65732063616e20646f207468697300000000000000006000830152602082019050919050565b6000611097600d83611339565b91507f4e6f20657020746f2073776170000000000000000000000000000000000000006000830152602082019050919050565b60006110d7602083611339565b91507f4f776e61626c653a2063616c6c6572206973206e6f7420746865206f776e65726000830152602082019050919050565b6000611117601583611339565b91507f74686973207377617020697320696c6c6567616c2100000000000000000000006000830152602082019050919050565b6000611157600a83611339565b91507f6d617468206572726f72000000000000000000000000000000000000000000006000830152602082019050919050565b611193816115c6565b82525050565b6111a2816115c6565b82525050565b60006020820190506111bd6000830184610f86565b92915050565b60006040820190506111d86000830185610f95565b6111e5602083018461118a565b9392505050565b6000602082019050818103600083015261120581610fa4565b9050919050565b6000602082019050818103600083015261122581610fe4565b9050919050565b600060208201905081810360008301526112458161104a565b9050919050565b600060208201905081810360008301526112658161108a565b9050919050565b60006020820190508181036000830152611285816110ca565b9050919050565b600060208201905081810360008301526112a58161110a565b9050919050565b600060208201905081810360008301526112c58161114a565b9050919050565b60006020820190506112e1600083018461118a565b92915050565b60006040820190506112fc6000830185611199565b6113096020830184611199565b9392505050565b6000604082019050611325600083018561118a565b611332602083018461118a565b9392505050565b600082825260208201905092915050565b6000611355826115c6565b9150611360836115c6565b9250827fffffffffffffffffffffffffffffffffffffffffffffffffffffffffffffffff03821115611395576113946115e2565b5b828201905092915050565b60006113ab826115c6565b91506113b6836115c6565b9250826113c6576113c5611611565b5b828204905092915050565b6000808291508390505b600185111561141b578086048111156113f7576113f66115e2565b5b60018516156114065780820291505b808102905061141485611640565b94506113db565b94509492505050565b600061142f826115c6565b915061143a836115c6565b92506114677fffffffffffffffffffffffffffffffffffffffffffffffffffffffffffffffff848461146f565b905092915050565b60008261147f576001905061153b565b8161148d576000905061153b565b81600181146114a357600281146114ad576114dc565b600191505061153b565b60ff8411156114bf576114be6115e2565b5b8360020a9150848211156114d6576114d56115e2565b5b5061153b565b5060208310610133831016604e8410600b84101617156115115782820a90508381111561150c5761150b6115e2565b5b61153b565b61151e84848460016113d1565b92509050818404811115611535576115346115e2565b5b81810290505b9392505050565b600061154d826115c6565b9150611558836115c6565b92508282101561156b5761156a6115e2565b5b828203905092915050565b6000611581826115a6565b9050919050565b6000611593826115a6565b9050919050565b60008115159050919050565b600073ffffffffffffffffffffffffffffffffffffffff82169050919050565b6000819050919050565b60006115db826115c6565b9050919050565b7f4e487b7100000000000000000000000000000000000000000000000000000000600052601160045260246000fd5b7f4e487b7100000000000000000000000000000000000000000000000000000000600052601260045260246000fd5b60008160011c9050919050565b61165681611576565b811461166157600080fd5b50565b61166d81611588565b811461167857600080fd5b50565b6116848161159a565b811461168f57600080fd5b50565b61169b816115c6565b81146116a657600080fd5b5056fea26469706673582212200f9dcc005c51ee766d1de0e8c41215b1b3fde43822cf48b8d8ceb668c340577064736f6c63430008000033",
  "linkReferences": {
    "contracts/lib/Compute.sol": {
      "Compute": [
        {
          "length": 20,
          "start": 966
        }
      ]
    },
    "contracts/lib/Math.sol": {
      "Math": [
        {
          "length": 20,
          "start": 1246
        }
      ]
    }
  },
  "deployedLinkReferences": {
    "contracts/lib/Compute.sol": {
      "Compute": [
        {
          "length": 20,
          "start": 697
        }
      ]
    },
    "contracts/lib/Math.sol": {
      "Math": [
        {
          "length": 20,
          "start": 977
        }
      ]
    }
  }
}