{
  "_format": "hh-sol-artifact-1",
  "contractName": "WarriorStats",
  "sourceName": "contracts/WarriorStats.sol",
  "abi": [
    {
      "inputs": [],
      "stateMutability": "nonpayable",
      "type": "constructor"
    },
    {
      "anonymous": false,
      "inputs": [
        {
          "indexed": true,
          "internalType": "bytes32",
          "name": "role",
          "type": "bytes32"
        },
        {
          "indexed": true,
          "internalType": "bytes32",
          "name": "previousAdminRole",
          "type": "bytes32"
        },
        {
          "indexed": true,
          "internalType": "bytes32",
          "name": "newAdminRole",
          "type": "bytes32"
        }
      ],
      "name": "RoleAdminChanged",
      "type": "event"
    },
    {
      "anonymous": false,
      "inputs": [
        {
          "indexed": true,
          "internalType": "bytes32",
          "name": "role",
          "type": "bytes32"
        },
        {
          "indexed": true,
          "internalType": "address",
          "name": "account",
          "type": "address"
        },
        {
          "indexed": true,
          "internalType": "address",
          "name": "sender",
          "type": "address"
        }
      ],
      "name": "RoleGranted",
      "type": "event"
    },
    {
      "anonymous": false,
      "inputs": [
        {
          "indexed": true,
          "internalType": "bytes32",
          "name": "role",
          "type": "bytes32"
        },
        {
          "indexed": true,
          "internalType": "address",
          "name": "account",
          "type": "address"
        },
        {
          "indexed": true,
          "internalType": "address",
          "name": "sender",
          "type": "address"
        }
      ],
      "name": "RoleRevoked",
      "type": "event"
    },
    {
      "inputs": [],
      "name": "CHANGE_ROLE",
      "outputs": [
        {
          "internalType": "bytes32",
          "name": "",
          "type": "bytes32"
        }
      ],
      "stateMutability": "view",
      "type": "function"
    },
    {
      "inputs": [],
      "name": "DEFAULT_ADMIN_ROLE",
      "outputs": [
        {
          "internalType": "bytes32",
          "name": "",
          "type": "bytes32"
        }
      ],
      "stateMutability": "view",
      "type": "function"
    },
    {
      "inputs": [],
      "name": "LEADERBOARD_LENGTH",
      "outputs": [
        {
          "internalType": "uint8",
          "name": "",
          "type": "uint8"
        }
      ],
      "stateMutability": "view",
      "type": "function"
    },
    {
      "inputs": [],
      "name": "MINTER_ROLE",
      "outputs": [
        {
          "internalType": "bytes32",
          "name": "",
          "type": "bytes32"
        }
      ],
      "stateMutability": "view",
      "type": "function"
    },
    {
      "inputs": [
        {
          "internalType": "uint256",
          "name": "id",
          "type": "uint256"
        }
      ],
      "name": "burn",
      "outputs": [],
      "stateMutability": "nonpayable",
      "type": "function"
    },
    {
      "inputs": [
        {
          "internalType": "bytes32",
          "name": "role",
          "type": "bytes32"
        }
      ],
      "name": "getRoleAdmin",
      "outputs": [
        {
          "internalType": "bytes32",
          "name": "",
          "type": "bytes32"
        }
      ],
      "stateMutability": "view",
      "type": "function"
    },
    {
      "inputs": [
        {
          "internalType": "bytes32",
          "name": "role",
          "type": "bytes32"
        },
        {
          "internalType": "address",
          "name": "account",
          "type": "address"
        }
      ],
      "name": "grantRole",
      "outputs": [],
      "stateMutability": "nonpayable",
      "type": "function"
    },
    {
      "inputs": [
        {
          "internalType": "bytes32",
          "name": "role",
          "type": "bytes32"
        },
        {
          "internalType": "address",
          "name": "account",
          "type": "address"
        }
      ],
      "name": "hasRole",
      "outputs": [
        {
          "internalType": "bool",
          "name": "",
          "type": "bool"
        }
      ],
      "stateMutability": "view",
      "type": "function"
    },
    {
      "inputs": [
        {
          "internalType": "uint256",
          "name": "winner",
          "type": "uint256"
        },
        {
          "internalType": "uint256",
          "name": "loser",
          "type": "uint256"
        }
      ],
      "name": "increaseBattleStats",
      "outputs": [],
      "stateMutability": "nonpayable",
      "type": "function"
    },
    {
      "inputs": [
        {
          "internalType": "uint256",
          "name": "start",
          "type": "uint256"
        },
        {
          "internalType": "uint8",
          "name": "size",
          "type": "uint8"
        }
      ],
      "name": "leaderboard",
      "outputs": [
        {
          "internalType": "uint256[]",
          "name": "",
          "type": "uint256[]"
        }
      ],
      "stateMutability": "view",
      "type": "function"
    },
    {
      "inputs": [
        {
          "internalType": "uint256",
          "name": "id",
          "type": "uint256"
        }
      ],
      "name": "mint",
      "outputs": [],
      "stateMutability": "nonpayable",
      "type": "function"
    },
    {
      "inputs": [
        {
          "internalType": "bytes32",
          "name": "role",
          "type": "bytes32"
        },
        {
          "internalType": "address",
          "name": "account",
          "type": "address"
        }
      ],
      "name": "renounceRole",
      "outputs": [],
      "stateMutability": "nonpayable",
      "type": "function"
    },
    {
      "inputs": [
        {
          "internalType": "bytes32",
          "name": "role",
          "type": "bytes32"
        },
        {
          "internalType": "address",
          "name": "account",
          "type": "address"
        }
      ],
      "name": "revokeRole",
      "outputs": [],
      "stateMutability": "nonpayable",
      "type": "function"
    },
    {
      "inputs": [
        {
          "internalType": "uint256",
          "name": "id",
          "type": "uint256"
        }
      ],
      "name": "stats",
      "outputs": [
        {
          "components": [
            {
              "internalType": "uint256",
              "name": "battlesWon",
              "type": "uint256"
            },
            {
              "internalType": "uint256",
              "name": "battlesLost",
              "type": "uint256"
            },
            {
              "internalType": "bool",
              "name": "_exists",
              "type": "bool"
            }
          ],
          "internalType": "struct StatsLib.Stats",
          "name": "",
          "type": "tuple"
        }
      ],
      "stateMutability": "view",
      "type": "function"
    },
    {
      "inputs": [
        {
          "internalType": "bytes4",
          "name": "interfaceId",
          "type": "bytes4"
        }
      ],
      "name": "supportsInterface",
      "outputs": [
        {
          "internalType": "bool",
          "name": "",
          "type": "bool"
        }
      ],
      "stateMutability": "view",
      "type": "function"
    },
    {
      "inputs": [
        {
          "internalType": "uint256",
          "name": "id",
          "type": "uint256"
        }
      ],
      "name": "warriorStats",
      "outputs": [
        {
          "internalType": "uint256",
          "name": "",
          "type": "uint256"
        },
        {
          "internalType": "uint256",
          "name": "",
          "type": "uint256"
        }
      ],
      "stateMutability": "view",
      "type": "function"
    }
  ],
  "bytecode": "0x60806040523480156200001157600080fd5b50620000276000801b336200002d60201b60201c565b620001a6565b6200003f82826200004360201b60201c565b5050565b6200005582826200013460201b60201c565b6200013057600160008084815260200190815260200160002060000160008373ffffffffffffffffffffffffffffffffffffffff1673ffffffffffffffffffffffffffffffffffffffff16815260200190815260200160002060006101000a81548160ff021916908315150217905550620000d56200019e60201b60201c565b73ffffffffffffffffffffffffffffffffffffffff168173ffffffffffffffffffffffffffffffffffffffff16837f2f8788117e7eff1d82e926ec794901d17c78024a50270940304540a733656f0d60405160405180910390a45b5050565b600080600084815260200190815260200160002060000160008373ffffffffffffffffffffffffffffffffffffffff1673ffffffffffffffffffffffffffffffffffffffff16815260200190815260200160002060009054906101000a900460ff16905092915050565b600033905090565b611fd680620001b66000396000f3fe608060405234801561001057600080fd5b50600436106101005760003560e01c806391d1485411610097578063c81f7c5211610066578063c81f7c52146102c0578063d5391393146102dc578063d547741f146102fa578063e09d91811461031657610100565b806391d1485414610226578063a0712d6814610256578063a217fddf14610272578063ad217ae51461029057610100565b806342966c68116100d357806342966c681461019d5780635de2e428146101b957806372f29340146101d75780638db6fd58146101f557610100565b806301ffc9a714610105578063248a9ca3146101355780632f2ff15d1461016557806336568abe14610181575b600080fd5b61011f600480360381019061011a91906116cb565b610346565b60405161012c9190611b16565b60405180910390f35b61014f600480360381019061014a9190611666565b6103c0565b60405161015c9190611b31565b60405180910390f35b61017f600480360381019061017a919061168f565b6103df565b005b61019b6004803603810190610196919061168f565b610408565b005b6101b760048036038101906101b291906116f4565b61048b565b005b6101c16104fb565b6040516101ce9190611c0d565b60405180910390f35b6101df610500565b6040516101ec9190611b31565b60405180910390f35b61020f600480360381019061020a91906116f4565b610524565b60405161021d929190611be4565b60405180910390f35b610240600480360381019061023b919061168f565b61055e565b60405161024d9190611b16565b60405180910390f35b610270600480360381019061026b91906116f4565b6105c8565b005b61027a6106a5565b6040516102879190611b31565b60405180910390f35b6102aa60048036038101906102a591906116f4565b6106ac565b6040516102b79190611bae565b60405180910390f35b6102da60048036038101906102d5919061171d565b610708565b005b6102e46107c0565b6040516102f19190611b31565b60405180910390f35b610314600480360381019061030f919061168f565b6107e4565b005b610330600480360381019061032b9190611759565b61080d565b60405161033d9190611af4565b60405180910390f35b60007f7965db0b000000000000000000000000000000000000000000000000000000007bffffffffffffffffffffffffffffffffffffffffffffffffffffffff1916827bffffffffffffffffffffffffffffffffffffffffffffffffffffffff191614806103b957506103b882610962565b5b9050919050565b6000806000838152602001908152602001600020600101549050919050565b6103e8826103c0565b6103f9816103f46109cc565b6109d4565b6104038383610a71565b505050565b6104106109cc565b73ffffffffffffffffffffffffffffffffffffffff168173ffffffffffffffffffffffffffffffffffffffff161461047d576040517f08c379a000000000000000000000000000000000000000000000000000000000815260040161047490611b8e565b60405180910390fd5b6104878282610b51565b5050565b7f9f2df0fed2c77648de5860a4cc508cd0818c85b8b8a1ab4ceeef8d981c8956a66104bd816104b86109cc565b6109d4565b6001600083815260200190815260200160002060008082016000905560018201600090556002820160006101000a81549060ff021916905550505050565b603281565b7f5ef52737852c52d2211e81450fc3850cd8f44f8344ad3b406fdca6ea6d0bac7e81565b6000806001600084815260200190815260200160002060000154600160008581526020019081526020016000206001015491509150915091565b600080600084815260200190815260200160002060000160008373ffffffffffffffffffffffffffffffffffffffff1673ffffffffffffffffffffffffffffffffffffffff16815260200190815260200160002060009054906101000a900460ff16905092915050565b7f9f2df0fed2c77648de5860a4cc508cd0818c85b8b8a1ab4ceeef8d981c8956a66105fa816105f56109cc565b6109d4565b61060382610c32565b15610637577f4e487b7100000000000000000000000000000000000000000000000000000000600052600160045260246000fd5b604051806060016040528060008152602001600081526020016001151581525060016000848152602001908152602001600020600082015181600001556020820151816001015560408201518160020160006101000a81548160ff0219169083151502179055509050505050565b6000801b81565b6106b461159c565b6001600083815260200190815260200160002060405180606001604052908160008201548152602001600182015481526020016002820160009054906101000a900460ff1615151515815250509050919050565b7f5ef52737852c52d2211e81450fc3850cd8f44f8344ad3b406fdca6ea6d0bac7e61073a816107356109cc565b6109d4565b60018060008581526020019081526020016000206000015461075c9190611c88565b60016000858152602001908152602001600020600001819055506001806000848152602001908152602001600020600101546107989190611c88565b60016000848152602001908152602001600020600101819055506107bb83610cd5565b505050565b7f9f2df0fed2c77648de5860a4cc508cd0818c85b8b8a1ab4ceeef8d981c8956a681565b6107ed826103c0565b6107fe816107f96109cc565b6109d4565b6108088383610b51565b505050565b6060600083141561082057600280015492505b6002600001548260ff16111561083b5760026000015461083d565b815b915060008260ff1667ffffffffffffffff811115610884577f4e487b7100000000000000000000000000000000000000000000000000000000600052604160045260246000fd5b6040519080825280602002602001820160405280156108b25781602001602082028036833780820191505090505b50905060008060005b8560ff168160ff161015610955576108dd876002610e2490919063ffffffff16565b508093508194505050821561093d5786848260ff1681518110610929577f4e487b7100000000000000000000000000000000000000000000000000000000600052603260045260246000fd5b602002602001018181525050819650610942565b610955565b808061094d90611e9f565b9150506108bb565b5082935050505092915050565b60007f01ffc9a7000000000000000000000000000000000000000000000000000000007bffffffffffffffffffffffffffffffffffffffffffffffffffffffff1916827bffffffffffffffffffffffffffffffffffffffffffffffffffffffff1916149050919050565b600033905090565b6109de828261055e565b610a6d57610a038173ffffffffffffffffffffffffffffffffffffffff166014610eae565b610a118360001c6020610eae565b604051602001610a22929190611aba565b6040516020818303038152906040526040517f08c379a0000000000000000000000000000000000000000000000000000000008152600401610a649190611b4c565b60405180910390fd5b5050565b610a7b828261055e565b610b4d57600160008084815260200190815260200160002060000160008373ffffffffffffffffffffffffffffffffffffffff1673ffffffffffffffffffffffffffffffffffffffff16815260200190815260200160002060006101000a81548160ff021916908315150217905550610af26109cc565b73ffffffffffffffffffffffffffffffffffffffff168173ffffffffffffffffffffffffffffffffffffffff16837f2f8788117e7eff1d82e926ec794901d17c78024a50270940304540a733656f0d60405160405180910390a45b5050565b610b5b828261055e565b15610c2e57600080600084815260200190815260200160002060000160008373ffffffffffffffffffffffffffffffffffffffff1673ffffffffffffffffffffffffffffffffffffffff16815260200190815260200160002060006101000a81548160ff021916908315150217905550610bd36109cc565b73ffffffffffffffffffffffffffffffffffffffff168173ffffffffffffffffffffffffffffffffffffffff16837ff6391f5c32d9c69d2a47ea670b442974b53935d1edc7fd64eb21e047a839171b60405160405180910390a45b5050565b600073__$6330d13c972cad776d3972964a3484190b$__632fc5de88600160008581526020019081526020016000206040518263ffffffff1660e01b8152600401610c7d9190611bc9565b60206040518083038186803b158015610c9557600080fd5b505af4158015610ca9573d6000803e3d6000fd5b505050506040513d601f19601f82011682018060405250810190610ccd919061163d565b159050919050565b600080610cec836002610e2490919063ffffffff16565b92505091508115610d6957600081118015610d32575060016000828152602001908152602001600020600001546001600085815260200190815260200160002060000154115b15610d6457610d4b8360026111a890919063ffffffff16565b50610d62818460026113339092919063ffffffff16565b505b610df3565b6001600060026001015481526020019081526020016000206000015460016000858152602001908152602001600020600001541115610dc357610dbd6002600101548460026113339092919063ffffffff16565b50610df2565b603260ff166002600001541015610df157610def60026001015484600261134b9092919063ffffffff16565b505b5b5b603260ff166002600001541115610e1f57610e1d60026001015460026111a890919063ffffffff16565b505b505050565b6000806000610e338585611363565b610e47576000806000925092509250610ea7565b60018560030160008681526020019081526020016000206000801515151581526020019081526020016000205486600301600087815260200190815260200160002060006001151515158152602001908152602001600020549250925092505b9250925092565b606060006002836002610ec19190611cde565b610ecb9190611c88565b67ffffffffffffffff811115610f0a577f4e487b7100000000000000000000000000000000000000000000000000000000600052604160045260246000fd5b6040519080825280601f01601f191660200182016040528015610f3c5781602001600182028036833780820191505090505b5090507f300000000000000000000000000000000000000000000000000000000000000081600081518110610f9a577f4e487b7100000000000000000000000000000000000000000000000000000000600052603260045260246000fd5b60200101907effffffffffffffffffffffffffffffffffffffffffffffffffffffffffffff1916908160001a9053507f780000000000000000000000000000000000000000000000000000000000000081600181518110611024577f4e487b7100000000000000000000000000000000000000000000000000000000600052603260045260246000fd5b60200101907effffffffffffffffffffffffffffffffffffffffffffffffffffffffffffff1916908160001a905350600060018460026110649190611cde565b61106e9190611c88565b90505b600181111561115a577f3031323334353637383961626364656600000000000000000000000000000000600f8616601081106110d6577f4e487b7100000000000000000000000000000000000000000000000000000000600052603260045260246000fd5b1a60f81b828281518110611113577f4e487b7100000000000000000000000000000000000000000000000000000000600052603260045260246000fd5b60200101907effffffffffffffffffffffffffffffffffffffffffffffffffffffffffffff1916908160001a905350600485901c94508061115390611e41565b9050611071565b506000841461119e576040517f08c379a000000000000000000000000000000000000000000000000000000000815260040161119590611b6e565b60405180910390fd5b8091505092915050565b6000808214806111bf57506111bd8383611363565b155b156111cd576000905061132d565b826001015482141561120e57826003016000838152602001908152602001600020600060011515151581526020019081526020016000205483600101819055505b826002015482141561124e578260030160008381526020019081526020016000206000801515151581526020019081526020016000205483600201819055505b6112b083846003016000858152602001908152602001600020600080151515158152602001908152602001600020548560030160008681526020019081526020016000206000600115151515815260200190815260200160002054600161141e565b82600301600083815260200190815260200160002060008015151515815260200190815260200160002060009055826003016000838152602001908152602001600020600060011515151581526020019081526020016000206000905560018360000160008282546113229190611d38565b925050819055508190505b92915050565b60006113428484846001611483565b90509392505050565b600061135a8484846000611483565b90509392505050565b600080836003016000848152602001908152602001600020600080151515158152602001908152602001600020541480156113c9575060008360030160008481526020019081526020016000206000600115151515815260200190815260200160002054145b1561141357818360030160008081526020019081526020016000206000600115151515815260200190815260200160002054141561140a5760019050611418565b60009050611418565b600190505b92915050565b828460030160008481526020019081526020016000206000831515151515815260200190815260200160002081905550818460030160008581526020019081526020016000206000831515151581526020019081526020016000208190555050505050565b600061148f8584611363565b1580156114a257506114a18585611363565b5b1561158f5760008560030160008681526020019081526020016000206000841515151581526020019081526020016000205490506114e28686868661141e565b6114ee8685838661141e565b60008660030160008681526020019081526020016000206000600115151515815260200190815260200160002054141561152c578386600201819055505b6000866003016000868152602001908152602001600020600080151515158152602001908152602001600020541415611569578386600101819055505b600186600001600082825461157e9190611c88565b925050819055506001915050611594565b600090505b949350505050565b604051806060016040528060008152602001600081526020016000151581525090565b6000813590506115ce81611f16565b92915050565b6000815190506115e381611f2d565b92915050565b6000813590506115f881611f44565b92915050565b60008135905061160d81611f5b565b92915050565b60008135905061162281611f72565b92915050565b60008135905061163781611f89565b92915050565b60006020828403121561164f57600080fd5b600061165d848285016115d4565b91505092915050565b60006020828403121561167857600080fd5b6000611686848285016115e9565b91505092915050565b600080604083850312156116a257600080fd5b60006116b0858286016115e9565b92505060206116c1858286016115bf565b9150509250929050565b6000602082840312156116dd57600080fd5b60006116eb848285016115fe565b91505092915050565b60006020828403121561170657600080fd5b600061171484828501611613565b91505092915050565b6000806040838503121561173057600080fd5b600061173e85828601611613565b925050602061174f85828601611613565b9150509250929050565b6000806040838503121561176c57600080fd5b600061177a85828601611613565b925050602061178b85828601611628565b9150509250929050565b60006117a18383611a7e565b60208301905092915050565b60006117b882611c38565b6117c28185611c5b565b93506117cd83611c28565b8060005b838110156117fe5781516117e58882611795565b97506117f083611c4e565b9250506001810190506117d1565b5085935050505092915050565b61181481611d95565b82525050565b61182381611d95565b82525050565b61183281611d95565b82525050565b61184181611da1565b82525050565b600061185282611c43565b61185c8185611c6c565b935061186c818560208601611e0e565b61187581611ef8565b840191505092915050565b600061188b82611c43565b6118958185611c7d565b93506118a5818560208601611e0e565b80840191505092915050565b60006118be602083611c6c565b91507f537472696e67733a20686578206c656e67746820696e73756666696369656e746000830152602082019050919050565b60006118fe601783611c7d565b91507f416363657373436f6e74726f6c3a206163636f756e74200000000000000000006000830152601782019050919050565b600061193e601183611c7d565b91507f206973206d697373696e6720726f6c65200000000000000000000000000000006000830152601182019050919050565b600061197e602f83611c6c565b91507f416363657373436f6e74726f6c3a2063616e206f6e6c792072656e6f756e636560008301527f20726f6c657320666f722073656c6600000000000000000000000000000000006020830152604082019050919050565b6060820160008201516119ed6000850182611a7e565b506020820151611a006020850182611a7e565b506040820151611a13604085018261180b565b50505050565b606082016000808301549050611a2e81611e85565b611a3b6000860182611a9c565b5060018301549050611a4c81611e85565b611a596020860182611a9c565b5060028301549050611a6a81611e6b565b611a776040860182611829565b5050505050565b611a8781611df7565b82525050565b611a9681611df7565b82525050565b611aa581611df7565b82525050565b611ab481611e01565b82525050565b6000611ac5826118f1565b9150611ad18285611880565b9150611adc82611931565b9150611ae88284611880565b91508190509392505050565b60006020820190508181036000830152611b0e81846117ad565b905092915050565b6000602082019050611b2b600083018461181a565b92915050565b6000602082019050611b466000830184611838565b92915050565b60006020820190508181036000830152611b668184611847565b905092915050565b60006020820190508181036000830152611b87816118b1565b9050919050565b60006020820190508181036000830152611ba781611971565b9050919050565b6000606082019050611bc360008301846119d7565b92915050565b6000606082019050611bde6000830184611a19565b92915050565b6000604082019050611bf96000830185611a8d565b611c066020830184611a8d565b9392505050565b6000602082019050611c226000830184611aab565b92915050565b6000819050602082019050919050565b600081519050919050565b600081519050919050565b6000602082019050919050565b600082825260208201905092915050565b600082825260208201905092915050565b600081905092915050565b6000611c9382611df7565b9150611c9e83611df7565b9250827fffffffffffffffffffffffffffffffffffffffffffffffffffffffffffffffff03821115611cd357611cd2611ec9565b5b828201905092915050565b6000611ce982611df7565b9150611cf483611df7565b9250817fffffffffffffffffffffffffffffffffffffffffffffffffffffffffffffffff0483118215151615611d2d57611d2c611ec9565b5b828202905092915050565b6000611d4382611df7565b9150611d4e83611df7565b925082821015611d6157611d60611ec9565b5b828203905092915050565b600060ff82169050919050565b6000819050919050565b6000611d8e82611dd7565b9050919050565b60008115159050919050565b6000819050919050565b60007fffffffff0000000000000000000000000000000000000000000000000000000082169050919050565b600073ffffffffffffffffffffffffffffffffffffffff82169050919050565b6000819050919050565b600060ff82169050919050565b60005b83811015611e2c578082015181840152602081019050611e11565b83811115611e3b576000848401525b50505050565b6000611e4c82611df7565b91506000821415611e6057611e5f611ec9565b5b600182039050919050565b6000611e7e611e7983611f09565b611d6c565b9050919050565b6000611e98611e9383611f09565b611d79565b9050919050565b6000611eaa82611e01565b915060ff821415611ebe57611ebd611ec9565b5b600182019050919050565b7f4e487b7100000000000000000000000000000000000000000000000000000000600052601160045260246000fd5b6000601f19601f8301169050919050565b60008160001c9050919050565b611f1f81611d83565b8114611f2a57600080fd5b50565b611f3681611d95565b8114611f4157600080fd5b50565b611f4d81611da1565b8114611f5857600080fd5b50565b611f6481611dab565b8114611f6f57600080fd5b50565b611f7b81611df7565b8114611f8657600080fd5b50565b611f9281611e01565b8114611f9d57600080fd5b5056fea264697066735822122063f66037cc37037d2a2edd06d11240ada5f05c48dc1fb067f6ffc81ccee51a6c64736f6c63430008000033",
  "linkReferences": {
    "contracts/lib/structs/StatsLib.sol": {
      "StatsLib": [
        {
          "length": 20,
          "start": 3564
        }
      ]
    }
  },
  "deployedLinkReferences": {
    "contracts/lib/structs/StatsLib.sol": {
      "StatsLib": [
        {
          "length": 20,
          "start": 3126
        }
      ]
    }
  }
}