{
  "_format": "hh-sol-artifact-1",
  "contractName": "WarriorStats",
  "sourceName": "contracts/WarriorStats.sol",
  "abi": [
    {
      "inputs": [],
      "stateMutability": "nonpayable",
      "type": "constructor"
    },
    {
      "anonymous": false,
      "inputs": [
        {
          "indexed": true,
          "internalType": "address",
          "name": "previousOwner",
          "type": "address"
        },
        {
          "indexed": true,
          "internalType": "address",
          "name": "newOwner",
          "type": "address"
        }
      ],
      "name": "OwnershipTransferred",
      "type": "event"
    },
    {
      "inputs": [
        {
          "internalType": "uint256",
          "name": "id",
          "type": "uint256"
        }
      ],
      "name": "burn",
      "outputs": [],
      "stateMutability": "nonpayable",
      "type": "function"
    },
    {
      "inputs": [
        {
          "internalType": "uint256",
          "name": "winner",
          "type": "uint256"
        },
        {
          "internalType": "uint256",
          "name": "loser",
          "type": "uint256"
        }
      ],
      "name": "increaseBattleStats",
      "outputs": [],
      "stateMutability": "nonpayable",
      "type": "function"
    },
    {
      "inputs": [
        {
          "internalType": "uint256",
          "name": "id",
          "type": "uint256"
        }
      ],
      "name": "mint",
      "outputs": [],
      "stateMutability": "nonpayable",
      "type": "function"
    },
    {
      "inputs": [],
      "name": "owner",
      "outputs": [
        {
          "internalType": "address",
          "name": "",
          "type": "address"
        }
      ],
      "stateMutability": "view",
      "type": "function"
    },
    {
      "inputs": [],
      "name": "renounceOwnership",
      "outputs": [],
      "stateMutability": "nonpayable",
      "type": "function"
    },
    {
      "inputs": [
        {
          "internalType": "address",
          "name": "addr",
          "type": "address"
        },
        {
          "internalType": "bool",
          "name": "allow",
          "type": "bool"
        }
      ],
      "name": "setModule",
      "outputs": [],
      "stateMutability": "nonpayable",
      "type": "function"
    },
    {
      "inputs": [
        {
          "internalType": "uint256",
          "name": "id",
          "type": "uint256"
        }
      ],
      "name": "stats",
      "outputs": [
        {
          "components": [
            {
              "internalType": "uint256",
              "name": "battlesWon",
              "type": "uint256"
            },
            {
              "internalType": "uint256",
              "name": "battlesLost",
              "type": "uint256"
            },
            {
              "internalType": "bool",
              "name": "_exists",
              "type": "bool"
            }
          ],
          "internalType": "struct StatsLib.Stats",
          "name": "",
          "type": "tuple"
        }
      ],
      "stateMutability": "view",
      "type": "function"
    },
    {
      "inputs": [
        {
          "internalType": "address",
          "name": "newOwner",
          "type": "address"
        }
      ],
      "name": "transferOwnership",
      "outputs": [],
      "stateMutability": "nonpayable",
      "type": "function"
    },
    {
      "inputs": [
        {
          "internalType": "uint256",
          "name": "id",
          "type": "uint256"
        }
      ],
      "name": "warriorStats",
      "outputs": [
        {
          "internalType": "uint256",
          "name": "",
          "type": "uint256"
        },
        {
          "internalType": "uint256",
          "name": "",
          "type": "uint256"
        }
      ],
      "stateMutability": "view",
      "type": "function"
    }
  ],
  "bytecode": "0x608060405234801561001057600080fd5b5061002d61002261003260201b60201c565b61003a60201b60201c565b6100fe565b600033905090565b60008060009054906101000a900473ffffffffffffffffffffffffffffffffffffffff169050816000806101000a81548173ffffffffffffffffffffffffffffffffffffffff021916908373ffffffffffffffffffffffffffffffffffffffff1602179055508173ffffffffffffffffffffffffffffffffffffffff168173ffffffffffffffffffffffffffffffffffffffff167f8be0079c531659141344cd1fd0a4f28419497f9722a3daafe3b4186f6b6457e060405160405180910390a35050565b610f718061010d6000396000f3fe608060405234801561001057600080fd5b50600436106100935760003560e01c8063a0712d6811610066578063a0712d681461010d578063ad217ae514610129578063b1662d5814610159578063c81f7c5214610175578063f2fde38b1461019157610093565b806342966c6814610098578063715018a6146100b45780638da5cb5b146100be5780638db6fd58146100dc575b600080fd5b6100b260048036038101906100ad9190610a9a565b6101ad565b005b6100bc610276565b005b6100c66102fe565b6040516100d39190610ce6565b60405180910390f35b6100f660048036038101906100f19190610a9a565b610327565b604051610104929190610d97565b60405180910390f35b61012760048036038101906101229190610a9a565b610361565b005b610143600480360381019061013e9190610a9a565b610497565b6040516101509190610d61565b60405180910390f35b610173600480360381019061016e9190610a35565b6104f3565b005b61018f600480360381019061018a9190610ac3565b610624565b005b6101ab60048036038101906101a69190610a0c565b61072e565b005b600160003373ffffffffffffffffffffffffffffffffffffffff1673ffffffffffffffffffffffffffffffffffffffff16815260200190815260200160002060009054906101000a900460ff16610239576040517f08c379a000000000000000000000000000000000000000000000000000000000815260040161023090610d21565b60405180910390fd5b6002600082815260200190815260200160002060008082016000905560018201600090556002820160006101000a81549060ff0219169055505050565b61027e610826565b73ffffffffffffffffffffffffffffffffffffffff1661029c6102fe565b73ffffffffffffffffffffffffffffffffffffffff16146102f2576040517f08c379a00000000000000000000000000000000000000000000000000000000081526004016102e990610d41565b60405180910390fd5b6102fc600061082e565b565b60008060009054906101000a900473ffffffffffffffffffffffffffffffffffffffff16905090565b6000806002600084815260200190815260200160002060000154600260008581526020019081526020016000206001015491509150915091565b600160003373ffffffffffffffffffffffffffffffffffffffff1673ffffffffffffffffffffffffffffffffffffffff16815260200190815260200160002060009054906101000a900460ff166103ed576040517f08c379a00000000000000000000000000000000000000000000000000000000081526004016103e490610d21565b60405180910390fd5b6103f6816108f2565b1561042a577f4e487b7100000000000000000000000000000000000000000000000000000000600052600160045260246000fd5b604051806060016040528060008152602001600081526020016001151581525060026000838152602001908152602001600020600082015181600001556020820151816001015560408201518160020160006101000a81548160ff02191690831515021790555090505050565b61049f610995565b6002600083815260200190815260200160002060405180606001604052908160008201548152602001600182015481526020016002820160009054906101000a900460ff1615151515815250509050919050565b6104fb610826565b73ffffffffffffffffffffffffffffffffffffffff166105196102fe565b73ffffffffffffffffffffffffffffffffffffffff161461056f576040517f08c379a000000000000000000000000000000000000000000000000000000000815260040161056690610d41565b60405180910390fd5b806105c857600160008373ffffffffffffffffffffffffffffffffffffffff1673ffffffffffffffffffffffffffffffffffffffff16815260200190815260200160002060006101000a81549060ff0219169055610620565b60018060008473ffffffffffffffffffffffffffffffffffffffff1673ffffffffffffffffffffffffffffffffffffffff16815260200190815260200160002060006101000a81548160ff0219169083151502179055505b5050565b600160003373ffffffffffffffffffffffffffffffffffffffff1673ffffffffffffffffffffffffffffffffffffffff16815260200190815260200160002060009054906101000a900460ff166106b0576040517f08c379a00000000000000000000000000000000000000000000000000000000081526004016106a790610d21565b60405180910390fd5b600160026000848152602001908152602001600020600001546106d39190610dd1565b6002600084815260200190815260200160002060000181905550600160026000838152602001908152602001600020600101546107109190610dd1565b60026000838152602001908152602001600020600101819055505050565b610736610826565b73ffffffffffffffffffffffffffffffffffffffff166107546102fe565b73ffffffffffffffffffffffffffffffffffffffff16146107aa576040517f08c379a00000000000000000000000000000000000000000000000000000000081526004016107a190610d41565b60405180910390fd5b600073ffffffffffffffffffffffffffffffffffffffff168173ffffffffffffffffffffffffffffffffffffffff16141561081a576040517f08c379a000000000000000000000000000000000000000000000000000000000815260040161081190610d01565b60405180910390fd5b6108238161082e565b50565b600033905090565b60008060009054906101000a900473ffffffffffffffffffffffffffffffffffffffff169050816000806101000a81548173ffffffffffffffffffffffffffffffffffffffff021916908373ffffffffffffffffffffffffffffffffffffffff1602179055508173ffffffffffffffffffffffffffffffffffffffff168173ffffffffffffffffffffffffffffffffffffffff167f8be0079c531659141344cd1fd0a4f28419497f9722a3daafe3b4186f6b6457e060405160405180910390a35050565b600073__$6330d13c972cad776d3972964a3484190b$__632fc5de88600260008581526020019081526020016000206040518263ffffffff1660e01b815260040161093d9190610d7c565b60206040518083038186803b15801561095557600080fd5b505af4158015610969573d6000803e3d6000fd5b505050506040513d601f19601f8201168201806040525081019061098d9190610a71565b159050919050565b604051806060016040528060008152602001600081526020016000151581525090565b6000813590506109c781610ef6565b92915050565b6000813590506109dc81610f0d565b92915050565b6000815190506109f181610f0d565b92915050565b600081359050610a0681610f24565b92915050565b600060208284031215610a1e57600080fd5b6000610a2c848285016109b8565b91505092915050565b60008060408385031215610a4857600080fd5b6000610a56858286016109b8565b9250506020610a67858286016109cd565b9150509250929050565b600060208284031215610a8357600080fd5b6000610a91848285016109e2565b91505092915050565b600060208284031215610aac57600080fd5b6000610aba848285016109f7565b91505092915050565b60008060408385031215610ad657600080fd5b6000610ae4858286016109f7565b9250506020610af5858286016109f7565b9150509250929050565b610b0881610e3e565b82525050565b610b1781610e50565b82525050565b610b2681610e50565b82525050565b6000610b39602683610dc0565b91507f4f776e61626c653a206e6577206f776e657220697320746865207a65726f206160008301527f64647265737300000000000000000000000000000000000000000000000000006020830152604082019050919050565b6000610b9f601883610dc0565b91507f6f6e6c79206d6f64756c65732063616e20646f207468697300000000000000006000830152602082019050919050565b6000610bdf602083610dc0565b91507f4f776e61626c653a2063616c6c6572206973206e6f7420746865206f776e65726000830152602082019050919050565b606082016000820151610c286000850182610cb9565b506020820151610c3b6020850182610cb9565b506040820151610c4e6040850182610b0e565b50505050565b606082016000808301549050610c6981610ea0565b610c766000860182610cd7565b5060018301549050610c8781610ea0565b610c946020860182610cd7565b5060028301549050610ca581610e86565b610cb26040860182610b1d565b5050505050565b610cc281610e7c565b82525050565b610cd181610e7c565b82525050565b610ce081610e7c565b82525050565b6000602082019050610cfb6000830184610aff565b92915050565b60006020820190508181036000830152610d1a81610b2c565b9050919050565b60006020820190508181036000830152610d3a81610b92565b9050919050565b60006020820190508181036000830152610d5a81610bd2565b9050919050565b6000606082019050610d766000830184610c12565b92915050565b6000606082019050610d916000830184610c54565b92915050565b6000604082019050610dac6000830185610cc8565b610db96020830184610cc8565b9392505050565b600082825260208201905092915050565b6000610ddc82610e7c565b9150610de783610e7c565b9250827fffffffffffffffffffffffffffffffffffffffffffffffffffffffffffffffff03821115610e1c57610e1b610eba565b5b828201905092915050565b600060ff82169050919050565b6000819050919050565b6000610e4982610e5c565b9050919050565b60008115159050919050565b600073ffffffffffffffffffffffffffffffffffffffff82169050919050565b6000819050919050565b6000610e99610e9483610ee9565b610e27565b9050919050565b6000610eb3610eae83610ee9565b610e34565b9050919050565b7f4e487b7100000000000000000000000000000000000000000000000000000000600052601160045260246000fd5b60008160001c9050919050565b610eff81610e3e565b8114610f0a57600080fd5b50565b610f1681610e50565b8114610f2157600080fd5b50565b610f2d81610e7c565b8114610f3857600080fd5b5056fea26469706673582212207549df75a152bddca2e8f507d1038764947519286d53da771dbb828e7671bf1564736f6c63430008000033",
  "linkReferences": {
    "contracts/lib/structs/StatsLib.sol": {
      "StatsLib": [
        {
          "length": 20,
          "start": 2563
        }
      ]
    }
  },
  "deployedLinkReferences": {
    "contracts/lib/structs/StatsLib.sol": {
      "StatsLib": [
        {
          "length": 20,
          "start": 2294
        }
      ]
    }
  }
}