{
  "_format": "hh-sol-artifact-1",
  "contractName": "WarriorFactory",
  "sourceName": "contracts/WarriorFactory.sol",
  "abi": [
    {
      "inputs": [
        {
          "internalType": "address",
          "name": "cronosWarriorsAddr",
          "type": "address"
        },
        {
          "internalType": "address",
          "name": "warriorSkillsAddr",
          "type": "address"
        },
        {
          "internalType": "address",
          "name": "warriorStatsAddr",
          "type": "address"
        },
        {
          "internalType": "address",
          "name": "warriorVisualsAddr",
          "type": "address"
        },
        {
          "internalType": "address",
          "name": "treasuryAddr",
          "type": "address"
        }
      ],
      "stateMutability": "nonpayable",
      "type": "constructor"
    },
    {
      "anonymous": false,
      "inputs": [
        {
          "indexed": false,
          "internalType": "uint256",
          "name": "id",
          "type": "uint256"
        },
        {
          "indexed": true,
          "internalType": "address",
          "name": "owner",
          "type": "address"
        },
        {
          "indexed": false,
          "internalType": "address",
          "name": "recipient",
          "type": "address"
        }
      ],
      "name": "WarriorBurned",
      "type": "event"
    },
    {
      "anonymous": false,
      "inputs": [
        {
          "indexed": false,
          "internalType": "uint256",
          "name": "id",
          "type": "uint256"
        },
        {
          "indexed": true,
          "internalType": "address",
          "name": "owner",
          "type": "address"
        }
      ],
      "name": "WarriorMinted",
      "type": "event"
    },
    {
      "inputs": [
        {
          "internalType": "uint256",
          "name": "id",
          "type": "uint256"
        },
        {
          "internalType": "address",
          "name": "recipient",
          "type": "address"
        }
      ],
      "name": "burn",
      "outputs": [],
      "stateMutability": "nonpayable",
      "type": "function"
    },
    {
      "inputs": [],
      "name": "cronosWarriors",
      "outputs": [
        {
          "internalType": "contract CronosWarriors",
          "name": "",
          "type": "address"
        }
      ],
      "stateMutability": "view",
      "type": "function"
    },
    {
      "inputs": [
        {
          "internalType": "string",
          "name": "name",
          "type": "string"
        }
      ],
      "name": "mint",
      "outputs": [
        {
          "internalType": "uint256",
          "name": "",
          "type": "uint256"
        }
      ],
      "stateMutability": "payable",
      "type": "function"
    },
    {
      "inputs": [
        {
          "internalType": "uint256",
          "name": "id",
          "type": "uint256"
        }
      ],
      "name": "replenish",
      "outputs": [],
      "stateMutability": "payable",
      "type": "function"
    },
    {
      "inputs": [],
      "name": "treasury",
      "outputs": [
        {
          "internalType": "contract Treasury",
          "name": "",
          "type": "address"
        }
      ],
      "stateMutability": "view",
      "type": "function"
    },
    {
      "inputs": [],
      "name": "warriorSkills",
      "outputs": [
        {
          "internalType": "contract WarriorSkills",
          "name": "",
          "type": "address"
        }
      ],
      "stateMutability": "view",
      "type": "function"
    },
    {
      "inputs": [],
      "name": "warriorStats",
      "outputs": [
        {
          "internalType": "contract WarriorStats",
          "name": "",
          "type": "address"
        }
      ],
      "stateMutability": "view",
      "type": "function"
    },
    {
      "inputs": [],
      "name": "warriorVisuals",
      "outputs": [
        {
          "internalType": "contract WarriorVisuals",
          "name": "",
          "type": "address"
        }
      ],
      "stateMutability": "view",
      "type": "function"
    }
  ],
  "bytecode": "0x60806040523480156200001157600080fd5b5060405162001616380380620016168339818101604052810190620000379190620001a5565b846000806101000a81548173ffffffffffffffffffffffffffffffffffffffff021916908373ffffffffffffffffffffffffffffffffffffffff16021790555083600160006101000a81548173ffffffffffffffffffffffffffffffffffffffff021916908373ffffffffffffffffffffffffffffffffffffffff16021790555082600260006101000a81548173ffffffffffffffffffffffffffffffffffffffff021916908373ffffffffffffffffffffffffffffffffffffffff16021790555081600360006101000a81548173ffffffffffffffffffffffffffffffffffffffff021916908373ffffffffffffffffffffffffffffffffffffffff16021790555080600460006101000a81548173ffffffffffffffffffffffffffffffffffffffff021916908373ffffffffffffffffffffffffffffffffffffffff1602179055506000600581905550505050505062000275565b6000815190506200019f816200025b565b92915050565b600080600080600060a08688031215620001be57600080fd5b6000620001ce888289016200018e565b9550506020620001e1888289016200018e565b9450506040620001f4888289016200018e565b935050606062000207888289016200018e565b92505060806200021a888289016200018e565b9150509295509295909350565b600062000234826200023b565b9050919050565b600073ffffffffffffffffffffffffffffffffffffffff82169050919050565b620002668162000227565b81146200027257600080fd5b50565b61139180620002856000396000f3fe60806040526004361061007b5760003560e01c80639cee48221161004e5780639cee48221461011d578063d85d3d2714610148578063f99cd25b14610178578063fcd3533c146101a35761007b565b8063160012381461008057806361d027b3146100ab5780636c69e521146100d65780638554ba1514610101575b600080fd5b34801561008c57600080fd5b506100956101cc565b6040516100a29190610f5d565b60405180910390f35b3480156100b757600080fd5b506100c06101f2565b6040516100cd9190610f0c565b60405180910390f35b3480156100e257600080fd5b506100eb610218565b6040516100f89190610ef1565b60405180910390f35b61011b60048036038101906101169190610db8565b61023c565b005b34801561012957600080fd5b506101326103e3565b60405161013f9190610f27565b60405180910390f35b610162600480360381019061015d9190610d77565b610409565b60405161016f9190610f98565b60405180910390f35b34801561018457600080fd5b5061018d610818565b60405161019a9190610f42565b60405180910390f35b3480156101af57600080fd5b506101ca60048036038101906101c59190610de1565b61083e565b005b600360009054906101000a900473ffffffffffffffffffffffffffffffffffffffff1681565b600460009054906101000a900473ffffffffffffffffffffffffffffffffffffffff1681565b60008054906101000a900473ffffffffffffffffffffffffffffffffffffffff1681565b60008054906101000a900473ffffffffffffffffffffffffffffffffffffffff1673ffffffffffffffffffffffffffffffffffffffff16636352211e826040518263ffffffff1660e01b81526004016102959190610f98565b60206040518083038186803b1580156102ad57600080fd5b505afa1580156102c1573d6000803e3d6000fd5b505050506040513d601f19601f820116820180604052508101906102e59190610d25565b73ffffffffffffffffffffffffffffffffffffffff163373ffffffffffffffffffffffffffffffffffffffff1614610352576040517f08c379a000000000000000000000000000000000000000000000000000000000815260040161034990610f78565b60405180910390fd5b600460009054906101000a900473ffffffffffffffffffffffffffffffffffffffff1673ffffffffffffffffffffffffffffffffffffffff16638554ba1534836040518363ffffffff1660e01b81526004016103ae9190610f98565b6000604051808303818588803b1580156103c757600080fd5b505af11580156103db573d6000803e3d6000fd5b505050505050565b600160009054906101000a900473ffffffffffffffffffffffffffffffffffffffff1681565b600080600160055461041b91906110a7565b6005819055905060008054906101000a900473ffffffffffffffffffffffffffffffffffffffff1673ffffffffffffffffffffffffffffffffffffffff16634f558e79826040518263ffffffff1660e01b815260040161047b9190610f98565b60206040518083038186803b15801561049357600080fd5b505afa1580156104a7573d6000803e3d6000fd5b505050506040513d601f19601f820116820180604052508101906104cb9190610d4e565b156104ff577f4e487b7100000000000000000000000000000000000000000000000000000000600052600160045260246000fd5b600460009054906101000a900473ffffffffffffffffffffffffffffffffffffffff1673ffffffffffffffffffffffffffffffffffffffff1663a0712d6834836040518363ffffffff1660e01b815260040161055b9190610f98565b6000604051808303818588803b15801561057457600080fd5b505af1158015610588573d6000803e3d6000fd5b5050505050600360009054906101000a900473ffffffffffffffffffffffffffffffffffffffff1673ffffffffffffffffffffffffffffffffffffffff166377097fc882856040518363ffffffff1660e01b81526004016105ea929190611005565b600060405180830381600087803b15801561060457600080fd5b505af1158015610618573d6000803e3d6000fd5b50505050600160009054906101000a900473ffffffffffffffffffffffffffffffffffffffff1673ffffffffffffffffffffffffffffffffffffffff1663a0712d68826040518263ffffffff1660e01b81526004016106779190610f98565b600060405180830381600087803b15801561069157600080fd5b505af11580156106a5573d6000803e3d6000fd5b50505050600260009054906101000a900473ffffffffffffffffffffffffffffffffffffffff1673ffffffffffffffffffffffffffffffffffffffff1663a0712d68826040518263ffffffff1660e01b81526004016107049190610f98565b600060405180830381600087803b15801561071e57600080fd5b505af1158015610732573d6000803e3d6000fd5b5050505060008054906101000a900473ffffffffffffffffffffffffffffffffffffffff1673ffffffffffffffffffffffffffffffffffffffff1663a0712d68826040518263ffffffff1660e01b815260040161078f9190610f98565b600060405180830381600087803b1580156107a957600080fd5b505af11580156107bd573d6000803e3d6000fd5b505050503373ffffffffffffffffffffffffffffffffffffffff167f434a952a98f00e28fb9ea86aed27f71fa299487fffdd01f1ee2c9360afa303d8826040516108079190610f98565b60405180910390a280915050919050565b600260009054906101000a900473ffffffffffffffffffffffffffffffffffffffff1681565b60008054906101000a900473ffffffffffffffffffffffffffffffffffffffff1673ffffffffffffffffffffffffffffffffffffffff16636352211e836040518263ffffffff1660e01b81526004016108979190610f98565b60206040518083038186803b1580156108af57600080fd5b505afa1580156108c3573d6000803e3d6000fd5b505050506040513d601f19601f820116820180604052508101906108e79190610d25565b73ffffffffffffffffffffffffffffffffffffffff163373ffffffffffffffffffffffffffffffffffffffff1614610954576040517f08c379a000000000000000000000000000000000000000000000000000000000815260040161094b90610f78565b60405180910390fd5b600160009054906101000a900473ffffffffffffffffffffffffffffffffffffffff1673ffffffffffffffffffffffffffffffffffffffff166342966c68836040518263ffffffff1660e01b81526004016109af9190610f98565b600060405180830381600087803b1580156109c957600080fd5b505af11580156109dd573d6000803e3d6000fd5b50505050600260009054906101000a900473ffffffffffffffffffffffffffffffffffffffff1673ffffffffffffffffffffffffffffffffffffffff166342966c68836040518263ffffffff1660e01b8152600401610a3c9190610f98565b600060405180830381600087803b158015610a5657600080fd5b505af1158015610a6a573d6000803e3d6000fd5b50505050600360009054906101000a900473ffffffffffffffffffffffffffffffffffffffff1673ffffffffffffffffffffffffffffffffffffffff166342966c68836040518263ffffffff1660e01b8152600401610ac99190610f98565b600060405180830381600087803b158015610ae357600080fd5b505af1158015610af7573d6000803e3d6000fd5b50505050600460009054906101000a900473ffffffffffffffffffffffffffffffffffffffff1673ffffffffffffffffffffffffffffffffffffffff1663ff5ee77f83836040518363ffffffff1660e01b8152600401610b58929190610fdc565b600060405180830381600087803b158015610b7257600080fd5b505af1158015610b86573d6000803e3d6000fd5b5050505060008054906101000a900473ffffffffffffffffffffffffffffffffffffffff1673ffffffffffffffffffffffffffffffffffffffff166342966c68836040518263ffffffff1660e01b8152600401610be39190610f98565b600060405180830381600087803b158015610bfd57600080fd5b505af1158015610c11573d6000803e3d6000fd5b505050503373ffffffffffffffffffffffffffffffffffffffff167f88d52dda07317eb0d52bcf08a54028b29289032bda552acd906200b2937715dc8383604051610c5d929190610fb3565b60405180910390a25050565b6000610c7c610c778461105a565b611035565b905082815260208101848484011115610c9457600080fd5b610c9f84828561120b565b509392505050565b600081359050610cb681611316565b92915050565b600081519050610ccb81611316565b92915050565b600081519050610ce08161132d565b92915050565b600082601f830112610cf757600080fd5b8135610d07848260208601610c69565b91505092915050565b600081359050610d1f81611344565b92915050565b600060208284031215610d3757600080fd5b6000610d4584828501610cbc565b91505092915050565b600060208284031215610d6057600080fd5b6000610d6e84828501610cd1565b91505092915050565b600060208284031215610d8957600080fd5b600082013567ffffffffffffffff811115610da357600080fd5b610daf84828501610ce6565b91505092915050565b600060208284031215610dca57600080fd5b6000610dd884828501610d10565b91505092915050565b60008060408385031215610df457600080fd5b6000610e0285828601610d10565b9250506020610e1385828601610ca7565b9150509250929050565b610e268161110f565b82525050565b610e35816110fd565b82525050565b610e4481611157565b82525050565b610e538161117b565b82525050565b610e628161119f565b82525050565b610e71816111c3565b82525050565b610e80816111e7565b82525050565b6000610e918261108b565b610e9b8185611096565b9350610eab81856020860161121a565b610eb4816112dc565b840191505092915050565b6000610ecc601783611096565b9150610ed7826112ed565b602082019050919050565b610eeb8161114d565b82525050565b6000602082019050610f066000830184610e3b565b92915050565b6000602082019050610f216000830184610e4a565b92915050565b6000602082019050610f3c6000830184610e59565b92915050565b6000602082019050610f576000830184610e68565b92915050565b6000602082019050610f726000830184610e77565b92915050565b60006020820190508181036000830152610f9181610ebf565b9050919050565b6000602082019050610fad6000830184610ee2565b92915050565b6000604082019050610fc86000830185610ee2565b610fd56020830184610e2c565b9392505050565b6000604082019050610ff16000830185610ee2565b610ffe6020830184610e1d565b9392505050565b600060408201905061101a6000830185610ee2565b818103602083015261102c8184610e86565b90509392505050565b600061103f611050565b905061104b828261124d565b919050565b6000604051905090565b600067ffffffffffffffff821115611075576110746112ad565b5b61107e826112dc565b9050602081019050919050565b600081519050919050565b600082825260208201905092915050565b60006110b28261114d565b91506110bd8361114d565b9250827fffffffffffffffffffffffffffffffffffffffffffffffffffffffffffffffff038211156110f2576110f161127e565b5b828201905092915050565b60006111088261112d565b9050919050565b600061111a8261112d565b9050919050565b60008115159050919050565b600073ffffffffffffffffffffffffffffffffffffffff82169050919050565b6000819050919050565b600061116282611169565b9050919050565b60006111748261112d565b9050919050565b60006111868261118d565b9050919050565b60006111988261112d565b9050919050565b60006111aa826111b1565b9050919050565b60006111bc8261112d565b9050919050565b60006111ce826111d5565b9050919050565b60006111e08261112d565b9050919050565b60006111f2826111f9565b9050919050565b60006112048261112d565b9050919050565b82818337600083830152505050565b60005b8381101561123857808201518184015260208101905061121d565b83811115611247576000848401525b50505050565b611256826112dc565b810181811067ffffffffffffffff82111715611275576112746112ad565b5b80604052505050565b7f4e487b7100000000000000000000000000000000000000000000000000000000600052601160045260246000fd5b7f4e487b7100000000000000000000000000000000000000000000000000000000600052604160045260246000fd5b6000601f19601f8301169050919050565b7f4f6e6c79206f776e65722063616e20646f207468697321000000000000000000600082015250565b61131f816110fd565b811461132a57600080fd5b50565b61133681611121565b811461134157600080fd5b50565b61134d8161114d565b811461135857600080fd5b5056fea26469706673582212200b605035363992b26cc7d216dadbdc1d78473689fde43b1bb9cf7a58da382aa064736f6c63430008040033",
  "linkReferences": {},
  "deployedLinkReferences": {}
}