{
  "_format": "hh-sol-artifact-1",
  "contractName": "WarriorProxy",
  "sourceName": "contracts/WarriorProxy.sol",
  "abi": [
    {
      "inputs": [
        {
          "internalType": "address",
          "name": "warriorsAddr",
          "type": "address"
        },
        {
          "internalType": "address",
          "name": "treasuryAddr",
          "type": "address"
        },
        {
          "internalType": "address",
          "name": "factoryAddr",
          "type": "address"
        },
        {
          "internalType": "address",
          "name": "skillsAddr",
          "type": "address"
        },
        {
          "internalType": "address",
          "name": "statsAddr",
          "type": "address"
        },
        {
          "internalType": "address",
          "name": "visualsAddr",
          "type": "address"
        }
      ],
      "stateMutability": "nonpayable",
      "type": "constructor"
    },
    {
      "anonymous": false,
      "inputs": [
        {
          "indexed": true,
          "internalType": "address",
          "name": "previousOwner",
          "type": "address"
        },
        {
          "indexed": true,
          "internalType": "address",
          "name": "newOwner",
          "type": "address"
        }
      ],
      "name": "OwnershipTransferred",
      "type": "event"
    },
    {
      "anonymous": false,
      "inputs": [
        {
          "components": [
            {
              "internalType": "address",
              "name": "owner",
              "type": "address"
            },
            {
              "internalType": "uint256",
              "name": "experience",
              "type": "uint256"
            },
            {
              "internalType": "uint256",
              "name": "level",
              "type": "uint256"
            },
            {
              "internalType": "uint256",
              "name": "health",
              "type": "uint256"
            },
            {
              "components": [
                {
                  "internalType": "uint256",
                  "name": "pointsSpend",
                  "type": "uint256"
                },
                {
                  "internalType": "uint256",
                  "name": "attack",
                  "type": "uint256"
                },
                {
                  "internalType": "uint256",
                  "name": "defense",
                  "type": "uint256"
                },
                {
                  "internalType": "uint256",
                  "name": "stamina",
                  "type": "uint256"
                },
                {
                  "internalType": "uint256",
                  "name": "dexterity",
                  "type": "uint256"
                }
              ],
              "internalType": "struct SkillsLib.Skills",
              "name": "skills",
              "type": "tuple"
            },
            {
              "components": [
                {
                  "internalType": "uint256",
                  "name": "battlesWon",
                  "type": "uint256"
                },
                {
                  "internalType": "uint256",
                  "name": "battlesLost",
                  "type": "uint256"
                },
                {
                  "internalType": "bool",
                  "name": "_exists",
                  "type": "bool"
                }
              ],
              "internalType": "struct StatsLib.Stats",
              "name": "stats",
              "type": "tuple"
            },
            {
              "components": [
                {
                  "internalType": "string",
                  "name": "name",
                  "type": "string"
                },
                {
                  "internalType": "uint256",
                  "name": "dna",
                  "type": "uint256"
                }
              ],
              "internalType": "struct VisualsLib.Visuals",
              "name": "visuals",
              "type": "tuple"
            }
          ],
          "indexed": false,
          "internalType": "struct WarriorProxy.Warrior",
          "name": "_warrior",
          "type": "tuple"
        }
      ],
      "name": "WarriorFetched",
      "type": "event"
    },
    {
      "inputs": [],
      "name": "factory",
      "outputs": [
        {
          "internalType": "contract WarriorFactory",
          "name": "",
          "type": "address"
        }
      ],
      "stateMutability": "view",
      "type": "function"
    },
    {
      "inputs": [],
      "name": "owner",
      "outputs": [
        {
          "internalType": "address",
          "name": "",
          "type": "address"
        }
      ],
      "stateMutability": "view",
      "type": "function"
    },
    {
      "inputs": [],
      "name": "renounceOwnership",
      "outputs": [],
      "stateMutability": "nonpayable",
      "type": "function"
    },
    {
      "inputs": [],
      "name": "skills",
      "outputs": [
        {
          "internalType": "contract WarriorSkills",
          "name": "",
          "type": "address"
        }
      ],
      "stateMutability": "view",
      "type": "function"
    },
    {
      "inputs": [],
      "name": "stats",
      "outputs": [
        {
          "internalType": "contract WarriorStats",
          "name": "",
          "type": "address"
        }
      ],
      "stateMutability": "view",
      "type": "function"
    },
    {
      "inputs": [
        {
          "internalType": "address",
          "name": "newOwner",
          "type": "address"
        }
      ],
      "name": "transferOwnership",
      "outputs": [],
      "stateMutability": "nonpayable",
      "type": "function"
    },
    {
      "inputs": [],
      "name": "treasury",
      "outputs": [
        {
          "internalType": "contract Treasury",
          "name": "",
          "type": "address"
        }
      ],
      "stateMutability": "view",
      "type": "function"
    },
    {
      "inputs": [],
      "name": "visuals",
      "outputs": [
        {
          "internalType": "contract WarriorVisuals",
          "name": "",
          "type": "address"
        }
      ],
      "stateMutability": "view",
      "type": "function"
    },
    {
      "inputs": [
        {
          "internalType": "uint256",
          "name": "id",
          "type": "uint256"
        }
      ],
      "name": "warriorData",
      "outputs": [
        {
          "internalType": "address",
          "name": "",
          "type": "address"
        },
        {
          "internalType": "uint256",
          "name": "",
          "type": "uint256"
        },
        {
          "internalType": "uint256",
          "name": "",
          "type": "uint256"
        },
        {
          "internalType": "uint256",
          "name": "",
          "type": "uint256"
        },
        {
          "internalType": "uint256",
          "name": "",
          "type": "uint256"
        },
        {
          "internalType": "uint256",
          "name": "",
          "type": "uint256"
        },
        {
          "internalType": "uint256",
          "name": "",
          "type": "uint256"
        },
        {
          "internalType": "uint256",
          "name": "",
          "type": "uint256"
        }
      ],
      "stateMutability": "view",
      "type": "function"
    },
    {
      "inputs": [],
      "name": "warriors",
      "outputs": [
        {
          "internalType": "contract CronosWarriors",
          "name": "",
          "type": "address"
        }
      ],
      "stateMutability": "view",
      "type": "function"
    }
  ],
  "bytecode": "0x60806040523480156200001157600080fd5b5060405162001435380380620014358339818101604052810190620000379190620002cc565b620000576200004b620001e960201b60201c565b620001f160201b60201c565b85600160006101000a81548173ffffffffffffffffffffffffffffffffffffffff021916908373ffffffffffffffffffffffffffffffffffffffff16021790555084600260006101000a81548173ffffffffffffffffffffffffffffffffffffffff021916908373ffffffffffffffffffffffffffffffffffffffff16021790555083600360006101000a81548173ffffffffffffffffffffffffffffffffffffffff021916908373ffffffffffffffffffffffffffffffffffffffff16021790555082600460006101000a81548173ffffffffffffffffffffffffffffffffffffffff021916908373ffffffffffffffffffffffffffffffffffffffff16021790555081600560006101000a81548173ffffffffffffffffffffffffffffffffffffffff021916908373ffffffffffffffffffffffffffffffffffffffff16021790555080600660006101000a81548173ffffffffffffffffffffffffffffffffffffffff021916908373ffffffffffffffffffffffffffffffffffffffff160217905550505050505050620003b0565b600033905090565b60008060009054906101000a900473ffffffffffffffffffffffffffffffffffffffff169050816000806101000a81548173ffffffffffffffffffffffffffffffffffffffff021916908373ffffffffffffffffffffffffffffffffffffffff1602179055508173ffffffffffffffffffffffffffffffffffffffff168173ffffffffffffffffffffffffffffffffffffffff167f8be0079c531659141344cd1fd0a4f28419497f9722a3daafe3b4186f6b6457e060405160405180910390a35050565b600081519050620002c68162000396565b92915050565b60008060008060008060c08789031215620002e657600080fd5b6000620002f689828a01620002b5565b96505060206200030989828a01620002b5565b95505060406200031c89828a01620002b5565b94505060606200032f89828a01620002b5565b93505060806200034289828a01620002b5565b92505060a06200035589828a01620002b5565b9150509295509295509295565b60006200036f8262000376565b9050919050565b600073ffffffffffffffffffffffffffffffffffffffff82169050919050565b620003a18162000362565b8114620003ad57600080fd5b50565b61107580620003c06000396000f3fe608060405234801561001057600080fd5b506004361061009e5760003560e01c80638da5cb5b116100665780638da5cb5b14610125578063a39bf0cd14610143578063c45a01551461017a578063d80528ae14610198578063f2fde38b146101b65761009e565b80633b7fdb73146100a35780635d405330146100c157806361d027b3146100df578063715018a6146100fd5780637737893a14610107575b600080fd5b6100ab6101d2565b6040516100b89190610d0f565b60405180910390f35b6100c96101f8565b6040516100d69190610d45565b60405180910390f35b6100e761021e565b6040516100f49190610cd9565b60405180910390f35b610105610244565b005b61010f6102cc565b60405161011c9190610cbe565b60405180910390f35b61012d6102f2565b60405161013a9190610c25565b60405180910390f35b61015d60048036038101906101589190610b15565b61031b565b604051610171989796959493929190610c40565b60405180910390f35b6101826106e7565b60405161018f9190610cf4565b60405180910390f35b6101a061070d565b6040516101ad9190610d2a565b60405180910390f35b6101d060048036038101906101cb9190610a48565b610733565b005b600460009054906101000a900473ffffffffffffffffffffffffffffffffffffffff1681565b600660009054906101000a900473ffffffffffffffffffffffffffffffffffffffff1681565b600260009054906101000a900473ffffffffffffffffffffffffffffffffffffffff1681565b61024c61082b565b73ffffffffffffffffffffffffffffffffffffffff1661026a6102f2565b73ffffffffffffffffffffffffffffffffffffffff16146102c0576040517f08c379a00000000000000000000000000000000000000000000000000000000081526004016102b790610d80565b60405180910390fd5b6102ca6000610833565b565b600160009054906101000a900473ffffffffffffffffffffffffffffffffffffffff1681565b60008060009054906101000a900473ffffffffffffffffffffffffffffffffffffffff16905090565b600080600080600080600080600160009054906101000a900473ffffffffffffffffffffffffffffffffffffffff1673ffffffffffffffffffffffffffffffffffffffff16634f558e798a6040518263ffffffff1660e01b81526004016103829190610da0565b60206040518083038186803b15801561039a57600080fd5b505afa1580156103ae573d6000803e3d6000fd5b505050506040513d601f19601f820116820180604052508101906103d29190610a9a565b6103f757600080600080600080600080975097509750975097509750975097506106dc565b6000600460009054906101000a900473ffffffffffffffffffffffffffffffffffffffff1673ffffffffffffffffffffffffffffffffffffffff166350d15fbe8b6040518263ffffffff1660e01b81526004016104549190610da0565b60a06040518083038186803b15801561046c57600080fd5b505afa158015610480573d6000803e3d6000fd5b505050506040513d601f19601f820116820180604052508101906104a49190610ac3565b90506000600560009054906101000a900473ffffffffffffffffffffffffffffffffffffffff1673ffffffffffffffffffffffffffffffffffffffff1663ad217ae58c6040518263ffffffff1660e01b81526004016105039190610da0565b60606040518083038186803b15801561051b57600080fd5b505afa15801561052f573d6000803e3d6000fd5b505050506040513d601f19601f820116820180604052508101906105539190610aec565b9050600160009054906101000a900473ffffffffffffffffffffffffffffffffffffffff1673ffffffffffffffffffffffffffffffffffffffff16636352211e8c6040518263ffffffff1660e01b81526004016105b09190610da0565b60206040518083038186803b1580156105c857600080fd5b505afa1580156105dc573d6000803e3d6000fd5b505050506040513d601f19601f820116820180604052508101906106009190610a71565b600260009054906101000a900473ffffffffffffffffffffffffffffffffffffffff1673ffffffffffffffffffffffffffffffffffffffff1663d3e971658d6040518263ffffffff1660e01b815260040161065b9190610da0565b60206040518083038186803b15801561067357600080fd5b505afa158015610687573d6000803e3d6000fd5b505050506040513d601f19601f820116820180604052508101906106ab9190610b3e565b8360200151846040015185606001518660000151866000015187602001519950995099509950995099509950995050505b919395975091939597565b600360009054906101000a900473ffffffffffffffffffffffffffffffffffffffff1681565b600560009054906101000a900473ffffffffffffffffffffffffffffffffffffffff1681565b61073b61082b565b73ffffffffffffffffffffffffffffffffffffffff166107596102f2565b73ffffffffffffffffffffffffffffffffffffffff16146107af576040517f08c379a00000000000000000000000000000000000000000000000000000000081526004016107a690610d80565b60405180910390fd5b600073ffffffffffffffffffffffffffffffffffffffff168173ffffffffffffffffffffffffffffffffffffffff16141561081f576040517f08c379a000000000000000000000000000000000000000000000000000000000815260040161081690610d60565b60405180910390fd5b61082881610833565b50565b600033905090565b60008060009054906101000a900473ffffffffffffffffffffffffffffffffffffffff169050816000806101000a81548173ffffffffffffffffffffffffffffffffffffffff021916908373ffffffffffffffffffffffffffffffffffffffff1602179055508173ffffffffffffffffffffffffffffffffffffffff168173ffffffffffffffffffffffffffffffffffffffff167f8be0079c531659141344cd1fd0a4f28419497f9722a3daafe3b4186f6b6457e060405160405180910390a35050565b60008135905061090681610ffa565b92915050565b60008151905061091b81610ffa565b92915050565b60008151905061093081611011565b92915050565b600060a0828403121561094857600080fd5b61095260a0610dbb565b9050600061096284828501610a33565b600083015250602061097684828501610a33565b602083015250604061098a84828501610a33565b604083015250606061099e84828501610a33565b60608301525060806109b284828501610a33565b60808301525092915050565b6000606082840312156109d057600080fd5b6109da6060610dbb565b905060006109ea84828501610a33565b60008301525060206109fe84828501610a33565b6020830152506040610a1284828501610921565b60408301525092915050565b600081359050610a2d81611028565b92915050565b600081519050610a4281611028565b92915050565b600060208284031215610a5a57600080fd5b6000610a68848285016108f7565b91505092915050565b600060208284031215610a8357600080fd5b6000610a918482850161090c565b91505092915050565b600060208284031215610aac57600080fd5b6000610aba84828501610921565b91505092915050565b600060a08284031215610ad557600080fd5b6000610ae384828501610936565b91505092915050565b600060608284031215610afe57600080fd5b6000610b0c848285016109be565b91505092915050565b600060208284031215610b2757600080fd5b6000610b3584828501610a1e565b91505092915050565b600060208284031215610b5057600080fd5b6000610b5e84828501610a33565b91505092915050565b610b7081610df1565b82525050565b610b7f81610e39565b82525050565b610b8e81610e5d565b82525050565b610b9d81610e81565b82525050565b610bac81610ea5565b82525050565b610bbb81610ec9565b82525050565b610bca81610eed565b82525050565b6000610bdd602683610de0565b9150610be882610f82565b604082019050919050565b6000610c00602083610de0565b9150610c0b82610fd1565b602082019050919050565b610c1f81610e2f565b82525050565b6000602082019050610c3a6000830184610b67565b92915050565b600061010082019050610c56600083018b610b67565b610c63602083018a610c16565b610c706040830189610c16565b610c7d6060830188610c16565b610c8a6080830187610c16565b610c9760a0830186610c16565b610ca460c0830185610c16565b610cb160e0830184610c16565b9998505050505050505050565b6000602082019050610cd36000830184610b76565b92915050565b6000602082019050610cee6000830184610b85565b92915050565b6000602082019050610d096000830184610b94565b92915050565b6000602082019050610d246000830184610ba3565b92915050565b6000602082019050610d3f6000830184610bb2565b92915050565b6000602082019050610d5a6000830184610bc1565b92915050565b60006020820190508181036000830152610d7981610bd0565b9050919050565b60006020820190508181036000830152610d9981610bf3565b9050919050565b6000602082019050610db56000830184610c16565b92915050565b6000610dc5610dd6565b9050610dd18282610f11565b919050565b6000604051905090565b600082825260208201905092915050565b6000610dfc82610e0f565b9050919050565b60008115159050919050565b600073ffffffffffffffffffffffffffffffffffffffff82169050919050565b6000819050919050565b6000610e4482610e4b565b9050919050565b6000610e5682610e0f565b9050919050565b6000610e6882610e6f565b9050919050565b6000610e7a82610e0f565b9050919050565b6000610e8c82610e93565b9050919050565b6000610e9e82610e0f565b9050919050565b6000610eb082610eb7565b9050919050565b6000610ec282610e0f565b9050919050565b6000610ed482610edb565b9050919050565b6000610ee682610e0f565b9050919050565b6000610ef882610eff565b9050919050565b6000610f0a82610e0f565b9050919050565b610f1a82610f71565b810181811067ffffffffffffffff82111715610f3957610f38610f42565b5b80604052505050565b7f4e487b7100000000000000000000000000000000000000000000000000000000600052604160045260246000fd5b6000601f19601f8301169050919050565b7f4f776e61626c653a206e6577206f776e657220697320746865207a65726f206160008201527f6464726573730000000000000000000000000000000000000000000000000000602082015250565b7f4f776e61626c653a2063616c6c6572206973206e6f7420746865206f776e6572600082015250565b61100381610df1565b811461100e57600080fd5b50565b61101a81610e03565b811461102557600080fd5b50565b61103181610e2f565b811461103c57600080fd5b5056fea26469706673582212203441738d3d7aba274728f6cb2c6700a4d66591a15c609b99cc0531de30bbd8db64736f6c63430008040033",
  "linkReferences": {},
  "deployedLinkReferences": {}
}