{
  "_format": "hh-sol-artifact-1",
  "contractName": "WarriorStats",
  "sourceName": "contracts/WarriorStats.sol",
  "abi": [
    {
      "inputs": [],
      "stateMutability": "nonpayable",
      "type": "constructor"
    },
    {
      "anonymous": false,
      "inputs": [
        {
          "indexed": true,
          "internalType": "address",
          "name": "previousOwner",
          "type": "address"
        },
        {
          "indexed": true,
          "internalType": "address",
          "name": "newOwner",
          "type": "address"
        }
      ],
      "name": "OwnershipTransferred",
      "type": "event"
    },
    {
      "inputs": [
        {
          "internalType": "uint256",
          "name": "id",
          "type": "uint256"
        }
      ],
      "name": "burn",
      "outputs": [],
      "stateMutability": "nonpayable",
      "type": "function"
    },
    {
      "inputs": [
        {
          "internalType": "uint256",
          "name": "winner",
          "type": "uint256"
        },
        {
          "internalType": "uint256",
          "name": "loser",
          "type": "uint256"
        }
      ],
      "name": "increaseBattleStats",
      "outputs": [],
      "stateMutability": "nonpayable",
      "type": "function"
    },
    {
      "inputs": [
        {
          "internalType": "uint256",
          "name": "id",
          "type": "uint256"
        }
      ],
      "name": "mint",
      "outputs": [],
      "stateMutability": "nonpayable",
      "type": "function"
    },
    {
      "inputs": [],
      "name": "owner",
      "outputs": [
        {
          "internalType": "address",
          "name": "",
          "type": "address"
        }
      ],
      "stateMutability": "view",
      "type": "function"
    },
    {
      "inputs": [],
      "name": "renounceOwnership",
      "outputs": [],
      "stateMutability": "nonpayable",
      "type": "function"
    },
    {
      "inputs": [
        {
          "internalType": "address",
          "name": "addr",
          "type": "address"
        },
        {
          "internalType": "bool",
          "name": "allow",
          "type": "bool"
        }
      ],
      "name": "setModule",
      "outputs": [],
      "stateMutability": "nonpayable",
      "type": "function"
    },
    {
      "inputs": [
        {
          "internalType": "uint256",
          "name": "id",
          "type": "uint256"
        }
      ],
      "name": "stats",
      "outputs": [
        {
          "components": [
            {
              "internalType": "uint256",
              "name": "battlesWon",
              "type": "uint256"
            },
            {
              "internalType": "uint256",
              "name": "battlesLost",
              "type": "uint256"
            },
            {
              "internalType": "bool",
              "name": "_exists",
              "type": "bool"
            }
          ],
          "internalType": "struct StatsLib.Stats",
          "name": "",
          "type": "tuple"
        }
      ],
      "stateMutability": "view",
      "type": "function"
    },
    {
      "inputs": [
        {
          "internalType": "address",
          "name": "newOwner",
          "type": "address"
        }
      ],
      "name": "transferOwnership",
      "outputs": [],
      "stateMutability": "nonpayable",
      "type": "function"
    }
  ],
  "bytecode": "0x608060405234801561001057600080fd5b5061002d61002261003260201b60201c565b61003a60201b60201c565b6100fe565b600033905090565b60008060009054906101000a900473ffffffffffffffffffffffffffffffffffffffff169050816000806101000a81548173ffffffffffffffffffffffffffffffffffffffff021916908373ffffffffffffffffffffffffffffffffffffffff1602179055508173ffffffffffffffffffffffffffffffffffffffff168173ffffffffffffffffffffffffffffffffffffffff167f8be0079c531659141344cd1fd0a4f28419497f9722a3daafe3b4186f6b6457e060405160405180910390a35050565b610ec38061010d6000396000f3fe608060405234801561001057600080fd5b50600436106100885760003560e01c8063ad217ae51161005b578063ad217ae5146100ed578063b1662d581461011d578063c81f7c5214610139578063f2fde38b1461015557610088565b806342966c681461008d578063715018a6146100a95780638da5cb5b146100b3578063a0712d68146100d1575b600080fd5b6100a760048036038101906100a29190610a24565b610171565b005b6100b161023a565b005b6100bb6102c2565b6040516100c89190610c61565b60405180910390f35b6100eb60048036038101906100e69190610a24565b6102eb565b005b61010760048036038101906101029190610a24565b610421565b6040516101149190610cdc565b60405180910390f35b610137600480360381019061013291906109bf565b61047d565b005b610153600480360381019061014e9190610a4d565b6105ae565b005b61016f600480360381019061016a9190610996565b6106b8565b005b600160003373ffffffffffffffffffffffffffffffffffffffff1673ffffffffffffffffffffffffffffffffffffffff16815260200190815260200160002060009054906101000a900460ff166101fd576040517f08c379a00000000000000000000000000000000000000000000000000000000081526004016101f490610c9c565b60405180910390fd5b6002600082815260200190815260200160002060008082016000905560018201600090556002820160006101000a81549060ff0219169055505050565b6102426107b0565b73ffffffffffffffffffffffffffffffffffffffff166102606102c2565b73ffffffffffffffffffffffffffffffffffffffff16146102b6576040517f08c379a00000000000000000000000000000000000000000000000000000000081526004016102ad90610cbc565b60405180910390fd5b6102c060006107b8565b565b60008060009054906101000a900473ffffffffffffffffffffffffffffffffffffffff16905090565b600160003373ffffffffffffffffffffffffffffffffffffffff1673ffffffffffffffffffffffffffffffffffffffff16815260200190815260200160002060009054906101000a900460ff16610377576040517f08c379a000000000000000000000000000000000000000000000000000000000815260040161036e90610c9c565b60405180910390fd5b6103808161087c565b156103b4577f4e487b7100000000000000000000000000000000000000000000000000000000600052600160045260246000fd5b604051806060016040528060008152602001600081526020016001151581525060026000838152602001908152602001600020600082015181600001556020820151816001015560408201518160020160006101000a81548160ff02191690831515021790555090505050565b61042961091f565b6002600083815260200190815260200160002060405180606001604052908160008201548152602001600182015481526020016002820160009054906101000a900460ff1615151515815250509050919050565b6104856107b0565b73ffffffffffffffffffffffffffffffffffffffff166104a36102c2565b73ffffffffffffffffffffffffffffffffffffffff16146104f9576040517f08c379a00000000000000000000000000000000000000000000000000000000081526004016104f090610cbc565b60405180910390fd5b8061055257600160008373ffffffffffffffffffffffffffffffffffffffff1673ffffffffffffffffffffffffffffffffffffffff16815260200190815260200160002060006101000a81549060ff02191690556105aa565b60018060008473ffffffffffffffffffffffffffffffffffffffff1673ffffffffffffffffffffffffffffffffffffffff16815260200190815260200160002060006101000a81548160ff0219169083151502179055505b5050565b600160003373ffffffffffffffffffffffffffffffffffffffff1673ffffffffffffffffffffffffffffffffffffffff16815260200190815260200160002060009054906101000a900460ff1661063a576040517f08c379a000000000000000000000000000000000000000000000000000000000815260040161063190610c9c565b60405180910390fd5b6001600260008481526020019081526020016000206000015461065d9190610d23565b60026000848152602001908152602001600020600001819055506001600260008381526020019081526020016000206001015461069a9190610d23565b60026000838152602001908152602001600020600101819055505050565b6106c06107b0565b73ffffffffffffffffffffffffffffffffffffffff166106de6102c2565b73ffffffffffffffffffffffffffffffffffffffff1614610734576040517f08c379a000000000000000000000000000000000000000000000000000000000815260040161072b90610cbc565b60405180910390fd5b600073ffffffffffffffffffffffffffffffffffffffff168173ffffffffffffffffffffffffffffffffffffffff1614156107a4576040517f08c379a000000000000000000000000000000000000000000000000000000000815260040161079b90610c7c565b60405180910390fd5b6107ad816107b8565b50565b600033905090565b60008060009054906101000a900473ffffffffffffffffffffffffffffffffffffffff169050816000806101000a81548173ffffffffffffffffffffffffffffffffffffffff021916908373ffffffffffffffffffffffffffffffffffffffff1602179055508173ffffffffffffffffffffffffffffffffffffffff168173ffffffffffffffffffffffffffffffffffffffff167f8be0079c531659141344cd1fd0a4f28419497f9722a3daafe3b4186f6b6457e060405160405180910390a35050565b600073__$6330d13c972cad776d3972964a3484190b$__632fc5de88600260008581526020019081526020016000206040518263ffffffff1660e01b81526004016108c79190610cf7565b60206040518083038186803b1580156108df57600080fd5b505af41580156108f3573d6000803e3d6000fd5b505050506040513d601f19601f8201168201806040525081019061091791906109fb565b159050919050565b604051806060016040528060008152602001600081526020016000151581525090565b60008135905061095181610e48565b92915050565b60008135905061096681610e5f565b92915050565b60008151905061097b81610e5f565b92915050565b60008135905061099081610e76565b92915050565b6000602082840312156109a857600080fd5b60006109b684828501610942565b91505092915050565b600080604083850312156109d257600080fd5b60006109e085828601610942565b92505060206109f185828601610957565b9150509250929050565b600060208284031215610a0d57600080fd5b6000610a1b8482850161096c565b91505092915050565b600060208284031215610a3657600080fd5b6000610a4484828501610981565b91505092915050565b60008060408385031215610a6057600080fd5b6000610a6e85828601610981565b9250506020610a7f85828601610981565b9150509250929050565b610a9281610d90565b82525050565b610aa181610da2565b82525050565b610ab081610da2565b82525050565b6000610ac3602683610d12565b91507f4f776e61626c653a206e6577206f776e657220697320746865207a65726f206160008301527f64647265737300000000000000000000000000000000000000000000000000006020830152604082019050919050565b6000610b29601883610d12565b91507f6f6e6c79206d6f64756c65732063616e20646f207468697300000000000000006000830152602082019050919050565b6000610b69602083610d12565b91507f4f776e61626c653a2063616c6c6572206973206e6f7420746865206f776e65726000830152602082019050919050565b606082016000820151610bb26000850182610c43565b506020820151610bc56020850182610c43565b506040820151610bd86040850182610a98565b50505050565b606082016000808301549050610bf381610df2565b610c006000860182610c52565b5060018301549050610c1181610df2565b610c1e6020860182610c52565b5060028301549050610c2f81610dd8565b610c3c6040860182610aa7565b5050505050565b610c4c81610dce565b82525050565b610c5b81610dce565b82525050565b6000602082019050610c766000830184610a89565b92915050565b60006020820190508181036000830152610c9581610ab6565b9050919050565b60006020820190508181036000830152610cb581610b1c565b9050919050565b60006020820190508181036000830152610cd581610b5c565b9050919050565b6000606082019050610cf16000830184610b9c565b92915050565b6000606082019050610d0c6000830184610bde565b92915050565b600082825260208201905092915050565b6000610d2e82610dce565b9150610d3983610dce565b9250827fffffffffffffffffffffffffffffffffffffffffffffffffffffffffffffffff03821115610d6e57610d6d610e0c565b5b828201905092915050565b600060ff82169050919050565b6000819050919050565b6000610d9b82610dae565b9050919050565b60008115159050919050565b600073ffffffffffffffffffffffffffffffffffffffff82169050919050565b6000819050919050565b6000610deb610de683610e3b565b610d79565b9050919050565b6000610e05610e0083610e3b565b610d86565b9050919050565b7f4e487b7100000000000000000000000000000000000000000000000000000000600052601160045260246000fd5b60008160001c9050919050565b610e5181610d90565b8114610e5c57600080fd5b50565b610e6881610da2565b8114610e7357600080fd5b50565b610e7f81610dce565b8114610e8a57600080fd5b5056fea2646970667358221220ec01f9cb16ad8376de83c8a885a6d882971176e5c36228950a1b13316d04129664736f6c63430008000033",
  "linkReferences": {
    "contracts/lib/structs/StatsLib.sol": {
      "StatsLib": [
        {
          "length": 20,
          "start": 2445
        }
      ]
    }
  },
  "deployedLinkReferences": {
    "contracts/lib/structs/StatsLib.sol": {
      "StatsLib": [
        {
          "length": 20,
          "start": 2176
        }
      ]
    }
  }
}