{
  "_format": "hh-sol-artifact-1",
  "contractName": "WarriorFactory",
  "sourceName": "contracts/WarriorFactory.sol",
  "abi": [
    {
      "inputs": [
        {
          "internalType": "address",
          "name": "cronosWarriorsAddr",
          "type": "address"
        },
        {
          "internalType": "address",
          "name": "warriorSkillsAddr",
          "type": "address"
        },
        {
          "internalType": "address",
          "name": "warriorStatsAddr",
          "type": "address"
        },
        {
          "internalType": "address",
          "name": "warriorVisualsAddr",
          "type": "address"
        },
        {
          "internalType": "address",
          "name": "treasuryAddr",
          "type": "address"
        }
      ],
      "stateMutability": "nonpayable",
      "type": "constructor"
    },
    {
      "anonymous": false,
      "inputs": [
        {
          "indexed": true,
          "internalType": "address",
          "name": "previousOwner",
          "type": "address"
        },
        {
          "indexed": true,
          "internalType": "address",
          "name": "newOwner",
          "type": "address"
        }
      ],
      "name": "OwnershipTransferred",
      "type": "event"
    },
    {
      "anonymous": false,
      "inputs": [
        {
          "indexed": false,
          "internalType": "uint256",
          "name": "id",
          "type": "uint256"
        },
        {
          "indexed": false,
          "internalType": "address",
          "name": "recipient",
          "type": "address"
        }
      ],
      "name": "WarriorBurned",
      "type": "event"
    },
    {
      "anonymous": false,
      "inputs": [
        {
          "indexed": false,
          "internalType": "uint256",
          "name": "id",
          "type": "uint256"
        },
        {
          "indexed": false,
          "internalType": "address",
          "name": "owner",
          "type": "address"
        }
      ],
      "name": "WarriorMinted",
      "type": "event"
    },
    {
      "inputs": [
        {
          "internalType": "uint256",
          "name": "id",
          "type": "uint256"
        },
        {
          "internalType": "address",
          "name": "recipient",
          "type": "address"
        }
      ],
      "name": "burn",
      "outputs": [],
      "stateMutability": "nonpayable",
      "type": "function"
    },
    {
      "inputs": [],
      "name": "cronosWarriors",
      "outputs": [
        {
          "internalType": "contract CronosWarriors",
          "name": "",
          "type": "address"
        }
      ],
      "stateMutability": "view",
      "type": "function"
    },
    {
      "inputs": [
        {
          "internalType": "string",
          "name": "name",
          "type": "string"
        }
      ],
      "name": "mint",
      "outputs": [
        {
          "internalType": "uint256",
          "name": "",
          "type": "uint256"
        }
      ],
      "stateMutability": "payable",
      "type": "function"
    },
    {
      "inputs": [],
      "name": "owner",
      "outputs": [
        {
          "internalType": "address",
          "name": "",
          "type": "address"
        }
      ],
      "stateMutability": "view",
      "type": "function"
    },
    {
      "inputs": [],
      "name": "renounceOwnership",
      "outputs": [],
      "stateMutability": "nonpayable",
      "type": "function"
    },
    {
      "inputs": [
        {
          "internalType": "address",
          "name": "addr",
          "type": "address"
        },
        {
          "internalType": "bool",
          "name": "allow",
          "type": "bool"
        }
      ],
      "name": "setModule",
      "outputs": [],
      "stateMutability": "nonpayable",
      "type": "function"
    },
    {
      "inputs": [
        {
          "internalType": "address",
          "name": "newOwner",
          "type": "address"
        }
      ],
      "name": "transferOwnership",
      "outputs": [],
      "stateMutability": "nonpayable",
      "type": "function"
    },
    {
      "inputs": [],
      "name": "treasury",
      "outputs": [
        {
          "internalType": "contract Treasury",
          "name": "",
          "type": "address"
        }
      ],
      "stateMutability": "view",
      "type": "function"
    },
    {
      "inputs": [],
      "name": "warriorSkills",
      "outputs": [
        {
          "internalType": "contract WarriorSkills",
          "name": "",
          "type": "address"
        }
      ],
      "stateMutability": "view",
      "type": "function"
    },
    {
      "inputs": [],
      "name": "warriorStats",
      "outputs": [
        {
          "internalType": "contract WarriorStats",
          "name": "",
          "type": "address"
        }
      ],
      "stateMutability": "view",
      "type": "function"
    },
    {
      "inputs": [],
      "name": "warriorVisuals",
      "outputs": [
        {
          "internalType": "contract WarriorVisuals",
          "name": "",
          "type": "address"
        }
      ],
      "stateMutability": "view",
      "type": "function"
    }
  ],
  "bytecode": "0x60806040523480156200001157600080fd5b5060405162001a9938038062001a99833981810160405281019062000037919062000292565b620000576200004b620001af60201b60201c565b620001b760201b60201c565b84600260006101000a81548173ffffffffffffffffffffffffffffffffffffffff021916908373ffffffffffffffffffffffffffffffffffffffff16021790555083600360006101000a81548173ffffffffffffffffffffffffffffffffffffffff021916908373ffffffffffffffffffffffffffffffffffffffff16021790555082600460006101000a81548173ffffffffffffffffffffffffffffffffffffffff021916908373ffffffffffffffffffffffffffffffffffffffff16021790555081600560006101000a81548173ffffffffffffffffffffffffffffffffffffffff021916908373ffffffffffffffffffffffffffffffffffffffff16021790555080600660006101000a81548173ffffffffffffffffffffffffffffffffffffffff021916908373ffffffffffffffffffffffffffffffffffffffff1602179055506000600781905550505050505062000362565b600033905090565b60008060009054906101000a900473ffffffffffffffffffffffffffffffffffffffff169050816000806101000a81548173ffffffffffffffffffffffffffffffffffffffff021916908373ffffffffffffffffffffffffffffffffffffffff1602179055508173ffffffffffffffffffffffffffffffffffffffff168173ffffffffffffffffffffffffffffffffffffffff167f8be0079c531659141344cd1fd0a4f28419497f9722a3daafe3b4186f6b6457e060405160405180910390a35050565b6000815190506200028c8162000348565b92915050565b600080600080600060a08688031215620002ab57600080fd5b6000620002bb888289016200027b565b9550506020620002ce888289016200027b565b9450506040620002e1888289016200027b565b9350506060620002f4888289016200027b565b925050608062000307888289016200027b565b9150509295509295909350565b6000620003218262000328565b9050919050565b600073ffffffffffffffffffffffffffffffffffffffff82169050919050565b620003538162000314565b81146200035f57600080fd5b50565b61172780620003726000396000f3fe60806040526004361061009c5760003560e01c80639cee4822116100645780639cee482214610164578063b1662d581461018f578063d85d3d27146101b8578063f2fde38b146101e8578063f99cd25b14610211578063fcd3533c1461023c5761009c565b806316001238146100a157806361d027b3146100cc5780636c69e521146100f7578063715018a6146101225780638da5cb5b14610139575b600080fd5b3480156100ad57600080fd5b506100b6610265565b6040516100c39190611302565b60405180910390f35b3480156100d857600080fd5b506100e161028b565b6040516100ee91906112b1565b60405180910390f35b34801561010357600080fd5b5061010c6102b1565b6040516101199190611296565b60405180910390f35b34801561012e57600080fd5b506101376102d7565b005b34801561014557600080fd5b5061014e61035f565b60405161015b919061127b565b60405180910390f35b34801561017057600080fd5b50610179610388565b60405161018691906112cc565b60405180910390f35b34801561019b57600080fd5b506101b660048036038101906101b19190611002565b6103ae565b005b6101d260048036038101906101cd9190611067565b6104df565b6040516101df919061137d565b60405180910390f35b3480156101f457600080fd5b5061020f600480360381019061020a9190610fb0565b6108dd565b005b34801561021d57600080fd5b506102266109d5565b60405161023391906112e7565b60405180910390f35b34801561024857600080fd5b50610263600480360381019061025e91906110a8565b6109fb565b005b600560009054906101000a900473ffffffffffffffffffffffffffffffffffffffff1681565b600660009054906101000a900473ffffffffffffffffffffffffffffffffffffffff1681565b600260009054906101000a900473ffffffffffffffffffffffffffffffffffffffff1681565b6102df610e13565b73ffffffffffffffffffffffffffffffffffffffff166102fd61035f565b73ffffffffffffffffffffffffffffffffffffffff1614610353576040517f08c379a000000000000000000000000000000000000000000000000000000000815260040161034a9061135d565b60405180910390fd5b61035d6000610e1b565b565b60008060009054906101000a900473ffffffffffffffffffffffffffffffffffffffff16905090565b600360009054906101000a900473ffffffffffffffffffffffffffffffffffffffff1681565b6103b6610e13565b73ffffffffffffffffffffffffffffffffffffffff166103d461035f565b73ffffffffffffffffffffffffffffffffffffffff161461042a576040517f08c379a00000000000000000000000000000000000000000000000000000000081526004016104219061135d565b60405180910390fd5b8061048357600160008373ffffffffffffffffffffffffffffffffffffffff1673ffffffffffffffffffffffffffffffffffffffff16815260200190815260200160002060006101000a81549060ff02191690556104db565b60018060008473ffffffffffffffffffffffffffffffffffffffff1673ffffffffffffffffffffffffffffffffffffffff16815260200190815260200160002060006101000a81548160ff0219169083151502179055505b5050565b60008060016007546104f19190611497565b60078190559050600260009054906101000a900473ffffffffffffffffffffffffffffffffffffffff1673ffffffffffffffffffffffffffffffffffffffff16634f558e79826040518263ffffffff1660e01b8152600401610553919061137d565b60206040518083038186803b15801561056b57600080fd5b505afa15801561057f573d6000803e3d6000fd5b505050506040513d601f19601f820116820180604052508101906105a3919061103e565b156105d7577f4e487b7100000000000000000000000000000000000000000000000000000000600052600160045260246000fd5b600660009054906101000a900473ffffffffffffffffffffffffffffffffffffffff1673ffffffffffffffffffffffffffffffffffffffff1663a0712d6834836040518363ffffffff1660e01b8152600401610633919061137d565b6000604051808303818588803b15801561064c57600080fd5b505af1158015610660573d6000803e3d6000fd5b5050505050600560009054906101000a900473ffffffffffffffffffffffffffffffffffffffff1673ffffffffffffffffffffffffffffffffffffffff166377097fc882856040518363ffffffff1660e01b81526004016106c29291906113ea565b600060405180830381600087803b1580156106dc57600080fd5b505af11580156106f0573d6000803e3d6000fd5b50505050600360009054906101000a900473ffffffffffffffffffffffffffffffffffffffff1673ffffffffffffffffffffffffffffffffffffffff1663a0712d68826040518263ffffffff1660e01b815260040161074f919061137d565b600060405180830381600087803b15801561076957600080fd5b505af115801561077d573d6000803e3d6000fd5b50505050600460009054906101000a900473ffffffffffffffffffffffffffffffffffffffff1673ffffffffffffffffffffffffffffffffffffffff1663a0712d68826040518263ffffffff1660e01b81526004016107dc919061137d565b600060405180830381600087803b1580156107f657600080fd5b505af115801561080a573d6000803e3d6000fd5b50505050600260009054906101000a900473ffffffffffffffffffffffffffffffffffffffff1673ffffffffffffffffffffffffffffffffffffffff1663a0712d68826040518263ffffffff1660e01b8152600401610869919061137d565b600060405180830381600087803b15801561088357600080fd5b505af1158015610897573d6000803e3d6000fd5b505050507f434a952a98f00e28fb9ea86aed27f71fa299487fffdd01f1ee2c9360afa303d881336040516108cc929190611398565b60405180910390a180915050919050565b6108e5610e13565b73ffffffffffffffffffffffffffffffffffffffff1661090361035f565b73ffffffffffffffffffffffffffffffffffffffff1614610959576040517f08c379a00000000000000000000000000000000000000000000000000000000081526004016109509061135d565b60405180910390fd5b600073ffffffffffffffffffffffffffffffffffffffff168173ffffffffffffffffffffffffffffffffffffffff1614156109c9576040517f08c379a00000000000000000000000000000000000000000000000000000000081526004016109c09061131d565b60405180910390fd5b6109d281610e1b565b50565b600460009054906101000a900473ffffffffffffffffffffffffffffffffffffffff1681565b600260009054906101000a900473ffffffffffffffffffffffffffffffffffffffff1673ffffffffffffffffffffffffffffffffffffffff16636352211e836040518263ffffffff1660e01b8152600401610a56919061137d565b60206040518083038186803b158015610a6e57600080fd5b505afa158015610a82573d6000803e3d6000fd5b505050506040513d601f19601f82011682018060405250810190610aa69190610fd9565b73ffffffffffffffffffffffffffffffffffffffff163373ffffffffffffffffffffffffffffffffffffffff1614610b13576040517f08c379a0000000000000000000000000000000000000000000000000000000008152600401610b0a9061133d565b60405180910390fd5b600360009054906101000a900473ffffffffffffffffffffffffffffffffffffffff1673ffffffffffffffffffffffffffffffffffffffff166342966c68836040518263ffffffff1660e01b8152600401610b6e919061137d565b600060405180830381600087803b158015610b8857600080fd5b505af1158015610b9c573d6000803e3d6000fd5b50505050600460009054906101000a900473ffffffffffffffffffffffffffffffffffffffff1673ffffffffffffffffffffffffffffffffffffffff166342966c68836040518263ffffffff1660e01b8152600401610bfb919061137d565b600060405180830381600087803b158015610c1557600080fd5b505af1158015610c29573d6000803e3d6000fd5b50505050600560009054906101000a900473ffffffffffffffffffffffffffffffffffffffff1673ffffffffffffffffffffffffffffffffffffffff166342966c68836040518263ffffffff1660e01b8152600401610c88919061137d565b600060405180830381600087803b158015610ca257600080fd5b505af1158015610cb6573d6000803e3d6000fd5b50505050600660009054906101000a900473ffffffffffffffffffffffffffffffffffffffff1673ffffffffffffffffffffffffffffffffffffffff1663ff5ee77f83836040518363ffffffff1660e01b8152600401610d179291906113c1565b600060405180830381600087803b158015610d3157600080fd5b505af1158015610d45573d6000803e3d6000fd5b50505050600260009054906101000a900473ffffffffffffffffffffffffffffffffffffffff1673ffffffffffffffffffffffffffffffffffffffff166342966c68836040518263ffffffff1660e01b8152600401610da4919061137d565b600060405180830381600087803b158015610dbe57600080fd5b505af1158015610dd2573d6000803e3d6000fd5b505050507f59bcba6a5d1ea8b61f7c2656523dda11af2309da936f882649a821ac51a44ec98282604051610e07929190611398565b60405180910390a15050565b600033905090565b60008060009054906101000a900473ffffffffffffffffffffffffffffffffffffffff169050816000806101000a81548173ffffffffffffffffffffffffffffffffffffffff021916908373ffffffffffffffffffffffffffffffffffffffff1602179055508173ffffffffffffffffffffffffffffffffffffffff168173ffffffffffffffffffffffffffffffffffffffff167f8be0079c531659141344cd1fd0a4f28419497f9722a3daafe3b4186f6b6457e060405160405180910390a35050565b6000610ef2610eed8461144b565b61141a565b905082815260208101848484011115610f0a57600080fd5b610f158482856115fb565b509392505050565b600081359050610f2c816116ac565b92915050565b600081519050610f41816116ac565b92915050565b600081359050610f56816116c3565b92915050565b600081519050610f6b816116c3565b92915050565b600082601f830112610f8257600080fd5b8135610f92848260208601610edf565b91505092915050565b600081359050610faa816116da565b92915050565b600060208284031215610fc257600080fd5b6000610fd084828501610f1d565b91505092915050565b600060208284031215610feb57600080fd5b6000610ff984828501610f32565b91505092915050565b6000806040838503121561101557600080fd5b600061102385828601610f1d565b925050602061103485828601610f47565b9150509250929050565b60006020828403121561105057600080fd5b600061105e84828501610f5c565b91505092915050565b60006020828403121561107957600080fd5b600082013567ffffffffffffffff81111561109357600080fd5b61109f84828501610f71565b91505092915050565b600080604083850312156110bb57600080fd5b60006110c985828601610f9b565b92505060206110da85828601610f1d565b9150509250929050565b6110ed816114ff565b82525050565b6110fc816114ed565b82525050565b61110b81611547565b82525050565b61111a8161156b565b82525050565b6111298161158f565b82525050565b611138816115b3565b82525050565b611147816115d7565b82525050565b60006111588261147b565b6111628185611486565b935061117281856020860161160a565b61117b8161169b565b840191505092915050565b6000611193602683611486565b91507f4f776e61626c653a206e6577206f776e657220697320746865207a65726f206160008301527f64647265737300000000000000000000000000000000000000000000000000006020830152604082019050919050565b60006111f9601783611486565b91507f4f6e6c79206f776e65722063616e20646f2074686973210000000000000000006000830152602082019050919050565b6000611239602083611486565b91507f4f776e61626c653a2063616c6c6572206973206e6f7420746865206f776e65726000830152602082019050919050565b6112758161153d565b82525050565b600060208201905061129060008301846110f3565b92915050565b60006020820190506112ab6000830184611102565b92915050565b60006020820190506112c66000830184611111565b92915050565b60006020820190506112e16000830184611120565b92915050565b60006020820190506112fc600083018461112f565b92915050565b6000602082019050611317600083018461113e565b92915050565b6000602082019050818103600083015261133681611186565b9050919050565b60006020820190508181036000830152611356816111ec565b9050919050565b600060208201905081810360008301526113768161122c565b9050919050565b6000602082019050611392600083018461126c565b92915050565b60006040820190506113ad600083018561126c565b6113ba60208301846110f3565b9392505050565b60006040820190506113d6600083018561126c565b6113e360208301846110e4565b9392505050565b60006040820190506113ff600083018561126c565b8181036020830152611411818461114d565b90509392505050565b6000604051905081810181811067ffffffffffffffff821117156114415761144061166c565b5b8060405250919050565b600067ffffffffffffffff8211156114665761146561166c565b5b601f19601f8301169050602081019050919050565b600081519050919050565b600082825260208201905092915050565b60006114a28261153d565b91506114ad8361153d565b9250827fffffffffffffffffffffffffffffffffffffffffffffffffffffffffffffffff038211156114e2576114e161163d565b5b828201905092915050565b60006114f88261151d565b9050919050565b600061150a8261151d565b9050919050565b60008115159050919050565b600073ffffffffffffffffffffffffffffffffffffffff82169050919050565b6000819050919050565b600061155282611559565b9050919050565b60006115648261151d565b9050919050565b60006115768261157d565b9050919050565b60006115888261151d565b9050919050565b600061159a826115a1565b9050919050565b60006115ac8261151d565b9050919050565b60006115be826115c5565b9050919050565b60006115d08261151d565b9050919050565b60006115e2826115e9565b9050919050565b60006115f48261151d565b9050919050565b82818337600083830152505050565b60005b8381101561162857808201518184015260208101905061160d565b83811115611637576000848401525b50505050565b7f4e487b7100000000000000000000000000000000000000000000000000000000600052601160045260246000fd5b7f4e487b7100000000000000000000000000000000000000000000000000000000600052604160045260246000fd5b6000601f19601f8301169050919050565b6116b5816114ed565b81146116c057600080fd5b50565b6116cc81611511565b81146116d757600080fd5b50565b6116e38161153d565b81146116ee57600080fd5b5056fea264697066735822122032ddb5b1be2c008ae5825b7a815cf5a8f3e480af038ae7bccff0837d316197e664736f6c63430008000033",
  "linkReferences": {},
  "deployedLinkReferences": {}
}