{
  "_format": "hh-sol-artifact-1",
  "contractName": "WarriorSkills",
  "sourceName": "contracts/WarriorSkills.sol",
  "abi": [
    {
      "inputs": [
        {
          "internalType": "address",
          "name": "cronosWarriorsAddr",
          "type": "address"
        },
        {
          "internalType": "address",
          "name": "treasuryAddr",
          "type": "address"
        }
      ],
      "stateMutability": "nonpayable",
      "type": "constructor"
    },
    {
      "anonymous": false,
      "inputs": [
        {
          "indexed": true,
          "internalType": "address",
          "name": "previousOwner",
          "type": "address"
        },
        {
          "indexed": true,
          "internalType": "address",
          "name": "newOwner",
          "type": "address"
        }
      ],
      "name": "OwnershipTransferred",
      "type": "event"
    },
    {
      "inputs": [
        {
          "internalType": "uint256",
          "name": "id",
          "type": "uint256"
        }
      ],
      "name": "burn",
      "outputs": [],
      "stateMutability": "nonpayable",
      "type": "function"
    },
    {
      "inputs": [],
      "name": "cronosWarriors",
      "outputs": [
        {
          "internalType": "contract CronosWarriors",
          "name": "",
          "type": "address"
        }
      ],
      "stateMutability": "view",
      "type": "function"
    },
    {
      "inputs": [
        {
          "internalType": "uint256",
          "name": "id",
          "type": "uint256"
        }
      ],
      "name": "increaseAttack",
      "outputs": [],
      "stateMutability": "nonpayable",
      "type": "function"
    },
    {
      "inputs": [
        {
          "internalType": "uint256",
          "name": "id",
          "type": "uint256"
        }
      ],
      "name": "increaseDefense",
      "outputs": [],
      "stateMutability": "nonpayable",
      "type": "function"
    },
    {
      "inputs": [
        {
          "internalType": "uint256",
          "name": "id",
          "type": "uint256"
        }
      ],
      "name": "increaseStamina",
      "outputs": [],
      "stateMutability": "nonpayable",
      "type": "function"
    },
    {
      "inputs": [
        {
          "internalType": "uint256",
          "name": "id",
          "type": "uint256"
        }
      ],
      "name": "mint",
      "outputs": [],
      "stateMutability": "nonpayable",
      "type": "function"
    },
    {
      "inputs": [],
      "name": "owner",
      "outputs": [
        {
          "internalType": "address",
          "name": "",
          "type": "address"
        }
      ],
      "stateMutability": "view",
      "type": "function"
    },
    {
      "inputs": [
        {
          "internalType": "uint256",
          "name": "id",
          "type": "uint256"
        }
      ],
      "name": "pointsAvailable",
      "outputs": [
        {
          "internalType": "uint256",
          "name": "",
          "type": "uint256"
        }
      ],
      "stateMutability": "view",
      "type": "function"
    },
    {
      "inputs": [],
      "name": "renounceOwnership",
      "outputs": [],
      "stateMutability": "nonpayable",
      "type": "function"
    },
    {
      "inputs": [
        {
          "internalType": "address",
          "name": "addr",
          "type": "address"
        },
        {
          "internalType": "bool",
          "name": "allow",
          "type": "bool"
        }
      ],
      "name": "setModule",
      "outputs": [],
      "stateMutability": "nonpayable",
      "type": "function"
    },
    {
      "inputs": [
        {
          "internalType": "uint256",
          "name": "id",
          "type": "uint256"
        }
      ],
      "name": "skills",
      "outputs": [
        {
          "components": [
            {
              "internalType": "uint256",
              "name": "pointsSpend",
              "type": "uint256"
            },
            {
              "internalType": "uint256",
              "name": "attack",
              "type": "uint256"
            },
            {
              "internalType": "uint256",
              "name": "defense",
              "type": "uint256"
            },
            {
              "internalType": "uint256",
              "name": "stamina",
              "type": "uint256"
            }
          ],
          "internalType": "struct SkillsLib.Skills",
          "name": "",
          "type": "tuple"
        }
      ],
      "stateMutability": "view",
      "type": "function"
    },
    {
      "inputs": [
        {
          "internalType": "address",
          "name": "newOwner",
          "type": "address"
        }
      ],
      "name": "transferOwnership",
      "outputs": [],
      "stateMutability": "nonpayable",
      "type": "function"
    },
    {
      "inputs": [],
      "name": "treasury",
      "outputs": [
        {
          "internalType": "contract Treasury",
          "name": "",
          "type": "address"
        }
      ],
      "stateMutability": "view",
      "type": "function"
    },
    {
      "inputs": [
        {
          "internalType": "uint256",
          "name": "id",
          "type": "uint256"
        }
      ],
      "name": "warriorExperience",
      "outputs": [
        {
          "internalType": "uint256",
          "name": "",
          "type": "uint256"
        }
      ],
      "stateMutability": "view",
      "type": "function"
    },
    {
      "inputs": [
        {
          "internalType": "uint256",
          "name": "id",
          "type": "uint256"
        }
      ],
      "name": "warriorHealth",
      "outputs": [
        {
          "internalType": "uint256",
          "name": "",
          "type": "uint256"
        }
      ],
      "stateMutability": "view",
      "type": "function"
    },
    {
      "inputs": [
        {
          "internalType": "uint256",
          "name": "id",
          "type": "uint256"
        }
      ],
      "name": "warriorLevel",
      "outputs": [
        {
          "internalType": "uint256",
          "name": "",
          "type": "uint256"
        }
      ],
      "stateMutability": "view",
      "type": "function"
    },
    {
      "inputs": [
        {
          "internalType": "uint256",
          "name": "id",
          "type": "uint256"
        }
      ],
      "name": "warriorSkills",
      "outputs": [
        {
          "internalType": "uint256",
          "name": "",
          "type": "uint256"
        },
        {
          "internalType": "uint256",
          "name": "",
          "type": "uint256"
        },
        {
          "internalType": "uint256",
          "name": "",
          "type": "uint256"
        },
        {
          "internalType": "uint256",
          "name": "",
          "type": "uint256"
        }
      ],
      "stateMutability": "view",
      "type": "function"
    }
  ],
  "bytecode": "0x60806040523480156200001157600080fd5b5060405162001cff38038062001cff8339818101604052810190620000379190620001c4565b620000576200004b620000e160201b60201c565b620000e960201b60201c565b81600260006101000a81548173ffffffffffffffffffffffffffffffffffffffff021916908373ffffffffffffffffffffffffffffffffffffffff16021790555080600360006101000a81548173ffffffffffffffffffffffffffffffffffffffff021916908373ffffffffffffffffffffffffffffffffffffffff160217905550505062000253565b600033905090565b60008060009054906101000a900473ffffffffffffffffffffffffffffffffffffffff169050816000806101000a81548173ffffffffffffffffffffffffffffffffffffffff021916908373ffffffffffffffffffffffffffffffffffffffff1602179055508173ffffffffffffffffffffffffffffffffffffffff168173ffffffffffffffffffffffffffffffffffffffff167f8be0079c531659141344cd1fd0a4f28419497f9722a3daafe3b4186f6b6457e060405160405180910390a35050565b600081519050620001be8162000239565b92915050565b60008060408385031215620001d857600080fd5b6000620001e885828601620001ad565b9250506020620001fb85828601620001ad565b9150509250929050565b6000620002128262000219565b9050919050565b600073ffffffffffffffffffffffffffffffffffffffff82169050919050565b620002448162000205565b81146200025057600080fd5b50565b611a9c80620002636000396000f3fe608060405234801561001057600080fd5b506004361061010b5760003560e01c80638da5cb5b116100a2578063baee89b211610071578063baee89b214610293578063c6362851146102c3578063d325201c146102df578063ed07f3ae1461030f578063f2fde38b1461033f5761010b565b80638da5cb5b14610221578063a0712d681461023f578063a7be77ca1461025b578063b1662d58146102775761010b565b806361d027b3116100de57806361d027b3146101bf5780636c69e521146101dd578063715018a6146101fb57806382e3675a146102055761010b565b80631b3ad6a41461011057806342966c681461014057806350d15fbe1461015c5780635c5188951461018c575b600080fd5b61012a60048036038101906101259190611406565b61035b565b6040516101379190611841565b60405180910390f35b61015a60048036038101906101559190611406565b6103f3565b005b61017660048036038101906101719190611406565b6104b8565b60405161018391906117f0565b60405180910390f35b6101a660048036038101906101a19190611406565b61050d565b6040516101b69493929190611885565b60405180910390f35b6101c7610581565b6040516101d49190611735565b60405180910390f35b6101e56105a7565b6040516101f2919061171a565b60405180910390f35b6102036105cd565b005b61021f600480360381019061021a9190611406565b610655565b005b610229610805565b60405161023691906116ff565b60405180910390f35b61025960048036038101906102549190611406565b61082e565b005b61027560048036038101906102709190611406565b61095d565b005b610291600480360381019061028c91906113a1565b610b0d565b005b6102ad60048036038101906102a89190611406565b610c3e565b6040516102ba9190611841565b60405180910390f35b6102dd60048036038101906102d89190611406565b610cf2565b005b6102f960048036038101906102f49190611406565b610ea2565b6040516103069190611841565b60405180910390f35b61032960048036038101906103249190611406565b610f52565b6040516103369190611841565b60405180910390f35b6103596004803603810190610354919061134f565b611002565b005b600073__$785a3750a744651a4256c1a0a9b0861e2b$__631b3ad6a461038084610c3e565b6040518263ffffffff1660e01b815260040161039c9190611826565b60206040518083038186803b1580156103b457600080fd5b505af41580156103c8573d6000803e3d6000fd5b505050506040513d601f19601f820116820180604052508101906103ec919061142f565b9050919050565b600160003373ffffffffffffffffffffffffffffffffffffffff1673ffffffffffffffffffffffffffffffffffffffff16815260200190815260200160002060009054906101000a900460ff1661047f576040517f08c379a0000000000000000000000000000000000000000000000000000000008152600401610476906117b0565b60405180910390fd5b60046000828152602001908152602001600020600080820160009055600182016000905560028201600090556003820160009055505050565b6104c06112a9565b600460008381526020019081526020016000206040518060800160405290816000820154815260200160018201548152602001600282015481526020016003820154815250509050919050565b600080600080600060046000878152602001908152602001600020604051806080016040529081600082015481526020016001820154815260200160028201548152602001600382015481525050905080600001518160200151826040015183606001519450945094509450509193509193565b600360009054906101000a900473ffffffffffffffffffffffffffffffffffffffff1681565b600260009054906101000a900473ffffffffffffffffffffffffffffffffffffffff1681565b6105d56110fa565b73ffffffffffffffffffffffffffffffffffffffff166105f3610805565b73ffffffffffffffffffffffffffffffffffffffff1614610649576040517f08c379a0000000000000000000000000000000000000000000000000000000008152600401610640906117d0565b60405180910390fd5b6106536000611102565b565b803373ffffffffffffffffffffffffffffffffffffffff16600260009054906101000a900473ffffffffffffffffffffffffffffffffffffffff1673ffffffffffffffffffffffffffffffffffffffff16636352211e836040518263ffffffff1660e01b81526004016106c89190611841565b60206040518083038186803b1580156106e057600080fd5b505afa1580156106f4573d6000803e3d6000fd5b505050506040513d601f19601f820116820180604052508101906107189190611378565b73ffffffffffffffffffffffffffffffffffffffff161461076e576040517f08c379a000000000000000000000000000000000000000000000000000000000815260040161076590611790565b60405180910390fd5b81600061077a82610ea2565b116107ba576040517f08c379a00000000000000000000000000000000000000000000000000000000081526004016107b190611770565b60405180910390fd5b600160046000858152602001908152602001600020600201546107dd91906118db565b6004600085815260200190815260200160002060020181905550610800836111c6565b505050565b60008060009054906101000a900473ffffffffffffffffffffffffffffffffffffffff16905090565b600160003373ffffffffffffffffffffffffffffffffffffffff1673ffffffffffffffffffffffffffffffffffffffff16815260200190815260200160002060009054906101000a900460ff166108ba576040517f08c379a00000000000000000000000000000000000000000000000000000000081526004016108b1906117b0565b60405180910390fd5b6108c381611206565b156108f7577f4e487b7100000000000000000000000000000000000000000000000000000000600052600160045260246000fd5b60405180608001604052806001815260200160018152602001600181526020016000815250600460008381526020019081526020016000206000820151816000015560208201518160010155604082015181600201556060820151816003015590505050565b803373ffffffffffffffffffffffffffffffffffffffff16600260009054906101000a900473ffffffffffffffffffffffffffffffffffffffff1673ffffffffffffffffffffffffffffffffffffffff16636352211e836040518263ffffffff1660e01b81526004016109d09190611841565b60206040518083038186803b1580156109e857600080fd5b505afa1580156109fc573d6000803e3d6000fd5b505050506040513d601f19601f82011682018060405250810190610a209190611378565b73ffffffffffffffffffffffffffffffffffffffff1614610a76576040517f08c379a0000000000000000000000000000000000000000000000000000000008152600401610a6d90611790565b60405180910390fd5b816000610a8282610ea2565b11610ac2576040517f08c379a0000000000000000000000000000000000000000000000000000000008152600401610ab990611770565b60405180910390fd5b60016004600085815260200190815260200160002060030154610ae591906118db565b6004600085815260200190815260200160002060030181905550610b08836111c6565b505050565b610b156110fa565b73ffffffffffffffffffffffffffffffffffffffff16610b33610805565b73ffffffffffffffffffffffffffffffffffffffff1614610b89576040517f08c379a0000000000000000000000000000000000000000000000000000000008152600401610b80906117d0565b60405180910390fd5b80610be257600160008373ffffffffffffffffffffffffffffffffffffffff1673ffffffffffffffffffffffffffffffffffffffff16815260200190815260200160002060006101000a81549060ff0219169055610c3a565b60018060008473ffffffffffffffffffffffffffffffffffffffff1673ffffffffffffffffffffffffffffffffffffffff16815260200190815260200160002060006101000a81548160ff0219169083151502179055505b5050565b6000600360009054906101000a900473ffffffffffffffffffffffffffffffffffffffff1673ffffffffffffffffffffffffffffffffffffffff1663d3e97165836040518263ffffffff1660e01b8152600401610c9b9190611841565b60206040518083038186803b158015610cb357600080fd5b505afa158015610cc7573d6000803e3d6000fd5b505050506040513d601f19601f82011682018060405250810190610ceb919061142f565b9050919050565b803373ffffffffffffffffffffffffffffffffffffffff16600260009054906101000a900473ffffffffffffffffffffffffffffffffffffffff1673ffffffffffffffffffffffffffffffffffffffff16636352211e836040518263ffffffff1660e01b8152600401610d659190611841565b60206040518083038186803b158015610d7d57600080fd5b505afa158015610d91573d6000803e3d6000fd5b505050506040513d601f19601f82011682018060405250810190610db59190611378565b73ffffffffffffffffffffffffffffffffffffffff1614610e0b576040517f08c379a0000000000000000000000000000000000000000000000000000000008152600401610e0290611790565b60405180910390fd5b816000610e1782610ea2565b11610e57576040517f08c379a0000000000000000000000000000000000000000000000000000000008152600401610e4e90611770565b60405180910390fd5b60016004600085815260200190815260200160002060010154610e7a91906118db565b6004600085815260200190815260200160002060010181905550610e9d836111c6565b505050565b600073__$dd1ab798ac7c049bf7bfb1525e9810c58f$__63b83f21b5610ec78461035b565b60046000868152602001908152602001600020600001546040518363ffffffff1660e01b8152600401610efb92919061185c565b60206040518083038186803b158015610f1357600080fd5b505af4158015610f27573d6000803e3d6000fd5b505050506040513d601f19601f82011682018060405250810190610f4b919061142f565b9050919050565b600073__$785a3750a744651a4256c1a0a9b0861e2b$__636f644fa1610f7784610c3e565b60046000868152602001908152602001600020600301546040518363ffffffff1660e01b8152600401610fab92919061185c565b60206040518083038186803b158015610fc357600080fd5b505af4158015610fd7573d6000803e3d6000fd5b505050506040513d601f19601f82011682018060405250810190610ffb919061142f565b9050919050565b61100a6110fa565b73ffffffffffffffffffffffffffffffffffffffff16611028610805565b73ffffffffffffffffffffffffffffffffffffffff161461107e576040517f08c379a0000000000000000000000000000000000000000000000000000000008152600401611075906117d0565b60405180910390fd5b600073ffffffffffffffffffffffffffffffffffffffff168173ffffffffffffffffffffffffffffffffffffffff1614156110ee576040517f08c379a00000000000000000000000000000000000000000000000000000000081526004016110e590611750565b60405180910390fd5b6110f781611102565b50565b600033905090565b60008060009054906101000a900473ffffffffffffffffffffffffffffffffffffffff169050816000806101000a81548173ffffffffffffffffffffffffffffffffffffffff021916908373ffffffffffffffffffffffffffffffffffffffff1602179055508173ffffffffffffffffffffffffffffffffffffffff168173ffffffffffffffffffffffffffffffffffffffff167f8be0079c531659141344cd1fd0a4f28419497f9722a3daafe3b4186f6b6457e060405160405180910390a35050565b600160046000838152602001908152602001600020600001546111e991906118db565b600460008381526020019081526020016000206000018190555050565b600073__$915d125cb0df6df756b6684e4b0aad8422$__63b1edb05f600460008581526020019081526020016000206040518263ffffffff1660e01b8152600401611251919061180b565b60206040518083038186803b15801561126957600080fd5b505af415801561127d573d6000803e3d6000fd5b505050506040513d601f19601f820116820180604052508101906112a191906113dd565b159050919050565b6040518060800160405280600081526020016000815260200160008152602001600081525090565b6000813590506112e081611a21565b92915050565b6000815190506112f581611a21565b92915050565b60008135905061130a81611a38565b92915050565b60008151905061131f81611a38565b92915050565b60008135905061133481611a4f565b92915050565b60008151905061134981611a4f565b92915050565b60006020828403121561136157600080fd5b600061136f848285016112d1565b91505092915050565b60006020828403121561138a57600080fd5b6000611398848285016112e6565b91505092915050565b600080604083850312156113b457600080fd5b60006113c2858286016112d1565b92505060206113d3858286016112fb565b9150509250929050565b6000602082840312156113ef57600080fd5b60006113fd84828501611310565b91505092915050565b60006020828403121561141857600080fd5b600061142684828501611325565b91505092915050565b60006020828403121561144157600080fd5b600061144f8482850161133a565b91505092915050565b6114618161193b565b82525050565b61147081611983565b82525050565b61147f816119a7565b82525050565b60006114926026836118ca565b91507f4f776e61626c653a206e6577206f776e657220697320746865207a65726f206160008301527f64647265737300000000000000000000000000000000000000000000000000006020830152604082019050919050565b60006114f86019836118ca565b91507f4e6f20736b696c6c706f696e747320617661696c61626c6521000000000000006000830152602082019050919050565b6000611538601b836118ca565b91507f4f6e6c7920746865206f776e65722063616e20646f20746869732100000000006000830152602082019050919050565b60006115786018836118ca565b91507f6f6e6c79206d6f64756c65732063616e20646f207468697300000000000000006000830152602082019050919050565b60006115b86020836118ca565b91507f4f776e61626c653a2063616c6c6572206973206e6f7420746865206f776e65726000830152602082019050919050565b60808201600082015161160160008501826116c3565b50602082015161161460208501826116c3565b50604082015161162760408501826116c3565b50606082015161163a60608501826116c3565b50505050565b608082016000808301549050611655816119cb565b61166260008601826116f0565b5060018301549050611673816119cb565b61168060208601826116f0565b5060028301549050611691816119cb565b61169e60408601826116f0565b50600383015490506116af816119cb565b6116bc60608601826116f0565b5050505050565b6116cc81611979565b82525050565b6116db81611979565b82525050565b6116ea81611979565b82525050565b6116f981611979565b82525050565b60006020820190506117146000830184611458565b92915050565b600060208201905061172f6000830184611467565b92915050565b600060208201905061174a6000830184611476565b92915050565b6000602082019050818103600083015261176981611485565b9050919050565b60006020820190508181036000830152611789816114eb565b9050919050565b600060208201905081810360008301526117a98161152b565b9050919050565b600060208201905081810360008301526117c98161156b565b9050919050565b600060208201905081810360008301526117e9816115ab565b9050919050565b600060808201905061180560008301846115eb565b92915050565b60006080820190506118206000830184611640565b92915050565b600060208201905061183b60008301846116e1565b92915050565b600060208201905061185660008301846116d2565b92915050565b600060408201905061187160008301856116e1565b61187e60208301846116e1565b9392505050565b600060808201905061189a60008301876116d2565b6118a760208301866116d2565b6118b460408301856116d2565b6118c160608301846116d2565b95945050505050565b600082825260208201905092915050565b60006118e682611979565b91506118f183611979565b9250827fffffffffffffffffffffffffffffffffffffffffffffffffffffffffffffffff03821115611926576119256119e5565b5b828201905092915050565b6000819050919050565b600061194682611959565b9050919050565b60008115159050919050565b600073ffffffffffffffffffffffffffffffffffffffff82169050919050565b6000819050919050565b600061198e82611995565b9050919050565b60006119a082611959565b9050919050565b60006119b2826119b9565b9050919050565b60006119c482611959565b9050919050565b60006119de6119d983611a14565b611931565b9050919050565b7f4e487b7100000000000000000000000000000000000000000000000000000000600052601160045260246000fd5b60008160001c9050919050565b611a2a8161193b565b8114611a3557600080fd5b50565b611a418161194d565b8114611a4c57600080fd5b50565b611a5881611979565b8114611a6357600080fd5b5056fea264697066735822122059f7c92c12f155ced0dafa5491dd259aa4c44daeeb62f621ab2f5067bb4075a764736f6c63430008000033",
  "linkReferences": {
    "contracts/lib/Compute.sol": {
      "Compute": [
        {
          "length": 20,
          "start": 1474
        },
        {
          "length": 20,
          "start": 4537
        }
      ]
    },
    "contracts/lib/Math.sol": {
      "Math": [
        {
          "length": 20,
          "start": 4361
        }
      ]
    },
    "contracts/lib/structs/SkillsLib.sol": {
      "SkillsLib": [
        {
          "length": 20,
          "start": 5229
        }
      ]
    }
  },
  "deployedLinkReferences": {
    "contracts/lib/Compute.sol": {
      "Compute": [
        {
          "length": 20,
          "start": 863
        },
        {
          "length": 20,
          "start": 3926
        }
      ]
    },
    "contracts/lib/Math.sol": {
      "Math": [
        {
          "length": 20,
          "start": 3750
        }
      ]
    },
    "contracts/lib/structs/SkillsLib.sol": {
      "SkillsLib": [
        {
          "length": 20,
          "start": 4618
        }
      ]
    }
  }
}