{
  "_format": "hh-sol-artifact-1",
  "contractName": "WarriorSkills",
  "sourceName": "contracts/WarriorSkills.sol",
  "abi": [
    {
      "inputs": [
        {
          "internalType": "address",
          "name": "cronosWarriorsAddr",
          "type": "address"
        },
        {
          "internalType": "address",
          "name": "treasuryAddr",
          "type": "address"
        }
      ],
      "stateMutability": "nonpayable",
      "type": "constructor"
    },
    {
      "anonymous": false,
      "inputs": [
        {
          "indexed": true,
          "internalType": "bytes32",
          "name": "role",
          "type": "bytes32"
        },
        {
          "indexed": true,
          "internalType": "bytes32",
          "name": "previousAdminRole",
          "type": "bytes32"
        },
        {
          "indexed": true,
          "internalType": "bytes32",
          "name": "newAdminRole",
          "type": "bytes32"
        }
      ],
      "name": "RoleAdminChanged",
      "type": "event"
    },
    {
      "anonymous": false,
      "inputs": [
        {
          "indexed": true,
          "internalType": "bytes32",
          "name": "role",
          "type": "bytes32"
        },
        {
          "indexed": true,
          "internalType": "address",
          "name": "account",
          "type": "address"
        },
        {
          "indexed": true,
          "internalType": "address",
          "name": "sender",
          "type": "address"
        }
      ],
      "name": "RoleGranted",
      "type": "event"
    },
    {
      "anonymous": false,
      "inputs": [
        {
          "indexed": true,
          "internalType": "bytes32",
          "name": "role",
          "type": "bytes32"
        },
        {
          "indexed": true,
          "internalType": "address",
          "name": "account",
          "type": "address"
        },
        {
          "indexed": true,
          "internalType": "address",
          "name": "sender",
          "type": "address"
        }
      ],
      "name": "RoleRevoked",
      "type": "event"
    },
    {
      "inputs": [],
      "name": "DEFAULT_ADMIN_ROLE",
      "outputs": [
        {
          "internalType": "bytes32",
          "name": "",
          "type": "bytes32"
        }
      ],
      "stateMutability": "view",
      "type": "function"
    },
    {
      "inputs": [],
      "name": "MINTER_ROLE",
      "outputs": [
        {
          "internalType": "bytes32",
          "name": "",
          "type": "bytes32"
        }
      ],
      "stateMutability": "view",
      "type": "function"
    },
    {
      "inputs": [
        {
          "internalType": "uint256",
          "name": "id",
          "type": "uint256"
        }
      ],
      "name": "burn",
      "outputs": [],
      "stateMutability": "nonpayable",
      "type": "function"
    },
    {
      "inputs": [],
      "name": "cronosWarriors",
      "outputs": [
        {
          "internalType": "contract CronosWarriors",
          "name": "",
          "type": "address"
        }
      ],
      "stateMutability": "view",
      "type": "function"
    },
    {
      "inputs": [
        {
          "internalType": "bytes32",
          "name": "role",
          "type": "bytes32"
        }
      ],
      "name": "getRoleAdmin",
      "outputs": [
        {
          "internalType": "bytes32",
          "name": "",
          "type": "bytes32"
        }
      ],
      "stateMutability": "view",
      "type": "function"
    },
    {
      "inputs": [
        {
          "internalType": "bytes32",
          "name": "role",
          "type": "bytes32"
        },
        {
          "internalType": "address",
          "name": "account",
          "type": "address"
        }
      ],
      "name": "grantRole",
      "outputs": [],
      "stateMutability": "nonpayable",
      "type": "function"
    },
    {
      "inputs": [
        {
          "internalType": "bytes32",
          "name": "role",
          "type": "bytes32"
        },
        {
          "internalType": "address",
          "name": "account",
          "type": "address"
        }
      ],
      "name": "hasRole",
      "outputs": [
        {
          "internalType": "bool",
          "name": "",
          "type": "bool"
        }
      ],
      "stateMutability": "view",
      "type": "function"
    },
    {
      "inputs": [
        {
          "internalType": "uint256",
          "name": "id",
          "type": "uint256"
        }
      ],
      "name": "increaseAttack",
      "outputs": [],
      "stateMutability": "nonpayable",
      "type": "function"
    },
    {
      "inputs": [
        {
          "internalType": "uint256",
          "name": "id",
          "type": "uint256"
        }
      ],
      "name": "increaseDefense",
      "outputs": [],
      "stateMutability": "nonpayable",
      "type": "function"
    },
    {
      "inputs": [
        {
          "internalType": "uint256",
          "name": "id",
          "type": "uint256"
        }
      ],
      "name": "increaseStamina",
      "outputs": [],
      "stateMutability": "nonpayable",
      "type": "function"
    },
    {
      "inputs": [
        {
          "internalType": "uint256",
          "name": "id",
          "type": "uint256"
        }
      ],
      "name": "mint",
      "outputs": [],
      "stateMutability": "nonpayable",
      "type": "function"
    },
    {
      "inputs": [
        {
          "internalType": "uint256",
          "name": "id",
          "type": "uint256"
        }
      ],
      "name": "pointsAvailable",
      "outputs": [
        {
          "internalType": "uint256",
          "name": "",
          "type": "uint256"
        }
      ],
      "stateMutability": "view",
      "type": "function"
    },
    {
      "inputs": [
        {
          "internalType": "bytes32",
          "name": "role",
          "type": "bytes32"
        },
        {
          "internalType": "address",
          "name": "account",
          "type": "address"
        }
      ],
      "name": "renounceRole",
      "outputs": [],
      "stateMutability": "nonpayable",
      "type": "function"
    },
    {
      "inputs": [
        {
          "internalType": "bytes32",
          "name": "role",
          "type": "bytes32"
        },
        {
          "internalType": "address",
          "name": "account",
          "type": "address"
        }
      ],
      "name": "revokeRole",
      "outputs": [],
      "stateMutability": "nonpayable",
      "type": "function"
    },
    {
      "inputs": [
        {
          "internalType": "uint256",
          "name": "id",
          "type": "uint256"
        }
      ],
      "name": "skills",
      "outputs": [
        {
          "components": [
            {
              "internalType": "uint256",
              "name": "pointsSpend",
              "type": "uint256"
            },
            {
              "internalType": "uint256",
              "name": "attack",
              "type": "uint256"
            },
            {
              "internalType": "uint256",
              "name": "defense",
              "type": "uint256"
            },
            {
              "internalType": "uint256",
              "name": "stamina",
              "type": "uint256"
            }
          ],
          "internalType": "struct SkillsLib.Skills",
          "name": "",
          "type": "tuple"
        }
      ],
      "stateMutability": "view",
      "type": "function"
    },
    {
      "inputs": [
        {
          "internalType": "bytes4",
          "name": "interfaceId",
          "type": "bytes4"
        }
      ],
      "name": "supportsInterface",
      "outputs": [
        {
          "internalType": "bool",
          "name": "",
          "type": "bool"
        }
      ],
      "stateMutability": "view",
      "type": "function"
    },
    {
      "inputs": [],
      "name": "treasury",
      "outputs": [
        {
          "internalType": "contract Treasury",
          "name": "",
          "type": "address"
        }
      ],
      "stateMutability": "view",
      "type": "function"
    },
    {
      "inputs": [
        {
          "internalType": "uint256",
          "name": "id",
          "type": "uint256"
        }
      ],
      "name": "warriorExperience",
      "outputs": [
        {
          "internalType": "uint256",
          "name": "",
          "type": "uint256"
        }
      ],
      "stateMutability": "view",
      "type": "function"
    },
    {
      "inputs": [
        {
          "internalType": "uint256",
          "name": "id",
          "type": "uint256"
        }
      ],
      "name": "warriorHealth",
      "outputs": [
        {
          "internalType": "uint256",
          "name": "",
          "type": "uint256"
        }
      ],
      "stateMutability": "view",
      "type": "function"
    },
    {
      "inputs": [
        {
          "internalType": "uint256",
          "name": "id",
          "type": "uint256"
        }
      ],
      "name": "warriorLevel",
      "outputs": [
        {
          "internalType": "uint256",
          "name": "",
          "type": "uint256"
        }
      ],
      "stateMutability": "view",
      "type": "function"
    },
    {
      "inputs": [
        {
          "internalType": "uint256",
          "name": "id",
          "type": "uint256"
        }
      ],
      "name": "warriorSkills",
      "outputs": [
        {
          "internalType": "uint256",
          "name": "",
          "type": "uint256"
        },
        {
          "internalType": "uint256",
          "name": "",
          "type": "uint256"
        },
        {
          "internalType": "uint256",
          "name": "",
          "type": "uint256"
        },
        {
          "internalType": "uint256",
          "name": "",
          "type": "uint256"
        }
      ],
      "stateMutability": "view",
      "type": "function"
    }
  ],
  "bytecode": "0x60806040523480156200001157600080fd5b506040516200249238038062002492833981810160405281019062000037919062000266565b81600160006101000a81548173ffffffffffffffffffffffffffffffffffffffff021916908373ffffffffffffffffffffffffffffffffffffffff16021790555080600260006101000a81548173ffffffffffffffffffffffffffffffffffffffff021916908373ffffffffffffffffffffffffffffffffffffffff160217905550620000ce6000801b33620000d660201b60201c565b5050620002f5565b620000e88282620000ec60201b60201c565b5050565b620000fe8282620001dd60201b60201c565b620001d957600160008084815260200190815260200160002060000160008373ffffffffffffffffffffffffffffffffffffffff1673ffffffffffffffffffffffffffffffffffffffff16815260200190815260200160002060006101000a81548160ff0219169083151502179055506200017e6200024760201b60201c565b73ffffffffffffffffffffffffffffffffffffffff168173ffffffffffffffffffffffffffffffffffffffff16837f2f8788117e7eff1d82e926ec794901d17c78024a50270940304540a733656f0d60405160405180910390a45b5050565b600080600084815260200190815260200160002060000160008373ffffffffffffffffffffffffffffffffffffffff1673ffffffffffffffffffffffffffffffffffffffff16815260200190815260200160002060009054906101000a900460ff16905092915050565b600033905090565b6000815190506200026081620002db565b92915050565b600080604083850312156200027a57600080fd5b60006200028a858286016200024f565b92505060206200029d858286016200024f565b9150509250929050565b6000620002b482620002bb565b9050919050565b600073ffffffffffffffffffffffffffffffffffffffff82169050919050565b620002e681620002a7565b8114620002f257600080fd5b50565b61218d80620003056000396000f3fe608060405234801561001057600080fd5b50600436106101375760003560e01c806382e3675a116100b8578063baee89b21161007c578063baee89b214610361578063c636285114610391578063d325201c146103ad578063d5391393146103dd578063d547741f146103fb578063ed07f3ae1461041757610137565b806382e3675a146102bf57806391d14854146102db578063a0712d681461030b578063a217fddf14610327578063a7be77ca1461034557610137565b806342966c68116100ff57806342966c681461020457806350d15fbe146102205780635c5188951461025057806361d027b3146102835780636c69e521146102a157610137565b806301ffc9a71461013c5780631b3ad6a41461016c578063248a9ca31461019c5780632f2ff15d146101cc57806336568abe146101e8575b600080fd5b6101566004803603810190610151919061187c565b610447565b6040516101639190611c91565b60405180910390f35b610186600480360381019061018191906118a5565b6104c1565b6040516101939190611df0565b60405180910390f35b6101b660048036038101906101b19190611817565b610559565b6040516101c39190611cac565b60405180910390f35b6101e660048036038101906101e19190611840565b610578565b005b61020260048036038101906101fd9190611840565b6105a1565b005b61021e600480360381019061021991906118a5565b610624565b005b61023a600480360381019061023591906118a5565b610690565b6040516102479190611d9f565b60405180910390f35b61026a600480360381019061026591906118a5565b6106e5565b60405161027a9493929190611e34565b60405180910390f35b61028b610759565b6040516102989190611ce2565b60405180910390f35b6102a961077f565b6040516102b69190611cc7565b60405180910390f35b6102d960048036038101906102d491906118a5565b6107a5565b005b6102f560048036038101906102f09190611840565b610955565b6040516103029190611c91565b60405180910390f35b610325600480360381019061032091906118a5565b6109bf565b005b61032f610a95565b60405161033c9190611cac565b60405180910390f35b61035f600480360381019061035a91906118a5565b610a9c565b005b61037b600480360381019061037691906118a5565b610c4c565b6040516103889190611df0565b60405180910390f35b6103ab60048036038101906103a691906118a5565b610d00565b005b6103c760048036038101906103c291906118a5565b610eb0565b6040516103d49190611df0565b60405180910390f35b6103e5610f60565b6040516103f29190611cac565b60405180910390f35b61041560048036038101906104109190611840565b610f84565b005b610431600480360381019061042c91906118a5565b610fad565b60405161043e9190611df0565b60405180910390f35b60007f7965db0b000000000000000000000000000000000000000000000000000000007bffffffffffffffffffffffffffffffffffffffffffffffffffffffff1916827bffffffffffffffffffffffffffffffffffffffffffffffffffffffff191614806104ba57506104b98261105d565b5b9050919050565b600073__$785a3750a744651a4256c1a0a9b0861e2b$__631b3ad6a46104e684610c4c565b6040518263ffffffff1660e01b81526004016105029190611dd5565b60206040518083038186803b15801561051a57600080fd5b505af415801561052e573d6000803e3d6000fd5b505050506040513d601f19601f8201168201806040525081019061055291906118ce565b9050919050565b6000806000838152602001908152602001600020600101549050919050565b61058182610559565b6105928161058d6110c7565b6110cf565b61059c838361116c565b505050565b6105a96110c7565b73ffffffffffffffffffffffffffffffffffffffff168173ffffffffffffffffffffffffffffffffffffffff1614610616576040517f08c379a000000000000000000000000000000000000000000000000000000000815260040161060d90611d7f565b60405180910390fd5b610620828261124c565b5050565b7f9f2df0fed2c77648de5860a4cc508cd0818c85b8b8a1ab4ceeef8d981c8956a6610656816106516110c7565b6110cf565b6003600083815260200190815260200160002060008082016000905560018201600090556002820160009055600382016000905550505050565b61069861170a565b600360008381526020019081526020016000206040518060800160405290816000820154815260200160018201548152602001600282015481526020016003820154815250509050919050565b600080600080600060036000878152602001908152602001600020604051806080016040529081600082015481526020016001820154815260200160028201548152602001600382015481525050905080600001518160200151826040015183606001519450945094509450509193509193565b600260009054906101000a900473ffffffffffffffffffffffffffffffffffffffff1681565b600160009054906101000a900473ffffffffffffffffffffffffffffffffffffffff1681565b803373ffffffffffffffffffffffffffffffffffffffff16600160009054906101000a900473ffffffffffffffffffffffffffffffffffffffff1673ffffffffffffffffffffffffffffffffffffffff16636352211e836040518263ffffffff1660e01b81526004016108189190611df0565b60206040518083038186803b15801561083057600080fd5b505afa158015610844573d6000803e3d6000fd5b505050506040513d601f19601f8201168201806040525081019061086891906117c5565b73ffffffffffffffffffffffffffffffffffffffff16146108be576040517f08c379a00000000000000000000000000000000000000000000000000000000081526004016108b590611d5f565b60405180910390fd5b8160006108ca82610eb0565b1161090a576040517f08c379a000000000000000000000000000000000000000000000000000000000815260040161090190611d3f565b60405180910390fd5b6001600360008581526020019081526020016000206002015461092d9190611ea0565b60036000858152602001908152602001600020600201819055506109508361132d565b505050565b600080600084815260200190815260200160002060000160008373ffffffffffffffffffffffffffffffffffffffff1673ffffffffffffffffffffffffffffffffffffffff16815260200190815260200160002060009054906101000a900460ff16905092915050565b7f9f2df0fed2c77648de5860a4cc508cd0818c85b8b8a1ab4ceeef8d981c8956a66109f1816109ec6110c7565b6110cf565b6109fa8261136d565b15610a2e577f4e487b7100000000000000000000000000000000000000000000000000000000600052600160045260246000fd5b6040518060800160405280600081526020016001815260200160018152602001600181525060036000848152602001908152602001600020600082015181600001556020820151816001015560408201518160020155606082015181600301559050505050565b6000801b81565b803373ffffffffffffffffffffffffffffffffffffffff16600160009054906101000a900473ffffffffffffffffffffffffffffffffffffffff1673ffffffffffffffffffffffffffffffffffffffff16636352211e836040518263ffffffff1660e01b8152600401610b0f9190611df0565b60206040518083038186803b158015610b2757600080fd5b505afa158015610b3b573d6000803e3d6000fd5b505050506040513d601f19601f82011682018060405250810190610b5f91906117c5565b73ffffffffffffffffffffffffffffffffffffffff1614610bb5576040517f08c379a0000000000000000000000000000000000000000000000000000000008152600401610bac90611d5f565b60405180910390fd5b816000610bc182610eb0565b11610c01576040517f08c379a0000000000000000000000000000000000000000000000000000000008152600401610bf890611d3f565b60405180910390fd5b60016003600085815260200190815260200160002060030154610c249190611ea0565b6003600085815260200190815260200160002060030181905550610c478361132d565b505050565b6000600260009054906101000a900473ffffffffffffffffffffffffffffffffffffffff1673ffffffffffffffffffffffffffffffffffffffff1663d3e97165836040518263ffffffff1660e01b8152600401610ca99190611df0565b60206040518083038186803b158015610cc157600080fd5b505afa158015610cd5573d6000803e3d6000fd5b505050506040513d601f19601f82011682018060405250810190610cf991906118ce565b9050919050565b803373ffffffffffffffffffffffffffffffffffffffff16600160009054906101000a900473ffffffffffffffffffffffffffffffffffffffff1673ffffffffffffffffffffffffffffffffffffffff16636352211e836040518263ffffffff1660e01b8152600401610d739190611df0565b60206040518083038186803b158015610d8b57600080fd5b505afa158015610d9f573d6000803e3d6000fd5b505050506040513d601f19601f82011682018060405250810190610dc391906117c5565b73ffffffffffffffffffffffffffffffffffffffff1614610e19576040517f08c379a0000000000000000000000000000000000000000000000000000000008152600401610e1090611d5f565b60405180910390fd5b816000610e2582610eb0565b11610e65576040517f08c379a0000000000000000000000000000000000000000000000000000000008152600401610e5c90611d3f565b60405180910390fd5b60016003600085815260200190815260200160002060010154610e889190611ea0565b6003600085815260200190815260200160002060010181905550610eab8361132d565b505050565b600073__$dd1ab798ac7c049bf7bfb1525e9810c58f$__63b83f21b5610ed5846104c1565b60036000868152602001908152602001600020600001546040518363ffffffff1660e01b8152600401610f09929190611e0b565b60206040518083038186803b158015610f2157600080fd5b505af4158015610f35573d6000803e3d6000fd5b505050506040513d601f19601f82011682018060405250810190610f5991906118ce565b9050919050565b7f9f2df0fed2c77648de5860a4cc508cd0818c85b8b8a1ab4ceeef8d981c8956a681565b610f8d82610559565b610f9e81610f996110c7565b6110cf565b610fa8838361124c565b505050565b600073__$785a3750a744651a4256c1a0a9b0861e2b$__636f644fa1610fd284610c4c565b60036000868152602001908152602001600020600301546040518363ffffffff1660e01b8152600401611006929190611e0b565b60206040518083038186803b15801561101e57600080fd5b505af4158015611032573d6000803e3d6000fd5b505050506040513d601f19601f8201168201806040525081019061105691906118ce565b9050919050565b60007f01ffc9a7000000000000000000000000000000000000000000000000000000007bffffffffffffffffffffffffffffffffffffffffffffffffffffffff1916827bffffffffffffffffffffffffffffffffffffffffffffffffffffffff1916149050919050565b600033905090565b6110d98282610955565b611168576110fe8173ffffffffffffffffffffffffffffffffffffffff166014611410565b61110c8360001c6020611410565b60405160200161111d929190611c57565b6040516020818303038152906040526040517f08c379a000000000000000000000000000000000000000000000000000000000815260040161115f9190611cfd565b60405180910390fd5b5050565b6111768282610955565b61124857600160008084815260200190815260200160002060000160008373ffffffffffffffffffffffffffffffffffffffff1673ffffffffffffffffffffffffffffffffffffffff16815260200190815260200160002060006101000a81548160ff0219169083151502179055506111ed6110c7565b73ffffffffffffffffffffffffffffffffffffffff168173ffffffffffffffffffffffffffffffffffffffff16837f2f8788117e7eff1d82e926ec794901d17c78024a50270940304540a733656f0d60405160405180910390a45b5050565b6112568282610955565b1561132957600080600084815260200190815260200160002060000160008373ffffffffffffffffffffffffffffffffffffffff1673ffffffffffffffffffffffffffffffffffffffff16815260200190815260200160002060006101000a81548160ff0219169083151502179055506112ce6110c7565b73ffffffffffffffffffffffffffffffffffffffff168173ffffffffffffffffffffffffffffffffffffffff16837ff6391f5c32d9c69d2a47ea670b442974b53935d1edc7fd64eb21e047a839171b60405160405180910390a45b5050565b600160036000838152602001908152602001600020600001546113509190611ea0565b600360008381526020019081526020016000206000018190555050565b600073__$915d125cb0df6df756b6684e4b0aad8422$__63b1edb05f600360008581526020019081526020016000206040518263ffffffff1660e01b81526004016113b89190611dba565b60206040518083038186803b1580156113d057600080fd5b505af41580156113e4573d6000803e3d6000fd5b505050506040513d601f19601f8201168201806040525081019061140891906117ee565b159050919050565b6060600060028360026114239190611ef6565b61142d9190611ea0565b67ffffffffffffffff81111561146c577f4e487b7100000000000000000000000000000000000000000000000000000000600052604160045260246000fd5b6040519080825280601f01601f19166020018201604052801561149e5781602001600182028036833780820191505090505b5090507f3000000000000000000000000000000000000000000000000000000000000000816000815181106114fc577f4e487b7100000000000000000000000000000000000000000000000000000000600052603260045260246000fd5b60200101907effffffffffffffffffffffffffffffffffffffffffffffffffffffffffffff1916908160001a9053507f780000000000000000000000000000000000000000000000000000000000000081600181518110611586577f4e487b7100000000000000000000000000000000000000000000000000000000600052603260045260246000fd5b60200101907effffffffffffffffffffffffffffffffffffffffffffffffffffffffffffff1916908160001a905350600060018460026115c69190611ef6565b6115d09190611ea0565b90505b60018111156116bc577f3031323334353637383961626364656600000000000000000000000000000000600f861660108110611638577f4e487b7100000000000000000000000000000000000000000000000000000000600052603260045260246000fd5b1a60f81b828281518110611675577f4e487b7100000000000000000000000000000000000000000000000000000000600052603260045260246000fd5b60200101907effffffffffffffffffffffffffffffffffffffffffffffffffffffffffffff1916908160001a905350600485901c9450806116b590612053565b90506115d3565b5060008414611700576040517f08c379a00000000000000000000000000000000000000000000000000000000081526004016116f790611d1f565b60405180910390fd5b8091505092915050565b6040518060800160405280600081526020016000815260200160008152602001600081525090565b600081359050611741816120e4565b92915050565b600081519050611756816120e4565b92915050565b60008151905061176b816120fb565b92915050565b60008135905061178081612112565b92915050565b60008135905061179581612129565b92915050565b6000813590506117aa81612140565b92915050565b6000815190506117bf81612140565b92915050565b6000602082840312156117d757600080fd5b60006117e584828501611747565b91505092915050565b60006020828403121561180057600080fd5b600061180e8482850161175c565b91505092915050565b60006020828403121561182957600080fd5b600061183784828501611771565b91505092915050565b6000806040838503121561185357600080fd5b600061186185828601611771565b925050602061187285828601611732565b9150509250929050565b60006020828403121561188e57600080fd5b600061189c84828501611786565b91505092915050565b6000602082840312156118b757600080fd5b60006118c58482850161179b565b91505092915050565b6000602082840312156118e057600080fd5b60006118ee848285016117b0565b91505092915050565b61190081611f6c565b82525050565b61190f81611f78565b82525050565b61191e81611fd8565b82525050565b61192d81611ffc565b82525050565b600061193e82611e79565b6119488185611e84565b9350611958818560208601612020565b611961816120c6565b840191505092915050565b600061197782611e79565b6119818185611e95565b9350611991818560208601612020565b80840191505092915050565b60006119aa602083611e84565b91507f537472696e67733a20686578206c656e67746820696e73756666696369656e746000830152602082019050919050565b60006119ea601983611e84565b91507f4e6f20736b696c6c706f696e747320617661696c61626c6521000000000000006000830152602082019050919050565b6000611a2a601b83611e84565b91507f4f6e6c7920746865206f776e65722063616e20646f20746869732100000000006000830152602082019050919050565b6000611a6a601783611e95565b91507f416363657373436f6e74726f6c3a206163636f756e74200000000000000000006000830152601782019050919050565b6000611aaa601183611e95565b91507f206973206d697373696e6720726f6c65200000000000000000000000000000006000830152601182019050919050565b6000611aea602f83611e84565b91507f416363657373436f6e74726f6c3a2063616e206f6e6c792072656e6f756e636560008301527f20726f6c657320666f722073656c6600000000000000000000000000000000006020830152604082019050919050565b608082016000820151611b596000850182611c1b565b506020820151611b6c6020850182611c1b565b506040820151611b7f6040850182611c1b565b506060820151611b926060850182611c1b565b50505050565b608082016000808301549050611bad8161207d565b611bba6000860182611c48565b5060018301549050611bcb8161207d565b611bd86020860182611c48565b5060028301549050611be98161207d565b611bf66040860182611c48565b5060038301549050611c078161207d565b611c146060860182611c48565b5050505050565b611c2481611fce565b82525050565b611c3381611fce565b82525050565b611c4281611fce565b82525050565b611c5181611fce565b82525050565b6000611c6282611a5d565b9150611c6e828561196c565b9150611c7982611a9d565b9150611c85828461196c565b91508190509392505050565b6000602082019050611ca660008301846118f7565b92915050565b6000602082019050611cc16000830184611906565b92915050565b6000602082019050611cdc6000830184611915565b92915050565b6000602082019050611cf76000830184611924565b92915050565b60006020820190508181036000830152611d178184611933565b905092915050565b60006020820190508181036000830152611d388161199d565b9050919050565b60006020820190508181036000830152611d58816119dd565b9050919050565b60006020820190508181036000830152611d7881611a1d565b9050919050565b60006020820190508181036000830152611d9881611add565b9050919050565b6000608082019050611db46000830184611b43565b92915050565b6000608082019050611dcf6000830184611b98565b92915050565b6000602082019050611dea6000830184611c39565b92915050565b6000602082019050611e056000830184611c2a565b92915050565b6000604082019050611e206000830185611c39565b611e2d6020830184611c39565b9392505050565b6000608082019050611e496000830187611c2a565b611e566020830186611c2a565b611e636040830185611c2a565b611e706060830184611c2a565b95945050505050565b600081519050919050565b600082825260208201905092915050565b600081905092915050565b6000611eab82611fce565b9150611eb683611fce565b9250827fffffffffffffffffffffffffffffffffffffffffffffffffffffffffffffffff03821115611eeb57611eea612097565b5b828201905092915050565b6000611f0182611fce565b9150611f0c83611fce565b9250817fffffffffffffffffffffffffffffffffffffffffffffffffffffffffffffffff0483118215151615611f4557611f44612097565b5b828202905092915050565b6000819050919050565b6000611f6582611fae565b9050919050565b60008115159050919050565b6000819050919050565b60007fffffffff0000000000000000000000000000000000000000000000000000000082169050919050565b600073ffffffffffffffffffffffffffffffffffffffff82169050919050565b6000819050919050565b6000611fe382611fea565b9050919050565b6000611ff582611fae565b9050919050565b60006120078261200e565b9050919050565b600061201982611fae565b9050919050565b60005b8381101561203e578082015181840152602081019050612023565b8381111561204d576000848401525b50505050565b600061205e82611fce565b9150600082141561207257612071612097565b5b600182039050919050565b600061209061208b836120d7565b611f50565b9050919050565b7f4e487b7100000000000000000000000000000000000000000000000000000000600052601160045260246000fd5b6000601f19601f8301169050919050565b60008160001c9050919050565b6120ed81611f5a565b81146120f857600080fd5b50565b61210481611f6c565b811461210f57600080fd5b50565b61211b81611f78565b811461212657600080fd5b50565b61213281611f82565b811461213d57600080fd5b50565b61214981611fce565b811461215457600080fd5b5056fea2646970667358221220e974e3c670e1ed57a81e5b4f2ac86268dc45bc2bff914c84c979e2804f29bb3464736f6c63430008000033",
  "linkReferences": {
    "contracts/lib/Compute.sol": {
      "Compute": [
        {
          "length": 20,
          "start": 1994
        },
        {
          "length": 20,
          "start": 4790
        }
      ]
    },
    "contracts/lib/Math.sol": {
      "Math": [
        {
          "length": 20,
          "start": 4537
        }
      ]
    },
    "contracts/lib/structs/SkillsLib.sol": {
      "SkillsLib": [
        {
          "length": 20,
          "start": 5750
        }
      ]
    }
  },
  "deployedLinkReferences": {
    "contracts/lib/Compute.sol": {
      "Compute": [
        {
          "length": 20,
          "start": 1221
        },
        {
          "length": 20,
          "start": 4017
        }
      ]
    },
    "contracts/lib/Math.sol": {
      "Math": [
        {
          "length": 20,
          "start": 3764
        }
      ]
    },
    "contracts/lib/structs/SkillsLib.sol": {
      "SkillsLib": [
        {
          "length": 20,
          "start": 4977
        }
      ]
    }
  }
}