{
  "_format": "hh-sol-artifact-1",
  "contractName": "WarriorFactory",
  "sourceName": "contracts/WarriorFactory.sol",
  "abi": [
    {
      "inputs": [
        {
          "internalType": "address",
          "name": "cronosWarriorsAddr",
          "type": "address"
        },
        {
          "internalType": "address",
          "name": "warriorSkillsAddr",
          "type": "address"
        },
        {
          "internalType": "address",
          "name": "warriorStatsAddr",
          "type": "address"
        },
        {
          "internalType": "address",
          "name": "warriorVisualsAddr",
          "type": "address"
        },
        {
          "internalType": "address",
          "name": "treasuryAddr",
          "type": "address"
        }
      ],
      "stateMutability": "nonpayable",
      "type": "constructor"
    },
    {
      "anonymous": false,
      "inputs": [
        {
          "indexed": false,
          "internalType": "uint256",
          "name": "id",
          "type": "uint256"
        },
        {
          "indexed": true,
          "internalType": "address",
          "name": "owner",
          "type": "address"
        },
        {
          "indexed": false,
          "internalType": "address",
          "name": "recipient",
          "type": "address"
        }
      ],
      "name": "WarriorBurned",
      "type": "event"
    },
    {
      "anonymous": false,
      "inputs": [
        {
          "indexed": false,
          "internalType": "uint256",
          "name": "id",
          "type": "uint256"
        },
        {
          "indexed": true,
          "internalType": "address",
          "name": "owner",
          "type": "address"
        }
      ],
      "name": "WarriorMinted",
      "type": "event"
    },
    {
      "inputs": [
        {
          "internalType": "uint256",
          "name": "id",
          "type": "uint256"
        },
        {
          "internalType": "address",
          "name": "recipient",
          "type": "address"
        }
      ],
      "name": "burn",
      "outputs": [],
      "stateMutability": "nonpayable",
      "type": "function"
    },
    {
      "inputs": [],
      "name": "cronosWarriors",
      "outputs": [
        {
          "internalType": "contract CronosWarriors",
          "name": "",
          "type": "address"
        }
      ],
      "stateMutability": "view",
      "type": "function"
    },
    {
      "inputs": [
        {
          "internalType": "string",
          "name": "name",
          "type": "string"
        }
      ],
      "name": "mint",
      "outputs": [
        {
          "internalType": "uint256",
          "name": "",
          "type": "uint256"
        }
      ],
      "stateMutability": "payable",
      "type": "function"
    },
    {
      "inputs": [],
      "name": "treasury",
      "outputs": [
        {
          "internalType": "contract Treasury",
          "name": "",
          "type": "address"
        }
      ],
      "stateMutability": "view",
      "type": "function"
    },
    {
      "inputs": [],
      "name": "warriorSkills",
      "outputs": [
        {
          "internalType": "contract WarriorSkills",
          "name": "",
          "type": "address"
        }
      ],
      "stateMutability": "view",
      "type": "function"
    },
    {
      "inputs": [],
      "name": "warriorStats",
      "outputs": [
        {
          "internalType": "contract WarriorStats",
          "name": "",
          "type": "address"
        }
      ],
      "stateMutability": "view",
      "type": "function"
    },
    {
      "inputs": [],
      "name": "warriorVisuals",
      "outputs": [
        {
          "internalType": "contract WarriorVisuals",
          "name": "",
          "type": "address"
        }
      ],
      "stateMutability": "view",
      "type": "function"
    }
  ],
  "bytecode": "0x60806040523480156200001157600080fd5b506040516200141f3803806200141f8339818101604052810190620000379190620001a5565b846000806101000a81548173ffffffffffffffffffffffffffffffffffffffff021916908373ffffffffffffffffffffffffffffffffffffffff16021790555083600160006101000a81548173ffffffffffffffffffffffffffffffffffffffff021916908373ffffffffffffffffffffffffffffffffffffffff16021790555082600260006101000a81548173ffffffffffffffffffffffffffffffffffffffff021916908373ffffffffffffffffffffffffffffffffffffffff16021790555081600360006101000a81548173ffffffffffffffffffffffffffffffffffffffff021916908373ffffffffffffffffffffffffffffffffffffffff16021790555080600460006101000a81548173ffffffffffffffffffffffffffffffffffffffff021916908373ffffffffffffffffffffffffffffffffffffffff1602179055506000600581905550505050505062000275565b6000815190506200019f816200025b565b92915050565b600080600080600060a08688031215620001be57600080fd5b6000620001ce888289016200018e565b9550506020620001e1888289016200018e565b9450506040620001f4888289016200018e565b935050606062000207888289016200018e565b92505060806200021a888289016200018e565b9150509295509295909350565b600062000234826200023b565b9050919050565b600073ffffffffffffffffffffffffffffffffffffffff82169050919050565b620002668162000227565b81146200027257600080fd5b50565b61119a80620002856000396000f3fe6080604052600436106100705760003560e01c80639cee48221161004e5780639cee4822146100f6578063d85d3d2714610121578063f99cd25b14610151578063fcd3533c1461017c57610070565b8063160012381461007557806361d027b3146100a05780636c69e521146100cb575b600080fd5b34801561008157600080fd5b5061008a6101a5565b6040516100979190610d66565b60405180910390f35b3480156100ac57600080fd5b506100b56101cb565b6040516100c29190610d15565b60405180910390f35b3480156100d757600080fd5b506100e06101f1565b6040516100ed9190610cfa565b60405180910390f35b34801561010257600080fd5b5061010b610215565b6040516101189190610d30565b60405180910390f35b61013b60048036038101906101369190610ba9565b61023b565b6040516101489190610da1565b60405180910390f35b34801561015d57600080fd5b5061016661064a565b6040516101739190610d4b565b60405180910390f35b34801561018857600080fd5b506101a3600480360381019061019e9190610bea565b610670565b005b600360009054906101000a900473ffffffffffffffffffffffffffffffffffffffff1681565b600460009054906101000a900473ffffffffffffffffffffffffffffffffffffffff1681565b60008054906101000a900473ffffffffffffffffffffffffffffffffffffffff1681565b600160009054906101000a900473ffffffffffffffffffffffffffffffffffffffff1681565b600080600160055461024d9190610eb0565b6005819055905060008054906101000a900473ffffffffffffffffffffffffffffffffffffffff1673ffffffffffffffffffffffffffffffffffffffff16634f558e79826040518263ffffffff1660e01b81526004016102ad9190610da1565b60206040518083038186803b1580156102c557600080fd5b505afa1580156102d9573d6000803e3d6000fd5b505050506040513d601f19601f820116820180604052508101906102fd9190610b80565b15610331577f4e487b7100000000000000000000000000000000000000000000000000000000600052600160045260246000fd5b600460009054906101000a900473ffffffffffffffffffffffffffffffffffffffff1673ffffffffffffffffffffffffffffffffffffffff1663a0712d6834836040518363ffffffff1660e01b815260040161038d9190610da1565b6000604051808303818588803b1580156103a657600080fd5b505af11580156103ba573d6000803e3d6000fd5b5050505050600360009054906101000a900473ffffffffffffffffffffffffffffffffffffffff1673ffffffffffffffffffffffffffffffffffffffff166377097fc882856040518363ffffffff1660e01b815260040161041c929190610e0e565b600060405180830381600087803b15801561043657600080fd5b505af115801561044a573d6000803e3d6000fd5b50505050600160009054906101000a900473ffffffffffffffffffffffffffffffffffffffff1673ffffffffffffffffffffffffffffffffffffffff1663a0712d68826040518263ffffffff1660e01b81526004016104a99190610da1565b600060405180830381600087803b1580156104c357600080fd5b505af11580156104d7573d6000803e3d6000fd5b50505050600260009054906101000a900473ffffffffffffffffffffffffffffffffffffffff1673ffffffffffffffffffffffffffffffffffffffff1663a0712d68826040518263ffffffff1660e01b81526004016105369190610da1565b600060405180830381600087803b15801561055057600080fd5b505af1158015610564573d6000803e3d6000fd5b5050505060008054906101000a900473ffffffffffffffffffffffffffffffffffffffff1673ffffffffffffffffffffffffffffffffffffffff1663a0712d68826040518263ffffffff1660e01b81526004016105c19190610da1565b600060405180830381600087803b1580156105db57600080fd5b505af11580156105ef573d6000803e3d6000fd5b505050503373ffffffffffffffffffffffffffffffffffffffff167f434a952a98f00e28fb9ea86aed27f71fa299487fffdd01f1ee2c9360afa303d8826040516106399190610da1565b60405180910390a280915050919050565b600260009054906101000a900473ffffffffffffffffffffffffffffffffffffffff1681565b60008054906101000a900473ffffffffffffffffffffffffffffffffffffffff1673ffffffffffffffffffffffffffffffffffffffff16636352211e836040518263ffffffff1660e01b81526004016106c99190610da1565b60206040518083038186803b1580156106e157600080fd5b505afa1580156106f5573d6000803e3d6000fd5b505050506040513d601f19601f820116820180604052508101906107199190610b57565b73ffffffffffffffffffffffffffffffffffffffff163373ffffffffffffffffffffffffffffffffffffffff1614610786576040517f08c379a000000000000000000000000000000000000000000000000000000000815260040161077d90610d81565b60405180910390fd5b600160009054906101000a900473ffffffffffffffffffffffffffffffffffffffff1673ffffffffffffffffffffffffffffffffffffffff166342966c68836040518263ffffffff1660e01b81526004016107e19190610da1565b600060405180830381600087803b1580156107fb57600080fd5b505af115801561080f573d6000803e3d6000fd5b50505050600260009054906101000a900473ffffffffffffffffffffffffffffffffffffffff1673ffffffffffffffffffffffffffffffffffffffff166342966c68836040518263ffffffff1660e01b815260040161086e9190610da1565b600060405180830381600087803b15801561088857600080fd5b505af115801561089c573d6000803e3d6000fd5b50505050600360009054906101000a900473ffffffffffffffffffffffffffffffffffffffff1673ffffffffffffffffffffffffffffffffffffffff166342966c68836040518263ffffffff1660e01b81526004016108fb9190610da1565b600060405180830381600087803b15801561091557600080fd5b505af1158015610929573d6000803e3d6000fd5b50505050600460009054906101000a900473ffffffffffffffffffffffffffffffffffffffff1673ffffffffffffffffffffffffffffffffffffffff1663ff5ee77f83836040518363ffffffff1660e01b815260040161098a929190610de5565b600060405180830381600087803b1580156109a457600080fd5b505af11580156109b8573d6000803e3d6000fd5b5050505060008054906101000a900473ffffffffffffffffffffffffffffffffffffffff1673ffffffffffffffffffffffffffffffffffffffff166342966c68836040518263ffffffff1660e01b8152600401610a159190610da1565b600060405180830381600087803b158015610a2f57600080fd5b505af1158015610a43573d6000803e3d6000fd5b505050503373ffffffffffffffffffffffffffffffffffffffff167f88d52dda07317eb0d52bcf08a54028b29289032bda552acd906200b2937715dc8383604051610a8f929190610dbc565b60405180910390a25050565b6000610aae610aa984610e63565b610e3e565b905082815260208101848484011115610ac657600080fd5b610ad1848285611014565b509392505050565b600081359050610ae88161111f565b92915050565b600081519050610afd8161111f565b92915050565b600081519050610b1281611136565b92915050565b600082601f830112610b2957600080fd5b8135610b39848260208601610a9b565b91505092915050565b600081359050610b518161114d565b92915050565b600060208284031215610b6957600080fd5b6000610b7784828501610aee565b91505092915050565b600060208284031215610b9257600080fd5b6000610ba084828501610b03565b91505092915050565b600060208284031215610bbb57600080fd5b600082013567ffffffffffffffff811115610bd557600080fd5b610be184828501610b18565b91505092915050565b60008060408385031215610bfd57600080fd5b6000610c0b85828601610b42565b9250506020610c1c85828601610ad9565b9150509250929050565b610c2f81610f18565b82525050565b610c3e81610f06565b82525050565b610c4d81610f60565b82525050565b610c5c81610f84565b82525050565b610c6b81610fa8565b82525050565b610c7a81610fcc565b82525050565b610c8981610ff0565b82525050565b6000610c9a82610e94565b610ca48185610e9f565b9350610cb4818560208601611023565b610cbd816110e5565b840191505092915050565b6000610cd5601783610e9f565b9150610ce0826110f6565b602082019050919050565b610cf481610f56565b82525050565b6000602082019050610d0f6000830184610c44565b92915050565b6000602082019050610d2a6000830184610c53565b92915050565b6000602082019050610d456000830184610c62565b92915050565b6000602082019050610d606000830184610c71565b92915050565b6000602082019050610d7b6000830184610c80565b92915050565b60006020820190508181036000830152610d9a81610cc8565b9050919050565b6000602082019050610db66000830184610ceb565b92915050565b6000604082019050610dd16000830185610ceb565b610dde6020830184610c35565b9392505050565b6000604082019050610dfa6000830185610ceb565b610e076020830184610c26565b9392505050565b6000604082019050610e236000830185610ceb565b8181036020830152610e358184610c8f565b90509392505050565b6000610e48610e59565b9050610e548282611056565b919050565b6000604051905090565b600067ffffffffffffffff821115610e7e57610e7d6110b6565b5b610e87826110e5565b9050602081019050919050565b600081519050919050565b600082825260208201905092915050565b6000610ebb82610f56565b9150610ec683610f56565b9250827fffffffffffffffffffffffffffffffffffffffffffffffffffffffffffffffff03821115610efb57610efa611087565b5b828201905092915050565b6000610f1182610f36565b9050919050565b6000610f2382610f36565b9050919050565b60008115159050919050565b600073ffffffffffffffffffffffffffffffffffffffff82169050919050565b6000819050919050565b6000610f6b82610f72565b9050919050565b6000610f7d82610f36565b9050919050565b6000610f8f82610f96565b9050919050565b6000610fa182610f36565b9050919050565b6000610fb382610fba565b9050919050565b6000610fc582610f36565b9050919050565b6000610fd782610fde565b9050919050565b6000610fe982610f36565b9050919050565b6000610ffb82611002565b9050919050565b600061100d82610f36565b9050919050565b82818337600083830152505050565b60005b83811015611041578082015181840152602081019050611026565b83811115611050576000848401525b50505050565b61105f826110e5565b810181811067ffffffffffffffff8211171561107e5761107d6110b6565b5b80604052505050565b7f4e487b7100000000000000000000000000000000000000000000000000000000600052601160045260246000fd5b7f4e487b7100000000000000000000000000000000000000000000000000000000600052604160045260246000fd5b6000601f19601f8301169050919050565b7f4f6e6c79206f776e65722063616e20646f207468697321000000000000000000600082015250565b61112881610f06565b811461113357600080fd5b50565b61113f81610f2a565b811461114a57600080fd5b50565b61115681610f56565b811461116157600080fd5b5056fea2646970667358221220508c2d2e61a919bfa9d66ba0ab8fa23ff8bd3fb01811221ff0b2326be1edfb9c64736f6c63430008040033",
  "linkReferences": {},
  "deployedLinkReferences": {}
}