{
  "_format": "hh-sol-artifact-1",
  "contractName": "WarriorSkills",
  "sourceName": "contracts/WarriorSkills.sol",
  "abi": [
    {
      "inputs": [
        {
          "internalType": "address",
          "name": "cronosWarriorsAddr",
          "type": "address"
        },
        {
          "internalType": "address",
          "name": "treasuryAddr",
          "type": "address"
        }
      ],
      "stateMutability": "nonpayable",
      "type": "constructor"
    },
    {
      "anonymous": false,
      "inputs": [
        {
          "indexed": true,
          "internalType": "bytes32",
          "name": "role",
          "type": "bytes32"
        },
        {
          "indexed": true,
          "internalType": "bytes32",
          "name": "previousAdminRole",
          "type": "bytes32"
        },
        {
          "indexed": true,
          "internalType": "bytes32",
          "name": "newAdminRole",
          "type": "bytes32"
        }
      ],
      "name": "RoleAdminChanged",
      "type": "event"
    },
    {
      "anonymous": false,
      "inputs": [
        {
          "indexed": true,
          "internalType": "bytes32",
          "name": "role",
          "type": "bytes32"
        },
        {
          "indexed": true,
          "internalType": "address",
          "name": "account",
          "type": "address"
        },
        {
          "indexed": true,
          "internalType": "address",
          "name": "sender",
          "type": "address"
        }
      ],
      "name": "RoleGranted",
      "type": "event"
    },
    {
      "anonymous": false,
      "inputs": [
        {
          "indexed": true,
          "internalType": "bytes32",
          "name": "role",
          "type": "bytes32"
        },
        {
          "indexed": true,
          "internalType": "address",
          "name": "account",
          "type": "address"
        },
        {
          "indexed": true,
          "internalType": "address",
          "name": "sender",
          "type": "address"
        }
      ],
      "name": "RoleRevoked",
      "type": "event"
    },
    {
      "inputs": [],
      "name": "DEFAULT_ADMIN_ROLE",
      "outputs": [
        {
          "internalType": "bytes32",
          "name": "",
          "type": "bytes32"
        }
      ],
      "stateMutability": "view",
      "type": "function"
    },
    {
      "inputs": [],
      "name": "MINTER_ROLE",
      "outputs": [
        {
          "internalType": "bytes32",
          "name": "",
          "type": "bytes32"
        }
      ],
      "stateMutability": "view",
      "type": "function"
    },
    {
      "inputs": [
        {
          "internalType": "uint256",
          "name": "id",
          "type": "uint256"
        }
      ],
      "name": "burn",
      "outputs": [],
      "stateMutability": "nonpayable",
      "type": "function"
    },
    {
      "inputs": [],
      "name": "cronosWarriors",
      "outputs": [
        {
          "internalType": "contract CronosWarriors",
          "name": "",
          "type": "address"
        }
      ],
      "stateMutability": "view",
      "type": "function"
    },
    {
      "inputs": [
        {
          "internalType": "bytes32",
          "name": "role",
          "type": "bytes32"
        }
      ],
      "name": "getRoleAdmin",
      "outputs": [
        {
          "internalType": "bytes32",
          "name": "",
          "type": "bytes32"
        }
      ],
      "stateMutability": "view",
      "type": "function"
    },
    {
      "inputs": [
        {
          "internalType": "bytes32",
          "name": "role",
          "type": "bytes32"
        },
        {
          "internalType": "address",
          "name": "account",
          "type": "address"
        }
      ],
      "name": "grantRole",
      "outputs": [],
      "stateMutability": "nonpayable",
      "type": "function"
    },
    {
      "inputs": [
        {
          "internalType": "bytes32",
          "name": "role",
          "type": "bytes32"
        },
        {
          "internalType": "address",
          "name": "account",
          "type": "address"
        }
      ],
      "name": "hasRole",
      "outputs": [
        {
          "internalType": "bool",
          "name": "",
          "type": "bool"
        }
      ],
      "stateMutability": "view",
      "type": "function"
    },
    {
      "inputs": [
        {
          "internalType": "uint256",
          "name": "id",
          "type": "uint256"
        }
      ],
      "name": "increaseAttack",
      "outputs": [],
      "stateMutability": "nonpayable",
      "type": "function"
    },
    {
      "inputs": [
        {
          "internalType": "uint256",
          "name": "id",
          "type": "uint256"
        }
      ],
      "name": "increaseDefense",
      "outputs": [],
      "stateMutability": "nonpayable",
      "type": "function"
    },
    {
      "inputs": [
        {
          "internalType": "uint256",
          "name": "id",
          "type": "uint256"
        }
      ],
      "name": "increaseDexterity",
      "outputs": [],
      "stateMutability": "nonpayable",
      "type": "function"
    },
    {
      "inputs": [
        {
          "internalType": "uint256",
          "name": "id",
          "type": "uint256"
        }
      ],
      "name": "increaseStamina",
      "outputs": [],
      "stateMutability": "nonpayable",
      "type": "function"
    },
    {
      "inputs": [
        {
          "internalType": "uint256",
          "name": "id",
          "type": "uint256"
        }
      ],
      "name": "mint",
      "outputs": [],
      "stateMutability": "nonpayable",
      "type": "function"
    },
    {
      "inputs": [
        {
          "internalType": "uint256",
          "name": "id",
          "type": "uint256"
        }
      ],
      "name": "pointsAvailable",
      "outputs": [
        {
          "internalType": "uint256",
          "name": "",
          "type": "uint256"
        }
      ],
      "stateMutability": "view",
      "type": "function"
    },
    {
      "inputs": [
        {
          "internalType": "bytes32",
          "name": "role",
          "type": "bytes32"
        },
        {
          "internalType": "address",
          "name": "account",
          "type": "address"
        }
      ],
      "name": "renounceRole",
      "outputs": [],
      "stateMutability": "nonpayable",
      "type": "function"
    },
    {
      "inputs": [
        {
          "internalType": "bytes32",
          "name": "role",
          "type": "bytes32"
        },
        {
          "internalType": "address",
          "name": "account",
          "type": "address"
        }
      ],
      "name": "revokeRole",
      "outputs": [],
      "stateMutability": "nonpayable",
      "type": "function"
    },
    {
      "inputs": [
        {
          "internalType": "uint256",
          "name": "id",
          "type": "uint256"
        }
      ],
      "name": "skills",
      "outputs": [
        {
          "components": [
            {
              "internalType": "uint256",
              "name": "pointsSpend",
              "type": "uint256"
            },
            {
              "internalType": "uint256",
              "name": "attack",
              "type": "uint256"
            },
            {
              "internalType": "uint256",
              "name": "defense",
              "type": "uint256"
            },
            {
              "internalType": "uint256",
              "name": "stamina",
              "type": "uint256"
            },
            {
              "internalType": "uint256",
              "name": "dexterity",
              "type": "uint256"
            }
          ],
          "internalType": "struct SkillsLib.Skills",
          "name": "",
          "type": "tuple"
        }
      ],
      "stateMutability": "view",
      "type": "function"
    },
    {
      "inputs": [
        {
          "internalType": "bytes4",
          "name": "interfaceId",
          "type": "bytes4"
        }
      ],
      "name": "supportsInterface",
      "outputs": [
        {
          "internalType": "bool",
          "name": "",
          "type": "bool"
        }
      ],
      "stateMutability": "view",
      "type": "function"
    },
    {
      "inputs": [],
      "name": "treasury",
      "outputs": [
        {
          "internalType": "contract Treasury",
          "name": "",
          "type": "address"
        }
      ],
      "stateMutability": "view",
      "type": "function"
    },
    {
      "inputs": [
        {
          "internalType": "uint256",
          "name": "id",
          "type": "uint256"
        }
      ],
      "name": "warriorExperience",
      "outputs": [
        {
          "internalType": "uint256",
          "name": "",
          "type": "uint256"
        }
      ],
      "stateMutability": "view",
      "type": "function"
    },
    {
      "inputs": [
        {
          "internalType": "uint256",
          "name": "id",
          "type": "uint256"
        }
      ],
      "name": "warriorHealth",
      "outputs": [
        {
          "internalType": "uint256",
          "name": "",
          "type": "uint256"
        }
      ],
      "stateMutability": "view",
      "type": "function"
    },
    {
      "inputs": [
        {
          "internalType": "uint256",
          "name": "id",
          "type": "uint256"
        }
      ],
      "name": "warriorLevel",
      "outputs": [
        {
          "internalType": "uint256",
          "name": "",
          "type": "uint256"
        }
      ],
      "stateMutability": "view",
      "type": "function"
    },
    {
      "inputs": [
        {
          "internalType": "uint256",
          "name": "id",
          "type": "uint256"
        }
      ],
      "name": "warriorSkills",
      "outputs": [
        {
          "internalType": "uint256",
          "name": "",
          "type": "uint256"
        },
        {
          "internalType": "uint256",
          "name": "",
          "type": "uint256"
        },
        {
          "internalType": "uint256",
          "name": "",
          "type": "uint256"
        },
        {
          "internalType": "uint256",
          "name": "",
          "type": "uint256"
        },
        {
          "internalType": "uint256",
          "name": "",
          "type": "uint256"
        }
      ],
      "stateMutability": "view",
      "type": "function"
    }
  ],
  "bytecode": "0x60806040523480156200001157600080fd5b506040516200272f3803806200272f833981810160405281019062000037919062000266565b81600160006101000a81548173ffffffffffffffffffffffffffffffffffffffff021916908373ffffffffffffffffffffffffffffffffffffffff16021790555080600260006101000a81548173ffffffffffffffffffffffffffffffffffffffff021916908373ffffffffffffffffffffffffffffffffffffffff160217905550620000ce6000801b33620000d660201b60201c565b5050620002f5565b620000e88282620000ec60201b60201c565b5050565b620000fe8282620001dd60201b60201c565b620001d957600160008084815260200190815260200160002060000160008373ffffffffffffffffffffffffffffffffffffffff1673ffffffffffffffffffffffffffffffffffffffff16815260200190815260200160002060006101000a81548160ff0219169083151502179055506200017e6200024760201b60201c565b73ffffffffffffffffffffffffffffffffffffffff168173ffffffffffffffffffffffffffffffffffffffff16837f2f8788117e7eff1d82e926ec794901d17c78024a50270940304540a733656f0d60405160405180910390a45b5050565b600080600084815260200190815260200160002060000160008373ffffffffffffffffffffffffffffffffffffffff1673ffffffffffffffffffffffffffffffffffffffff16815260200190815260200160002060009054906101000a900460ff16905092915050565b600033905090565b6000815190506200026081620002db565b92915050565b600080604083850312156200027a57600080fd5b60006200028a858286016200024f565b92505060206200029d858286016200024f565b9150509250929050565b6000620002b482620002bb565b9050919050565b600073ffffffffffffffffffffffffffffffffffffffff82169050919050565b620002e681620002a7565b8114620002f257600080fd5b50565b61242a80620003056000396000f3fe608060405234801561001057600080fd5b50600436106101425760003560e01c806391d14854116100b8578063baee89b21161007c578063baee89b214610389578063c6362851146103b9578063d325201c146103d5578063d539139314610405578063d547741f14610423578063ed07f3ae1461043f57610142565b806391d14854146102e7578063a0712d6814610317578063a217fddf14610333578063a3e5476814610351578063a7be77ca1461036d57610142565b806342966c681161010a57806342966c681461020f57806350d15fbe1461022b5780635c5188951461025b57806361d027b31461028f5780636c69e521146102ad57806382e3675a146102cb57610142565b806301ffc9a7146101475780631b3ad6a414610177578063248a9ca3146101a75780632f2ff15d146101d757806336568abe146101f3575b600080fd5b610161600480360381019061015c9190611a92565b61046f565b60405161016e9190611e04565b60405180910390f35b610191600480360381019061018c9190611abb565b6104e9565b60405161019e9190611f63565b60405180910390f35b6101c160048036038101906101bc9190611a2d565b610581565b6040516101ce9190611e1f565b60405180910390f35b6101f160048036038101906101ec9190611a56565b6105a0565b005b61020d60048036038101906102089190611a56565b6105c9565b005b61022960048036038101906102249190611abb565b61064c565b005b61024560048036038101906102409190611abb565b6106c0565b6040516102529190611f12565b60405180910390f35b61027560048036038101906102709190611abb565b61071f565b604051610286959493929190611fa7565b60405180910390f35b6102976107a7565b6040516102a49190611e55565b60405180910390f35b6102b56107cd565b6040516102c29190611e3a565b60405180910390f35b6102e560048036038101906102e09190611abb565b6107f3565b005b61030160048036038101906102fc9190611a56565b6109a3565b60405161030e9190611e04565b60405180910390f35b610331600480360381019061032c9190611abb565b610a0d565b005b61033b610af4565b6040516103489190611e1f565b60405180910390f35b61036b60048036038101906103669190611abb565b610afb565b005b61038760048036038101906103829190611abb565b610cab565b005b6103a3600480360381019061039e9190611abb565b610e5b565b6040516103b09190611f63565b60405180910390f35b6103d360048036038101906103ce9190611abb565b610f0f565b005b6103ef60048036038101906103ea9190611abb565b6110bf565b6040516103fc9190611f63565b60405180910390f35b61040d61116f565b60405161041a9190611e1f565b60405180910390f35b61043d60048036038101906104389190611a56565b611193565b005b61045960048036038101906104549190611abb565b6111bc565b6040516104669190611f63565b60405180910390f35b60007f7965db0b000000000000000000000000000000000000000000000000000000007bffffffffffffffffffffffffffffffffffffffffffffffffffffffff1916827bffffffffffffffffffffffffffffffffffffffffffffffffffffffff191614806104e257506104e18261126c565b5b9050919050565b600073__$785a3750a744651a4256c1a0a9b0861e2b$__631b3ad6a461050e84610e5b565b6040518263ffffffff1660e01b815260040161052a9190611f48565b60206040518083038186803b15801561054257600080fd5b505af4158015610556573d6000803e3d6000fd5b505050506040513d601f19601f8201168201806040525081019061057a9190611ae4565b9050919050565b6000806000838152602001908152602001600020600101549050919050565b6105a982610581565b6105ba816105b56112d6565b6112de565b6105c4838361137b565b505050565b6105d16112d6565b73ffffffffffffffffffffffffffffffffffffffff168173ffffffffffffffffffffffffffffffffffffffff161461063e576040517f08c379a000000000000000000000000000000000000000000000000000000000815260040161063590611ef2565b60405180910390fd5b610648828261145b565b5050565b7f9f2df0fed2c77648de5860a4cc508cd0818c85b8b8a1ab4ceeef8d981c8956a661067e816106796112d6565b6112de565b60036000838152602001908152602001600020600080820160009055600182016000905560028201600090556003820160009055600482016000905550505050565b6106c8611919565b600360008381526020019081526020016000206040518060a0016040529081600082015481526020016001820154815260200160028201548152602001600382015481526020016004820154815250509050919050565b600080600080600080600360008881526020019081526020016000206040518060a001604052908160008201548152602001600182015481526020016002820154815260200160038201548152602001600482015481525050905080600001518160200151826040015183606001518460800151955095509550955095505091939590929450565b600260009054906101000a900473ffffffffffffffffffffffffffffffffffffffff1681565b600160009054906101000a900473ffffffffffffffffffffffffffffffffffffffff1681565b803373ffffffffffffffffffffffffffffffffffffffff16600160009054906101000a900473ffffffffffffffffffffffffffffffffffffffff1673ffffffffffffffffffffffffffffffffffffffff16636352211e836040518263ffffffff1660e01b81526004016108669190611f63565b60206040518083038186803b15801561087e57600080fd5b505afa158015610892573d6000803e3d6000fd5b505050506040513d601f19601f820116820180604052508101906108b691906119db565b73ffffffffffffffffffffffffffffffffffffffff161461090c576040517f08c379a000000000000000000000000000000000000000000000000000000000815260040161090390611ed2565b60405180910390fd5b816000610918826110bf565b11610958576040517f08c379a000000000000000000000000000000000000000000000000000000000815260040161094f90611eb2565b60405180910390fd5b6001600360008581526020019081526020016000206002015461097b9190612021565b600360008581526020019081526020016000206002018190555061099e8361153c565b505050565b600080600084815260200190815260200160002060000160008373ffffffffffffffffffffffffffffffffffffffff1673ffffffffffffffffffffffffffffffffffffffff16815260200190815260200160002060009054906101000a900460ff16905092915050565b7f9f2df0fed2c77648de5860a4cc508cd0818c85b8b8a1ab4ceeef8d981c8956a6610a3f81610a3a6112d6565b6112de565b610a488261157c565b15610a7c577f4e487b7100000000000000000000000000000000000000000000000000000000600052600160045260246000fd5b6040518060a001604052806000815260200160018152602001600181526020016001815260200160018152506003600084815260200190815260200160002060008201518160000155602082015181600101556040820151816002015560608201518160030155608082015181600401559050505050565b6000801b81565b803373ffffffffffffffffffffffffffffffffffffffff16600160009054906101000a900473ffffffffffffffffffffffffffffffffffffffff1673ffffffffffffffffffffffffffffffffffffffff16636352211e836040518263ffffffff1660e01b8152600401610b6e9190611f63565b60206040518083038186803b158015610b8657600080fd5b505afa158015610b9a573d6000803e3d6000fd5b505050506040513d601f19601f82011682018060405250810190610bbe91906119db565b73ffffffffffffffffffffffffffffffffffffffff1614610c14576040517f08c379a0000000000000000000000000000000000000000000000000000000008152600401610c0b90611ed2565b60405180910390fd5b816000610c20826110bf565b11610c60576040517f08c379a0000000000000000000000000000000000000000000000000000000008152600401610c5790611eb2565b60405180910390fd5b60016003600085815260200190815260200160002060040154610c839190612021565b6003600085815260200190815260200160002060040181905550610ca68361153c565b505050565b803373ffffffffffffffffffffffffffffffffffffffff16600160009054906101000a900473ffffffffffffffffffffffffffffffffffffffff1673ffffffffffffffffffffffffffffffffffffffff16636352211e836040518263ffffffff1660e01b8152600401610d1e9190611f63565b60206040518083038186803b158015610d3657600080fd5b505afa158015610d4a573d6000803e3d6000fd5b505050506040513d601f19601f82011682018060405250810190610d6e91906119db565b73ffffffffffffffffffffffffffffffffffffffff1614610dc4576040517f08c379a0000000000000000000000000000000000000000000000000000000008152600401610dbb90611ed2565b60405180910390fd5b816000610dd0826110bf565b11610e10576040517f08c379a0000000000000000000000000000000000000000000000000000000008152600401610e0790611eb2565b60405180910390fd5b60016003600085815260200190815260200160002060030154610e339190612021565b6003600085815260200190815260200160002060030181905550610e568361153c565b505050565b6000600260009054906101000a900473ffffffffffffffffffffffffffffffffffffffff1673ffffffffffffffffffffffffffffffffffffffff1663d3e97165836040518263ffffffff1660e01b8152600401610eb89190611f63565b60206040518083038186803b158015610ed057600080fd5b505afa158015610ee4573d6000803e3d6000fd5b505050506040513d601f19601f82011682018060405250810190610f089190611ae4565b9050919050565b803373ffffffffffffffffffffffffffffffffffffffff16600160009054906101000a900473ffffffffffffffffffffffffffffffffffffffff1673ffffffffffffffffffffffffffffffffffffffff16636352211e836040518263ffffffff1660e01b8152600401610f829190611f63565b60206040518083038186803b158015610f9a57600080fd5b505afa158015610fae573d6000803e3d6000fd5b505050506040513d601f19601f82011682018060405250810190610fd291906119db565b73ffffffffffffffffffffffffffffffffffffffff1614611028576040517f08c379a000000000000000000000000000000000000000000000000000000000815260040161101f90611ed2565b60405180910390fd5b816000611034826110bf565b11611074576040517f08c379a000000000000000000000000000000000000000000000000000000000815260040161106b90611eb2565b60405180910390fd5b600160036000858152602001908152602001600020600101546110979190612021565b60036000858152602001908152602001600020600101819055506110ba8361153c565b505050565b600073__$dd1ab798ac7c049bf7bfb1525e9810c58f$__63b83f21b56110e4846104e9565b60036000868152602001908152602001600020600001546040518363ffffffff1660e01b8152600401611118929190611f7e565b60206040518083038186803b15801561113057600080fd5b505af4158015611144573d6000803e3d6000fd5b505050506040513d601f19601f820116820180604052508101906111689190611ae4565b9050919050565b7f9f2df0fed2c77648de5860a4cc508cd0818c85b8b8a1ab4ceeef8d981c8956a681565b61119c82610581565b6111ad816111a86112d6565b6112de565b6111b7838361145b565b505050565b600073__$785a3750a744651a4256c1a0a9b0861e2b$__636f644fa16111e184610e5b565b60036000868152602001908152602001600020600301546040518363ffffffff1660e01b8152600401611215929190611f7e565b60206040518083038186803b15801561122d57600080fd5b505af4158015611241573d6000803e3d6000fd5b505050506040513d601f19601f820116820180604052508101906112659190611ae4565b9050919050565b60007f01ffc9a7000000000000000000000000000000000000000000000000000000007bffffffffffffffffffffffffffffffffffffffffffffffffffffffff1916827bffffffffffffffffffffffffffffffffffffffffffffffffffffffff1916149050919050565b600033905090565b6112e882826109a3565b6113775761130d8173ffffffffffffffffffffffffffffffffffffffff16601461161f565b61131b8360001c602061161f565b60405160200161132c929190611dca565b6040516020818303038152906040526040517f08c379a000000000000000000000000000000000000000000000000000000000815260040161136e9190611e70565b60405180910390fd5b5050565b61138582826109a3565b61145757600160008084815260200190815260200160002060000160008373ffffffffffffffffffffffffffffffffffffffff1673ffffffffffffffffffffffffffffffffffffffff16815260200190815260200160002060006101000a81548160ff0219169083151502179055506113fc6112d6565b73ffffffffffffffffffffffffffffffffffffffff168173ffffffffffffffffffffffffffffffffffffffff16837f2f8788117e7eff1d82e926ec794901d17c78024a50270940304540a733656f0d60405160405180910390a45b5050565b61146582826109a3565b1561153857600080600084815260200190815260200160002060000160008373ffffffffffffffffffffffffffffffffffffffff1673ffffffffffffffffffffffffffffffffffffffff16815260200190815260200160002060006101000a81548160ff0219169083151502179055506114dd6112d6565b73ffffffffffffffffffffffffffffffffffffffff168173ffffffffffffffffffffffffffffffffffffffff16837ff6391f5c32d9c69d2a47ea670b442974b53935d1edc7fd64eb21e047a839171b60405160405180910390a45b5050565b6001600360008381526020019081526020016000206000015461155f9190612021565b600360008381526020019081526020016000206000018190555050565b600073__$915d125cb0df6df756b6684e4b0aad8422$__63b1edb05f600360008581526020019081526020016000206040518263ffffffff1660e01b81526004016115c79190611f2d565b60206040518083038186803b1580156115df57600080fd5b505af41580156115f3573d6000803e3d6000fd5b505050506040513d601f19601f820116820180604052508101906116179190611a04565b159050919050565b6060600060028360026116329190612077565b61163c9190612021565b67ffffffffffffffff81111561167b577f4e487b7100000000000000000000000000000000000000000000000000000000600052604160045260246000fd5b6040519080825280601f01601f1916602001820160405280156116ad5781602001600182028036833780820191505090505b5090507f30000000000000000000000000000000000000000000000000000000000000008160008151811061170b577f4e487b7100000000000000000000000000000000000000000000000000000000600052603260045260246000fd5b60200101907effffffffffffffffffffffffffffffffffffffffffffffffffffffffffffff1916908160001a9053507f780000000000000000000000000000000000000000000000000000000000000081600181518110611795577f4e487b7100000000000000000000000000000000000000000000000000000000600052603260045260246000fd5b60200101907effffffffffffffffffffffffffffffffffffffffffffffffffffffffffffff1916908160001a905350600060018460026117d59190612077565b6117df9190612021565b90505b60018111156118cb577f3031323334353637383961626364656600000000000000000000000000000000600f861660108110611847577f4e487b7100000000000000000000000000000000000000000000000000000000600052603260045260246000fd5b1a60f81b828281518110611884577f4e487b7100000000000000000000000000000000000000000000000000000000600052603260045260246000fd5b60200101907effffffffffffffffffffffffffffffffffffffffffffffffffffffffffffff1916908160001a905350600485901c9450806118c4906121d4565b90506117e2565b506000841461190f576040517f08c379a000000000000000000000000000000000000000000000000000000000815260040161190690611e92565b60405180910390fd5b8091505092915050565b6040518060a0016040528060008152602001600081526020016000815260200160008152602001600081525090565b60008135905061195781612381565b92915050565b60008151905061196c81612381565b92915050565b60008151905061198181612398565b92915050565b600081359050611996816123af565b92915050565b6000813590506119ab816123c6565b92915050565b6000813590506119c0816123dd565b92915050565b6000815190506119d5816123dd565b92915050565b6000602082840312156119ed57600080fd5b60006119fb8482850161195d565b91505092915050565b600060208284031215611a1657600080fd5b6000611a2484828501611972565b91505092915050565b600060208284031215611a3f57600080fd5b6000611a4d84828501611987565b91505092915050565b60008060408385031215611a6957600080fd5b6000611a7785828601611987565b9250506020611a8885828601611948565b9150509250929050565b600060208284031215611aa457600080fd5b6000611ab28482850161199c565b91505092915050565b600060208284031215611acd57600080fd5b6000611adb848285016119b1565b91505092915050565b600060208284031215611af657600080fd5b6000611b04848285016119c6565b91505092915050565b611b16816120ed565b82525050565b611b25816120f9565b82525050565b611b3481612159565b82525050565b611b438161217d565b82525050565b6000611b5482611ffa565b611b5e8185612005565b9350611b6e8185602086016121a1565b611b7781612247565b840191505092915050565b6000611b8d82611ffa565b611b978185612016565b9350611ba78185602086016121a1565b80840191505092915050565b6000611bc0602083612005565b9150611bcb82612265565b602082019050919050565b6000611be3601983612005565b9150611bee8261228e565b602082019050919050565b6000611c06601b83612005565b9150611c11826122b7565b602082019050919050565b6000611c29601783612016565b9150611c34826122e0565b601782019050919050565b6000611c4c601183612016565b9150611c5782612309565b601182019050919050565b6000611c6f602f83612005565b9150611c7a82612332565b604082019050919050565b60a082016000820151611c9b6000850182611d8e565b506020820151611cae6020850182611d8e565b506040820151611cc16040850182611d8e565b506060820151611cd46060850182611d8e565b506080820151611ce76080850182611d8e565b50505050565b60a082016000808301549050611d02816121fe565b611d0f6000860182611dbb565b5060018301549050611d20816121fe565b611d2d6020860182611dbb565b5060028301549050611d3e816121fe565b611d4b6040860182611dbb565b5060038301549050611d5c816121fe565b611d696060860182611dbb565b5060048301549050611d7a816121fe565b611d876080860182611dbb565b5050505050565b611d978161214f565b82525050565b611da68161214f565b82525050565b611db58161214f565b82525050565b611dc48161214f565b82525050565b6000611dd582611c1c565b9150611de18285611b82565b9150611dec82611c3f565b9150611df88284611b82565b91508190509392505050565b6000602082019050611e196000830184611b0d565b92915050565b6000602082019050611e346000830184611b1c565b92915050565b6000602082019050611e4f6000830184611b2b565b92915050565b6000602082019050611e6a6000830184611b3a565b92915050565b60006020820190508181036000830152611e8a8184611b49565b905092915050565b60006020820190508181036000830152611eab81611bb3565b9050919050565b60006020820190508181036000830152611ecb81611bd6565b9050919050565b60006020820190508181036000830152611eeb81611bf9565b9050919050565b60006020820190508181036000830152611f0b81611c62565b9050919050565b600060a082019050611f276000830184611c85565b92915050565b600060a082019050611f426000830184611ced565b92915050565b6000602082019050611f5d6000830184611dac565b92915050565b6000602082019050611f786000830184611d9d565b92915050565b6000604082019050611f936000830185611dac565b611fa06020830184611dac565b9392505050565b600060a082019050611fbc6000830188611d9d565b611fc96020830187611d9d565b611fd66040830186611d9d565b611fe36060830185611d9d565b611ff06080830184611d9d565b9695505050505050565b600081519050919050565b600082825260208201905092915050565b600081905092915050565b600061202c8261214f565b91506120378361214f565b9250827fffffffffffffffffffffffffffffffffffffffffffffffffffffffffffffffff0382111561206c5761206b612218565b5b828201905092915050565b60006120828261214f565b915061208d8361214f565b9250817fffffffffffffffffffffffffffffffffffffffffffffffffffffffffffffffff04831182151516156120c6576120c5612218565b5b828202905092915050565b6000819050919050565b60006120e68261212f565b9050919050565b60008115159050919050565b6000819050919050565b60007fffffffff0000000000000000000000000000000000000000000000000000000082169050919050565b600073ffffffffffffffffffffffffffffffffffffffff82169050919050565b6000819050919050565b60006121648261216b565b9050919050565b60006121768261212f565b9050919050565b60006121888261218f565b9050919050565b600061219a8261212f565b9050919050565b60005b838110156121bf5780820151818401526020810190506121a4565b838111156121ce576000848401525b50505050565b60006121df8261214f565b915060008214156121f3576121f2612218565b5b600182039050919050565b600061221161220c83612258565b6120d1565b9050919050565b7f4e487b7100000000000000000000000000000000000000000000000000000000600052601160045260246000fd5b6000601f19601f8301169050919050565b60008160001c9050919050565b7f537472696e67733a20686578206c656e67746820696e73756666696369656e74600082015250565b7f4e6f20736b696c6c706f696e747320617661696c61626c652100000000000000600082015250565b7f4f6e6c7920746865206f776e65722063616e20646f2074686973210000000000600082015250565b7f416363657373436f6e74726f6c3a206163636f756e7420000000000000000000600082015250565b7f206973206d697373696e6720726f6c6520000000000000000000000000000000600082015250565b7f416363657373436f6e74726f6c3a2063616e206f6e6c792072656e6f756e636560008201527f20726f6c657320666f722073656c660000000000000000000000000000000000602082015250565b61238a816120db565b811461239557600080fd5b50565b6123a1816120ed565b81146123ac57600080fd5b50565b6123b8816120f9565b81146123c357600080fd5b50565b6123cf81612103565b81146123da57600080fd5b50565b6123e68161214f565b81146123f157600080fd5b5056fea2646970667358221220863838a0ca3548aa45077af7dbafd0983cc4a8d971c06c071ecd59163da05f0964736f6c63430008040033",
  "linkReferences": {
    "contracts/lib/Compute.sol": {
      "Compute": [
        {
          "length": 20,
          "start": 2034
        },
        {
          "length": 20,
          "start": 5317
        }
      ]
    },
    "contracts/lib/Math.sol": {
      "Math": [
        {
          "length": 20,
          "start": 5064
        }
      ]
    },
    "contracts/lib/structs/SkillsLib.sol": {
      "SkillsLib": [
        {
          "length": 20,
          "start": 6277
        }
      ]
    }
  },
  "deployedLinkReferences": {
    "contracts/lib/Compute.sol": {
      "Compute": [
        {
          "length": 20,
          "start": 1261
        },
        {
          "length": 20,
          "start": 4544
        }
      ]
    },
    "contracts/lib/Math.sol": {
      "Math": [
        {
          "length": 20,
          "start": 4291
        }
      ]
    },
    "contracts/lib/structs/SkillsLib.sol": {
      "SkillsLib": [
        {
          "length": 20,
          "start": 5504
        }
      ]
    }
  }
}