{
  "_format": "hh-sol-artifact-1",
  "contractName": "WarriorFactory",
  "sourceName": "contracts/WarriorFactory.sol",
  "abi": [
    {
      "inputs": [
        {
          "internalType": "address",
          "name": "cronosWarriorsAddr",
          "type": "address"
        },
        {
          "internalType": "address",
          "name": "warriorSkillsAddr",
          "type": "address"
        },
        {
          "internalType": "address",
          "name": "warriorStatsAddr",
          "type": "address"
        },
        {
          "internalType": "address",
          "name": "warriorVisualsAddr",
          "type": "address"
        },
        {
          "internalType": "address",
          "name": "treasuryAddr",
          "type": "address"
        }
      ],
      "stateMutability": "nonpayable",
      "type": "constructor"
    },
    {
      "anonymous": false,
      "inputs": [
        {
          "indexed": true,
          "internalType": "uint256",
          "name": "id",
          "type": "uint256"
        },
        {
          "indexed": false,
          "internalType": "address",
          "name": "owner",
          "type": "address"
        },
        {
          "indexed": false,
          "internalType": "address",
          "name": "recipient",
          "type": "address"
        }
      ],
      "name": "WarriorBurned",
      "type": "event"
    },
    {
      "anonymous": false,
      "inputs": [
        {
          "indexed": true,
          "internalType": "uint256",
          "name": "id",
          "type": "uint256"
        },
        {
          "indexed": false,
          "internalType": "address",
          "name": "owner",
          "type": "address"
        }
      ],
      "name": "WarriorMinted",
      "type": "event"
    },
    {
      "inputs": [
        {
          "internalType": "uint256",
          "name": "id",
          "type": "uint256"
        },
        {
          "internalType": "address",
          "name": "recipient",
          "type": "address"
        }
      ],
      "name": "burn",
      "outputs": [],
      "stateMutability": "nonpayable",
      "type": "function"
    },
    {
      "inputs": [],
      "name": "cronosWarriors",
      "outputs": [
        {
          "internalType": "contract CronosWarriors",
          "name": "",
          "type": "address"
        }
      ],
      "stateMutability": "view",
      "type": "function"
    },
    {
      "inputs": [
        {
          "internalType": "string",
          "name": "name",
          "type": "string"
        }
      ],
      "name": "mint",
      "outputs": [
        {
          "internalType": "uint256",
          "name": "",
          "type": "uint256"
        }
      ],
      "stateMutability": "payable",
      "type": "function"
    },
    {
      "inputs": [],
      "name": "treasury",
      "outputs": [
        {
          "internalType": "contract Treasury",
          "name": "",
          "type": "address"
        }
      ],
      "stateMutability": "view",
      "type": "function"
    },
    {
      "inputs": [],
      "name": "warriorSkills",
      "outputs": [
        {
          "internalType": "contract WarriorSkills",
          "name": "",
          "type": "address"
        }
      ],
      "stateMutability": "view",
      "type": "function"
    },
    {
      "inputs": [],
      "name": "warriorStats",
      "outputs": [
        {
          "internalType": "contract WarriorStats",
          "name": "",
          "type": "address"
        }
      ],
      "stateMutability": "view",
      "type": "function"
    },
    {
      "inputs": [],
      "name": "warriorVisuals",
      "outputs": [
        {
          "internalType": "contract WarriorVisuals",
          "name": "",
          "type": "address"
        }
      ],
      "stateMutability": "view",
      "type": "function"
    }
  ],
  "bytecode": "0x60806040523480156200001157600080fd5b50604051620013dc380380620013dc8339818101604052810190620000379190620001a5565b846000806101000a81548173ffffffffffffffffffffffffffffffffffffffff021916908373ffffffffffffffffffffffffffffffffffffffff16021790555083600160006101000a81548173ffffffffffffffffffffffffffffffffffffffff021916908373ffffffffffffffffffffffffffffffffffffffff16021790555082600260006101000a81548173ffffffffffffffffffffffffffffffffffffffff021916908373ffffffffffffffffffffffffffffffffffffffff16021790555081600360006101000a81548173ffffffffffffffffffffffffffffffffffffffff021916908373ffffffffffffffffffffffffffffffffffffffff16021790555080600460006101000a81548173ffffffffffffffffffffffffffffffffffffffff021916908373ffffffffffffffffffffffffffffffffffffffff1602179055506000600581905550505050505062000275565b6000815190506200019f816200025b565b92915050565b600080600080600060a08688031215620001be57600080fd5b6000620001ce888289016200018e565b9550506020620001e1888289016200018e565b9450506040620001f4888289016200018e565b935050606062000207888289016200018e565b92505060806200021a888289016200018e565b9150509295509295909350565b600062000234826200023b565b9050919050565b600073ffffffffffffffffffffffffffffffffffffffff82169050919050565b620002668162000227565b81146200027257600080fd5b50565b61115780620002856000396000f3fe6080604052600436106100705760003560e01c80639cee48221161004e5780639cee4822146100f6578063d85d3d2714610121578063f99cd25b14610151578063fcd3533c1461017c57610070565b8063160012381461007557806361d027b3146100a05780636c69e521146100cb575b600080fd5b34801561008157600080fd5b5061008a6101a5565b6040516100979190610d9b565b60405180910390f35b3480156100ac57600080fd5b506100b56101cb565b6040516100c29190610d4a565b60405180910390f35b3480156100d757600080fd5b506100e06101f1565b6040516100ed9190610d2f565b60405180910390f35b34801561010257600080fd5b5061010b610215565b6040516101189190610d65565b60405180910390f35b61013b60048036038101906101369190610b7d565b61023b565b6040516101489190610dd6565b60405180910390f35b34801561015d57600080fd5b50610166610634565b6040516101739190610d80565b60405180910390f35b34801561018857600080fd5b506101a3600480360381019061019e9190610bbe565b61065a565b005b600360009054906101000a900473ffffffffffffffffffffffffffffffffffffffff1681565b600460009054906101000a900473ffffffffffffffffffffffffffffffffffffffff1681565b60008054906101000a900473ffffffffffffffffffffffffffffffffffffffff1681565b600160009054906101000a900473ffffffffffffffffffffffffffffffffffffffff1681565b600080600160055461024d9190610ec7565b6005819055905060008054906101000a900473ffffffffffffffffffffffffffffffffffffffff1673ffffffffffffffffffffffffffffffffffffffff16634f558e79826040518263ffffffff1660e01b81526004016102ad9190610dd6565b60206040518083038186803b1580156102c557600080fd5b505afa1580156102d9573d6000803e3d6000fd5b505050506040513d601f19601f820116820180604052508101906102fd9190610b54565b15610331577f4e487b7100000000000000000000000000000000000000000000000000000000600052600160045260246000fd5b600460009054906101000a900473ffffffffffffffffffffffffffffffffffffffff1673ffffffffffffffffffffffffffffffffffffffff1663a0712d6834836040518363ffffffff1660e01b815260040161038d9190610dd6565b6000604051808303818588803b1580156103a657600080fd5b505af11580156103ba573d6000803e3d6000fd5b5050505050600360009054906101000a900473ffffffffffffffffffffffffffffffffffffffff1673ffffffffffffffffffffffffffffffffffffffff166377097fc882856040518363ffffffff1660e01b815260040161041c929190610e1a565b600060405180830381600087803b15801561043657600080fd5b505af115801561044a573d6000803e3d6000fd5b50505050600160009054906101000a900473ffffffffffffffffffffffffffffffffffffffff1673ffffffffffffffffffffffffffffffffffffffff1663a0712d68826040518263ffffffff1660e01b81526004016104a99190610dd6565b600060405180830381600087803b1580156104c357600080fd5b505af11580156104d7573d6000803e3d6000fd5b50505050600260009054906101000a900473ffffffffffffffffffffffffffffffffffffffff1673ffffffffffffffffffffffffffffffffffffffff1663a0712d68826040518263ffffffff1660e01b81526004016105369190610dd6565b600060405180830381600087803b15801561055057600080fd5b505af1158015610564573d6000803e3d6000fd5b5050505060008054906101000a900473ffffffffffffffffffffffffffffffffffffffff1673ffffffffffffffffffffffffffffffffffffffff1663a0712d68826040518263ffffffff1660e01b81526004016105c19190610dd6565b600060405180830381600087803b1580156105db57600080fd5b505af11580156105ef573d6000803e3d6000fd5b50505050807f434a952a98f00e28fb9ea86aed27f71fa299487fffdd01f1ee2c9360afa303d8336040516106239190610ceb565b60405180910390a280915050919050565b600260009054906101000a900473ffffffffffffffffffffffffffffffffffffffff1681565b60008054906101000a900473ffffffffffffffffffffffffffffffffffffffff1673ffffffffffffffffffffffffffffffffffffffff16636352211e836040518263ffffffff1660e01b81526004016106b39190610dd6565b60206040518083038186803b1580156106cb57600080fd5b505afa1580156106df573d6000803e3d6000fd5b505050506040513d601f19601f820116820180604052508101906107039190610b2b565b73ffffffffffffffffffffffffffffffffffffffff163373ffffffffffffffffffffffffffffffffffffffff1614610770576040517f08c379a000000000000000000000000000000000000000000000000000000000815260040161076790610db6565b60405180910390fd5b600160009054906101000a900473ffffffffffffffffffffffffffffffffffffffff1673ffffffffffffffffffffffffffffffffffffffff166342966c68836040518263ffffffff1660e01b81526004016107cb9190610dd6565b600060405180830381600087803b1580156107e557600080fd5b505af11580156107f9573d6000803e3d6000fd5b50505050600260009054906101000a900473ffffffffffffffffffffffffffffffffffffffff1673ffffffffffffffffffffffffffffffffffffffff166342966c68836040518263ffffffff1660e01b81526004016108589190610dd6565b600060405180830381600087803b15801561087257600080fd5b505af1158015610886573d6000803e3d6000fd5b50505050600360009054906101000a900473ffffffffffffffffffffffffffffffffffffffff1673ffffffffffffffffffffffffffffffffffffffff166342966c68836040518263ffffffff1660e01b81526004016108e59190610dd6565b600060405180830381600087803b1580156108ff57600080fd5b505af1158015610913573d6000803e3d6000fd5b50505050600460009054906101000a900473ffffffffffffffffffffffffffffffffffffffff1673ffffffffffffffffffffffffffffffffffffffff1663ff5ee77f83836040518363ffffffff1660e01b8152600401610974929190610df1565b600060405180830381600087803b15801561098e57600080fd5b505af11580156109a2573d6000803e3d6000fd5b5050505060008054906101000a900473ffffffffffffffffffffffffffffffffffffffff1673ffffffffffffffffffffffffffffffffffffffff166342966c68836040518263ffffffff1660e01b81526004016109ff9190610dd6565b600060405180830381600087803b158015610a1957600080fd5b505af1158015610a2d573d6000803e3d6000fd5b50505050817f88d52dda07317eb0d52bcf08a54028b29289032bda552acd906200b2937715dc3383604051610a63929190610d06565b60405180910390a25050565b6000610a82610a7d84610e7b565b610e4a565b905082815260208101848484011115610a9a57600080fd5b610aa584828561102b565b509392505050565b600081359050610abc816110dc565b92915050565b600081519050610ad1816110dc565b92915050565b600081519050610ae6816110f3565b92915050565b600082601f830112610afd57600080fd5b8135610b0d848260208601610a6f565b91505092915050565b600081359050610b258161110a565b92915050565b600060208284031215610b3d57600080fd5b6000610b4b84828501610ac2565b91505092915050565b600060208284031215610b6657600080fd5b6000610b7484828501610ad7565b91505092915050565b600060208284031215610b8f57600080fd5b600082013567ffffffffffffffff811115610ba957600080fd5b610bb584828501610aec565b91505092915050565b60008060408385031215610bd157600080fd5b6000610bdf85828601610b16565b9250506020610bf085828601610aad565b9150509250929050565b610c0381610f2f565b82525050565b610c1281610f1d565b82525050565b610c2181610f77565b82525050565b610c3081610f9b565b82525050565b610c3f81610fbf565b82525050565b610c4e81610fe3565b82525050565b610c5d81611007565b82525050565b6000610c6e82610eab565b610c788185610eb6565b9350610c8881856020860161103a565b610c91816110cb565b840191505092915050565b6000610ca9601783610eb6565b91507f4f6e6c79206f776e65722063616e20646f2074686973210000000000000000006000830152602082019050919050565b610ce581610f6d565b82525050565b6000602082019050610d006000830184610c09565b92915050565b6000604082019050610d1b6000830185610c09565b610d286020830184610c09565b9392505050565b6000602082019050610d446000830184610c18565b92915050565b6000602082019050610d5f6000830184610c27565b92915050565b6000602082019050610d7a6000830184610c36565b92915050565b6000602082019050610d956000830184610c45565b92915050565b6000602082019050610db06000830184610c54565b92915050565b60006020820190508181036000830152610dcf81610c9c565b9050919050565b6000602082019050610deb6000830184610cdc565b92915050565b6000604082019050610e066000830185610cdc565b610e136020830184610bfa565b9392505050565b6000604082019050610e2f6000830185610cdc565b8181036020830152610e418184610c63565b90509392505050565b6000604051905081810181811067ffffffffffffffff82111715610e7157610e7061109c565b5b8060405250919050565b600067ffffffffffffffff821115610e9657610e9561109c565b5b601f19601f8301169050602081019050919050565b600081519050919050565b600082825260208201905092915050565b6000610ed282610f6d565b9150610edd83610f6d565b9250827fffffffffffffffffffffffffffffffffffffffffffffffffffffffffffffffff03821115610f1257610f1161106d565b5b828201905092915050565b6000610f2882610f4d565b9050919050565b6000610f3a82610f4d565b9050919050565b60008115159050919050565b600073ffffffffffffffffffffffffffffffffffffffff82169050919050565b6000819050919050565b6000610f8282610f89565b9050919050565b6000610f9482610f4d565b9050919050565b6000610fa682610fad565b9050919050565b6000610fb882610f4d565b9050919050565b6000610fca82610fd1565b9050919050565b6000610fdc82610f4d565b9050919050565b6000610fee82610ff5565b9050919050565b600061100082610f4d565b9050919050565b600061101282611019565b9050919050565b600061102482610f4d565b9050919050565b82818337600083830152505050565b60005b8381101561105857808201518184015260208101905061103d565b83811115611067576000848401525b50505050565b7f4e487b7100000000000000000000000000000000000000000000000000000000600052601160045260246000fd5b7f4e487b7100000000000000000000000000000000000000000000000000000000600052604160045260246000fd5b6000601f19601f8301169050919050565b6110e581610f1d565b81146110f057600080fd5b50565b6110fc81610f41565b811461110757600080fd5b50565b61111381610f6d565b811461111e57600080fd5b5056fea264697066735822122038c5760332619671ebde050c9698895d7d9ce5942d176da2acb5d2ed56b27f7564736f6c63430008000033",
  "linkReferences": {},
  "deployedLinkReferences": {}
}