{
  "_format": "hh-sol-artifact-1",
  "contractName": "WarriorVisuals",
  "sourceName": "contracts/WarriorVisuals.sol",
  "abi": [
    {
      "inputs": [],
      "stateMutability": "nonpayable",
      "type": "constructor"
    },
    {
      "anonymous": false,
      "inputs": [
        {
          "indexed": true,
          "internalType": "address",
          "name": "previousOwner",
          "type": "address"
        },
        {
          "indexed": true,
          "internalType": "address",
          "name": "newOwner",
          "type": "address"
        }
      ],
      "name": "OwnershipTransferred",
      "type": "event"
    },
    {
      "inputs": [
        {
          "internalType": "uint256",
          "name": "id",
          "type": "uint256"
        }
      ],
      "name": "burn",
      "outputs": [],
      "stateMutability": "nonpayable",
      "type": "function"
    },
    {
      "inputs": [
        {
          "internalType": "uint256",
          "name": "id",
          "type": "uint256"
        },
        {
          "internalType": "string",
          "name": "name",
          "type": "string"
        }
      ],
      "name": "mint",
      "outputs": [],
      "stateMutability": "nonpayable",
      "type": "function"
    },
    {
      "inputs": [],
      "name": "owner",
      "outputs": [
        {
          "internalType": "address",
          "name": "",
          "type": "address"
        }
      ],
      "stateMutability": "view",
      "type": "function"
    },
    {
      "inputs": [],
      "name": "renounceOwnership",
      "outputs": [],
      "stateMutability": "nonpayable",
      "type": "function"
    },
    {
      "inputs": [
        {
          "internalType": "address",
          "name": "addr",
          "type": "address"
        },
        {
          "internalType": "bool",
          "name": "allow",
          "type": "bool"
        }
      ],
      "name": "setModule",
      "outputs": [],
      "stateMutability": "nonpayable",
      "type": "function"
    },
    {
      "inputs": [
        {
          "internalType": "address",
          "name": "newOwner",
          "type": "address"
        }
      ],
      "name": "transferOwnership",
      "outputs": [],
      "stateMutability": "nonpayable",
      "type": "function"
    },
    {
      "inputs": [
        {
          "internalType": "uint256",
          "name": "id",
          "type": "uint256"
        }
      ],
      "name": "visuals",
      "outputs": [
        {
          "components": [
            {
              "internalType": "string",
              "name": "name",
              "type": "string"
            }
          ],
          "internalType": "struct VisualsLib.Visuals",
          "name": "",
          "type": "tuple"
        }
      ],
      "stateMutability": "view",
      "type": "function"
    },
    {
      "inputs": [
        {
          "internalType": "uint256",
          "name": "id",
          "type": "uint256"
        }
      ],
      "name": "warriorName",
      "outputs": [
        {
          "internalType": "string",
          "name": "",
          "type": "string"
        }
      ],
      "stateMutability": "view",
      "type": "function"
    }
  ],
  "bytecode": "0x608060405234801561001057600080fd5b5061002d61002261003260201b60201c565b61003a60201b60201c565b6100fe565b600033905090565b60008060009054906101000a900473ffffffffffffffffffffffffffffffffffffffff169050816000806101000a81548173ffffffffffffffffffffffffffffffffffffffff021916908373ffffffffffffffffffffffffffffffffffffffff1602179055508173ffffffffffffffffffffffffffffffffffffffff168173ffffffffffffffffffffffffffffffffffffffff167f8be0079c531659141344cd1fd0a4f28419497f9722a3daafe3b4186f6b6457e060405160405180910390a35050565b6112bf8061010d6000396000f3fe608060405234801561001057600080fd5b50600436106100885760003560e01c806377224f181161005b57806377224f18146100ff5780638da5cb5b1461012f578063b1662d581461014d578063f2fde38b1461016957610088565b806342966c681461008d5780636b06054c146100a9578063715018a6146100d957806377097fc8146100e3575b600080fd5b6100a760048036038101906100a29190610bff565b610185565b005b6100c360048036038101906100be9190610bff565b61023a565b6040516100d09190611010565b60405180910390f35b6100e16102f9565b005b6100fd60048036038101906100f89190610c28565b610381565b005b61011960048036038101906101149190610bff565b610556565b6040516101269190610f6e565b60405180910390f35b6101376105fe565b6040516101449190610f31565b60405180910390f35b61016760048036038101906101629190610b9a565b610627565b005b610183600480360381019061017e9190610b71565b610758565b005b600160003373ffffffffffffffffffffffffffffffffffffffff1673ffffffffffffffffffffffffffffffffffffffff16815260200190815260200160002060009054906101000a900460ff16610211576040517f08c379a000000000000000000000000000000000000000000000000000000000815260040161020890610fd0565b60405180910390fd5b600260008281526020019081526020016000206000808201600061023591906109bf565b505050565b6102426109ff565b60026000838152602001908152602001600020604051806020016040529081600082018054610270906111a3565b80601f016020809104026020016040519081016040528092919081815260200182805461029c906111a3565b80156102e95780601f106102be576101008083540402835291602001916102e9565b820191906000526020600020905b8154815290600101906020018083116102cc57829003601f168201915b5050505050815250509050919050565b610301610850565b73ffffffffffffffffffffffffffffffffffffffff1661031f6105fe565b73ffffffffffffffffffffffffffffffffffffffff1614610375576040517f08c379a000000000000000000000000000000000000000000000000000000000815260040161036c90610ff0565b60405180910390fd5b61037f6000610858565b565b600160003373ffffffffffffffffffffffffffffffffffffffff1673ffffffffffffffffffffffffffffffffffffffff16815260200190815260200160002060009054906101000a900460ff1661040d576040517f08c379a000000000000000000000000000000000000000000000000000000000815260040161040490610fd0565b60405180910390fd5b6104168261091c565b1561044a577f4e487b7100000000000000000000000000000000000000000000000000000000600052600160045260246000fd5b73__$99770930083218c0d4904b030f3e99faf3$__631e30397f826040518263ffffffff1660e01b81526004016104819190610f4c565b60206040518083038186803b15801561049957600080fd5b505af41580156104ad573d6000803e3d6000fd5b505050506040513d601f19601f820116820180604052508101906104d19190610bd6565b610510576040517f08c379a000000000000000000000000000000000000000000000000000000000815260040161050790610fb0565b60405180910390fd5b60405180602001604052808281525060026000848152602001908152602001600020600082015181600001908051906020019061054e929190610a12565b509050505050565b6060600260008381526020019081526020016000206000018054610579906111a3565b80601f01602080910402602001604051908101604052809291908181526020018280546105a5906111a3565b80156105f25780601f106105c7576101008083540402835291602001916105f2565b820191906000526020600020905b8154815290600101906020018083116105d557829003601f168201915b50505050509050919050565b60008060009054906101000a900473ffffffffffffffffffffffffffffffffffffffff16905090565b61062f610850565b73ffffffffffffffffffffffffffffffffffffffff1661064d6105fe565b73ffffffffffffffffffffffffffffffffffffffff16146106a3576040517f08c379a000000000000000000000000000000000000000000000000000000000815260040161069a90610ff0565b60405180910390fd5b806106fc57600160008373ffffffffffffffffffffffffffffffffffffffff1673ffffffffffffffffffffffffffffffffffffffff16815260200190815260200160002060006101000a81549060ff0219169055610754565b60018060008473ffffffffffffffffffffffffffffffffffffffff1673ffffffffffffffffffffffffffffffffffffffff16815260200190815260200160002060006101000a81548160ff0219169083151502179055505b5050565b610760610850565b73ffffffffffffffffffffffffffffffffffffffff1661077e6105fe565b73ffffffffffffffffffffffffffffffffffffffff16146107d4576040517f08c379a00000000000000000000000000000000000000000000000000000000081526004016107cb90610ff0565b60405180910390fd5b600073ffffffffffffffffffffffffffffffffffffffff168173ffffffffffffffffffffffffffffffffffffffff161415610844576040517f08c379a000000000000000000000000000000000000000000000000000000000815260040161083b90610f90565b60405180910390fd5b61084d81610858565b50565b600033905090565b60008060009054906101000a900473ffffffffffffffffffffffffffffffffffffffff169050816000806101000a81548173ffffffffffffffffffffffffffffffffffffffff021916908373ffffffffffffffffffffffffffffffffffffffff1602179055508173ffffffffffffffffffffffffffffffffffffffff168173ffffffffffffffffffffffffffffffffffffffff167f8be0079c531659141344cd1fd0a4f28419497f9722a3daafe3b4186f6b6457e060405160405180910390a35050565b600073__$99770930083218c0d4904b030f3e99faf3$__63cd9e72e6600260008581526020019081526020016000206040518263ffffffff1660e01b81526004016109679190611032565b60206040518083038186803b15801561097f57600080fd5b505af4158015610993573d6000803e3d6000fd5b505050506040513d601f19601f820116820180604052508101906109b79190610bd6565b159050919050565b5080546109cb906111a3565b6000825580601f106109dd57506109fc565b601f0160209004906000526020600020908101906109fb9190610a98565b5b50565b6040518060200160405280606081525090565b828054610a1e906111a3565b90600052602060002090601f016020900481019282610a405760008555610a87565b82601f10610a5957805160ff1916838001178555610a87565b82800160010185558215610a87579182015b82811115610a86578251825591602001919060010190610a6b565b5b509050610a949190610a98565b5090565b5b80821115610ab1576000816000905550600101610a99565b5090565b6000610ac8610ac384611085565b611054565b905082815260208101848484011115610ae057600080fd5b610aeb848285611161565b509392505050565b600081359050610b0281611244565b92915050565b600081359050610b178161125b565b92915050565b600081519050610b2c8161125b565b92915050565b600082601f830112610b4357600080fd5b8135610b53848260208601610ab5565b91505092915050565b600081359050610b6b81611272565b92915050565b600060208284031215610b8357600080fd5b6000610b9184828501610af3565b91505092915050565b60008060408385031215610bad57600080fd5b6000610bbb85828601610af3565b9250506020610bcc85828601610b08565b9150509250929050565b600060208284031215610be857600080fd5b6000610bf684828501610b1d565b91505092915050565b600060208284031215610c1157600080fd5b6000610c1f84828501610b5c565b91505092915050565b60008060408385031215610c3b57600080fd5b6000610c4985828601610b5c565b925050602083013567ffffffffffffffff811115610c6657600080fd5b610c7285828601610b32565b9150509250929050565b610c8581611119565b82525050565b6000610c96826110ca565b610ca081856110d5565b9350610cb0818560208601611170565b610cb981611233565b840191505092915050565b6000610ccf826110ca565b610cd981856110e6565b9350610ce9818560208601611170565b610cf281611233565b840191505092915050565b6000610d08826110ca565b610d1281856110f7565b9350610d22818560208601611170565b610d2b81611233565b840191505092915050565b60008154610d43816111a3565b610d4d8186611108565b94506001821660008114610d685760018114610d7a57610dad565b60ff1983168652602086019350610dad565b610d83856110b5565b60005b83811015610da557815481890152600182019150602081019050610d86565b808801955050505b50505092915050565b6000610dc36026836110e6565b91507f4f776e61626c653a206e6577206f776e657220697320746865207a65726f206160008301527f64647265737300000000000000000000000000000000000000000000000000006020830152604082019050919050565b6000610e296011836110e6565b91507f4e616d65206973206e6f742076616c69640000000000000000000000000000006000830152602082019050919050565b6000610e696018836110e6565b91507f6f6e6c79206d6f64756c65732063616e20646f207468697300000000000000006000830152602082019050919050565b6000610ea96020836110e6565b91507f4f776e61626c653a2063616c6c6572206973206e6f7420746865206f776e65726000830152602082019050919050565b60006020830160008301518482036000860152610ef98282610c8b565b9150508091505092915050565b60006020830160008084018583036000870152610f238382610d36565b925050819250505092915050565b6000602082019050610f466000830184610c7c565b92915050565b60006020820190508181036000830152610f668184610cfd565b905092915050565b60006020820190508181036000830152610f888184610cc4565b905092915050565b60006020820190508181036000830152610fa981610db6565b9050919050565b60006020820190508181036000830152610fc981610e1c565b9050919050565b60006020820190508181036000830152610fe981610e5c565b9050919050565b6000602082019050818103600083015261100981610e9c565b9050919050565b6000602082019050818103600083015261102a8184610edc565b905092915050565b6000602082019050818103600083015261104c8184610f06565b905092915050565b6000604051905081810181811067ffffffffffffffff8211171561107b5761107a611204565b5b8060405250919050565b600067ffffffffffffffff8211156110a05761109f611204565b5b601f19601f8301169050602081019050919050565b60008190508160005260206000209050919050565b600081519050919050565b600082825260208201905092915050565b600082825260208201905092915050565b600082825260208201905092915050565b600082825260208201905092915050565b600061112482611137565b9050919050565b60008115159050919050565b600073ffffffffffffffffffffffffffffffffffffffff82169050919050565b6000819050919050565b82818337600083830152505050565b60005b8381101561118e578082015181840152602081019050611173565b8381111561119d576000848401525b50505050565b600060028204905060018216806111bb57607f821691505b602082108114156111cf576111ce6111d5565b5b50919050565b7f4e487b7100000000000000000000000000000000000000000000000000000000600052602260045260246000fd5b7f4e487b7100000000000000000000000000000000000000000000000000000000600052604160045260246000fd5b6000601f19601f8301169050919050565b61124d81611119565b811461125857600080fd5b50565b6112648161112b565b811461126f57600080fd5b50565b61127b81611157565b811461128657600080fd5b5056fea2646970667358221220592c7da77beb330260341631e6e56a9e2139c80706ddcc415efc20cb2cef00ce64736f6c63430008000033",
  "linkReferences": {
    "contracts/lib/structs/VisualsLib.sol": {
      "VisualsLib": [
        {
          "length": 20,
          "start": 1369
        },
        {
          "length": 20,
          "start": 2605
        }
      ]
    }
  },
  "deployedLinkReferences": {
    "contracts/lib/structs/VisualsLib.sol": {
      "VisualsLib": [
        {
          "length": 20,
          "start": 1100
        },
        {
          "length": 20,
          "start": 2336
        }
      ]
    }
  }
}