{
  "_format": "hh-sol-artifact-1",
  "contractName": "WarriorStats",
  "sourceName": "contracts/WarriorStats.sol",
  "abi": [
    {
      "inputs": [],
      "stateMutability": "nonpayable",
      "type": "constructor"
    },
    {
      "anonymous": false,
      "inputs": [
        {
          "indexed": true,
          "internalType": "bytes32",
          "name": "role",
          "type": "bytes32"
        },
        {
          "indexed": true,
          "internalType": "bytes32",
          "name": "previousAdminRole",
          "type": "bytes32"
        },
        {
          "indexed": true,
          "internalType": "bytes32",
          "name": "newAdminRole",
          "type": "bytes32"
        }
      ],
      "name": "RoleAdminChanged",
      "type": "event"
    },
    {
      "anonymous": false,
      "inputs": [
        {
          "indexed": true,
          "internalType": "bytes32",
          "name": "role",
          "type": "bytes32"
        },
        {
          "indexed": true,
          "internalType": "address",
          "name": "account",
          "type": "address"
        },
        {
          "indexed": true,
          "internalType": "address",
          "name": "sender",
          "type": "address"
        }
      ],
      "name": "RoleGranted",
      "type": "event"
    },
    {
      "anonymous": false,
      "inputs": [
        {
          "indexed": true,
          "internalType": "bytes32",
          "name": "role",
          "type": "bytes32"
        },
        {
          "indexed": true,
          "internalType": "address",
          "name": "account",
          "type": "address"
        },
        {
          "indexed": true,
          "internalType": "address",
          "name": "sender",
          "type": "address"
        }
      ],
      "name": "RoleRevoked",
      "type": "event"
    },
    {
      "inputs": [],
      "name": "CHANGE_ROLE",
      "outputs": [
        {
          "internalType": "bytes32",
          "name": "",
          "type": "bytes32"
        }
      ],
      "stateMutability": "view",
      "type": "function"
    },
    {
      "inputs": [],
      "name": "DEFAULT_ADMIN_ROLE",
      "outputs": [
        {
          "internalType": "bytes32",
          "name": "",
          "type": "bytes32"
        }
      ],
      "stateMutability": "view",
      "type": "function"
    },
    {
      "inputs": [],
      "name": "MINTER_ROLE",
      "outputs": [
        {
          "internalType": "bytes32",
          "name": "",
          "type": "bytes32"
        }
      ],
      "stateMutability": "view",
      "type": "function"
    },
    {
      "inputs": [
        {
          "internalType": "uint256",
          "name": "id",
          "type": "uint256"
        }
      ],
      "name": "burn",
      "outputs": [],
      "stateMutability": "nonpayable",
      "type": "function"
    },
    {
      "inputs": [
        {
          "internalType": "bytes32",
          "name": "role",
          "type": "bytes32"
        }
      ],
      "name": "getRoleAdmin",
      "outputs": [
        {
          "internalType": "bytes32",
          "name": "",
          "type": "bytes32"
        }
      ],
      "stateMutability": "view",
      "type": "function"
    },
    {
      "inputs": [
        {
          "internalType": "bytes32",
          "name": "role",
          "type": "bytes32"
        },
        {
          "internalType": "address",
          "name": "account",
          "type": "address"
        }
      ],
      "name": "grantRole",
      "outputs": [],
      "stateMutability": "nonpayable",
      "type": "function"
    },
    {
      "inputs": [
        {
          "internalType": "bytes32",
          "name": "role",
          "type": "bytes32"
        },
        {
          "internalType": "address",
          "name": "account",
          "type": "address"
        }
      ],
      "name": "hasRole",
      "outputs": [
        {
          "internalType": "bool",
          "name": "",
          "type": "bool"
        }
      ],
      "stateMutability": "view",
      "type": "function"
    },
    {
      "inputs": [
        {
          "internalType": "uint256",
          "name": "winner",
          "type": "uint256"
        },
        {
          "internalType": "uint256",
          "name": "loser",
          "type": "uint256"
        }
      ],
      "name": "increaseBattleStats",
      "outputs": [],
      "stateMutability": "nonpayable",
      "type": "function"
    },
    {
      "inputs": [
        {
          "internalType": "uint256",
          "name": "id",
          "type": "uint256"
        }
      ],
      "name": "mint",
      "outputs": [],
      "stateMutability": "nonpayable",
      "type": "function"
    },
    {
      "inputs": [
        {
          "internalType": "bytes32",
          "name": "role",
          "type": "bytes32"
        },
        {
          "internalType": "address",
          "name": "account",
          "type": "address"
        }
      ],
      "name": "renounceRole",
      "outputs": [],
      "stateMutability": "nonpayable",
      "type": "function"
    },
    {
      "inputs": [
        {
          "internalType": "bytes32",
          "name": "role",
          "type": "bytes32"
        },
        {
          "internalType": "address",
          "name": "account",
          "type": "address"
        }
      ],
      "name": "revokeRole",
      "outputs": [],
      "stateMutability": "nonpayable",
      "type": "function"
    },
    {
      "inputs": [
        {
          "internalType": "uint256",
          "name": "id",
          "type": "uint256"
        }
      ],
      "name": "stats",
      "outputs": [
        {
          "components": [
            {
              "internalType": "uint256",
              "name": "battlesWon",
              "type": "uint256"
            },
            {
              "internalType": "uint256",
              "name": "battlesLost",
              "type": "uint256"
            },
            {
              "internalType": "bool",
              "name": "_exists",
              "type": "bool"
            }
          ],
          "internalType": "struct StatsLib.Stats",
          "name": "",
          "type": "tuple"
        }
      ],
      "stateMutability": "view",
      "type": "function"
    },
    {
      "inputs": [
        {
          "internalType": "bytes4",
          "name": "interfaceId",
          "type": "bytes4"
        }
      ],
      "name": "supportsInterface",
      "outputs": [
        {
          "internalType": "bool",
          "name": "",
          "type": "bool"
        }
      ],
      "stateMutability": "view",
      "type": "function"
    },
    {
      "inputs": [
        {
          "internalType": "uint256",
          "name": "id",
          "type": "uint256"
        }
      ],
      "name": "warriorStats",
      "outputs": [
        {
          "internalType": "uint256",
          "name": "",
          "type": "uint256"
        },
        {
          "internalType": "uint256",
          "name": "",
          "type": "uint256"
        }
      ],
      "stateMutability": "view",
      "type": "function"
    }
  ],
  "bytecode": "0x60806040523480156200001157600080fd5b50620000276000801b336200002d60201b60201c565b620001a6565b6200003f82826200004360201b60201c565b5050565b6200005582826200013460201b60201c565b6200013057600160008084815260200190815260200160002060000160008373ffffffffffffffffffffffffffffffffffffffff1673ffffffffffffffffffffffffffffffffffffffff16815260200190815260200160002060006101000a81548160ff021916908315150217905550620000d56200019e60201b60201c565b73ffffffffffffffffffffffffffffffffffffffff168173ffffffffffffffffffffffffffffffffffffffff16837f2f8788117e7eff1d82e926ec794901d17c78024a50270940304540a733656f0d60405160405180910390a45b5050565b600080600084815260200190815260200160002060000160008373ffffffffffffffffffffffffffffffffffffffff1673ffffffffffffffffffffffffffffffffffffffff16815260200190815260200160002060009054906101000a900460ff16905092915050565b600033905090565b6116a480620001b66000396000f3fe608060405234801561001057600080fd5b50600436106100ea5760003560e01c806391d148541161008c578063ad217ae511610066578063ad217ae51461025c578063c81f7c521461028c578063d5391393146102a8578063d547741f146102c6576100ea565b806391d14854146101f2578063a0712d6814610222578063a217fddf1461023e576100ea565b806336568abe116100c857806336568abe1461016b57806342966c681461018757806372f29340146101a35780638db6fd58146101c1576100ea565b806301ffc9a7146100ef578063248a9ca31461011f5780632f2ff15d1461014f575b600080fd5b61010960048036038101906101049190610f22565b6102e2565b60405161011691906111f0565b60405180910390f35b61013960048036038101906101349190610ebd565b61035c565b604051610146919061120b565b60405180910390f35b61016960048036038101906101649190610ee6565b61037b565b005b61018560048036038101906101809190610ee6565b6103a4565b005b6101a1600480360381019061019c9190610f4b565b610427565b005b6101ab610497565b6040516101b8919061120b565b60405180910390f35b6101db60048036038101906101d69190610f4b565b6104bb565b6040516101e99291906112be565b60405180910390f35b61020c60048036038101906102079190610ee6565b6104f5565b60405161021991906111f0565b60405180910390f35b61023c60048036038101906102379190610f4b565b61055f565b005b61024661063c565b604051610253919061120b565b60405180910390f35b61027660048036038101906102719190610f4b565b610643565b6040516102839190611288565b60405180910390f35b6102a660048036038101906102a19190610f74565b61069f565b005b6102b061074e565b6040516102bd919061120b565b60405180910390f35b6102e060048036038101906102db9190610ee6565b610772565b005b60007f7965db0b000000000000000000000000000000000000000000000000000000007bffffffffffffffffffffffffffffffffffffffffffffffffffffffff1916827bffffffffffffffffffffffffffffffffffffffffffffffffffffffff1916148061035557506103548261079b565b5b9050919050565b6000806000838152602001908152602001600020600101549050919050565b6103848261035c565b61039581610390610805565b61080d565b61039f83836108aa565b505050565b6103ac610805565b73ffffffffffffffffffffffffffffffffffffffff168173ffffffffffffffffffffffffffffffffffffffff1614610419576040517f08c379a000000000000000000000000000000000000000000000000000000000815260040161041090611268565b60405180910390fd5b610423828261098a565b5050565b7f9f2df0fed2c77648de5860a4cc508cd0818c85b8b8a1ab4ceeef8d981c8956a661045981610454610805565b61080d565b6001600083815260200190815260200160002060008082016000905560018201600090556002820160006101000a81549060ff021916905550505050565b7f5ef52737852c52d2211e81450fc3850cd8f44f8344ad3b406fdca6ea6d0bac7e81565b6000806001600084815260200190815260200160002060000154600160008581526020019081526020016000206001015491509150915091565b600080600084815260200190815260200160002060000160008373ffffffffffffffffffffffffffffffffffffffff1673ffffffffffffffffffffffffffffffffffffffff16815260200190815260200160002060009054906101000a900460ff16905092915050565b7f9f2df0fed2c77648de5860a4cc508cd0818c85b8b8a1ab4ceeef8d981c8956a66105918161058c610805565b61080d565b61059a82610a6b565b156105ce577f4e487b7100000000000000000000000000000000000000000000000000000000600052600160045260246000fd5b604051806060016040528060008152602001600081526020016001151581525060016000848152602001908152602001600020600082015181600001556020820151816001015560408201518160020160006101000a81548160ff0219169083151502179055509050505050565b6000801b81565b61064b610e08565b6001600083815260200190815260200160002060405180606001604052908160008201548152602001600182015481526020016002820160009054906101000a900460ff1615151515815250509050919050565b7f5ef52737852c52d2211e81450fc3850cd8f44f8344ad3b406fdca6ea6d0bac7e6106d1816106cc610805565b61080d565b6001806000858152602001908152602001600020600001546106f3919061130e565b600160008581526020019081526020016000206000018190555060018060008481526020019081526020016000206001015461072f919061130e565b6001600084815260200190815260200160002060010181905550505050565b7f9f2df0fed2c77648de5860a4cc508cd0818c85b8b8a1ab4ceeef8d981c8956a681565b61077b8261035c565b61078c81610787610805565b61080d565b610796838361098a565b505050565b60007f01ffc9a7000000000000000000000000000000000000000000000000000000007bffffffffffffffffffffffffffffffffffffffffffffffffffffffff1916827bffffffffffffffffffffffffffffffffffffffffffffffffffffffff1916149050919050565b600033905090565b61081782826104f5565b6108a65761083c8173ffffffffffffffffffffffffffffffffffffffff166014610b0e565b61084a8360001c6020610b0e565b60405160200161085b9291906111b6565b6040516020818303038152906040526040517f08c379a000000000000000000000000000000000000000000000000000000000815260040161089d9190611226565b60405180910390fd5b5050565b6108b482826104f5565b61098657600160008084815260200190815260200160002060000160008373ffffffffffffffffffffffffffffffffffffffff1673ffffffffffffffffffffffffffffffffffffffff16815260200190815260200160002060006101000a81548160ff02191690831515021790555061092b610805565b73ffffffffffffffffffffffffffffffffffffffff168173ffffffffffffffffffffffffffffffffffffffff16837f2f8788117e7eff1d82e926ec794901d17c78024a50270940304540a733656f0d60405160405180910390a45b5050565b61099482826104f5565b15610a6757600080600084815260200190815260200160002060000160008373ffffffffffffffffffffffffffffffffffffffff1673ffffffffffffffffffffffffffffffffffffffff16815260200190815260200160002060006101000a81548160ff021916908315150217905550610a0c610805565b73ffffffffffffffffffffffffffffffffffffffff168173ffffffffffffffffffffffffffffffffffffffff16837ff6391f5c32d9c69d2a47ea670b442974b53935d1edc7fd64eb21e047a839171b60405160405180910390a45b5050565b600073__$6330d13c972cad776d3972964a3484190b$__632fc5de88600160008581526020019081526020016000206040518263ffffffff1660e01b8152600401610ab691906112a3565b60206040518083038186803b158015610ace57600080fd5b505af4158015610ae2573d6000803e3d6000fd5b505050506040513d601f19601f82011682018060405250810190610b069190610e94565b159050919050565b606060006002836002610b219190611364565b610b2b919061130e565b67ffffffffffffffff811115610b6a577f4e487b7100000000000000000000000000000000000000000000000000000000600052604160045260246000fd5b6040519080825280601f01601f191660200182016040528015610b9c5781602001600182028036833780820191505090505b5090507f300000000000000000000000000000000000000000000000000000000000000081600081518110610bfa577f4e487b7100000000000000000000000000000000000000000000000000000000600052603260045260246000fd5b60200101907effffffffffffffffffffffffffffffffffffffffffffffffffffffffffffff1916908160001a9053507f780000000000000000000000000000000000000000000000000000000000000081600181518110610c84577f4e487b7100000000000000000000000000000000000000000000000000000000600052603260045260246000fd5b60200101907effffffffffffffffffffffffffffffffffffffffffffffffffffffffffffff1916908160001a90535060006001846002610cc49190611364565b610cce919061130e565b90505b6001811115610dba577f3031323334353637383961626364656600000000000000000000000000000000600f861660108110610d36577f4e487b7100000000000000000000000000000000000000000000000000000000600052603260045260246000fd5b1a60f81b828281518110610d73577f4e487b7100000000000000000000000000000000000000000000000000000000600052603260045260246000fd5b60200101907effffffffffffffffffffffffffffffffffffffffffffffffffffffffffffff1916908160001a905350600485901c945080610db390611486565b9050610cd1565b5060008414610dfe576040517f08c379a0000000000000000000000000000000000000000000000000000000008152600401610df590611248565b60405180910390fd5b8091505092915050565b604051806060016040528060008152602001600081526020016000151581525090565b600081359050610e3a816115fb565b92915050565b600081519050610e4f81611612565b92915050565b600081359050610e6481611629565b92915050565b600081359050610e7981611640565b92915050565b600081359050610e8e81611657565b92915050565b600060208284031215610ea657600080fd5b6000610eb484828501610e40565b91505092915050565b600060208284031215610ecf57600080fd5b6000610edd84828501610e55565b91505092915050565b60008060408385031215610ef957600080fd5b6000610f0785828601610e55565b9250506020610f1885828601610e2b565b9150509250929050565b600060208284031215610f3457600080fd5b6000610f4284828501610e6a565b91505092915050565b600060208284031215610f5d57600080fd5b6000610f6b84828501610e7f565b91505092915050565b60008060408385031215610f8757600080fd5b6000610f9585828601610e7f565b9250506020610fa685828601610e7f565b9150509250929050565b610fb9816113e7565b82525050565b610fc8816113e7565b82525050565b610fd7816113e7565b82525050565b610fe6816113f3565b82525050565b6000610ff7826112e7565b61100181856112f2565b9350611011818560208601611453565b61101a81611513565b840191505092915050565b6000611030826112e7565b61103a8185611303565b935061104a818560208601611453565b80840191505092915050565b60006110636020836112f2565b915061106e82611531565b602082019050919050565b6000611086601783611303565b91506110918261155a565b601782019050919050565b60006110a9601183611303565b91506110b482611583565b601182019050919050565b60006110cc602f836112f2565b91506110d7826115ac565b604082019050919050565b6060820160008201516110f86000850182611189565b50602082015161110b6020850182611189565b50604082015161111e6040850182610fb0565b50505050565b606082016000808301549050611139816114ca565b61114660008601826111a7565b5060018301549050611157816114ca565b61116460208601826111a7565b5060028301549050611175816114b0565b6111826040860182610fce565b5050505050565b61119281611449565b82525050565b6111a181611449565b82525050565b6111b081611449565b82525050565b60006111c182611079565b91506111cd8285611025565b91506111d88261109c565b91506111e48284611025565b91508190509392505050565b60006020820190506112056000830184610fbf565b92915050565b60006020820190506112206000830184610fdd565b92915050565b600060208201905081810360008301526112408184610fec565b905092915050565b6000602082019050818103600083015261126181611056565b9050919050565b60006020820190508181036000830152611281816110bf565b9050919050565b600060608201905061129d60008301846110e2565b92915050565b60006060820190506112b86000830184611124565b92915050565b60006040820190506112d36000830185611198565b6112e06020830184611198565b9392505050565b600081519050919050565b600082825260208201905092915050565b600081905092915050565b600061131982611449565b915061132483611449565b9250827fffffffffffffffffffffffffffffffffffffffffffffffffffffffffffffffff03821115611359576113586114e4565b5b828201905092915050565b600061136f82611449565b915061137a83611449565b9250817fffffffffffffffffffffffffffffffffffffffffffffffffffffffffffffffff04831182151516156113b3576113b26114e4565b5b828202905092915050565b600060ff82169050919050565b6000819050919050565b60006113e082611429565b9050919050565b60008115159050919050565b6000819050919050565b60007fffffffff0000000000000000000000000000000000000000000000000000000082169050919050565b600073ffffffffffffffffffffffffffffffffffffffff82169050919050565b6000819050919050565b60005b83811015611471578082015181840152602081019050611456565b83811115611480576000848401525b50505050565b600061149182611449565b915060008214156114a5576114a46114e4565b5b600182039050919050565b60006114c36114be83611524565b6113be565b9050919050565b60006114dd6114d883611524565b6113cb565b9050919050565b7f4e487b7100000000000000000000000000000000000000000000000000000000600052601160045260246000fd5b6000601f19601f8301169050919050565b60008160001c9050919050565b7f537472696e67733a20686578206c656e67746820696e73756666696369656e74600082015250565b7f416363657373436f6e74726f6c3a206163636f756e7420000000000000000000600082015250565b7f206973206d697373696e6720726f6c6520000000000000000000000000000000600082015250565b7f416363657373436f6e74726f6c3a2063616e206f6e6c792072656e6f756e636560008201527f20726f6c657320666f722073656c660000000000000000000000000000000000602082015250565b611604816113d5565b811461160f57600080fd5b50565b61161b816113e7565b811461162657600080fd5b50565b611632816113f3565b811461163d57600080fd5b50565b611649816113fd565b811461165457600080fd5b50565b61166081611449565b811461166b57600080fd5b5056fea2646970667358221220e62de2fa0662df7c220d1efc5ba21a41934d88d748a8449b4751e4f5478f577264736f6c63430008040033",
  "linkReferences": {
    "contracts/lib/structs/StatsLib.sol": {
      "StatsLib": [
        {
          "length": 20,
          "start": 3109
        }
      ]
    }
  },
  "deployedLinkReferences": {
    "contracts/lib/structs/StatsLib.sol": {
      "StatsLib": [
        {
          "length": 20,
          "start": 2671
        }
      ]
    }
  }
}