{
  "_format": "hh-sol-artifact-1",
  "contractName": "WarriorSkills",
  "sourceName": "contracts/WarriorSkills.sol",
  "abi": [
    {
      "inputs": [
        {
          "internalType": "address",
          "name": "cronosWarriorsAddr",
          "type": "address"
        },
        {
          "internalType": "address",
          "name": "treasuryAddr",
          "type": "address"
        }
      ],
      "stateMutability": "nonpayable",
      "type": "constructor"
    },
    {
      "anonymous": false,
      "inputs": [
        {
          "indexed": true,
          "internalType": "address",
          "name": "previousOwner",
          "type": "address"
        },
        {
          "indexed": true,
          "internalType": "address",
          "name": "newOwner",
          "type": "address"
        }
      ],
      "name": "OwnershipTransferred",
      "type": "event"
    },
    {
      "inputs": [
        {
          "internalType": "uint256",
          "name": "id",
          "type": "uint256"
        }
      ],
      "name": "burn",
      "outputs": [],
      "stateMutability": "nonpayable",
      "type": "function"
    },
    {
      "inputs": [],
      "name": "cronosWarriors",
      "outputs": [
        {
          "internalType": "contract CronosWarriors",
          "name": "",
          "type": "address"
        }
      ],
      "stateMutability": "view",
      "type": "function"
    },
    {
      "inputs": [
        {
          "internalType": "uint256",
          "name": "id",
          "type": "uint256"
        }
      ],
      "name": "increaseAttack",
      "outputs": [],
      "stateMutability": "nonpayable",
      "type": "function"
    },
    {
      "inputs": [
        {
          "internalType": "uint256",
          "name": "id",
          "type": "uint256"
        }
      ],
      "name": "increaseDefense",
      "outputs": [],
      "stateMutability": "nonpayable",
      "type": "function"
    },
    {
      "inputs": [
        {
          "internalType": "uint256",
          "name": "id",
          "type": "uint256"
        }
      ],
      "name": "increaseStamina",
      "outputs": [],
      "stateMutability": "nonpayable",
      "type": "function"
    },
    {
      "inputs": [
        {
          "internalType": "uint256",
          "name": "id",
          "type": "uint256"
        }
      ],
      "name": "mint",
      "outputs": [],
      "stateMutability": "nonpayable",
      "type": "function"
    },
    {
      "inputs": [],
      "name": "owner",
      "outputs": [
        {
          "internalType": "address",
          "name": "",
          "type": "address"
        }
      ],
      "stateMutability": "view",
      "type": "function"
    },
    {
      "inputs": [],
      "name": "renounceOwnership",
      "outputs": [],
      "stateMutability": "nonpayable",
      "type": "function"
    },
    {
      "inputs": [
        {
          "internalType": "address",
          "name": "addr",
          "type": "address"
        },
        {
          "internalType": "bool",
          "name": "allow",
          "type": "bool"
        }
      ],
      "name": "setModule",
      "outputs": [],
      "stateMutability": "nonpayable",
      "type": "function"
    },
    {
      "inputs": [
        {
          "internalType": "uint256",
          "name": "id",
          "type": "uint256"
        }
      ],
      "name": "skills",
      "outputs": [
        {
          "components": [
            {
              "internalType": "uint256",
              "name": "attack",
              "type": "uint256"
            },
            {
              "internalType": "uint256",
              "name": "defense",
              "type": "uint256"
            },
            {
              "internalType": "uint256",
              "name": "stamina",
              "type": "uint256"
            },
            {
              "internalType": "uint256",
              "name": "pointsSpend",
              "type": "uint256"
            }
          ],
          "internalType": "struct SkillsLib.Skills",
          "name": "",
          "type": "tuple"
        }
      ],
      "stateMutability": "view",
      "type": "function"
    },
    {
      "inputs": [
        {
          "internalType": "address",
          "name": "newOwner",
          "type": "address"
        }
      ],
      "name": "transferOwnership",
      "outputs": [],
      "stateMutability": "nonpayable",
      "type": "function"
    },
    {
      "inputs": [],
      "name": "treasury",
      "outputs": [
        {
          "internalType": "contract Treasury",
          "name": "",
          "type": "address"
        }
      ],
      "stateMutability": "view",
      "type": "function"
    },
    {
      "inputs": [
        {
          "internalType": "uint256",
          "name": "id",
          "type": "uint256"
        }
      ],
      "name": "warriorExperience",
      "outputs": [
        {
          "internalType": "uint256",
          "name": "",
          "type": "uint256"
        }
      ],
      "stateMutability": "view",
      "type": "function"
    },
    {
      "inputs": [
        {
          "internalType": "uint256",
          "name": "id",
          "type": "uint256"
        }
      ],
      "name": "warriorHealth",
      "outputs": [
        {
          "internalType": "uint256",
          "name": "",
          "type": "uint256"
        }
      ],
      "stateMutability": "view",
      "type": "function"
    },
    {
      "inputs": [
        {
          "internalType": "uint256",
          "name": "id",
          "type": "uint256"
        }
      ],
      "name": "warriorLevel",
      "outputs": [
        {
          "internalType": "uint256",
          "name": "",
          "type": "uint256"
        }
      ],
      "stateMutability": "view",
      "type": "function"
    },
    {
      "inputs": [
        {
          "internalType": "uint256",
          "name": "id",
          "type": "uint256"
        }
      ],
      "name": "warriorSkills",
      "outputs": [
        {
          "internalType": "uint256",
          "name": "",
          "type": "uint256"
        },
        {
          "internalType": "uint256",
          "name": "",
          "type": "uint256"
        },
        {
          "internalType": "uint256",
          "name": "",
          "type": "uint256"
        }
      ],
      "stateMutability": "view",
      "type": "function"
    }
  ],
  "bytecode": "0x60806040523480156200001157600080fd5b5060405162001abb38038062001abb8339818101604052810190620000379190620001c4565b620000576200004b620000e160201b60201c565b620000e960201b60201c565b81600260006101000a81548173ffffffffffffffffffffffffffffffffffffffff021916908373ffffffffffffffffffffffffffffffffffffffff16021790555080600360006101000a81548173ffffffffffffffffffffffffffffffffffffffff021916908373ffffffffffffffffffffffffffffffffffffffff160217905550505062000253565b600033905090565b60008060009054906101000a900473ffffffffffffffffffffffffffffffffffffffff169050816000806101000a81548173ffffffffffffffffffffffffffffffffffffffff021916908373ffffffffffffffffffffffffffffffffffffffff1602179055508173ffffffffffffffffffffffffffffffffffffffff168173ffffffffffffffffffffffffffffffffffffffff167f8be0079c531659141344cd1fd0a4f28419497f9722a3daafe3b4186f6b6457e060405160405180910390a35050565b600081519050620001be8162000239565b92915050565b60008060408385031215620001d857600080fd5b6000620001e885828601620001ad565b9250506020620001fb85828601620001ad565b9150509250929050565b6000620002128262000219565b9050919050565b600073ffffffffffffffffffffffffffffffffffffffff82169050919050565b620002448162000205565b81146200025057600080fd5b50565b61185880620002636000396000f3fe608060405234801561001057600080fd5b50600436106101005760003560e01c80638da5cb5b11610097578063baee89b211610066578063baee89b214610287578063c6362851146102b7578063ed07f3ae146102d3578063f2fde38b1461030357610100565b80638da5cb5b14610215578063a0712d6814610233578063a7be77ca1461024f578063b1662d581461026b57610100565b806361d027b3116100d357806361d027b3146101b35780636c69e521146101d1578063715018a6146101ef57806382e3675a146101f957610100565b80631b3ad6a41461010557806342966c681461013557806350d15fbe146101515780635c51889514610181575b600080fd5b61011f600480360381019061011a9190611230565b61031f565b60405161012c919061160b565b60405180910390f35b61014f600480360381019061014a9190611230565b6103b7565b005b61016b60048036038101906101669190611230565b61047c565b60405161017891906115ba565b60405180910390f35b61019b60048036038101906101969190611230565b6104d1565b6040516101aa9392919061164f565b60405180910390f35b6101bb61053c565b6040516101c8919061151f565b60405180910390f35b6101d9610562565b6040516101e69190611504565b60405180910390f35b6101f7610588565b005b610213600480360381019061020e9190611230565b610610565b005b61021d610775565b60405161022a91906114e9565b60405180910390f35b61024d60048036038101906102489190611230565b61079e565b005b61026960048036038101906102649190611230565b6108cd565b005b610285600480360381019061028091906111cb565b610a32565b005b6102a1600480360381019061029c9190611230565b610b63565b6040516102ae919061160b565b60405180910390f35b6102d160048036038101906102cc9190611230565b610c17565b005b6102ed60048036038101906102e89190611230565b610d7c565b6040516102fa919061160b565b60405180910390f35b61031d60048036038101906103189190611179565b610e2c565b005b600073__$785a3750a744651a4256c1a0a9b0861e2b$__631b3ad6a461034484610b63565b6040518263ffffffff1660e01b815260040161036091906115f0565b60206040518083038186803b15801561037857600080fd5b505af415801561038c573d6000803e3d6000fd5b505050506040513d601f19601f820116820180604052508101906103b09190611259565b9050919050565b600160003373ffffffffffffffffffffffffffffffffffffffff1673ffffffffffffffffffffffffffffffffffffffff16815260200190815260200160002060009054906101000a900460ff16610443576040517f08c379a000000000000000000000000000000000000000000000000000000000815260040161043a9061157a565b60405180910390fd5b60046000828152602001908152602001600020600080820160009055600182016000905560028201600090556003820160009055505050565b6104846110d3565b600460008381526020019081526020016000206040518060800160405290816000820154815260200160018201548152602001600282015481526020016003820154815250509050919050565b600080600080600460008681526020019081526020016000206040518060800160405290816000820154815260200160018201548152602001600282015481526020016003820154815250509050806000015181602001518260400151935093509350509193909250565b600360009054906101000a900473ffffffffffffffffffffffffffffffffffffffff1681565b600260009054906101000a900473ffffffffffffffffffffffffffffffffffffffff1681565b610590610f24565b73ffffffffffffffffffffffffffffffffffffffff166105ae610775565b73ffffffffffffffffffffffffffffffffffffffff1614610604576040517f08c379a00000000000000000000000000000000000000000000000000000000081526004016105fb9061159a565b60405180910390fd5b61060e6000610f2c565b565b803373ffffffffffffffffffffffffffffffffffffffff16600260009054906101000a900473ffffffffffffffffffffffffffffffffffffffff1673ffffffffffffffffffffffffffffffffffffffff16636352211e836040518263ffffffff1660e01b8152600401610683919061160b565b60206040518083038186803b15801561069b57600080fd5b505afa1580156106af573d6000803e3d6000fd5b505050506040513d601f19601f820116820180604052508101906106d391906111a2565b73ffffffffffffffffffffffffffffffffffffffff1614610729576040517f08c379a00000000000000000000000000000000000000000000000000000000081526004016107209061155a565b60405180910390fd5b816001600460008581526020019081526020016000206001015461074d9190611697565b600460008581526020019081526020016000206001018190555061077083610ff0565b505050565b60008060009054906101000a900473ffffffffffffffffffffffffffffffffffffffff16905090565b600160003373ffffffffffffffffffffffffffffffffffffffff1673ffffffffffffffffffffffffffffffffffffffff16815260200190815260200160002060009054906101000a900460ff1661082a576040517f08c379a00000000000000000000000000000000000000000000000000000000081526004016108219061157a565b60405180910390fd5b61083381611030565b15610867577f4e487b7100000000000000000000000000000000000000000000000000000000600052600160045260246000fd5b60405180608001604052806001815260200160018152602001600181526020016000815250600460008381526020019081526020016000206000820151816000015560208201518160010155604082015181600201556060820151816003015590505050565b803373ffffffffffffffffffffffffffffffffffffffff16600260009054906101000a900473ffffffffffffffffffffffffffffffffffffffff1673ffffffffffffffffffffffffffffffffffffffff16636352211e836040518263ffffffff1660e01b8152600401610940919061160b565b60206040518083038186803b15801561095857600080fd5b505afa15801561096c573d6000803e3d6000fd5b505050506040513d601f19601f8201168201806040525081019061099091906111a2565b73ffffffffffffffffffffffffffffffffffffffff16146109e6576040517f08c379a00000000000000000000000000000000000000000000000000000000081526004016109dd9061155a565b60405180910390fd5b8160016004600085815260200190815260200160002060020154610a0a9190611697565b6004600085815260200190815260200160002060020181905550610a2d83610ff0565b505050565b610a3a610f24565b73ffffffffffffffffffffffffffffffffffffffff16610a58610775565b73ffffffffffffffffffffffffffffffffffffffff1614610aae576040517f08c379a0000000000000000000000000000000000000000000000000000000008152600401610aa59061159a565b60405180910390fd5b80610b0757600160008373ffffffffffffffffffffffffffffffffffffffff1673ffffffffffffffffffffffffffffffffffffffff16815260200190815260200160002060006101000a81549060ff0219169055610b5f565b60018060008473ffffffffffffffffffffffffffffffffffffffff1673ffffffffffffffffffffffffffffffffffffffff16815260200190815260200160002060006101000a81548160ff0219169083151502179055505b5050565b6000600360009054906101000a900473ffffffffffffffffffffffffffffffffffffffff1673ffffffffffffffffffffffffffffffffffffffff1663d3e97165836040518263ffffffff1660e01b8152600401610bc0919061160b565b60206040518083038186803b158015610bd857600080fd5b505afa158015610bec573d6000803e3d6000fd5b505050506040513d601f19601f82011682018060405250810190610c109190611259565b9050919050565b803373ffffffffffffffffffffffffffffffffffffffff16600260009054906101000a900473ffffffffffffffffffffffffffffffffffffffff1673ffffffffffffffffffffffffffffffffffffffff16636352211e836040518263ffffffff1660e01b8152600401610c8a919061160b565b60206040518083038186803b158015610ca257600080fd5b505afa158015610cb6573d6000803e3d6000fd5b505050506040513d601f19601f82011682018060405250810190610cda91906111a2565b73ffffffffffffffffffffffffffffffffffffffff1614610d30576040517f08c379a0000000000000000000000000000000000000000000000000000000008152600401610d279061155a565b60405180910390fd5b8160016004600085815260200190815260200160002060000154610d549190611697565b6004600085815260200190815260200160002060000181905550610d7783610ff0565b505050565b600073__$785a3750a744651a4256c1a0a9b0861e2b$__636f644fa1610da184610b63565b60046000868152602001908152602001600020600201546040518363ffffffff1660e01b8152600401610dd5929190611626565b60206040518083038186803b158015610ded57600080fd5b505af4158015610e01573d6000803e3d6000fd5b505050506040513d601f19601f82011682018060405250810190610e259190611259565b9050919050565b610e34610f24565b73ffffffffffffffffffffffffffffffffffffffff16610e52610775565b73ffffffffffffffffffffffffffffffffffffffff1614610ea8576040517f08c379a0000000000000000000000000000000000000000000000000000000008152600401610e9f9061159a565b60405180910390fd5b600073ffffffffffffffffffffffffffffffffffffffff168173ffffffffffffffffffffffffffffffffffffffff161415610f18576040517f08c379a0000000000000000000000000000000000000000000000000000000008152600401610f0f9061153a565b60405180910390fd5b610f2181610f2c565b50565b600033905090565b60008060009054906101000a900473ffffffffffffffffffffffffffffffffffffffff169050816000806101000a81548173ffffffffffffffffffffffffffffffffffffffff021916908373ffffffffffffffffffffffffffffffffffffffff1602179055508173ffffffffffffffffffffffffffffffffffffffff168173ffffffffffffffffffffffffffffffffffffffff167f8be0079c531659141344cd1fd0a4f28419497f9722a3daafe3b4186f6b6457e060405160405180910390a35050565b600160046000838152602001908152602001600020600301546110139190611697565b600460008381526020019081526020016000206003018190555050565b600073__$915d125cb0df6df756b6684e4b0aad8422$__63b1edb05f600460008581526020019081526020016000206040518263ffffffff1660e01b815260040161107b91906115d5565b60206040518083038186803b15801561109357600080fd5b505af41580156110a7573d6000803e3d6000fd5b505050506040513d601f19601f820116820180604052508101906110cb9190611207565b159050919050565b6040518060800160405280600081526020016000815260200160008152602001600081525090565b60008135905061110a816117dd565b92915050565b60008151905061111f816117dd565b92915050565b600081359050611134816117f4565b92915050565b600081519050611149816117f4565b92915050565b60008135905061115e8161180b565b92915050565b6000815190506111738161180b565b92915050565b60006020828403121561118b57600080fd5b6000611199848285016110fb565b91505092915050565b6000602082840312156111b457600080fd5b60006111c284828501611110565b91505092915050565b600080604083850312156111de57600080fd5b60006111ec858286016110fb565b92505060206111fd85828601611125565b9150509250929050565b60006020828403121561121957600080fd5b60006112278482850161113a565b91505092915050565b60006020828403121561124257600080fd5b60006112508482850161114f565b91505092915050565b60006020828403121561126b57600080fd5b600061127984828501611164565b91505092915050565b61128b816116f7565b82525050565b61129a8161173f565b82525050565b6112a981611763565b82525050565b60006112bc602683611686565b91507f4f776e61626c653a206e6577206f776e657220697320746865207a65726f206160008301527f64647265737300000000000000000000000000000000000000000000000000006020830152604082019050919050565b6000611322601b83611686565b91507f4f6e6c7920746865206f776e65722063616e20646f20746869732100000000006000830152602082019050919050565b6000611362601883611686565b91507f6f6e6c79206d6f64756c65732063616e20646f207468697300000000000000006000830152602082019050919050565b60006113a2602083611686565b91507f4f776e61626c653a2063616c6c6572206973206e6f7420746865206f776e65726000830152602082019050919050565b6080820160008201516113eb60008501826114ad565b5060208201516113fe60208501826114ad565b50604082015161141160408501826114ad565b50606082015161142460608501826114ad565b50505050565b60808201600080830154905061143f81611787565b61144c60008601826114da565b506001830154905061145d81611787565b61146a60208601826114da565b506002830154905061147b81611787565b61148860408601826114da565b506003830154905061149981611787565b6114a660608601826114da565b5050505050565b6114b681611735565b82525050565b6114c581611735565b82525050565b6114d481611735565b82525050565b6114e381611735565b82525050565b60006020820190506114fe6000830184611282565b92915050565b60006020820190506115196000830184611291565b92915050565b600060208201905061153460008301846112a0565b92915050565b60006020820190508181036000830152611553816112af565b9050919050565b6000602082019050818103600083015261157381611315565b9050919050565b6000602082019050818103600083015261159381611355565b9050919050565b600060208201905081810360008301526115b381611395565b9050919050565b60006080820190506115cf60008301846113d5565b92915050565b60006080820190506115ea600083018461142a565b92915050565b600060208201905061160560008301846114cb565b92915050565b600060208201905061162060008301846114bc565b92915050565b600060408201905061163b60008301856114cb565b61164860208301846114cb565b9392505050565b600060608201905061166460008301866114bc565b61167160208301856114bc565b61167e60408301846114bc565b949350505050565b600082825260208201905092915050565b60006116a282611735565b91506116ad83611735565b9250827fffffffffffffffffffffffffffffffffffffffffffffffffffffffffffffffff038211156116e2576116e16117a1565b5b828201905092915050565b6000819050919050565b600061170282611715565b9050919050565b60008115159050919050565b600073ffffffffffffffffffffffffffffffffffffffff82169050919050565b6000819050919050565b600061174a82611751565b9050919050565b600061175c82611715565b9050919050565b600061176e82611775565b9050919050565b600061178082611715565b9050919050565b600061179a611795836117d0565b6116ed565b9050919050565b7f4e487b7100000000000000000000000000000000000000000000000000000000600052601160045260246000fd5b60008160001c9050919050565b6117e6816116f7565b81146117f157600080fd5b50565b6117fd81611709565b811461180857600080fd5b50565b61181481611735565b811461181f57600080fd5b5056fea264697066735822122065512e6d7d2050a946be510ca6c6410d920aeb57ff7a08f5a92aaddb2eb37df564736f6c63430008000033",
  "linkReferences": {
    "contracts/lib/Compute.sol": {
      "Compute": [
        {
          "length": 20,
          "start": 1414
        },
        {
          "length": 20,
          "start": 4067
        }
      ]
    },
    "contracts/lib/structs/SkillsLib.sol": {
      "SkillsLib": [
        {
          "length": 20,
          "start": 4759
        }
      ]
    }
  },
  "deployedLinkReferences": {
    "contracts/lib/Compute.sol": {
      "Compute": [
        {
          "length": 20,
          "start": 803
        },
        {
          "length": 20,
          "start": 3456
        }
      ]
    },
    "contracts/lib/structs/SkillsLib.sol": {
      "SkillsLib": [
        {
          "length": 20,
          "start": 4148
        }
      ]
    }
  }
}