{
  "_format": "hh-sol-artifact-1",
  "contractName": "WarriorVisuals",
  "sourceName": "contracts/WarriorVisuals.sol",
  "abi": [
    {
      "inputs": [
        {
          "internalType": "address",
          "name": "cronosWarriorsAddr",
          "type": "address"
        }
      ],
      "stateMutability": "nonpayable",
      "type": "constructor"
    },
    {
      "anonymous": false,
      "inputs": [
        {
          "indexed": true,
          "internalType": "bytes32",
          "name": "role",
          "type": "bytes32"
        },
        {
          "indexed": true,
          "internalType": "bytes32",
          "name": "previousAdminRole",
          "type": "bytes32"
        },
        {
          "indexed": true,
          "internalType": "bytes32",
          "name": "newAdminRole",
          "type": "bytes32"
        }
      ],
      "name": "RoleAdminChanged",
      "type": "event"
    },
    {
      "anonymous": false,
      "inputs": [
        {
          "indexed": true,
          "internalType": "bytes32",
          "name": "role",
          "type": "bytes32"
        },
        {
          "indexed": true,
          "internalType": "address",
          "name": "account",
          "type": "address"
        },
        {
          "indexed": true,
          "internalType": "address",
          "name": "sender",
          "type": "address"
        }
      ],
      "name": "RoleGranted",
      "type": "event"
    },
    {
      "anonymous": false,
      "inputs": [
        {
          "indexed": true,
          "internalType": "bytes32",
          "name": "role",
          "type": "bytes32"
        },
        {
          "indexed": true,
          "internalType": "address",
          "name": "account",
          "type": "address"
        },
        {
          "indexed": true,
          "internalType": "address",
          "name": "sender",
          "type": "address"
        }
      ],
      "name": "RoleRevoked",
      "type": "event"
    },
    {
      "inputs": [],
      "name": "DEFAULT_ADMIN_ROLE",
      "outputs": [
        {
          "internalType": "bytes32",
          "name": "",
          "type": "bytes32"
        }
      ],
      "stateMutability": "view",
      "type": "function"
    },
    {
      "inputs": [],
      "name": "MINTER_ROLE",
      "outputs": [
        {
          "internalType": "bytes32",
          "name": "",
          "type": "bytes32"
        }
      ],
      "stateMutability": "view",
      "type": "function"
    },
    {
      "inputs": [
        {
          "internalType": "uint256",
          "name": "id",
          "type": "uint256"
        }
      ],
      "name": "burn",
      "outputs": [],
      "stateMutability": "nonpayable",
      "type": "function"
    },
    {
      "inputs": [],
      "name": "cronosWarriors",
      "outputs": [
        {
          "internalType": "contract CronosWarriors",
          "name": "",
          "type": "address"
        }
      ],
      "stateMutability": "view",
      "type": "function"
    },
    {
      "inputs": [
        {
          "internalType": "bytes32",
          "name": "role",
          "type": "bytes32"
        }
      ],
      "name": "getRoleAdmin",
      "outputs": [
        {
          "internalType": "bytes32",
          "name": "",
          "type": "bytes32"
        }
      ],
      "stateMutability": "view",
      "type": "function"
    },
    {
      "inputs": [
        {
          "internalType": "bytes32",
          "name": "role",
          "type": "bytes32"
        },
        {
          "internalType": "address",
          "name": "account",
          "type": "address"
        }
      ],
      "name": "grantRole",
      "outputs": [],
      "stateMutability": "nonpayable",
      "type": "function"
    },
    {
      "inputs": [
        {
          "internalType": "bytes32",
          "name": "role",
          "type": "bytes32"
        },
        {
          "internalType": "address",
          "name": "account",
          "type": "address"
        }
      ],
      "name": "hasRole",
      "outputs": [
        {
          "internalType": "bool",
          "name": "",
          "type": "bool"
        }
      ],
      "stateMutability": "view",
      "type": "function"
    },
    {
      "inputs": [
        {
          "internalType": "uint256",
          "name": "id",
          "type": "uint256"
        },
        {
          "internalType": "string",
          "name": "name",
          "type": "string"
        }
      ],
      "name": "mint",
      "outputs": [],
      "stateMutability": "nonpayable",
      "type": "function"
    },
    {
      "inputs": [
        {
          "internalType": "bytes32",
          "name": "role",
          "type": "bytes32"
        },
        {
          "internalType": "address",
          "name": "account",
          "type": "address"
        }
      ],
      "name": "renounceRole",
      "outputs": [],
      "stateMutability": "nonpayable",
      "type": "function"
    },
    {
      "inputs": [
        {
          "internalType": "bytes32",
          "name": "role",
          "type": "bytes32"
        },
        {
          "internalType": "address",
          "name": "account",
          "type": "address"
        }
      ],
      "name": "revokeRole",
      "outputs": [],
      "stateMutability": "nonpayable",
      "type": "function"
    },
    {
      "inputs": [
        {
          "internalType": "bytes4",
          "name": "interfaceId",
          "type": "bytes4"
        }
      ],
      "name": "supportsInterface",
      "outputs": [
        {
          "internalType": "bool",
          "name": "",
          "type": "bool"
        }
      ],
      "stateMutability": "view",
      "type": "function"
    },
    {
      "inputs": [
        {
          "internalType": "uint256",
          "name": "id",
          "type": "uint256"
        }
      ],
      "name": "visuals",
      "outputs": [
        {
          "components": [
            {
              "internalType": "string",
              "name": "name",
              "type": "string"
            },
            {
              "internalType": "uint256",
              "name": "dna",
              "type": "uint256"
            }
          ],
          "internalType": "struct VisualsLib.Visuals",
          "name": "",
          "type": "tuple"
        }
      ],
      "stateMutability": "view",
      "type": "function"
    },
    {
      "inputs": [
        {
          "internalType": "uint256",
          "name": "id",
          "type": "uint256"
        }
      ],
      "name": "warriorDNA",
      "outputs": [
        {
          "internalType": "uint256",
          "name": "",
          "type": "uint256"
        }
      ],
      "stateMutability": "view",
      "type": "function"
    },
    {
      "inputs": [
        {
          "internalType": "uint256",
          "name": "id",
          "type": "uint256"
        }
      ],
      "name": "warriorName",
      "outputs": [
        {
          "internalType": "string",
          "name": "",
          "type": "string"
        }
      ],
      "stateMutability": "view",
      "type": "function"
    }
  ],
  "bytecode": "0x60806040523480156200001157600080fd5b506040516200203038038062002030833981810160405281019062000037919062000224565b80600160006101000a81548173ffffffffffffffffffffffffffffffffffffffff021916908373ffffffffffffffffffffffffffffffffffffffff1602179055506200008d6000801b336200009460201b60201c565b506200029e565b620000a68282620000aa60201b60201c565b5050565b620000bc82826200019b60201b60201c565b6200019757600160008084815260200190815260200160002060000160008373ffffffffffffffffffffffffffffffffffffffff1673ffffffffffffffffffffffffffffffffffffffff16815260200190815260200160002060006101000a81548160ff0219169083151502179055506200013c6200020560201b60201c565b73ffffffffffffffffffffffffffffffffffffffff168173ffffffffffffffffffffffffffffffffffffffff16837f2f8788117e7eff1d82e926ec794901d17c78024a50270940304540a733656f0d60405160405180910390a45b5050565b600080600084815260200190815260200160002060000160008373ffffffffffffffffffffffffffffffffffffffff1673ffffffffffffffffffffffffffffffffffffffff16815260200190815260200160002060009054906101000a900460ff16905092915050565b600033905090565b6000815190506200021e8162000284565b92915050565b6000602082840312156200023757600080fd5b600062000247848285016200020d565b91505092915050565b60006200025d8262000264565b9050919050565b600073ffffffffffffffffffffffffffffffffffffffff82169050919050565b6200028f8162000250565b81146200029b57600080fd5b50565b611d8280620002ae6000396000f3fe608060405234801561001057600080fd5b50600436106100ea5760003560e01c806377097fc81161008c578063a217fddf11610066578063a217fddf1461026d578063bee1d61b1461028b578063d5391393146102bb578063d547741f146102d9576100ea565b806377097fc8146101f157806377224f181461020d57806391d148541461023d576100ea565b806336568abe116100c857806336568abe1461016b57806342966c68146101875780636b06054c146101a35780636c69e521146101d3576100ea565b806301ffc9a7146100ef578063248a9ca31461011f5780632f2ff15d1461014f575b600080fd5b610109600480360381019061010491906112aa565b6102f5565b60405161011691906116ad565b60405180910390f35b61013960048036038101906101349190611245565b61036f565b60405161014691906116c8565b60405180910390f35b6101696004803603810190610164919061126e565b61038e565b005b6101856004803603810190610180919061126e565b6103b7565b005b6101a1600480360381019061019c91906112d3565b61043a565b005b6101bd60048036038101906101b891906112d3565b61049e565b6040516101ca91906117d2565b60405180910390f35b6101db610567565b6040516101e891906116e3565b60405180910390f35b61020b60048036038101906102069190611325565b61058d565b005b610227600480360381019061022291906112d3565b610846565b6040516102349190611720565b60405180910390f35b6102576004803603810190610252919061126e565b6108ee565b60405161026491906116ad565b60405180910390f35b610275610958565b60405161028291906116c8565b60405180910390f35b6102a560048036038101906102a091906112d3565b61095f565b6040516102b29190611816565b60405180910390f35b6102c361097f565b6040516102d091906116c8565b60405180910390f35b6102f360048036038101906102ee919061126e565b6109a3565b005b60007f7965db0b000000000000000000000000000000000000000000000000000000007bffffffffffffffffffffffffffffffffffffffffffffffffffffffff1916827bffffffffffffffffffffffffffffffffffffffffffffffffffffffff191614806103685750610367826109cc565b5b9050919050565b6000806000838152602001908152602001600020600101549050919050565b6103978261036f565b6103a8816103a3610a36565b610a3e565b6103b28383610adb565b505050565b6103bf610a36565b73ffffffffffffffffffffffffffffffffffffffff168173ffffffffffffffffffffffffffffffffffffffff161461042c576040517f08c379a0000000000000000000000000000000000000000000000000000000008152600401610423906117b2565b60405180910390fd5b6104368282610bbb565b5050565b7f9f2df0fed2c77648de5860a4cc508cd0818c85b8b8a1ab4ceeef8d981c8956a661046c81610467610a36565b610a3e565b60026000838152602001908152602001600020600080820160006104909190611039565b600182016000905550505050565b6104a6611079565b600260008381526020019081526020016000206040518060400160405290816000820180546104d490611abe565b80601f016020809104026020016040519081016040528092919081815260200182805461050090611abe565b801561054d5780601f106105225761010080835404028352916020019161054d565b820191906000526020600020905b81548152906001019060200180831161053057829003601f168201915b505050505081526020016001820154815250509050919050565b600160009054906101000a900473ffffffffffffffffffffffffffffffffffffffff1681565b7f9f2df0fed2c77648de5860a4cc508cd0818c85b8b8a1ab4ceeef8d981c8956a66105bf816105ba610a36565b610a3e565b6105c883610c9c565b156105fc577f4e487b7100000000000000000000000000000000000000000000000000000000600052600160045260246000fd5b73__$99770930083218c0d4904b030f3e99faf3$__631e30397f836040518263ffffffff1660e01b815260040161063391906116fe565b60206040518083038186803b15801561064b57600080fd5b505af415801561065f573d6000803e3d6000fd5b505050506040513d601f19601f82011682018060405250810190610683919061121c565b6106c2576040517f08c379a00000000000000000000000000000000000000000000000000000000081526004016106b990611792565b60405180910390fd5b600073__$99770930083218c0d4904b030f3e99faf3$__6334aad31c84600160009054906101000a900473ffffffffffffffffffffffffffffffffffffffff1673ffffffffffffffffffffffffffffffffffffffff166318160ddd6040518163ffffffff1660e01b815260040160206040518083038186803b15801561074757600080fd5b505afa15801561075b573d6000803e3d6000fd5b505050506040513d601f19601f8201168201806040525081019061077f91906112fc565b6040518363ffffffff1660e01b815260040161079c929190611742565b60206040518083038186803b1580156107b457600080fd5b505af41580156107c8573d6000803e3d6000fd5b505050506040513d601f19601f820116820180604052508101906107ec91906112fc565b9050604051806040016040528084815260200182815250600260008681526020019081526020016000206000820151816000019080519060200190610832929190611093565b506020820151816001015590505050505050565b606060026000838152602001908152602001600020600001805461086990611abe565b80601f016020809104026020016040519081016040528092919081815260200182805461089590611abe565b80156108e25780601f106108b7576101008083540402835291602001916108e2565b820191906000526020600020905b8154815290600101906020018083116108c557829003601f168201915b50505050509050919050565b600080600084815260200190815260200160002060000160008373ffffffffffffffffffffffffffffffffffffffff1673ffffffffffffffffffffffffffffffffffffffff16815260200190815260200160002060009054906101000a900460ff16905092915050565b6000801b81565b600060026000838152602001908152602001600020600101549050919050565b7f9f2df0fed2c77648de5860a4cc508cd0818c85b8b8a1ab4ceeef8d981c8956a681565b6109ac8261036f565b6109bd816109b8610a36565b610a3e565b6109c78383610bbb565b505050565b60007f01ffc9a7000000000000000000000000000000000000000000000000000000007bffffffffffffffffffffffffffffffffffffffffffffffffffffffff1916827bffffffffffffffffffffffffffffffffffffffffffffffffffffffff1916149050919050565b600033905090565b610a4882826108ee565b610ad757610a6d8173ffffffffffffffffffffffffffffffffffffffff166014610d3f565b610a7b8360001c6020610d3f565b604051602001610a8c929190611673565b6040516020818303038152906040526040517f08c379a0000000000000000000000000000000000000000000000000000000008152600401610ace9190611720565b60405180910390fd5b5050565b610ae582826108ee565b610bb757600160008084815260200190815260200160002060000160008373ffffffffffffffffffffffffffffffffffffffff1673ffffffffffffffffffffffffffffffffffffffff16815260200190815260200160002060006101000a81548160ff021916908315150217905550610b5c610a36565b73ffffffffffffffffffffffffffffffffffffffff168173ffffffffffffffffffffffffffffffffffffffff16837f2f8788117e7eff1d82e926ec794901d17c78024a50270940304540a733656f0d60405160405180910390a45b5050565b610bc582826108ee565b15610c9857600080600084815260200190815260200160002060000160008373ffffffffffffffffffffffffffffffffffffffff1673ffffffffffffffffffffffffffffffffffffffff16815260200190815260200160002060006101000a81548160ff021916908315150217905550610c3d610a36565b73ffffffffffffffffffffffffffffffffffffffff168173ffffffffffffffffffffffffffffffffffffffff16837ff6391f5c32d9c69d2a47ea670b442974b53935d1edc7fd64eb21e047a839171b60405160405180910390a45b5050565b600073__$99770930083218c0d4904b030f3e99faf3$__63cd9e72e6600260008581526020019081526020016000206040518263ffffffff1660e01b8152600401610ce791906117f4565b60206040518083038186803b158015610cff57600080fd5b505af4158015610d13573d6000803e3d6000fd5b505050506040513d601f19601f82011682018060405250810190610d37919061121c565b159050919050565b606060006002836002610d52919061194c565b610d5c91906118f6565b67ffffffffffffffff811115610d9b577f4e487b7100000000000000000000000000000000000000000000000000000000600052604160045260246000fd5b6040519080825280601f01601f191660200182016040528015610dcd5781602001600182028036833780820191505090505b5090507f300000000000000000000000000000000000000000000000000000000000000081600081518110610e2b577f4e487b7100000000000000000000000000000000000000000000000000000000600052603260045260246000fd5b60200101907effffffffffffffffffffffffffffffffffffffffffffffffffffffffffffff1916908160001a9053507f780000000000000000000000000000000000000000000000000000000000000081600181518110610eb5577f4e487b7100000000000000000000000000000000000000000000000000000000600052603260045260246000fd5b60200101907effffffffffffffffffffffffffffffffffffffffffffffffffffffffffffff1916908160001a90535060006001846002610ef5919061194c565b610eff91906118f6565b90505b6001811115610feb577f3031323334353637383961626364656600000000000000000000000000000000600f861660108110610f67577f4e487b7100000000000000000000000000000000000000000000000000000000600052603260045260246000fd5b1a60f81b828281518110610fa4577f4e487b7100000000000000000000000000000000000000000000000000000000600052603260045260246000fd5b60200101907effffffffffffffffffffffffffffffffffffffffffffffffffffffffffffff1916908160001a905350600485901c945080610fe490611a94565b9050610f02565b506000841461102f576040517f08c379a000000000000000000000000000000000000000000000000000000000815260040161102690611772565b60405180910390fd5b8091505092915050565b50805461104590611abe565b6000825580601f106110575750611076565b601f0160209004906000526020600020908101906110759190611119565b5b50565b604051806040016040528060608152602001600081525090565b82805461109f90611abe565b90600052602060002090601f0160209004810192826110c15760008555611108565b82601f106110da57805160ff1916838001178555611108565b82800160010185558215611108579182015b828111156111075782518255916020019190600101906110ec565b5b5090506111159190611119565b5090565b5b8082111561113257600081600090555060010161111a565b5090565b600061114961114484611856565b611831565b90508281526020810184848401111561116157600080fd5b61116c848285611a52565b509392505050565b60008135905061118381611cd9565b92915050565b60008151905061119881611cf0565b92915050565b6000813590506111ad81611d07565b92915050565b6000813590506111c281611d1e565b92915050565b600082601f8301126111d957600080fd5b81356111e9848260208601611136565b91505092915050565b60008135905061120181611d35565b92915050565b60008151905061121681611d35565b92915050565b60006020828403121561122e57600080fd5b600061123c84828501611189565b91505092915050565b60006020828403121561125757600080fd5b60006112658482850161119e565b91505092915050565b6000806040838503121561128157600080fd5b600061128f8582860161119e565b92505060206112a085828601611174565b9150509250929050565b6000602082840312156112bc57600080fd5b60006112ca848285016111b3565b91505092915050565b6000602082840312156112e557600080fd5b60006112f3848285016111f2565b91505092915050565b60006020828403121561130e57600080fd5b600061131c84828501611207565b91505092915050565b6000806040838503121561133857600080fd5b6000611346858286016111f2565b925050602083013567ffffffffffffffff81111561136357600080fd5b61136f858286016111c8565b9150509250929050565b611382816119c2565b82525050565b611391816119ce565b82525050565b6113a081611a2e565b82525050565b60006113b18261189c565b6113bb81856118a7565b93506113cb818560208601611a61565b6113d481611bc8565b840191505092915050565b60006113ea8261189c565b6113f481856118b8565b9350611404818560208601611a61565b61140d81611bc8565b840191505092915050565b60006114238261189c565b61142d81856118c9565b935061143d818560208601611a61565b61144681611bc8565b840191505092915050565b600061145c8261189c565b61146681856118eb565b9350611476818560208601611a61565b80840191505092915050565b6000815461148f81611abe565b61149981866118da565b945060018216600081146114b457600181146114c6576114f9565b60ff19831686526020860193506114f9565b6114cf85611887565b60005b838110156114f1578154818901526001820191506020810190506114d2565b808801955050505b50505092915050565b600061150f6020836118b8565b915061151a82611be6565b602082019050919050565b60006115326011836118b8565b915061153d82611c0f565b602082019050919050565b60006115556017836118eb565b915061156082611c38565b601782019050919050565b60006115786011836118eb565b915061158382611c61565b601182019050919050565b600061159b602f836118b8565b91506115a682611c8a565b604082019050919050565b600060408301600083015184820360008601526115ce82826113a6565b91505060208301516115e36020860182611637565b508091505092915050565b6000604083016000808401858303600087015261160b8382611482565b9250506001840154905061161e81611af0565b61162b6020870182611664565b50819250505092915050565b61164081611a24565b82525050565b61164f81611a24565b82525050565b61165e81611a24565b82525050565b61166d81611a24565b82525050565b600061167e82611548565b915061168a8285611451565b91506116958261156b565b91506116a18284611451565b91508190509392505050565b60006020820190506116c26000830184611379565b92915050565b60006020820190506116dd6000830184611388565b92915050565b60006020820190506116f86000830184611397565b92915050565b600060208201905081810360008301526117188184611418565b905092915050565b6000602082019050818103600083015261173a81846113df565b905092915050565b6000604082019050818103600083015261175c8185611418565b905061176b6020830184611655565b9392505050565b6000602082019050818103600083015261178b81611502565b9050919050565b600060208201905081810360008301526117ab81611525565b9050919050565b600060208201905081810360008301526117cb8161158e565b9050919050565b600060208201905081810360008301526117ec81846115b1565b905092915050565b6000602082019050818103600083015261180e81846115ee565b905092915050565b600060208201905061182b6000830184611646565b92915050565b600061183b61184c565b90506118478282611b0a565b919050565b6000604051905090565b600067ffffffffffffffff82111561187157611870611b99565b5b61187a82611bc8565b9050602081019050919050565b60008190508160005260206000209050919050565b600081519050919050565b600082825260208201905092915050565b600082825260208201905092915050565b600082825260208201905092915050565b600082825260208201905092915050565b600081905092915050565b600061190182611a24565b915061190c83611a24565b9250827fffffffffffffffffffffffffffffffffffffffffffffffffffffffffffffffff0382111561194157611940611b3b565b5b828201905092915050565b600061195782611a24565b915061196283611a24565b9250817fffffffffffffffffffffffffffffffffffffffffffffffffffffffffffffffff048311821515161561199b5761199a611b3b565b5b828202905092915050565b6000819050919050565b60006119bb82611a04565b9050919050565b60008115159050919050565b6000819050919050565b60007fffffffff0000000000000000000000000000000000000000000000000000000082169050919050565b600073ffffffffffffffffffffffffffffffffffffffff82169050919050565b6000819050919050565b6000611a3982611a40565b9050919050565b6000611a4b82611a04565b9050919050565b82818337600083830152505050565b60005b83811015611a7f578082015181840152602081019050611a64565b83811115611a8e576000848401525b50505050565b6000611a9f82611a24565b91506000821415611ab357611ab2611b3b565b5b600182039050919050565b60006002820490506001821680611ad657607f821691505b60208210811415611aea57611ae9611b6a565b5b50919050565b6000611b03611afe83611bd9565b6119a6565b9050919050565b611b1382611bc8565b810181811067ffffffffffffffff82111715611b3257611b31611b99565b5b80604052505050565b7f4e487b7100000000000000000000000000000000000000000000000000000000600052601160045260246000fd5b7f4e487b7100000000000000000000000000000000000000000000000000000000600052602260045260246000fd5b7f4e487b7100000000000000000000000000000000000000000000000000000000600052604160045260246000fd5b6000601f19601f8301169050919050565b60008160001c9050919050565b7f537472696e67733a20686578206c656e67746820696e73756666696369656e74600082015250565b7f4e616d65206973206e6f742076616c6964000000000000000000000000000000600082015250565b7f416363657373436f6e74726f6c3a206163636f756e7420000000000000000000600082015250565b7f206973206d697373696e6720726f6c6520000000000000000000000000000000600082015250565b7f416363657373436f6e74726f6c3a2063616e206f6e6c792072656e6f756e636560008201527f20726f6c657320666f722073656c660000000000000000000000000000000000602082015250565b611ce2816119b0565b8114611ced57600080fd5b50565b611cf9816119c2565b8114611d0457600080fd5b50565b611d10816119ce565b8114611d1b57600080fd5b50565b611d27816119d8565b8114611d3257600080fd5b50565b611d3e81611a24565b8114611d4957600080fd5b5056fea2646970667358221220523c9b6f3d5687fe80d215196c185747e123e006710616a0ea21c141fa86727964736f6c63430008040033",
  "linkReferences": {
    "contracts/lib/structs/VisualsLib.sol": {
      "VisualsLib": [
        {
          "length": 20,
          "start": 2220
        },
        {
          "length": 20,
          "start": 2420
        },
        {
          "length": 20,
          "start": 3918
        }
      ]
    }
  },
  "deployedLinkReferences": {
    "contracts/lib/structs/VisualsLib.sol": {
      "VisualsLib": [
        {
          "length": 20,
          "start": 1534
        },
        {
          "length": 20,
          "start": 1734
        },
        {
          "length": 20,
          "start": 3232
        }
      ]
    }
  }
}