{
  "_format": "hh-sol-artifact-1",
  "contractName": "WarriorVisuals",
  "sourceName": "contracts/WarriorVisuals.sol",
  "abi": [
    {
      "inputs": [
        {
          "internalType": "address",
          "name": "cronosWarriorsAddr",
          "type": "address"
        }
      ],
      "stateMutability": "nonpayable",
      "type": "constructor"
    },
    {
      "anonymous": false,
      "inputs": [
        {
          "indexed": true,
          "internalType": "bytes32",
          "name": "role",
          "type": "bytes32"
        },
        {
          "indexed": true,
          "internalType": "bytes32",
          "name": "previousAdminRole",
          "type": "bytes32"
        },
        {
          "indexed": true,
          "internalType": "bytes32",
          "name": "newAdminRole",
          "type": "bytes32"
        }
      ],
      "name": "RoleAdminChanged",
      "type": "event"
    },
    {
      "anonymous": false,
      "inputs": [
        {
          "indexed": true,
          "internalType": "bytes32",
          "name": "role",
          "type": "bytes32"
        },
        {
          "indexed": true,
          "internalType": "address",
          "name": "account",
          "type": "address"
        },
        {
          "indexed": true,
          "internalType": "address",
          "name": "sender",
          "type": "address"
        }
      ],
      "name": "RoleGranted",
      "type": "event"
    },
    {
      "anonymous": false,
      "inputs": [
        {
          "indexed": true,
          "internalType": "bytes32",
          "name": "role",
          "type": "bytes32"
        },
        {
          "indexed": true,
          "internalType": "address",
          "name": "account",
          "type": "address"
        },
        {
          "indexed": true,
          "internalType": "address",
          "name": "sender",
          "type": "address"
        }
      ],
      "name": "RoleRevoked",
      "type": "event"
    },
    {
      "inputs": [],
      "name": "DEFAULT_ADMIN_ROLE",
      "outputs": [
        {
          "internalType": "bytes32",
          "name": "",
          "type": "bytes32"
        }
      ],
      "stateMutability": "view",
      "type": "function"
    },
    {
      "inputs": [],
      "name": "MINTER_ROLE",
      "outputs": [
        {
          "internalType": "bytes32",
          "name": "",
          "type": "bytes32"
        }
      ],
      "stateMutability": "view",
      "type": "function"
    },
    {
      "inputs": [
        {
          "internalType": "uint256",
          "name": "id",
          "type": "uint256"
        }
      ],
      "name": "burn",
      "outputs": [],
      "stateMutability": "nonpayable",
      "type": "function"
    },
    {
      "inputs": [],
      "name": "cronosWarriors",
      "outputs": [
        {
          "internalType": "contract CronosWarriors",
          "name": "",
          "type": "address"
        }
      ],
      "stateMutability": "view",
      "type": "function"
    },
    {
      "inputs": [
        {
          "internalType": "bytes32",
          "name": "role",
          "type": "bytes32"
        }
      ],
      "name": "getRoleAdmin",
      "outputs": [
        {
          "internalType": "bytes32",
          "name": "",
          "type": "bytes32"
        }
      ],
      "stateMutability": "view",
      "type": "function"
    },
    {
      "inputs": [
        {
          "internalType": "bytes32",
          "name": "role",
          "type": "bytes32"
        },
        {
          "internalType": "address",
          "name": "account",
          "type": "address"
        }
      ],
      "name": "grantRole",
      "outputs": [],
      "stateMutability": "nonpayable",
      "type": "function"
    },
    {
      "inputs": [
        {
          "internalType": "bytes32",
          "name": "role",
          "type": "bytes32"
        },
        {
          "internalType": "address",
          "name": "account",
          "type": "address"
        }
      ],
      "name": "hasRole",
      "outputs": [
        {
          "internalType": "bool",
          "name": "",
          "type": "bool"
        }
      ],
      "stateMutability": "view",
      "type": "function"
    },
    {
      "inputs": [
        {
          "internalType": "uint256",
          "name": "id",
          "type": "uint256"
        },
        {
          "internalType": "string",
          "name": "name",
          "type": "string"
        }
      ],
      "name": "mint",
      "outputs": [],
      "stateMutability": "nonpayable",
      "type": "function"
    },
    {
      "inputs": [
        {
          "internalType": "bytes32",
          "name": "role",
          "type": "bytes32"
        },
        {
          "internalType": "address",
          "name": "account",
          "type": "address"
        }
      ],
      "name": "renounceRole",
      "outputs": [],
      "stateMutability": "nonpayable",
      "type": "function"
    },
    {
      "inputs": [
        {
          "internalType": "bytes32",
          "name": "role",
          "type": "bytes32"
        },
        {
          "internalType": "address",
          "name": "account",
          "type": "address"
        }
      ],
      "name": "revokeRole",
      "outputs": [],
      "stateMutability": "nonpayable",
      "type": "function"
    },
    {
      "inputs": [
        {
          "internalType": "bytes4",
          "name": "interfaceId",
          "type": "bytes4"
        }
      ],
      "name": "supportsInterface",
      "outputs": [
        {
          "internalType": "bool",
          "name": "",
          "type": "bool"
        }
      ],
      "stateMutability": "view",
      "type": "function"
    },
    {
      "inputs": [
        {
          "internalType": "uint256",
          "name": "id",
          "type": "uint256"
        }
      ],
      "name": "visuals",
      "outputs": [
        {
          "components": [
            {
              "internalType": "string",
              "name": "name",
              "type": "string"
            },
            {
              "internalType": "uint128",
              "name": "dna",
              "type": "uint128"
            }
          ],
          "internalType": "struct VisualsLib.Visuals",
          "name": "",
          "type": "tuple"
        }
      ],
      "stateMutability": "view",
      "type": "function"
    },
    {
      "inputs": [
        {
          "internalType": "uint256",
          "name": "id",
          "type": "uint256"
        }
      ],
      "name": "warriorDNA",
      "outputs": [
        {
          "internalType": "uint128",
          "name": "",
          "type": "uint128"
        }
      ],
      "stateMutability": "view",
      "type": "function"
    },
    {
      "inputs": [
        {
          "internalType": "uint256",
          "name": "id",
          "type": "uint256"
        }
      ],
      "name": "warriorName",
      "outputs": [
        {
          "internalType": "string",
          "name": "",
          "type": "string"
        }
      ],
      "stateMutability": "view",
      "type": "function"
    }
  ],
  "bytecode": "0x60806040523480156200001157600080fd5b506040516200212138038062002121833981810160405281019062000037919062000224565b80600160006101000a81548173ffffffffffffffffffffffffffffffffffffffff021916908373ffffffffffffffffffffffffffffffffffffffff1602179055506200008d6000801b336200009460201b60201c565b506200029e565b620000a68282620000aa60201b60201c565b5050565b620000bc82826200019b60201b60201c565b6200019757600160008084815260200190815260200160002060000160008373ffffffffffffffffffffffffffffffffffffffff1673ffffffffffffffffffffffffffffffffffffffff16815260200190815260200160002060006101000a81548160ff0219169083151502179055506200013c6200020560201b60201c565b73ffffffffffffffffffffffffffffffffffffffff168173ffffffffffffffffffffffffffffffffffffffff16837f2f8788117e7eff1d82e926ec794901d17c78024a50270940304540a733656f0d60405160405180910390a45b5050565b600080600084815260200190815260200160002060000160008373ffffffffffffffffffffffffffffffffffffffff1673ffffffffffffffffffffffffffffffffffffffff16815260200190815260200160002060009054906101000a900460ff16905092915050565b600033905090565b6000815190506200021e8162000284565b92915050565b6000602082840312156200023757600080fd5b600062000247848285016200020d565b91505092915050565b60006200025d8262000264565b9050919050565b600073ffffffffffffffffffffffffffffffffffffffff82169050919050565b6200028f8162000250565b81146200029b57600080fd5b50565b611e7380620002ae6000396000f3fe608060405234801561001057600080fd5b50600436106100ea5760003560e01c806377097fc81161008c578063a217fddf11610066578063a217fddf1461026d578063bee1d61b1461028b578063d5391393146102bb578063d547741f146102d9576100ea565b806377097fc8146101f157806377224f181461020d57806391d148541461023d576100ea565b806336568abe116100c857806336568abe1461016b57806342966c68146101875780636b06054c146101a35780636c69e521146101d3576100ea565b806301ffc9a7146100ef578063248a9ca31461011f5780632f2ff15d1461014f575b600080fd5b6101096004803603810190610104919061138f565b6102f5565b6040516101169190611872565b60405180910390f35b6101396004803603810190610134919061132a565b61036f565b604051610146919061188d565b60405180910390f35b61016960048036038101906101649190611353565b61038e565b005b61018560048036038101906101809190611353565b6103b7565b005b6101a1600480360381019061019c91906113e1565b61043a565b005b6101bd60048036038101906101b891906113e1565b6104b9565b6040516101ca9190611997565b60405180910390f35b6101db6105c2565b6040516101e891906118a8565b60405180910390f35b61020b60048036038101906102069190611433565b6105e8565b005b610227600480360381019061022291906113e1565b6108e8565b60405161023491906118e5565b60405180910390f35b61025760048036038101906102529190611353565b610990565b6040516102649190611872565b60405180910390f35b6102756109fa565b604051610282919061188d565b60405180910390f35b6102a560048036038101906102a091906113e1565b610a01565b6040516102b291906119db565b60405180910390f35b6102c3610a3d565b6040516102d0919061188d565b60405180910390f35b6102f360048036038101906102ee9190611353565b610a61565b005b60007f7965db0b000000000000000000000000000000000000000000000000000000007bffffffffffffffffffffffffffffffffffffffffffffffffffffffff1916827bffffffffffffffffffffffffffffffffffffffffffffffffffffffff19161480610368575061036782610a8a565b5b9050919050565b6000806000838152602001908152602001600020600101549050919050565b6103978261036f565b6103a8816103a3610af4565b610afc565b6103b28383610b99565b505050565b6103bf610af4565b73ffffffffffffffffffffffffffffffffffffffff168173ffffffffffffffffffffffffffffffffffffffff161461042c576040517f08c379a000000000000000000000000000000000000000000000000000000000815260040161042390611977565b60405180910390fd5b6104368282610c79565b5050565b7f9f2df0fed2c77648de5860a4cc508cd0818c85b8b8a1ab4ceeef8d981c8956a661046c81610467610af4565b610afc565b600260008381526020019081526020016000206000808201600061049091906110f7565b6001820160006101000a8154906fffffffffffffffffffffffffffffffff021916905550505050565b6104c1611137565b600260008381526020019081526020016000206040518060400160405290816000820180546104ef90611cbc565b80601f016020809104026020016040519081016040528092919081815260200182805461051b90611cbc565b80156105685780601f1061053d57610100808354040283529160200191610568565b820191906000526020600020905b81548152906001019060200180831161054b57829003601f168201915b505050505081526020016001820160009054906101000a90046fffffffffffffffffffffffffffffffff166fffffffffffffffffffffffffffffffff166fffffffffffffffffffffffffffffffff16815250509050919050565b600160009054906101000a900473ffffffffffffffffffffffffffffffffffffffff1681565b7f9f2df0fed2c77648de5860a4cc508cd0818c85b8b8a1ab4ceeef8d981c8956a661061a81610615610af4565b610afc565b61062383610d5a565b15610657577f4e487b7100000000000000000000000000000000000000000000000000000000600052600160045260246000fd5b73__$99770930083218c0d4904b030f3e99faf3$__631e30397f836040518263ffffffff1660e01b815260040161068e91906118c3565b60206040518083038186803b1580156106a657600080fd5b505af41580156106ba573d6000803e3d6000fd5b505050506040513d601f19601f820116820180604052508101906106de9190611301565b61071d576040517f08c379a000000000000000000000000000000000000000000000000000000000815260040161071490611957565b60405180910390fd5b600073__$99770930083218c0d4904b030f3e99faf3$__6334aad31c84600160009054906101000a900473ffffffffffffffffffffffffffffffffffffffff1673ffffffffffffffffffffffffffffffffffffffff166318160ddd6040518163ffffffff1660e01b815260040160206040518083038186803b1580156107a257600080fd5b505afa1580156107b6573d6000803e3d6000fd5b505050506040513d601f19601f820116820180604052508101906107da919061140a565b6040518363ffffffff1660e01b81526004016107f7929190611907565b60206040518083038186803b15801561080f57600080fd5b505af4158015610823573d6000803e3d6000fd5b505050506040513d601f19601f8201168201806040525081019061084791906113b8565b90506040518060400160405280848152602001826fffffffffffffffffffffffffffffffff1681525060026000868152602001908152602001600020600082015181600001908051906020019061089f929190611163565b5060208201518160010160006101000a8154816fffffffffffffffffffffffffffffffff02191690836fffffffffffffffffffffffffffffffff16021790555090505050505050565b606060026000838152602001908152602001600020600001805461090b90611cbc565b80601f016020809104026020016040519081016040528092919081815260200182805461093790611cbc565b80156109845780601f1061095957610100808354040283529160200191610984565b820191906000526020600020905b81548152906001019060200180831161096757829003601f168201915b50505050509050919050565b600080600084815260200190815260200160002060000160008373ffffffffffffffffffffffffffffffffffffffff1673ffffffffffffffffffffffffffffffffffffffff16815260200190815260200160002060009054906101000a900460ff16905092915050565b6000801b81565b60006002600083815260200190815260200160002060010160009054906101000a90046fffffffffffffffffffffffffffffffff169050919050565b7f9f2df0fed2c77648de5860a4cc508cd0818c85b8b8a1ab4ceeef8d981c8956a681565b610a6a8261036f565b610a7b81610a76610af4565b610afc565b610a858383610c79565b505050565b60007f01ffc9a7000000000000000000000000000000000000000000000000000000007bffffffffffffffffffffffffffffffffffffffffffffffffffffffff1916827bffffffffffffffffffffffffffffffffffffffffffffffffffffffff1916149050919050565b600033905090565b610b068282610990565b610b9557610b2b8173ffffffffffffffffffffffffffffffffffffffff166014610dfd565b610b398360001c6020610dfd565b604051602001610b4a929190611838565b6040516020818303038152906040526040517f08c379a0000000000000000000000000000000000000000000000000000000008152600401610b8c91906118e5565b60405180910390fd5b5050565b610ba38282610990565b610c7557600160008084815260200190815260200160002060000160008373ffffffffffffffffffffffffffffffffffffffff1673ffffffffffffffffffffffffffffffffffffffff16815260200190815260200160002060006101000a81548160ff021916908315150217905550610c1a610af4565b73ffffffffffffffffffffffffffffffffffffffff168173ffffffffffffffffffffffffffffffffffffffff16837f2f8788117e7eff1d82e926ec794901d17c78024a50270940304540a733656f0d60405160405180910390a45b5050565b610c838282610990565b15610d5657600080600084815260200190815260200160002060000160008373ffffffffffffffffffffffffffffffffffffffff1673ffffffffffffffffffffffffffffffffffffffff16815260200190815260200160002060006101000a81548160ff021916908315150217905550610cfb610af4565b73ffffffffffffffffffffffffffffffffffffffff168173ffffffffffffffffffffffffffffffffffffffff16837ff6391f5c32d9c69d2a47ea670b442974b53935d1edc7fd64eb21e047a839171b60405160405180910390a45b5050565b600073__$99770930083218c0d4904b030f3e99faf3$__63cd9e72e6600260008581526020019081526020016000206040518263ffffffff1660e01b8152600401610da591906119b9565b60206040518083038186803b158015610dbd57600080fd5b505af4158015610dd1573d6000803e3d6000fd5b505050506040513d601f19601f82011682018060405250810190610df59190611301565b159050919050565b606060006002836002610e109190611b1c565b610e1a9190611ac6565b67ffffffffffffffff811115610e59577f4e487b7100000000000000000000000000000000000000000000000000000000600052604160045260246000fd5b6040519080825280601f01601f191660200182016040528015610e8b5781602001600182028036833780820191505090505b5090507f300000000000000000000000000000000000000000000000000000000000000081600081518110610ee9577f4e487b7100000000000000000000000000000000000000000000000000000000600052603260045260246000fd5b60200101907effffffffffffffffffffffffffffffffffffffffffffffffffffffffffffff1916908160001a9053507f780000000000000000000000000000000000000000000000000000000000000081600181518110610f73577f4e487b7100000000000000000000000000000000000000000000000000000000600052603260045260246000fd5b60200101907effffffffffffffffffffffffffffffffffffffffffffffffffffffffffffff1916908160001a90535060006001846002610fb39190611b1c565b610fbd9190611ac6565b90505b60018111156110a9577f3031323334353637383961626364656600000000000000000000000000000000600f861660108110611025577f4e487b7100000000000000000000000000000000000000000000000000000000600052603260045260246000fd5b1a60f81b828281518110611062577f4e487b7100000000000000000000000000000000000000000000000000000000600052603260045260246000fd5b60200101907effffffffffffffffffffffffffffffffffffffffffffffffffffffffffffff1916908160001a905350600485901c9450806110a290611c92565b9050610fc0565b50600084146110ed576040517f08c379a00000000000000000000000000000000000000000000000000000000081526004016110e490611937565b60405180910390fd5b8091505092915050565b50805461110390611cbc565b6000825580601f106111155750611134565b601f01602090049060005260206000209081019061113391906111e9565b5b50565b60405180604001604052806060815260200160006fffffffffffffffffffffffffffffffff1681525090565b82805461116f90611cbc565b90600052602060002090601f01602090048101928261119157600085556111d8565b82601f106111aa57805160ff19168380011785556111d8565b828001600101855582156111d8579182015b828111156111d75782518255916020019190600101906111bc565b5b5090506111e591906111e9565b5090565b5b808211156112025760008160009055506001016111ea565b5090565b600061121961121484611a27565b6119f6565b90508281526020810184848401111561123157600080fd5b61123c848285611c50565b509392505050565b60008135905061125381611db3565b92915050565b60008151905061126881611dca565b92915050565b60008135905061127d81611de1565b92915050565b60008135905061129281611df8565b92915050565b600082601f8301126112a957600080fd5b81356112b9848260208601611206565b91505092915050565b6000815190506112d181611e0f565b92915050565b6000813590506112e681611e26565b92915050565b6000815190506112fb81611e26565b92915050565b60006020828403121561131357600080fd5b600061132184828501611259565b91505092915050565b60006020828403121561133c57600080fd5b600061134a8482850161126e565b91505092915050565b6000806040838503121561136657600080fd5b60006113748582860161126e565b925050602061138585828601611244565b9150509250929050565b6000602082840312156113a157600080fd5b60006113af84828501611283565b91505092915050565b6000602082840312156113ca57600080fd5b60006113d8848285016112c2565b91505092915050565b6000602082840312156113f357600080fd5b6000611401848285016112d7565b91505092915050565b60006020828403121561141c57600080fd5b600061142a848285016112ec565b91505092915050565b6000806040838503121561144657600080fd5b6000611454858286016112d7565b925050602083013567ffffffffffffffff81111561147157600080fd5b61147d85828601611298565b9150509250929050565b61149081611ba4565b82525050565b61149f81611bb0565b82525050565b6114ae81611c2c565b82525050565b60006114bf82611a6c565b6114c98185611a77565b93506114d9818560208601611c5f565b6114e281611d95565b840191505092915050565b60006114f882611a6c565b6115028185611a88565b9350611512818560208601611c5f565b61151b81611d95565b840191505092915050565b600061153182611a6c565b61153b8185611a99565b935061154b818560208601611c5f565b61155481611d95565b840191505092915050565b600061156a82611a6c565b6115748185611abb565b9350611584818560208601611c5f565b80840191505092915050565b6000815461159d81611cbc565b6115a78186611aaa565b945060018216600081146115c257600181146115d457611607565b60ff1983168652602086019350611607565b6115dd85611a57565b60005b838110156115ff578154818901526001820191506020810190506115e0565b808801955050505b50505092915050565b600061161d602083611a88565b91507f537472696e67733a20686578206c656e67746820696e73756666696369656e746000830152602082019050919050565b600061165d601183611a88565b91507f4e616d65206973206e6f742076616c69640000000000000000000000000000006000830152602082019050919050565b600061169d601783611abb565b91507f416363657373436f6e74726f6c3a206163636f756e74200000000000000000006000830152601782019050919050565b60006116dd601183611abb565b91507f206973206d697373696e6720726f6c65200000000000000000000000000000006000830152601182019050919050565b600061171d602f83611a88565b91507f416363657373436f6e74726f6c3a2063616e206f6e6c792072656e6f756e636560008301527f20726f6c657320666f722073656c6600000000000000000000000000000000006020830152604082019050919050565b6000604083016000830151848203600086015261179382826114b4565b91505060208301516117a860208601826117fc565b508091505092915050565b600060408301600080840185830360008701526117d08382611590565b925050600184015490506117e381611cee565b6117f0602087018261181a565b50819250505092915050565b61180581611be6565b82525050565b61181481611be6565b82525050565b61182381611be6565b82525050565b61183281611c22565b82525050565b600061184382611690565b915061184f828561155f565b915061185a826116d0565b9150611866828461155f565b91508190509392505050565b60006020820190506118876000830184611487565b92915050565b60006020820190506118a26000830184611496565b92915050565b60006020820190506118bd60008301846114a5565b92915050565b600060208201905081810360008301526118dd8184611526565b905092915050565b600060208201905081810360008301526118ff81846114ed565b905092915050565b600060408201905081810360008301526119218185611526565b90506119306020830184611829565b9392505050565b6000602082019050818103600083015261195081611610565b9050919050565b6000602082019050818103600083015261197081611650565b9050919050565b6000602082019050818103600083015261199081611710565b9050919050565b600060208201905081810360008301526119b18184611776565b905092915050565b600060208201905081810360008301526119d381846117b3565b905092915050565b60006020820190506119f0600083018461180b565b92915050565b6000604051905081810181811067ffffffffffffffff82111715611a1d57611a1c611d66565b5b8060405250919050565b600067ffffffffffffffff821115611a4257611a41611d66565b5b601f19601f8301169050602081019050919050565b60008190508160005260206000209050919050565b600081519050919050565b600082825260208201905092915050565b600082825260208201905092915050565b600082825260208201905092915050565b600082825260208201905092915050565b600081905092915050565b6000611ad182611c22565b9150611adc83611c22565b9250827fffffffffffffffffffffffffffffffffffffffffffffffffffffffffffffffff03821115611b1157611b10611d08565b5b828201905092915050565b6000611b2782611c22565b9150611b3283611c22565b9250817fffffffffffffffffffffffffffffffffffffffffffffffffffffffffffffffff0483118215151615611b6b57611b6a611d08565b5b828202905092915050565b60006fffffffffffffffffffffffffffffffff82169050919050565b6000611b9d82611c02565b9050919050565b60008115159050919050565b6000819050919050565b60007fffffffff0000000000000000000000000000000000000000000000000000000082169050919050565b60006fffffffffffffffffffffffffffffffff82169050919050565b600073ffffffffffffffffffffffffffffffffffffffff82169050919050565b6000819050919050565b6000611c3782611c3e565b9050919050565b6000611c4982611c02565b9050919050565b82818337600083830152505050565b60005b83811015611c7d578082015181840152602081019050611c62565b83811115611c8c576000848401525b50505050565b6000611c9d82611c22565b91506000821415611cb157611cb0611d08565b5b600182039050919050565b60006002820490506001821680611cd457607f821691505b60208210811415611ce857611ce7611d37565b5b50919050565b6000611d01611cfc83611da6565b611b76565b9050919050565b7f4e487b7100000000000000000000000000000000000000000000000000000000600052601160045260246000fd5b7f4e487b7100000000000000000000000000000000000000000000000000000000600052602260045260246000fd5b7f4e487b7100000000000000000000000000000000000000000000000000000000600052604160045260246000fd5b6000601f19601f8301169050919050565b60008160001c9050919050565b611dbc81611b92565b8114611dc757600080fd5b50565b611dd381611ba4565b8114611dde57600080fd5b50565b611dea81611bb0565b8114611df557600080fd5b50565b611e0181611bba565b8114611e0c57600080fd5b50565b611e1881611be6565b8114611e2357600080fd5b50565b611e2f81611c22565b8114611e3a57600080fd5b5056fea2646970667358221220e800d065f1d5fa490ab6196a43232335a7ec213a7166c982b73b5015910da64f64736f6c63430008000033",
  "linkReferences": {
    "contracts/lib/structs/VisualsLib.sol": {
      "VisualsLib": [
        {
          "length": 20,
          "start": 2311
        },
        {
          "length": 20,
          "start": 2511
        },
        {
          "length": 20,
          "start": 4108
        }
      ]
    }
  },
  "deployedLinkReferences": {
    "contracts/lib/structs/VisualsLib.sol": {
      "VisualsLib": [
        {
          "length": 20,
          "start": 1625
        },
        {
          "length": 20,
          "start": 1825
        },
        {
          "length": 20,
          "start": 3422
        }
      ]
    }
  }
}