{
  "_format": "hh-sol-artifact-1",
  "contractName": "WarriorVisuals",
  "sourceName": "contracts/WarriorVisuals.sol",
  "abi": [
    {
      "inputs": [],
      "stateMutability": "nonpayable",
      "type": "constructor"
    },
    {
      "anonymous": false,
      "inputs": [
        {
          "indexed": true,
          "internalType": "address",
          "name": "previousOwner",
          "type": "address"
        },
        {
          "indexed": true,
          "internalType": "address",
          "name": "newOwner",
          "type": "address"
        }
      ],
      "name": "OwnershipTransferred",
      "type": "event"
    },
    {
      "inputs": [
        {
          "internalType": "uint256",
          "name": "id",
          "type": "uint256"
        }
      ],
      "name": "burn",
      "outputs": [],
      "stateMutability": "nonpayable",
      "type": "function"
    },
    {
      "inputs": [
        {
          "internalType": "uint256",
          "name": "id",
          "type": "uint256"
        },
        {
          "internalType": "string",
          "name": "name",
          "type": "string"
        }
      ],
      "name": "mint",
      "outputs": [],
      "stateMutability": "nonpayable",
      "type": "function"
    },
    {
      "inputs": [],
      "name": "owner",
      "outputs": [
        {
          "internalType": "address",
          "name": "",
          "type": "address"
        }
      ],
      "stateMutability": "view",
      "type": "function"
    },
    {
      "inputs": [],
      "name": "renounceOwnership",
      "outputs": [],
      "stateMutability": "nonpayable",
      "type": "function"
    },
    {
      "inputs": [
        {
          "internalType": "address",
          "name": "addr",
          "type": "address"
        },
        {
          "internalType": "bool",
          "name": "allow",
          "type": "bool"
        }
      ],
      "name": "setModule",
      "outputs": [],
      "stateMutability": "nonpayable",
      "type": "function"
    },
    {
      "inputs": [
        {
          "internalType": "address",
          "name": "newOwner",
          "type": "address"
        }
      ],
      "name": "transferOwnership",
      "outputs": [],
      "stateMutability": "nonpayable",
      "type": "function"
    },
    {
      "inputs": [
        {
          "internalType": "uint256",
          "name": "id",
          "type": "uint256"
        }
      ],
      "name": "visuals",
      "outputs": [
        {
          "components": [
            {
              "internalType": "string",
              "name": "name",
              "type": "string"
            }
          ],
          "internalType": "struct VisualsLib.Visuals",
          "name": "",
          "type": "tuple"
        }
      ],
      "stateMutability": "view",
      "type": "function"
    }
  ],
  "bytecode": "0x608060405234801561001057600080fd5b5061002d61002261003260201b60201c565b61003a60201b60201c565b6100fe565b600033905090565b60008060009054906101000a900473ffffffffffffffffffffffffffffffffffffffff169050816000806101000a81548173ffffffffffffffffffffffffffffffffffffffff021916908373ffffffffffffffffffffffffffffffffffffffff1602179055508173ffffffffffffffffffffffffffffffffffffffff168173ffffffffffffffffffffffffffffffffffffffff167f8be0079c531659141344cd1fd0a4f28419497f9722a3daafe3b4186f6b6457e060405160405180910390a35050565b6111818061010d6000396000f3fe608060405234801561001057600080fd5b506004361061007d5760003560e01c806377097fc81161005b57806377097fc8146100d85780638da5cb5b146100f4578063b1662d5814610112578063f2fde38b1461012e5761007d565b806342966c68146100825780636b06054c1461009e578063715018a6146100ce575b600080fd5b61009c60048036038101906100979190610b1c565b61014a565b005b6100b860048036038101906100b39190610b1c565b6101ff565b6040516100c59190610ed2565b60405180910390f35b6100d66102be565b005b6100f260048036038101906100ed9190610b45565b610346565b005b6100fc61051b565b6040516101099190610e15565b60405180910390f35b61012c60048036038101906101279190610ab7565b610544565b005b61014860048036038101906101439190610a8e565b610675565b005b600160003373ffffffffffffffffffffffffffffffffffffffff1673ffffffffffffffffffffffffffffffffffffffff16815260200190815260200160002060009054906101000a900460ff166101d6576040517f08c379a00000000000000000000000000000000000000000000000000000000081526004016101cd90610e92565b60405180910390fd5b60026000828152602001908152602001600020600080820160006101fa91906108dc565b505050565b61020761091c565b6002600083815260200190815260200160002060405180602001604052908160008201805461023590611065565b80601f016020809104026020016040519081016040528092919081815260200182805461026190611065565b80156102ae5780601f10610283576101008083540402835291602001916102ae565b820191906000526020600020905b81548152906001019060200180831161029157829003601f168201915b5050505050815250509050919050565b6102c661076d565b73ffffffffffffffffffffffffffffffffffffffff166102e461051b565b73ffffffffffffffffffffffffffffffffffffffff161461033a576040517f08c379a000000000000000000000000000000000000000000000000000000000815260040161033190610eb2565b60405180910390fd5b6103446000610775565b565b600160003373ffffffffffffffffffffffffffffffffffffffff1673ffffffffffffffffffffffffffffffffffffffff16815260200190815260200160002060009054906101000a900460ff166103d2576040517f08c379a00000000000000000000000000000000000000000000000000000000081526004016103c990610e92565b60405180910390fd5b6103db82610839565b1561040f577f4e487b7100000000000000000000000000000000000000000000000000000000600052600160045260246000fd5b73__$99770930083218c0d4904b030f3e99faf3$__631e30397f826040518263ffffffff1660e01b81526004016104469190610e30565b60206040518083038186803b15801561045e57600080fd5b505af4158015610472573d6000803e3d6000fd5b505050506040513d601f19601f820116820180604052508101906104969190610af3565b6104d5576040517f08c379a00000000000000000000000000000000000000000000000000000000081526004016104cc90610e72565b60405180910390fd5b60405180602001604052808281525060026000848152602001908152602001600020600082015181600001908051906020019061051392919061092f565b509050505050565b60008060009054906101000a900473ffffffffffffffffffffffffffffffffffffffff16905090565b61054c61076d565b73ffffffffffffffffffffffffffffffffffffffff1661056a61051b565b73ffffffffffffffffffffffffffffffffffffffff16146105c0576040517f08c379a00000000000000000000000000000000000000000000000000000000081526004016105b790610eb2565b60405180910390fd5b8061061957600160008373ffffffffffffffffffffffffffffffffffffffff1673ffffffffffffffffffffffffffffffffffffffff16815260200190815260200160002060006101000a81549060ff0219169055610671565b60018060008473ffffffffffffffffffffffffffffffffffffffff1673ffffffffffffffffffffffffffffffffffffffff16815260200190815260200160002060006101000a81548160ff0219169083151502179055505b5050565b61067d61076d565b73ffffffffffffffffffffffffffffffffffffffff1661069b61051b565b73ffffffffffffffffffffffffffffffffffffffff16146106f1576040517f08c379a00000000000000000000000000000000000000000000000000000000081526004016106e890610eb2565b60405180910390fd5b600073ffffffffffffffffffffffffffffffffffffffff168173ffffffffffffffffffffffffffffffffffffffff161415610761576040517f08c379a000000000000000000000000000000000000000000000000000000000815260040161075890610e52565b60405180910390fd5b61076a81610775565b50565b600033905090565b60008060009054906101000a900473ffffffffffffffffffffffffffffffffffffffff169050816000806101000a81548173ffffffffffffffffffffffffffffffffffffffff021916908373ffffffffffffffffffffffffffffffffffffffff1602179055508173ffffffffffffffffffffffffffffffffffffffff168173ffffffffffffffffffffffffffffffffffffffff167f8be0079c531659141344cd1fd0a4f28419497f9722a3daafe3b4186f6b6457e060405160405180910390a35050565b600073__$99770930083218c0d4904b030f3e99faf3$__63cd9e72e6600260008581526020019081526020016000206040518263ffffffff1660e01b81526004016108849190610ef4565b60206040518083038186803b15801561089c57600080fd5b505af41580156108b0573d6000803e3d6000fd5b505050506040513d601f19601f820116820180604052508101906108d49190610af3565b159050919050565b5080546108e890611065565b6000825580601f106108fa5750610919565b601f01602090049060005260206000209081019061091891906109b5565b5b50565b6040518060200160405280606081525090565b82805461093b90611065565b90600052602060002090601f01602090048101928261095d57600085556109a4565b82601f1061097657805160ff19168380011785556109a4565b828001600101855582156109a4579182015b828111156109a3578251825591602001919060010190610988565b5b5090506109b191906109b5565b5090565b5b808211156109ce5760008160009055506001016109b6565b5090565b60006109e56109e084610f47565b610f16565b9050828152602081018484840111156109fd57600080fd5b610a08848285611023565b509392505050565b600081359050610a1f81611106565b92915050565b600081359050610a348161111d565b92915050565b600081519050610a498161111d565b92915050565b600082601f830112610a6057600080fd5b8135610a708482602086016109d2565b91505092915050565b600081359050610a8881611134565b92915050565b600060208284031215610aa057600080fd5b6000610aae84828501610a10565b91505092915050565b60008060408385031215610aca57600080fd5b6000610ad885828601610a10565b9250506020610ae985828601610a25565b9150509250929050565b600060208284031215610b0557600080fd5b6000610b1384828501610a3a565b91505092915050565b600060208284031215610b2e57600080fd5b6000610b3c84828501610a79565b91505092915050565b60008060408385031215610b5857600080fd5b6000610b6685828601610a79565b925050602083013567ffffffffffffffff811115610b8357600080fd5b610b8f85828601610a4f565b9150509250929050565b610ba281610fdb565b82525050565b6000610bb382610f8c565b610bbd8185610f97565b9350610bcd818560208601611032565b610bd6816110f5565b840191505092915050565b6000610bec82610f8c565b610bf68185610fb9565b9350610c06818560208601611032565b610c0f816110f5565b840191505092915050565b60008154610c2781611065565b610c318186610fca565b94506001821660008114610c4c5760018114610c5e57610c91565b60ff1983168652602086019350610c91565b610c6785610f77565b60005b83811015610c8957815481890152600182019150602081019050610c6a565b808801955050505b50505092915050565b6000610ca7602683610fa8565b91507f4f776e61626c653a206e6577206f776e657220697320746865207a65726f206160008301527f64647265737300000000000000000000000000000000000000000000000000006020830152604082019050919050565b6000610d0d601183610fa8565b91507f4e616d65206973206e6f742076616c69640000000000000000000000000000006000830152602082019050919050565b6000610d4d601883610fa8565b91507f6f6e6c79206d6f64756c65732063616e20646f207468697300000000000000006000830152602082019050919050565b6000610d8d602083610fa8565b91507f4f776e61626c653a2063616c6c6572206973206e6f7420746865206f776e65726000830152602082019050919050565b60006020830160008301518482036000860152610ddd8282610ba8565b9150508091505092915050565b60006020830160008084018583036000870152610e078382610c1a565b925050819250505092915050565b6000602082019050610e2a6000830184610b99565b92915050565b60006020820190508181036000830152610e4a8184610be1565b905092915050565b60006020820190508181036000830152610e6b81610c9a565b9050919050565b60006020820190508181036000830152610e8b81610d00565b9050919050565b60006020820190508181036000830152610eab81610d40565b9050919050565b60006020820190508181036000830152610ecb81610d80565b9050919050565b60006020820190508181036000830152610eec8184610dc0565b905092915050565b60006020820190508181036000830152610f0e8184610dea565b905092915050565b6000604051905081810181811067ffffffffffffffff82111715610f3d57610f3c6110c6565b5b8060405250919050565b600067ffffffffffffffff821115610f6257610f616110c6565b5b601f19601f8301169050602081019050919050565b60008190508160005260206000209050919050565b600081519050919050565b600082825260208201905092915050565b600082825260208201905092915050565b600082825260208201905092915050565b600082825260208201905092915050565b6000610fe682610ff9565b9050919050565b60008115159050919050565b600073ffffffffffffffffffffffffffffffffffffffff82169050919050565b6000819050919050565b82818337600083830152505050565b60005b83811015611050578082015181840152602081019050611035565b8381111561105f576000848401525b50505050565b6000600282049050600182168061107d57607f821691505b6020821081141561109157611090611097565b5b50919050565b7f4e487b7100000000000000000000000000000000000000000000000000000000600052602260045260246000fd5b7f4e487b7100000000000000000000000000000000000000000000000000000000600052604160045260246000fd5b6000601f19601f8301169050919050565b61110f81610fdb565b811461111a57600080fd5b50565b61112681610fed565b811461113157600080fd5b50565b61113d81611019565b811461114857600080fd5b5056fea26469706673582212204582057f8cfa935483b55d55c57317df1bad7d8982b7ab0630e83bfa05e30ed464736f6c63430008000033",
  "linkReferences": {
    "contracts/lib/structs/VisualsLib.sol": {
      "VisualsLib": [
        {
          "length": 20,
          "start": 1310
        },
        {
          "length": 20,
          "start": 2378
        }
      ]
    }
  },
  "deployedLinkReferences": {
    "contracts/lib/structs/VisualsLib.sol": {
      "VisualsLib": [
        {
          "length": 20,
          "start": 1041
        },
        {
          "length": 20,
          "start": 2109
        }
      ]
    }
  }
}