{
  "_format": "hh-sol-artifact-1",
  "contractName": "WarriorProxy",
  "sourceName": "contracts/WarriorProxy.sol",
  "abi": [
    {
      "inputs": [
        {
          "internalType": "address",
          "name": "warriorsAddr",
          "type": "address"
        },
        {
          "internalType": "address",
          "name": "treasuryAddr",
          "type": "address"
        },
        {
          "internalType": "address",
          "name": "factoryAddr",
          "type": "address"
        },
        {
          "internalType": "address",
          "name": "skillsAddr",
          "type": "address"
        },
        {
          "internalType": "address",
          "name": "statsAddr",
          "type": "address"
        },
        {
          "internalType": "address",
          "name": "visualsAddr",
          "type": "address"
        }
      ],
      "stateMutability": "nonpayable",
      "type": "constructor"
    },
    {
      "anonymous": false,
      "inputs": [
        {
          "indexed": true,
          "internalType": "address",
          "name": "previousOwner",
          "type": "address"
        },
        {
          "indexed": true,
          "internalType": "address",
          "name": "newOwner",
          "type": "address"
        }
      ],
      "name": "OwnershipTransferred",
      "type": "event"
    },
    {
      "anonymous": false,
      "inputs": [
        {
          "components": [
            {
              "internalType": "address",
              "name": "owner",
              "type": "address"
            },
            {
              "internalType": "uint256",
              "name": "experience",
              "type": "uint256"
            },
            {
              "internalType": "uint256",
              "name": "level",
              "type": "uint256"
            },
            {
              "internalType": "uint256",
              "name": "health",
              "type": "uint256"
            },
            {
              "components": [
                {
                  "internalType": "uint256",
                  "name": "pointsSpend",
                  "type": "uint256"
                },
                {
                  "internalType": "uint256",
                  "name": "attack",
                  "type": "uint256"
                },
                {
                  "internalType": "uint256",
                  "name": "defense",
                  "type": "uint256"
                },
                {
                  "internalType": "uint256",
                  "name": "stamina",
                  "type": "uint256"
                }
              ],
              "internalType": "struct SkillsLib.Skills",
              "name": "skills",
              "type": "tuple"
            },
            {
              "components": [
                {
                  "internalType": "uint256",
                  "name": "battlesWon",
                  "type": "uint256"
                },
                {
                  "internalType": "uint256",
                  "name": "battlesLost",
                  "type": "uint256"
                },
                {
                  "internalType": "bool",
                  "name": "_exists",
                  "type": "bool"
                }
              ],
              "internalType": "struct StatsLib.Stats",
              "name": "stats",
              "type": "tuple"
            },
            {
              "components": [
                {
                  "internalType": "string",
                  "name": "name",
                  "type": "string"
                }
              ],
              "internalType": "struct VisualsLib.Visuals",
              "name": "visuals",
              "type": "tuple"
            }
          ],
          "indexed": false,
          "internalType": "struct WarriorProxy.Warrior",
          "name": "_warrior",
          "type": "tuple"
        }
      ],
      "name": "WarriorFetched",
      "type": "event"
    },
    {
      "inputs": [],
      "name": "factory",
      "outputs": [
        {
          "internalType": "contract WarriorFactory",
          "name": "",
          "type": "address"
        }
      ],
      "stateMutability": "view",
      "type": "function"
    },
    {
      "inputs": [],
      "name": "owner",
      "outputs": [
        {
          "internalType": "address",
          "name": "",
          "type": "address"
        }
      ],
      "stateMutability": "view",
      "type": "function"
    },
    {
      "inputs": [],
      "name": "renounceOwnership",
      "outputs": [],
      "stateMutability": "nonpayable",
      "type": "function"
    },
    {
      "inputs": [],
      "name": "skills",
      "outputs": [
        {
          "internalType": "contract WarriorSkills",
          "name": "",
          "type": "address"
        }
      ],
      "stateMutability": "view",
      "type": "function"
    },
    {
      "inputs": [],
      "name": "stats",
      "outputs": [
        {
          "internalType": "contract WarriorStats",
          "name": "",
          "type": "address"
        }
      ],
      "stateMutability": "view",
      "type": "function"
    },
    {
      "inputs": [
        {
          "internalType": "address",
          "name": "newOwner",
          "type": "address"
        }
      ],
      "name": "transferOwnership",
      "outputs": [],
      "stateMutability": "nonpayable",
      "type": "function"
    },
    {
      "inputs": [],
      "name": "treasury",
      "outputs": [
        {
          "internalType": "contract Treasury",
          "name": "",
          "type": "address"
        }
      ],
      "stateMutability": "view",
      "type": "function"
    },
    {
      "inputs": [],
      "name": "visuals",
      "outputs": [
        {
          "internalType": "contract WarriorVisuals",
          "name": "",
          "type": "address"
        }
      ],
      "stateMutability": "view",
      "type": "function"
    },
    {
      "inputs": [
        {
          "internalType": "uint256",
          "name": "id",
          "type": "uint256"
        }
      ],
      "name": "warriorData",
      "outputs": [
        {
          "internalType": "address",
          "name": "",
          "type": "address"
        },
        {
          "internalType": "uint256",
          "name": "",
          "type": "uint256"
        },
        {
          "internalType": "uint256",
          "name": "",
          "type": "uint256"
        },
        {
          "internalType": "uint256",
          "name": "",
          "type": "uint256"
        },
        {
          "internalType": "uint256",
          "name": "",
          "type": "uint256"
        },
        {
          "internalType": "uint256",
          "name": "",
          "type": "uint256"
        },
        {
          "internalType": "uint256",
          "name": "",
          "type": "uint256"
        },
        {
          "internalType": "uint256",
          "name": "",
          "type": "uint256"
        }
      ],
      "stateMutability": "view",
      "type": "function"
    },
    {
      "inputs": [],
      "name": "warriors",
      "outputs": [
        {
          "internalType": "contract CronosWarriors",
          "name": "",
          "type": "address"
        }
      ],
      "stateMutability": "view",
      "type": "function"
    }
  ],
  "bytecode": "0x60806040523480156200001157600080fd5b50604051620013d3380380620013d38339818101604052810190620000379190620002cc565b620000576200004b620001e960201b60201c565b620001f160201b60201c565b85600160006101000a81548173ffffffffffffffffffffffffffffffffffffffff021916908373ffffffffffffffffffffffffffffffffffffffff16021790555084600260006101000a81548173ffffffffffffffffffffffffffffffffffffffff021916908373ffffffffffffffffffffffffffffffffffffffff16021790555083600360006101000a81548173ffffffffffffffffffffffffffffffffffffffff021916908373ffffffffffffffffffffffffffffffffffffffff16021790555082600460006101000a81548173ffffffffffffffffffffffffffffffffffffffff021916908373ffffffffffffffffffffffffffffffffffffffff16021790555081600560006101000a81548173ffffffffffffffffffffffffffffffffffffffff021916908373ffffffffffffffffffffffffffffffffffffffff16021790555080600660006101000a81548173ffffffffffffffffffffffffffffffffffffffff021916908373ffffffffffffffffffffffffffffffffffffffff160217905550505050505050620003b0565b600033905090565b60008060009054906101000a900473ffffffffffffffffffffffffffffffffffffffff169050816000806101000a81548173ffffffffffffffffffffffffffffffffffffffff021916908373ffffffffffffffffffffffffffffffffffffffff1602179055508173ffffffffffffffffffffffffffffffffffffffff168173ffffffffffffffffffffffffffffffffffffffff167f8be0079c531659141344cd1fd0a4f28419497f9722a3daafe3b4186f6b6457e060405160405180910390a35050565b600081519050620002c68162000396565b92915050565b60008060008060008060c08789031215620002e657600080fd5b6000620002f689828a01620002b5565b96505060206200030989828a01620002b5565b95505060406200031c89828a01620002b5565b94505060606200032f89828a01620002b5565b93505060806200034289828a01620002b5565b92505060a06200035589828a01620002b5565b9150509295509295509295565b60006200036f8262000376565b9050919050565b600073ffffffffffffffffffffffffffffffffffffffff82169050919050565b620003a18162000362565b8114620003ad57600080fd5b50565b61101380620003c06000396000f3fe608060405234801561001057600080fd5b506004361061009e5760003560e01c80638da5cb5b116100665780638da5cb5b14610125578063a39bf0cd14610143578063c45a01551461017a578063d80528ae14610198578063f2fde38b146101b65761009e565b80633b7fdb73146100a35780635d405330146100c157806361d027b3146100df578063715018a6146100fd5780637737893a14610107575b600080fd5b6100ab6101d2565b6040516100b89190610d5b565b60405180910390f35b6100c96101f8565b6040516100d69190610d91565b60405180910390f35b6100e761021e565b6040516100f49190610d25565b60405180910390f35b610105610244565b005b61010f6102cc565b60405161011c9190610d0a565b60405180910390f35b61012d6102f2565b60405161013a9190610c71565b60405180910390f35b61015d60048036038101906101589190610b01565b61031b565b604051610171989796959493929190610c8c565b60405180910390f35b6101826106e7565b60405161018f9190610d40565b60405180910390f35b6101a061070d565b6040516101ad9190610d76565b60405180910390f35b6101d060048036038101906101cb9190610a34565b610733565b005b600460009054906101000a900473ffffffffffffffffffffffffffffffffffffffff1681565b600660009054906101000a900473ffffffffffffffffffffffffffffffffffffffff1681565b600260009054906101000a900473ffffffffffffffffffffffffffffffffffffffff1681565b61024c61082b565b73ffffffffffffffffffffffffffffffffffffffff1661026a6102f2565b73ffffffffffffffffffffffffffffffffffffffff16146102c0576040517f08c379a00000000000000000000000000000000000000000000000000000000081526004016102b790610dcc565b60405180910390fd5b6102ca6000610833565b565b600160009054906101000a900473ffffffffffffffffffffffffffffffffffffffff1681565b60008060009054906101000a900473ffffffffffffffffffffffffffffffffffffffff16905090565b600080600080600080600080600160009054906101000a900473ffffffffffffffffffffffffffffffffffffffff1673ffffffffffffffffffffffffffffffffffffffff16634f558e798a6040518263ffffffff1660e01b81526004016103829190610dec565b60206040518083038186803b15801561039a57600080fd5b505afa1580156103ae573d6000803e3d6000fd5b505050506040513d601f19601f820116820180604052508101906103d29190610a86565b6103f757600080600080600080600080975097509750975097509750975097506106dc565b6000600460009054906101000a900473ffffffffffffffffffffffffffffffffffffffff1673ffffffffffffffffffffffffffffffffffffffff166350d15fbe8b6040518263ffffffff1660e01b81526004016104549190610dec565b60806040518083038186803b15801561046c57600080fd5b505afa158015610480573d6000803e3d6000fd5b505050506040513d601f19601f820116820180604052508101906104a49190610aaf565b90506000600560009054906101000a900473ffffffffffffffffffffffffffffffffffffffff1673ffffffffffffffffffffffffffffffffffffffff1663ad217ae58c6040518263ffffffff1660e01b81526004016105039190610dec565b60606040518083038186803b15801561051b57600080fd5b505afa15801561052f573d6000803e3d6000fd5b505050506040513d601f19601f820116820180604052508101906105539190610ad8565b9050600160009054906101000a900473ffffffffffffffffffffffffffffffffffffffff1673ffffffffffffffffffffffffffffffffffffffff16636352211e8c6040518263ffffffff1660e01b81526004016105b09190610dec565b60206040518083038186803b1580156105c857600080fd5b505afa1580156105dc573d6000803e3d6000fd5b505050506040513d601f19601f820116820180604052508101906106009190610a5d565b600260009054906101000a900473ffffffffffffffffffffffffffffffffffffffff1673ffffffffffffffffffffffffffffffffffffffff1663d3e971658d6040518263ffffffff1660e01b815260040161065b9190610dec565b60206040518083038186803b15801561067357600080fd5b505afa158015610687573d6000803e3d6000fd5b505050506040513d601f19601f820116820180604052508101906106ab9190610b2a565b8360200151846040015185606001518660000151866000015187602001519950995099509950995099509950995050505b919395975091939597565b600360009054906101000a900473ffffffffffffffffffffffffffffffffffffffff1681565b600560009054906101000a900473ffffffffffffffffffffffffffffffffffffffff1681565b61073b61082b565b73ffffffffffffffffffffffffffffffffffffffff166107596102f2565b73ffffffffffffffffffffffffffffffffffffffff16146107af576040517f08c379a00000000000000000000000000000000000000000000000000000000081526004016107a690610dcc565b60405180910390fd5b600073ffffffffffffffffffffffffffffffffffffffff168173ffffffffffffffffffffffffffffffffffffffff16141561081f576040517f08c379a000000000000000000000000000000000000000000000000000000000815260040161081690610dac565b60405180910390fd5b61082881610833565b50565b600033905090565b60008060009054906101000a900473ffffffffffffffffffffffffffffffffffffffff169050816000806101000a81548173ffffffffffffffffffffffffffffffffffffffff021916908373ffffffffffffffffffffffffffffffffffffffff1602179055508173ffffffffffffffffffffffffffffffffffffffff168173ffffffffffffffffffffffffffffffffffffffff167f8be0079c531659141344cd1fd0a4f28419497f9722a3daafe3b4186f6b6457e060405160405180910390a35050565b60008135905061090681610f98565b92915050565b60008151905061091b81610f98565b92915050565b60008151905061093081610faf565b92915050565b60006080828403121561094857600080fd5b6109526080610e07565b9050600061096284828501610a1f565b600083015250602061097684828501610a1f565b602083015250604061098a84828501610a1f565b604083015250606061099e84828501610a1f565b60608301525092915050565b6000606082840312156109bc57600080fd5b6109c66060610e07565b905060006109d684828501610a1f565b60008301525060206109ea84828501610a1f565b60208301525060406109fe84828501610921565b60408301525092915050565b600081359050610a1981610fc6565b92915050565b600081519050610a2e81610fc6565b92915050565b600060208284031215610a4657600080fd5b6000610a54848285016108f7565b91505092915050565b600060208284031215610a6f57600080fd5b6000610a7d8482850161090c565b91505092915050565b600060208284031215610a9857600080fd5b6000610aa684828501610921565b91505092915050565b600060808284031215610ac157600080fd5b6000610acf84828501610936565b91505092915050565b600060608284031215610aea57600080fd5b6000610af8848285016109aa565b91505092915050565b600060208284031215610b1357600080fd5b6000610b2184828501610a0a565b91505092915050565b600060208284031215610b3c57600080fd5b6000610b4a84828501610a1f565b91505092915050565b610b5c81610e49565b82525050565b610b6b81610e91565b82525050565b610b7a81610eb5565b82525050565b610b8981610ed9565b82525050565b610b9881610efd565b82525050565b610ba781610f21565b82525050565b610bb681610f45565b82525050565b6000610bc9602683610e38565b91507f4f776e61626c653a206e6577206f776e657220697320746865207a65726f206160008301527f64647265737300000000000000000000000000000000000000000000000000006020830152604082019050919050565b6000610c2f602083610e38565b91507f4f776e61626c653a2063616c6c6572206973206e6f7420746865206f776e65726000830152602082019050919050565b610c6b81610e87565b82525050565b6000602082019050610c866000830184610b53565b92915050565b600061010082019050610ca2600083018b610b53565b610caf602083018a610c62565b610cbc6040830189610c62565b610cc96060830188610c62565b610cd66080830187610c62565b610ce360a0830186610c62565b610cf060c0830185610c62565b610cfd60e0830184610c62565b9998505050505050505050565b6000602082019050610d1f6000830184610b62565b92915050565b6000602082019050610d3a6000830184610b71565b92915050565b6000602082019050610d556000830184610b80565b92915050565b6000602082019050610d706000830184610b8f565b92915050565b6000602082019050610d8b6000830184610b9e565b92915050565b6000602082019050610da66000830184610bad565b92915050565b60006020820190508181036000830152610dc581610bbc565b9050919050565b60006020820190508181036000830152610de581610c22565b9050919050565b6000602082019050610e016000830184610c62565b92915050565b6000604051905081810181811067ffffffffffffffff82111715610e2e57610e2d610f69565b5b8060405250919050565b600082825260208201905092915050565b6000610e5482610e67565b9050919050565b60008115159050919050565b600073ffffffffffffffffffffffffffffffffffffffff82169050919050565b6000819050919050565b6000610e9c82610ea3565b9050919050565b6000610eae82610e67565b9050919050565b6000610ec082610ec7565b9050919050565b6000610ed282610e67565b9050919050565b6000610ee482610eeb565b9050919050565b6000610ef682610e67565b9050919050565b6000610f0882610f0f565b9050919050565b6000610f1a82610e67565b9050919050565b6000610f2c82610f33565b9050919050565b6000610f3e82610e67565b9050919050565b6000610f5082610f57565b9050919050565b6000610f6282610e67565b9050919050565b7f4e487b7100000000000000000000000000000000000000000000000000000000600052604160045260246000fd5b610fa181610e49565b8114610fac57600080fd5b50565b610fb881610e5b565b8114610fc357600080fd5b50565b610fcf81610e87565b8114610fda57600080fd5b5056fea2646970667358221220e16068ba8d11653283127e17f107a934dc54a2079d22d4715596dbe1113f8cf264736f6c63430008000033",
  "linkReferences": {},
  "deployedLinkReferences": {}
}