{
  "_format": "hh-sol-artifact-1",
  "contractName": "WarriorVisuals",
  "sourceName": "contracts/WarriorVisuals.sol",
  "abi": [
    {
      "inputs": [],
      "stateMutability": "nonpayable",
      "type": "constructor"
    },
    {
      "anonymous": false,
      "inputs": [
        {
          "indexed": true,
          "internalType": "bytes32",
          "name": "role",
          "type": "bytes32"
        },
        {
          "indexed": true,
          "internalType": "bytes32",
          "name": "previousAdminRole",
          "type": "bytes32"
        },
        {
          "indexed": true,
          "internalType": "bytes32",
          "name": "newAdminRole",
          "type": "bytes32"
        }
      ],
      "name": "RoleAdminChanged",
      "type": "event"
    },
    {
      "anonymous": false,
      "inputs": [
        {
          "indexed": true,
          "internalType": "bytes32",
          "name": "role",
          "type": "bytes32"
        },
        {
          "indexed": true,
          "internalType": "address",
          "name": "account",
          "type": "address"
        },
        {
          "indexed": true,
          "internalType": "address",
          "name": "sender",
          "type": "address"
        }
      ],
      "name": "RoleGranted",
      "type": "event"
    },
    {
      "anonymous": false,
      "inputs": [
        {
          "indexed": true,
          "internalType": "bytes32",
          "name": "role",
          "type": "bytes32"
        },
        {
          "indexed": true,
          "internalType": "address",
          "name": "account",
          "type": "address"
        },
        {
          "indexed": true,
          "internalType": "address",
          "name": "sender",
          "type": "address"
        }
      ],
      "name": "RoleRevoked",
      "type": "event"
    },
    {
      "inputs": [],
      "name": "DEFAULT_ADMIN_ROLE",
      "outputs": [
        {
          "internalType": "bytes32",
          "name": "",
          "type": "bytes32"
        }
      ],
      "stateMutability": "view",
      "type": "function"
    },
    {
      "inputs": [],
      "name": "MINTER_ROLE",
      "outputs": [
        {
          "internalType": "bytes32",
          "name": "",
          "type": "bytes32"
        }
      ],
      "stateMutability": "view",
      "type": "function"
    },
    {
      "inputs": [
        {
          "internalType": "uint256",
          "name": "id",
          "type": "uint256"
        }
      ],
      "name": "burn",
      "outputs": [],
      "stateMutability": "nonpayable",
      "type": "function"
    },
    {
      "inputs": [
        {
          "internalType": "bytes32",
          "name": "role",
          "type": "bytes32"
        }
      ],
      "name": "getRoleAdmin",
      "outputs": [
        {
          "internalType": "bytes32",
          "name": "",
          "type": "bytes32"
        }
      ],
      "stateMutability": "view",
      "type": "function"
    },
    {
      "inputs": [
        {
          "internalType": "bytes32",
          "name": "role",
          "type": "bytes32"
        },
        {
          "internalType": "address",
          "name": "account",
          "type": "address"
        }
      ],
      "name": "grantRole",
      "outputs": [],
      "stateMutability": "nonpayable",
      "type": "function"
    },
    {
      "inputs": [
        {
          "internalType": "bytes32",
          "name": "role",
          "type": "bytes32"
        },
        {
          "internalType": "address",
          "name": "account",
          "type": "address"
        }
      ],
      "name": "hasRole",
      "outputs": [
        {
          "internalType": "bool",
          "name": "",
          "type": "bool"
        }
      ],
      "stateMutability": "view",
      "type": "function"
    },
    {
      "inputs": [
        {
          "internalType": "uint256",
          "name": "id",
          "type": "uint256"
        },
        {
          "internalType": "string",
          "name": "name",
          "type": "string"
        }
      ],
      "name": "mint",
      "outputs": [],
      "stateMutability": "nonpayable",
      "type": "function"
    },
    {
      "inputs": [
        {
          "internalType": "bytes32",
          "name": "role",
          "type": "bytes32"
        },
        {
          "internalType": "address",
          "name": "account",
          "type": "address"
        }
      ],
      "name": "renounceRole",
      "outputs": [],
      "stateMutability": "nonpayable",
      "type": "function"
    },
    {
      "inputs": [
        {
          "internalType": "bytes32",
          "name": "role",
          "type": "bytes32"
        },
        {
          "internalType": "address",
          "name": "account",
          "type": "address"
        }
      ],
      "name": "revokeRole",
      "outputs": [],
      "stateMutability": "nonpayable",
      "type": "function"
    },
    {
      "inputs": [
        {
          "internalType": "bytes4",
          "name": "interfaceId",
          "type": "bytes4"
        }
      ],
      "name": "supportsInterface",
      "outputs": [
        {
          "internalType": "bool",
          "name": "",
          "type": "bool"
        }
      ],
      "stateMutability": "view",
      "type": "function"
    },
    {
      "inputs": [
        {
          "internalType": "uint256",
          "name": "id",
          "type": "uint256"
        }
      ],
      "name": "visuals",
      "outputs": [
        {
          "components": [
            {
              "internalType": "string",
              "name": "name",
              "type": "string"
            }
          ],
          "internalType": "struct VisualsLib.Visuals",
          "name": "",
          "type": "tuple"
        }
      ],
      "stateMutability": "view",
      "type": "function"
    },
    {
      "inputs": [
        {
          "internalType": "uint256",
          "name": "id",
          "type": "uint256"
        }
      ],
      "name": "warriorName",
      "outputs": [
        {
          "internalType": "string",
          "name": "",
          "type": "string"
        }
      ],
      "stateMutability": "view",
      "type": "function"
    }
  ],
  "bytecode": "0x60806040523480156200001157600080fd5b50620000276000801b336200002d60201b60201c565b620001a6565b6200003f82826200004360201b60201c565b5050565b6200005582826200013460201b60201c565b6200013057600160008084815260200190815260200160002060000160008373ffffffffffffffffffffffffffffffffffffffff1673ffffffffffffffffffffffffffffffffffffffff16815260200190815260200160002060006101000a81548160ff021916908315150217905550620000d56200019e60201b60201c565b73ffffffffffffffffffffffffffffffffffffffff168173ffffffffffffffffffffffffffffffffffffffff16837f2f8788117e7eff1d82e926ec794901d17c78024a50270940304540a733656f0d60405160405180910390a45b5050565b600080600084815260200190815260200160002060000160008373ffffffffffffffffffffffffffffffffffffffff1673ffffffffffffffffffffffffffffffffffffffff16815260200190815260200160002060009054906101000a900460ff16905092915050565b600033905090565b61198b80620001b66000396000f3fe608060405234801561001057600080fd5b50600436106100b45760003560e01c806377097fc81161007157806377097fc81461019d57806377224f18146101b957806391d14854146101e9578063a217fddf14610219578063d539139314610237578063d547741f14610255576100b4565b806301ffc9a7146100b9578063248a9ca3146100e95780632f2ff15d1461011957806336568abe1461013557806342966c68146101515780636b06054c1461016d575b600080fd5b6100d360048036038101906100ce9190611075565b610271565b6040516100e0919061148a565b60405180910390f35b61010360048036038101906100fe9190611010565b6102eb565b60405161011091906114a5565b60405180910390f35b610133600480360381019061012e9190611039565b61030a565b005b61014f600480360381019061014a9190611039565b610333565b005b61016b6004803603810190610166919061109e565b6103b6565b005b6101876004803603810190610182919061109e565b610412565b6040516101949190611564565b60405180910390f35b6101b760048036038101906101b291906110c7565b6104d1565b005b6101d360048036038101906101ce919061109e565b61064d565b6040516101e091906114e2565b60405180910390f35b61020360048036038101906101fe9190611039565b6106f5565b604051610210919061148a565b60405180910390f35b61022161075f565b60405161022e91906114a5565b60405180910390f35b61023f610766565b60405161024c91906114a5565b60405180910390f35b61026f600480360381019061026a9190611039565b61078a565b005b60007f7965db0b000000000000000000000000000000000000000000000000000000007bffffffffffffffffffffffffffffffffffffffffffffffffffffffff1916827bffffffffffffffffffffffffffffffffffffffffffffffffffffffff191614806102e457506102e3826107b3565b5b9050919050565b6000806000838152602001908152602001600020600101549050919050565b610313826102eb565b6103248161031f61081d565b610825565b61032e83836108c2565b505050565b61033b61081d565b73ffffffffffffffffffffffffffffffffffffffff168173ffffffffffffffffffffffffffffffffffffffff16146103a8576040517f08c379a000000000000000000000000000000000000000000000000000000000815260040161039f90611544565b60405180910390fd5b6103b282826109a2565b5050565b7f9f2df0fed2c77648de5860a4cc508cd0818c85b8b8a1ab4ceeef8d981c8956a66103e8816103e361081d565b610825565b600160008381526020019081526020016000206000808201600061040c9190610e20565b50505050565b61041a610e60565b6001600083815260200190815260200160002060405180602001604052908160008201805461044890611812565b80601f016020809104026020016040519081016040528092919081815260200182805461047490611812565b80156104c15780601f10610496576101008083540402835291602001916104c1565b820191906000526020600020905b8154815290600101906020018083116104a457829003601f168201915b5050505050815250509050919050565b7f9f2df0fed2c77648de5860a4cc508cd0818c85b8b8a1ab4ceeef8d981c8956a6610503816104fe61081d565b610825565b61050c83610a83565b15610540577f4e487b7100000000000000000000000000000000000000000000000000000000600052600160045260246000fd5b73__$99770930083218c0d4904b030f3e99faf3$__631e30397f836040518263ffffffff1660e01b815260040161057791906114c0565b60206040518083038186803b15801561058f57600080fd5b505af41580156105a3573d6000803e3d6000fd5b505050506040513d601f19601f820116820180604052508101906105c79190610fe7565b610606576040517f08c379a00000000000000000000000000000000000000000000000000000000081526004016105fd90611524565b60405180910390fd5b604051806020016040528083815250600160008581526020019081526020016000206000820151816000019080519060200190610644929190610e73565b50905050505050565b606060016000838152602001908152602001600020600001805461067090611812565b80601f016020809104026020016040519081016040528092919081815260200182805461069c90611812565b80156106e95780601f106106be576101008083540402835291602001916106e9565b820191906000526020600020905b8154815290600101906020018083116106cc57829003601f168201915b50505050509050919050565b600080600084815260200190815260200160002060000160008373ffffffffffffffffffffffffffffffffffffffff1673ffffffffffffffffffffffffffffffffffffffff16815260200190815260200160002060009054906101000a900460ff16905092915050565b6000801b81565b7f9f2df0fed2c77648de5860a4cc508cd0818c85b8b8a1ab4ceeef8d981c8956a681565b610793826102eb565b6107a48161079f61081d565b610825565b6107ae83836109a2565b505050565b60007f01ffc9a7000000000000000000000000000000000000000000000000000000007bffffffffffffffffffffffffffffffffffffffffffffffffffffffff1916827bffffffffffffffffffffffffffffffffffffffffffffffffffffffff1916149050919050565b600033905090565b61082f82826106f5565b6108be576108548173ffffffffffffffffffffffffffffffffffffffff166014610b26565b6108628360001c6020610b26565b604051602001610873929190611450565b6040516020818303038152906040526040517f08c379a00000000000000000000000000000000000000000000000000000000081526004016108b591906114e2565b60405180910390fd5b5050565b6108cc82826106f5565b61099e57600160008084815260200190815260200160002060000160008373ffffffffffffffffffffffffffffffffffffffff1673ffffffffffffffffffffffffffffffffffffffff16815260200190815260200160002060006101000a81548160ff02191690831515021790555061094361081d565b73ffffffffffffffffffffffffffffffffffffffff168173ffffffffffffffffffffffffffffffffffffffff16837f2f8788117e7eff1d82e926ec794901d17c78024a50270940304540a733656f0d60405160405180910390a45b5050565b6109ac82826106f5565b15610a7f57600080600084815260200190815260200160002060000160008373ffffffffffffffffffffffffffffffffffffffff1673ffffffffffffffffffffffffffffffffffffffff16815260200190815260200160002060006101000a81548160ff021916908315150217905550610a2461081d565b73ffffffffffffffffffffffffffffffffffffffff168173ffffffffffffffffffffffffffffffffffffffff16837ff6391f5c32d9c69d2a47ea670b442974b53935d1edc7fd64eb21e047a839171b60405160405180910390a45b5050565b600073__$99770930083218c0d4904b030f3e99faf3$__63cd9e72e6600160008581526020019081526020016000206040518263ffffffff1660e01b8152600401610ace9190611586565b60206040518083038186803b158015610ae657600080fd5b505af4158015610afa573d6000803e3d6000fd5b505050506040513d601f19601f82011682018060405250810190610b1e9190610fe7565b159050919050565b606060006002836002610b3991906116ce565b610b439190611678565b67ffffffffffffffff811115610b82577f4e487b7100000000000000000000000000000000000000000000000000000000600052604160045260246000fd5b6040519080825280601f01601f191660200182016040528015610bb45781602001600182028036833780820191505090505b5090507f300000000000000000000000000000000000000000000000000000000000000081600081518110610c12577f4e487b7100000000000000000000000000000000000000000000000000000000600052603260045260246000fd5b60200101907effffffffffffffffffffffffffffffffffffffffffffffffffffffffffffff1916908160001a9053507f780000000000000000000000000000000000000000000000000000000000000081600181518110610c9c577f4e487b7100000000000000000000000000000000000000000000000000000000600052603260045260246000fd5b60200101907effffffffffffffffffffffffffffffffffffffffffffffffffffffffffffff1916908160001a90535060006001846002610cdc91906116ce565b610ce69190611678565b90505b6001811115610dd2577f3031323334353637383961626364656600000000000000000000000000000000600f861660108110610d4e577f4e487b7100000000000000000000000000000000000000000000000000000000600052603260045260246000fd5b1a60f81b828281518110610d8b577f4e487b7100000000000000000000000000000000000000000000000000000000600052603260045260246000fd5b60200101907effffffffffffffffffffffffffffffffffffffffffffffffffffffffffffff1916908160001a905350600485901c945080610dcb906117e8565b9050610ce9565b5060008414610e16576040517f08c379a0000000000000000000000000000000000000000000000000000000008152600401610e0d90611504565b60405180910390fd5b8091505092915050565b508054610e2c90611812565b6000825580601f10610e3e5750610e5d565b601f016020900490600052602060002090810190610e5c9190610ef9565b5b50565b6040518060200160405280606081525090565b828054610e7f90611812565b90600052602060002090601f016020900481019282610ea15760008555610ee8565b82601f10610eba57805160ff1916838001178555610ee8565b82800160010185558215610ee8579182015b82811115610ee7578251825591602001919060010190610ecc565b5b509050610ef59190610ef9565b5090565b5b80821115610f12576000816000905550600101610efa565b5090565b6000610f29610f24846115d9565b6115a8565b905082815260208101848484011115610f4157600080fd5b610f4c8482856117a6565b509392505050565b600081359050610f63816118e2565b92915050565b600081519050610f78816118f9565b92915050565b600081359050610f8d81611910565b92915050565b600081359050610fa281611927565b92915050565b600082601f830112610fb957600080fd5b8135610fc9848260208601610f16565b91505092915050565b600081359050610fe18161193e565b92915050565b600060208284031215610ff957600080fd5b600061100784828501610f69565b91505092915050565b60006020828403121561102257600080fd5b600061103084828501610f7e565b91505092915050565b6000806040838503121561104c57600080fd5b600061105a85828601610f7e565b925050602061106b85828601610f54565b9150509250929050565b60006020828403121561108757600080fd5b600061109584828501610f93565b91505092915050565b6000602082840312156110b057600080fd5b60006110be84828501610fd2565b91505092915050565b600080604083850312156110da57600080fd5b60006110e885828601610fd2565b925050602083013567ffffffffffffffff81111561110557600080fd5b61111185828601610fa8565b9150509250929050565b6111248161173a565b82525050565b61113381611746565b82525050565b60006111448261161e565b61114e8185611629565b935061115e8185602086016117b5565b611167816118d1565b840191505092915050565b600061117d8261161e565b611187818561163a565b93506111978185602086016117b5565b6111a0816118d1565b840191505092915050565b60006111b68261161e565b6111c0818561164b565b93506111d08185602086016117b5565b6111d9816118d1565b840191505092915050565b60006111ef8261161e565b6111f9818561166d565b93506112098185602086016117b5565b80840191505092915050565b6000815461122281611812565b61122c818661165c565b9450600182166000811461124757600181146112595761128c565b60ff198316865260208601935061128c565b61126285611609565b60005b8381101561128457815481890152600182019150602081019050611265565b808801955050505b50505092915050565b60006112a260208361163a565b91507f537472696e67733a20686578206c656e67746820696e73756666696369656e746000830152602082019050919050565b60006112e260118361163a565b91507f4e616d65206973206e6f742076616c69640000000000000000000000000000006000830152602082019050919050565b600061132260178361166d565b91507f416363657373436f6e74726f6c3a206163636f756e74200000000000000000006000830152601782019050919050565b600061136260118361166d565b91507f206973206d697373696e6720726f6c65200000000000000000000000000000006000830152601182019050919050565b60006113a2602f8361163a565b91507f416363657373436f6e74726f6c3a2063616e206f6e6c792072656e6f756e636560008301527f20726f6c657320666f722073656c6600000000000000000000000000000000006020830152604082019050919050565b600060208301600083015184820360008601526114188282611139565b9150508091505092915050565b600060208301600080840185830360008701526114428382611215565b925050819250505092915050565b600061145b82611315565b915061146782856111e4565b915061147282611355565b915061147e82846111e4565b91508190509392505050565b600060208201905061149f600083018461111b565b92915050565b60006020820190506114ba600083018461112a565b92915050565b600060208201905081810360008301526114da81846111ab565b905092915050565b600060208201905081810360008301526114fc8184611172565b905092915050565b6000602082019050818103600083015261151d81611295565b9050919050565b6000602082019050818103600083015261153d816112d5565b9050919050565b6000602082019050818103600083015261155d81611395565b9050919050565b6000602082019050818103600083015261157e81846113fb565b905092915050565b600060208201905081810360008301526115a08184611425565b905092915050565b6000604051905081810181811067ffffffffffffffff821117156115cf576115ce6118a2565b5b8060405250919050565b600067ffffffffffffffff8211156115f4576115f36118a2565b5b601f19601f8301169050602081019050919050565b60008190508160005260206000209050919050565b600081519050919050565b600082825260208201905092915050565b600082825260208201905092915050565b600082825260208201905092915050565b600082825260208201905092915050565b600081905092915050565b60006116838261179c565b915061168e8361179c565b9250827fffffffffffffffffffffffffffffffffffffffffffffffffffffffffffffffff038211156116c3576116c2611844565b5b828201905092915050565b60006116d98261179c565b91506116e48361179c565b9250817fffffffffffffffffffffffffffffffffffffffffffffffffffffffffffffffff048311821515161561171d5761171c611844565b5b828202905092915050565b60006117338261177c565b9050919050565b60008115159050919050565b6000819050919050565b60007fffffffff0000000000000000000000000000000000000000000000000000000082169050919050565b600073ffffffffffffffffffffffffffffffffffffffff82169050919050565b6000819050919050565b82818337600083830152505050565b60005b838110156117d35780820151818401526020810190506117b8565b838111156117e2576000848401525b50505050565b60006117f38261179c565b9150600082141561180757611806611844565b5b600182039050919050565b6000600282049050600182168061182a57607f821691505b6020821081141561183e5761183d611873565b5b50919050565b7f4e487b7100000000000000000000000000000000000000000000000000000000600052601160045260246000fd5b7f4e487b7100000000000000000000000000000000000000000000000000000000600052602260045260246000fd5b7f4e487b7100000000000000000000000000000000000000000000000000000000600052604160045260246000fd5b6000601f19601f8301169050919050565b6118eb81611728565b81146118f657600080fd5b50565b6119028161173a565b811461190d57600080fd5b50565b61191981611746565b811461192457600080fd5b50565b61193081611750565b811461193b57600080fd5b50565b6119478161179c565b811461195257600080fd5b5056fea26469706673582212207212bae92148637d67ef6b0b5915ed995c8c8c28dd179c3ec49c65b5e5699b0e64736f6c63430008000033",
  "linkReferences": {
    "contracts/lib/structs/VisualsLib.sol": {
      "VisualsLib": [
        {
          "length": 20,
          "start": 1784
        },
        {
          "length": 20,
          "start": 3133
        }
      ]
    }
  },
  "deployedLinkReferences": {
    "contracts/lib/structs/VisualsLib.sol": {
      "VisualsLib": [
        {
          "length": 20,
          "start": 1346
        },
        {
          "length": 20,
          "start": 2695
        }
      ]
    }
  }
}